{
  "_format": "hh-sol-artifact-1",
  "contractName": "DlpManager",
  "sourceName": "contracts/core/DlpManager.sol",
  "abi": [
    {
      "inputs": [
        {
          "internalType": "address",
          "name": "_vault",
          "type": "address"
        },
        {
          "internalType": "address",
          "name": "_usdg",
          "type": "address"
        },
        {
          "internalType": "address",
          "name": "_dlp",
          "type": "address"
        },
        {
          "internalType": "address",
          "name": "_shortsTracker",
          "type": "address"
        },
        {
          "internalType": "uint256",
          "name": "_cooldownDuration",
          "type": "uint256"
        }
      ],
      "stateMutability": "nonpayable",
      "type": "constructor"
    },
    {
      "inputs": [
        {
          "internalType": "address",
          "name": "violator",
          "type": "address"
        },
        {
          "internalType": "string",
          "name": "check",
          "type": "string"
        }
      ],
      "name": "PermissionDenied",
      "type": "error"
    },
    {
      "inputs": [],
      "name": "ReentrantCall",
      "type": "error"
    },
    {
      "anonymous": false,
      "inputs": [
        {
          "indexed": false,
          "internalType": "address",
          "name": "account",
          "type": "address"
        },
        {
          "indexed": false,
          "internalType": "address",
          "name": "token",
          "type": "address"
        },
        {
          "indexed": false,
          "internalType": "uint256",
          "name": "amount",
          "type": "uint256"
        },
        {
          "indexed": false,
          "internalType": "uint256",
          "name": "aumInUsdg",
          "type": "uint256"
        },
        {
          "indexed": false,
          "internalType": "uint256",
          "name": "dlpSupply",
          "type": "uint256"
        },
        {
          "indexed": false,
          "internalType": "uint256",
          "name": "usdgAmount",
          "type": "uint256"
        },
        {
          "indexed": false,
          "internalType": "uint256",
          "name": "mintAmount",
          "type": "uint256"
        }
      ],
      "name": "AddLiquidity",
      "type": "event"
    },
    {
      "anonymous": false,
      "inputs": [
        {
          "indexed": false,
          "internalType": "address",
          "name": "account",
          "type": "address"
        },
        {
          "indexed": false,
          "internalType": "address",
          "name": "token",
          "type": "address"
        },
        {
          "indexed": false,
          "internalType": "uint256",
          "name": "dlpAmount",
          "type": "uint256"
        },
        {
          "indexed": false,
          "internalType": "uint256",
          "name": "aumInUsdg",
          "type": "uint256"
        },
        {
          "indexed": false,
          "internalType": "uint256",
          "name": "dlpSupply",
          "type": "uint256"
        },
        {
          "indexed": false,
          "internalType": "uint256",
          "name": "usdgAmount",
          "type": "uint256"
        },
        {
          "indexed": false,
          "internalType": "uint256",
          "name": "amountOut",
          "type": "uint256"
        }
      ],
      "name": "RemoveLiquidity",
      "type": "event"
    },
    {
      "inputs": [],
      "name": "BASIS_POINTS_DIVISOR",
      "outputs": [
        {
          "internalType": "uint256",
          "name": "",
          "type": "uint256"
        }
      ],
      "stateMutability": "view",
      "type": "function"
    },
    {
      "inputs": [],
      "name": "DLP_PRECISION",
      "outputs": [
        {
          "internalType": "uint256",
          "name": "",
          "type": "uint256"
        }
      ],
      "stateMutability": "view",
      "type": "function"
    },
    {
      "inputs": [],
      "name": "MAX_COOLDOWN_DURATION",
      "outputs": [
        {
          "internalType": "uint256",
          "name": "",
          "type": "uint256"
        }
      ],
      "stateMutability": "view",
      "type": "function"
    },
    {
      "inputs": [],
      "name": "PRICE_PRECISION",
      "outputs": [
        {
          "internalType": "uint256",
          "name": "",
          "type": "uint256"
        }
      ],
      "stateMutability": "view",
      "type": "function"
    },
    {
      "inputs": [],
      "name": "USDG_DECIMALS",
      "outputs": [
        {
          "internalType": "uint256",
          "name": "",
          "type": "uint256"
        }
      ],
      "stateMutability": "view",
      "type": "function"
    },
    {
      "inputs": [
        {
          "internalType": "address",
          "name": "_token",
          "type": "address"
        },
        {
          "internalType": "uint256",
          "name": "_amount",
          "type": "uint256"
        },
        {
          "internalType": "uint256",
          "name": "_minUsdg",
          "type": "uint256"
        },
        {
          "internalType": "uint256",
          "name": "_minDlp",
          "type": "uint256"
        }
      ],
      "name": "addLiquidity",
      "outputs": [
        {
          "internalType": "uint256",
          "name": "",
          "type": "uint256"
        }
      ],
      "stateMutability": "nonpayable",
      "type": "function"
    },
    {
      "inputs": [
        {
          "internalType": "address",
          "name": "_fundingAccount",
          "type": "address"
        },
        {
          "internalType": "address",
          "name": "_account",
          "type": "address"
        },
        {
          "internalType": "address",
          "name": "_token",
          "type": "address"
        },
        {
          "internalType": "uint256",
          "name": "_amount",
          "type": "uint256"
        },
        {
          "internalType": "uint256",
          "name": "_minUsdg",
          "type": "uint256"
        },
        {
          "internalType": "uint256",
          "name": "_minDlp",
          "type": "uint256"
        }
      ],
      "name": "addLiquidityForAccount",
      "outputs": [
        {
          "internalType": "uint256",
          "name": "",
          "type": "uint256"
        }
      ],
      "stateMutability": "nonpayable",
      "type": "function"
    },
    {
      "inputs": [],
      "name": "aumAddition",
      "outputs": [
        {
          "internalType": "uint256",
          "name": "",
          "type": "uint256"
        }
      ],
      "stateMutability": "view",
      "type": "function"
    },
    {
      "inputs": [],
      "name": "aumDeduction",
      "outputs": [
        {
          "internalType": "uint256",
          "name": "",
          "type": "uint256"
        }
      ],
      "stateMutability": "view",
      "type": "function"
    },
    {
      "inputs": [],
      "name": "cooldownDuration",
      "outputs": [
        {
          "internalType": "uint256",
          "name": "",
          "type": "uint256"
        }
      ],
      "stateMutability": "view",
      "type": "function"
    },
    {
      "inputs": [],
      "name": "dlp",
      "outputs": [
        {
          "internalType": "address",
          "name": "",
          "type": "address"
        }
      ],
      "stateMutability": "view",
      "type": "function"
    },
    {
      "inputs": [
        {
          "internalType": "bool",
          "name": "maximise",
          "type": "bool"
        }
      ],
      "name": "getAum",
      "outputs": [
        {
          "internalType": "uint256",
          "name": "",
          "type": "uint256"
        }
      ],
      "stateMutability": "view",
      "type": "function"
    },
    {
      "inputs": [
        {
          "internalType": "bool",
          "name": "maximise",
          "type": "bool"
        }
      ],
      "name": "getAumInUsdg",
      "outputs": [
        {
          "internalType": "uint256",
          "name": "",
          "type": "uint256"
        }
      ],
      "stateMutability": "view",
      "type": "function"
    },
    {
      "inputs": [],
      "name": "getAums",
      "outputs": [
        {
          "internalType": "uint256[]",
          "name": "",
          "type": "uint256[]"
        }
      ],
      "stateMutability": "view",
      "type": "function"
    },
    {
      "inputs": [
        {
          "internalType": "address",
          "name": "_token",
          "type": "address"
        }
      ],
      "name": "getGlobalShortAveragePrice",
      "outputs": [
        {
          "internalType": "uint256",
          "name": "",
          "type": "uint256"
        }
      ],
      "stateMutability": "view",
      "type": "function"
    },
    {
      "inputs": [
        {
          "internalType": "address",
          "name": "_token",
          "type": "address"
        },
        {
          "internalType": "uint256",
          "name": "_price",
          "type": "uint256"
        },
        {
          "internalType": "uint256",
          "name": "_size",
          "type": "uint256"
        }
      ],
      "name": "getGlobalShortDelta",
      "outputs": [
        {
          "internalType": "uint256",
          "name": "",
          "type": "uint256"
        },
        {
          "internalType": "bool",
          "name": "",
          "type": "bool"
        }
      ],
      "stateMutability": "view",
      "type": "function"
    },
    {
      "inputs": [
        {
          "internalType": "bool",
          "name": "_maximise",
          "type": "bool"
        }
      ],
      "name": "getPrice",
      "outputs": [
        {
          "internalType": "uint256",
          "name": "",
          "type": "uint256"
        }
      ],
      "stateMutability": "view",
      "type": "function"
    },
    {
      "inputs": [],
      "name": "gov",
      "outputs": [
        {
          "internalType": "address",
          "name": "",
          "type": "address"
        }
      ],
      "stateMutability": "view",
      "type": "function"
    },
    {
      "inputs": [],
      "name": "inPrivateMode",
      "outputs": [
        {
          "internalType": "bool",
          "name": "",
          "type": "bool"
        }
      ],
      "stateMutability": "view",
      "type": "function"
    },
    {
      "inputs": [
        {
          "internalType": "address",
          "name": "",
          "type": "address"
        }
      ],
      "name": "isHandler",
      "outputs": [
        {
          "internalType": "bool",
          "name": "",
          "type": "bool"
        }
      ],
      "stateMutability": "view",
      "type": "function"
    },
    {
      "inputs": [
        {
          "internalType": "address",
          "name": "",
          "type": "address"
        }
      ],
      "name": "lastAddedAt",
      "outputs": [
        {
          "internalType": "uint256",
          "name": "",
          "type": "uint256"
        }
      ],
      "stateMutability": "view",
      "type": "function"
    },
    {
      "inputs": [
        {
          "internalType": "address",
          "name": "_tokenOut",
          "type": "address"
        },
        {
          "internalType": "uint256",
          "name": "_dlpAmount",
          "type": "uint256"
        },
        {
          "internalType": "uint256",
          "name": "_minOut",
          "type": "uint256"
        },
        {
          "internalType": "address",
          "name": "_receiver",
          "type": "address"
        }
      ],
      "name": "removeLiquidity",
      "outputs": [
        {
          "internalType": "uint256",
          "name": "",
          "type": "uint256"
        }
      ],
      "stateMutability": "nonpayable",
      "type": "function"
    },
    {
      "inputs": [
        {
          "internalType": "address",
          "name": "_account",
          "type": "address"
        },
        {
          "internalType": "address",
          "name": "_tokenOut",
          "type": "address"
        },
        {
          "internalType": "uint256",
          "name": "_dlpAmount",
          "type": "uint256"
        },
        {
          "internalType": "uint256",
          "name": "_minOut",
          "type": "uint256"
        },
        {
          "internalType": "address",
          "name": "_receiver",
          "type": "address"
        }
      ],
      "name": "removeLiquidityForAccount",
      "outputs": [
        {
          "internalType": "uint256",
          "name": "",
          "type": "uint256"
        }
      ],
      "stateMutability": "nonpayable",
      "type": "function"
    },
    {
      "inputs": [
        {
          "internalType": "uint256",
          "name": "_aumAddition",
          "type": "uint256"
        },
        {
          "internalType": "uint256",
          "name": "_aumDeduction",
          "type": "uint256"
        }
      ],
      "name": "setAumAdjustment",
      "outputs": [],
      "stateMutability": "nonpayable",
      "type": "function"
    },
    {
      "inputs": [
        {
          "internalType": "uint256",
          "name": "_cooldownDuration",
          "type": "uint256"
        }
      ],
      "name": "setCooldownDuration",
      "outputs": [],
      "stateMutability": "nonpayable",
      "type": "function"
    },
    {
      "inputs": [
        {
          "internalType": "address",
          "name": "_gov",
          "type": "address"
        }
      ],
      "name": "setGov",
      "outputs": [],
      "stateMutability": "nonpayable",
      "type": "function"
    },
    {
      "inputs": [
        {
          "internalType": "address",
          "name": "_handler",
          "type": "address"
        },
        {
          "internalType": "bool",
          "name": "_isActive",
          "type": "bool"
        }
      ],
      "name": "setHandler",
      "outputs": [],
      "stateMutability": "nonpayable",
      "type": "function"
    },
    {
      "inputs": [
        {
          "internalType": "bool",
          "name": "_inPrivateMode",
          "type": "bool"
        }
      ],
      "name": "setInPrivateMode",
      "outputs": [],
      "stateMutability": "nonpayable",
      "type": "function"
    },
    {
      "inputs": [
        {
          "internalType": "contract IShortsTracker",
          "name": "_shortsTracker",
          "type": "address"
        }
      ],
      "name": "setShortsTracker",
      "outputs": [],
      "stateMutability": "nonpayable",
      "type": "function"
    },
    {
      "inputs": [
        {
          "internalType": "uint256",
          "name": "_shortsTrackerAveragePriceWeight",
          "type": "uint256"
        }
      ],
      "name": "setShortsTrackerAveragePriceWeight",
      "outputs": [],
      "stateMutability": "nonpayable",
      "type": "function"
    },
    {
      "inputs": [],
      "name": "shortsTracker",
      "outputs": [
        {
          "internalType": "contract IShortsTracker",
          "name": "",
          "type": "address"
        }
      ],
      "stateMutability": "view",
      "type": "function"
    },
    {
      "inputs": [],
      "name": "shortsTrackerAveragePriceWeight",
      "outputs": [
        {
          "internalType": "uint256",
          "name": "",
          "type": "uint256"
        }
      ],
      "stateMutability": "view",
      "type": "function"
    },
    {
      "inputs": [],
      "name": "usdg",
      "outputs": [
        {
          "internalType": "address",
          "name": "",
          "type": "address"
        }
      ],
      "stateMutability": "view",
      "type": "function"
    },
    {
      "inputs": [],
      "name": "vault",
      "outputs": [
        {
          "internalType": "contract IVault",
          "name": "",
          "type": "address"
        }
      ],
      "stateMutability": "view",
      "type": "function"
    }
  ],
  "bytecode": "0x60806040523480156200001157600080fd5b5060405162002f6738038062002f678339810160408190526200003491620000be565b6001600081905580546001600160a01b03199081163380831691909117179091556002805482166001600160a01b03978816179055600480548216958716959095179094556005805485169386169390931790925560038054909316931692909217905560065562000125565b80516001600160a01b0381168114620000b957600080fd5b919050565b600080600080600060a08688031215620000d757600080fd5b620000e286620000a1565b9450620000f260208701620000a1565b93506200010260408701620000a1565b92506200011260608701620000a1565b9150608086015190509295509295909350565b612e3280620001356000396000f3fe608060405234801561001057600080fd5b50600436106102265760003560e01c80636fd8fab61161012a5780639cb7de4b116100bd578063d34ee0931161008c578063ed0d1c0411610071578063ed0d1c04146104cc578063f5b91b7b146104e1578063fbfa77cf1461050157600080fd5b8063d34ee093146104a6578063e245b5af146104b957600080fd5b80639cb7de4b1461044f578063a1acd3d514610462578063b172bb0c1461048a578063cfad57a21461049357600080fd5b80638fed0b2c116100f95780638fed0b2c146104025780639116c4ae1461041557806395082d2514610428578063966be0751461043c57600080fd5b80636fd8fab6146103a757806371d597ad146103c7578063870d917c146103da5780638b770e11146103e257600080fd5b806335269315116101bd5780634f5f6b5e1161018c578063657bc5d011610171578063657bc5d01461036157806368a0a3e0146103815780636a86da191461039457600080fd5b80634f5f6b5e1461034357806364e6617f1461035857600080fd5b806335269315146102f55780633ebe4b2c146102fe578063440d828a1461030d57806346ea87af1461032057600080fd5b806317eb2a15116101f957806317eb2a15146102bc578063196b68cb146102cf5780631e9049cf146102d85780631ece366a146102e257600080fd5b8063033914761461022b578063070eacee14610251578063126082cf1461026e57806312d43a5114610277575b600080fd5b61023e61023936600461284a565b610521565b6040519081526020015b60405180910390f35b600a5461025e9060ff1681565b6040519015158152602001610248565b61023e61271081565b6001546102979073ffffffffffffffffffffffffffffffffffffffff1681565b60405173ffffffffffffffffffffffffffffffffffffffff9091168152602001610248565b61023e6102ca366004612889565b610cda565b61023e60085481565b61023e6202a30081565b61023e6102f03660046128ee565b610d43565b61023e60065481565b61023e670de0b6b3a764000081565b61023e61031b366004612929565b610e14565b61025e61032e366004612929565b600c6020526000908152604090205460ff1681565b610356610351366004612946565b6111b3565b005b61023e600b5481565b6003546102979073ffffffffffffffffffffffffffffffffffffffff1681565b61023e61038f36600461284a565b6112af565b6103566103a236600461284a565b6112eb565b6005546102979073ffffffffffffffffffffffffffffffffffffffff1681565b61023e6103d536600461295f565b6113a5565b61023e601281565b61023e6103f0366004612929565b60076020526000908152604090205481565b61023e6104103660046129be565b61140c565b610356610423366004612a08565b6114c9565b61023e6c0c9f2c9cd04674edea4000000081565b61035661044a366004612946565b61155d565b61035661045d366004612a2a565b61167e565b610475610470366004612a63565b61175d565b60408051928352901515602083015201610248565b61023e60095481565b6103566104a1366004612929565b6117b8565b6103566104b4366004612929565b611888565b61023e6104c736600461284a565b611958565b6104d4611a18565b6040516102489190612a98565b6004546102979073ffffffffffffffffffffffffffffffffffffffff1681565b6002546102979073ffffffffffffffffffffffffffffffffffffffff1681565b600080600260009054906101000a900473ffffffffffffffffffffffffffffffffffffffff1673ffffffffffffffffffffffffffffffffffffffff16630842b0766040518163ffffffff1660e01b8152600401602060405180830381865afa158015610591573d6000803e3d6000fd5b505050506040513d601f19601f820116820180604052508101906105b59190612adc565b6008546002549192509060009073ffffffffffffffffffffffffffffffffffffffff16815b84811015610c96576002546040517fe468baf00000000000000000000000000000000000000000000000000000000081526004810183905260009173ffffffffffffffffffffffffffffffffffffffff169063e468baf090602401602060405180830381865afa158015610652573d6000803e3d6000fd5b505050506040513d601f19601f820116820180604052508101906106769190612af5565b6002546040517fdaf9c21000000000000000000000000000000000000000000000000000000000815273ffffffffffffffffffffffffffffffffffffffff80841660048301529293506000929091169063daf9c21090602401602060405180830381865afa1580156106ec573d6000803e3d6000fd5b505050506040513d601f19601f820116820180604052508101906107109190612b12565b90508061071e575050610c84565b6000896107ba576040517f81a612d600000000000000000000000000000000000000000000000000000000815273ffffffffffffffffffffffffffffffffffffffff84811660048301528616906381a612d690602401602060405180830381865afa158015610791573d6000803e3d6000fd5b505050506040513d601f19601f820116820180604052508101906107b59190612adc565b61084a565b6040517fe124e6d200000000000000000000000000000000000000000000000000000000815273ffffffffffffffffffffffffffffffffffffffff848116600483015286169063e124e6d290602401602060405180830381865afa158015610826573d6000803e3d6000fd5b505050506040513d601f19601f8201168201806040525081019061084a9190612adc565b6040517f52f55eed00000000000000000000000000000000000000000000000000000000815273ffffffffffffffffffffffffffffffffffffffff85811660048301529192506000918716906352f55eed90602401602060405180830381865afa1580156108bc573d6000803e3d6000fd5b505050506040513d601f19601f820116820180604052508101906108e09190612adc565b6040517f8ee573ac00000000000000000000000000000000000000000000000000000000815273ffffffffffffffffffffffffffffffffffffffff8681166004830152919250600091881690638ee573ac90602401602060405180830381865afa158015610952573d6000803e3d6000fd5b505050506040513d601f19601f820116820180604052508101906109769190612adc565b6040517f42b60b0300000000000000000000000000000000000000000000000000000000815273ffffffffffffffffffffffffffffffffffffffff8781166004830152919250908816906342b60b0390602401602060405180830381865afa1580156109e6573d6000803e3d6000fd5b505050506040513d601f19601f82011682018060405250810190610a0a9190612b12565b15610a3f57610a1a81600a612c80565b610a248484612c8c565b610a2e9190612ca3565b610a38908a612cde565b9850610c7e565b6040517f8a78daa800000000000000000000000000000000000000000000000000000000815273ffffffffffffffffffffffffffffffffffffffff868116600483015260009190891690638a78daa890602401602060405180830381865afa158015610aaf573d6000803e3d6000fd5b505050506040513d601f19601f82011682018060405250810190610ad39190612adc565b90508015610b1357600080610ae988878561175d565b9150915080610b0357610afc828d612cde565b9b50610b10565b610b0d828c612cde565b9a505b50505b6040517ff07456ce00000000000000000000000000000000000000000000000000000000815273ffffffffffffffffffffffffffffffffffffffff878116600483015289169063f07456ce90602401602060405180830381865afa158015610b7f573d6000803e3d6000fd5b505050506040513d601f19601f82011682018060405250810190610ba39190612adc565b610bad908b612cde565b6040517fc3c7b9e900000000000000000000000000000000000000000000000000000000815273ffffffffffffffffffffffffffffffffffffffff8881166004830152919b506000918a169063c3c7b9e990602401602060405180830381865afa158015610c1f573d6000803e3d6000fd5b505050506040513d601f19601f82011682018060405250810190610c439190612adc565b9050610c5083600a612c80565b85610c5b8387612cf1565b610c659190612c8c565b610c6f9190612ca3565b610c79908c612cde565b9a5050505b50505050505b80610c8e81612d04565b9150506105da565b50828211610cad57610ca88284612cf1565b610cb0565b60005b92508260095411610ccd57600954610cc89084612cf1565b610cd0565b60005b9695505050505050565b6000600260005403610d18576040517f37ed32e800000000000000000000000000000000000000000000000000000000815260040160405180910390fd5b6002600055610d25611a93565b610d33878787878787611b0e565b6001600055979650505050505050565b6000600260005403610d81576040517f37ed32e800000000000000000000000000000000000000000000000000000000815260040160405180910390fd5b6002600055600a5460ff1615610df8576040517f08c379a000000000000000000000000000000000000000000000000000000000815260206004820152601e60248201527f446c704d616e616765723a20616374696f6e206e6f7420656e61626c6564000060448201526064015b60405180910390fd5b610e06333387878787611b0e565b600160005595945050505050565b60035460009073ffffffffffffffffffffffffffffffffffffffff16801580610ea957508073ffffffffffffffffffffffffffffffffffffffff16639a11178f6040518163ffffffff1660e01b8152600401602060405180830381865afa158015610e83573d6000803e3d6000fd5b505050506040513d601f19601f82011682018060405250810190610ea79190612b12565b155b15610f49576002546040517f6274980300000000000000000000000000000000000000000000000000000000815273ffffffffffffffffffffffffffffffffffffffff858116600483015290911690636274980390602401602060405180830381865afa158015610f1e573d6000803e3d6000fd5b505050506040513d601f19601f82011682018060405250810190610f429190612adc565b9392505050565b600b546000819003610ff2576002546040517f6274980300000000000000000000000000000000000000000000000000000000815273ffffffffffffffffffffffffffffffffffffffff8681166004830152909116906362749803906024015b602060405180830381865afa158015610fc6573d6000803e3d6000fd5b505050506040513d601f19601f82011682018060405250810190610fea9190612adc565b949350505050565b612710810361104f576040517f6274980300000000000000000000000000000000000000000000000000000000815273ffffffffffffffffffffffffffffffffffffffff8581166004830152831690636274980390602401610fa9565b6002546040517f6274980300000000000000000000000000000000000000000000000000000000815273ffffffffffffffffffffffffffffffffffffffff86811660048301526000921690636274980390602401602060405180830381865afa1580156110c0573d6000803e3d6000fd5b505050506040513d601f19601f820116820180604052508101906110e49190612adc565b6040517f6274980300000000000000000000000000000000000000000000000000000000815273ffffffffffffffffffffffffffffffffffffffff8781166004830152919250600091851690636274980390602401602060405180830381865afa158015611156573d6000803e3d6000fd5b505050506040513d601f19601f8201168201806040525081019061117a9190612adc565b90506127106111898483612c8c565b61119585612710612cf1565b61119f9085612c8c565b6111a99190612cde565b610cd09190612ca3565b60015473ffffffffffffffffffffffffffffffffffffffff16331461123c57604080517f2a89d6bc0000000000000000000000000000000000000000000000000000000081523360048201526024810191909152600760448201527f6f6e6c79476f76000000000000000000000000000000000000000000000000006064820152608401610def565b612710600b5411156112aa576040517f08c379a000000000000000000000000000000000000000000000000000000000815260206004820152601a60248201527f446c704d616e616765723a20696e76616c6964207765696768740000000000006044820152606401610def565b600b55565b6000806112bb83610521565b90506c0c9f2c9cd04674edea400000006112d76012600a612c80565b6112e19083612c8c565b610f429190612ca3565b60015473ffffffffffffffffffffffffffffffffffffffff16331461137457604080517f2a89d6bc0000000000000000000000000000000000000000000000000000000081523360048201526024810191909152600760448201527f6f6e6c79476f76000000000000000000000000000000000000000000000000006064820152608401610def565b600a80547fffffffffffffffffffffffffffffffffffffffffffffffffffffffffffffff0016911515919091179055565b60006002600054036113e3576040517f37ed32e800000000000000000000000000000000000000000000000000000000815260040160405180910390fd5b60026000556113f0611a93565b6113fd8686868686611f4f565b60016000559695505050505050565b600060026000540361144a576040517f37ed32e800000000000000000000000000000000000000000000000000000000815260040160405180910390fd5b6002600055600a5460ff16156114bc576040517f08c379a000000000000000000000000000000000000000000000000000000000815260206004820152601e60248201527f446c704d616e616765723a20616374696f6e206e6f7420656e61626c656400006044820152606401610def565b610e063386868686611f4f565b60015473ffffffffffffffffffffffffffffffffffffffff16331461155257604080517f2a89d6bc0000000000000000000000000000000000000000000000000000000081523360048201526024810191909152600760448201527f6f6e6c79476f76000000000000000000000000000000000000000000000000006064820152608401610def565b600891909155600955565b60015473ffffffffffffffffffffffffffffffffffffffff1633146115e657604080517f2a89d6bc0000000000000000000000000000000000000000000000000000000081523360048201526024810191909152600760448201527f6f6e6c79476f76000000000000000000000000000000000000000000000000006064820152608401610def565b6202a300811115611679576040517f08c379a000000000000000000000000000000000000000000000000000000000815260206004820152602560248201527f446c704d616e616765723a20696e76616c6964205f636f6f6c646f776e44757260448201527f6174696f6e0000000000000000000000000000000000000000000000000000006064820152608401610def565b600655565b60015473ffffffffffffffffffffffffffffffffffffffff16331461170757604080517f2a89d6bc0000000000000000000000000000000000000000000000000000000081523360048201526024810191909152600760448201527f6f6e6c79476f76000000000000000000000000000000000000000000000000006064820152608401610def565b73ffffffffffffffffffffffffffffffffffffffff919091166000908152600c6020526040902080547fffffffffffffffffffffffffffffffffffffffffffffffffffffffffffffff0016911515919091179055565b600080600061176b86610e14565b90506000858211611785576117808287612cf1565b61178f565b61178f8683612cf1565b905060008261179e8388612c8c565b6117a89190612ca3565b9450505084109050935093915050565b60015473ffffffffffffffffffffffffffffffffffffffff16331461184157604080517f2a89d6bc0000000000000000000000000000000000000000000000000000000081523360048201526024810191909152600760448201527f6f6e6c79476f76000000000000000000000000000000000000000000000000006064820152608401610def565b600180547fffffffffffffffffffffffff00000000000000000000000000000000000000001673ffffffffffffffffffffffffffffffffffffffff92909216919091179055565b60015473ffffffffffffffffffffffffffffffffffffffff16331461191157604080517f2a89d6bc0000000000000000000000000000000000000000000000000000000081523360048201526024810191909152600760448201527f6f6e6c79476f76000000000000000000000000000000000000000000000000006064820152608401610def565b600380547fffffffffffffffffffffffff00000000000000000000000000000000000000001673ffffffffffffffffffffffffffffffffffffffff92909216919091179055565b60008061196483610521565b90506000600560009054906101000a900473ffffffffffffffffffffffffffffffffffffffff1673ffffffffffffffffffffffffffffffffffffffff166318160ddd6040518163ffffffff1660e01b8152600401602060405180830381865afa1580156119d5573d6000803e3d6000fd5b505050506040513d601f19601f820116820180604052508101906119f99190612adc565b905080611a0e670de0b6b3a764000084612c8c565b610fea9190612ca3565b60408051600280825260608083018452926000929190602083019080368337019050509050611a476001610521565b81600081518110611a5a57611a5a612d3c565b602002602001018181525050611a706000610521565b81600181518110611a8357611a83612d3c565b6020908102919091010152919050565b336000908152600c602052604090205460ff16611b0c576040517f08c379a000000000000000000000000000000000000000000000000000000000815260206004820152601560248201527f446c704d616e616765723a20666f7262696464656e00000000000000000000006044820152606401610def565b565b6000808411611b79576040517f08c379a000000000000000000000000000000000000000000000000000000000815260206004820152601b60248201527f446c704d616e616765723a20696e76616c6964205f616d6f756e7400000000006044820152606401610def565b6000611b8560016112af565b90506000600560009054906101000a900473ffffffffffffffffffffffffffffffffffffffff1673ffffffffffffffffffffffffffffffffffffffff166318160ddd6040518163ffffffff1660e01b8152600401602060405180830381865afa158015611bf6573d6000803e3d6000fd5b505050506040513d601f19601f82011682018060405250810190611c1a9190612adc565b600254909150611c469073ffffffffffffffffffffffffffffffffffffffff898116918c911689612541565b6002546040517f817bb85700000000000000000000000000000000000000000000000000000000815273ffffffffffffffffffffffffffffffffffffffff8981166004830152306024830152600092169063817bb857906044016020604051808303816000875af1158015611cbf573d6000803e3d6000fd5b505050506040513d601f19601f82011682018060405250810190611ce39190612adc565b905085811015611d74576040517f08c379a0000000000000000000000000000000000000000000000000000000008152602060048201526024808201527f446c704d616e616765723a20696e73756666696369656e742055534447206f7560448201527f74707574000000000000000000000000000000000000000000000000000000006064820152608401610def565b60008315611d965783611d878484612c8c565b611d919190612ca3565b611d98565b815b905085811015611e2a576040517f08c379a000000000000000000000000000000000000000000000000000000000815260206004820152602360248201527f446c704d616e616765723a20696e73756666696369656e7420444c50206f757460448201527f70757400000000000000000000000000000000000000000000000000000000006064820152608401610def565b6005546040517f40c10f1900000000000000000000000000000000000000000000000000000000815273ffffffffffffffffffffffffffffffffffffffff8c8116600483015260248201849052909116906340c10f1990604401600060405180830381600087803b158015611e9e57600080fd5b505af1158015611eb2573d6000803e3d6000fd5b5050505073ffffffffffffffffffffffffffffffffffffffff8a81166000818152600760209081526040918290204290558151928352928c1692820192909252908101899052606081018590526080810184905260a0810183905260c081018290527f38dc38b96482be64113daffd8d464ebda93e856b70ccfc605e69ccf892ab981e9060e00160405180910390a19a9950505050505050505050565b6000808411611fba576040517f08c379a000000000000000000000000000000000000000000000000000000000815260206004820152601e60248201527f446c704d616e616765723a20696e76616c6964205f646c70416d6f756e7400006044820152606401610def565b60065473ffffffffffffffffffffffffffffffffffffffff87166000908152600760205260409020544291611fee91612cde565b111561207c576040517f08c379a000000000000000000000000000000000000000000000000000000000815260206004820152602c60248201527f446c704d616e616765723a20636f6f6c646f776e206475726174696f6e206e6f60448201527f74207965742070617373656400000000000000000000000000000000000000006064820152608401610def565b600061208860006112af565b90506000600560009054906101000a900473ffffffffffffffffffffffffffffffffffffffff1673ffffffffffffffffffffffffffffffffffffffff166318160ddd6040518163ffffffff1660e01b8152600401602060405180830381865afa1580156120f9573d6000803e3d6000fd5b505050506040513d601f19601f8201168201806040525081019061211d9190612adc565b905060008161212c8489612c8c565b6121369190612ca3565b600480546040517f70a08231000000000000000000000000000000000000000000000000000000008152309281019290925291925060009173ffffffffffffffffffffffffffffffffffffffff16906370a0823190602401602060405180830381865afa1580156121ab573d6000803e3d6000fd5b505050506040513d601f19601f820116820180604052508101906121cf9190612adc565b9050808211156122865760045473ffffffffffffffffffffffffffffffffffffffff166340c10f19306122028486612cf1565b6040517fffffffff0000000000000000000000000000000000000000000000000000000060e085901b16815273ffffffffffffffffffffffffffffffffffffffff90921660048301526024820152604401600060405180830381600087803b15801561226d57600080fd5b505af1158015612281573d6000803e3d6000fd5b505050505b6005546040517f9dc29fac00000000000000000000000000000000000000000000000000000000815273ffffffffffffffffffffffffffffffffffffffff8c81166004830152602482018b905290911690639dc29fac90604401600060405180830381600087803b1580156122fa57600080fd5b505af115801561230e573d6000803e3d6000fd5b5050600480546002546040517fa9059cbb00000000000000000000000000000000000000000000000000000000815273ffffffffffffffffffffffffffffffffffffffff918216938101939093526024830187905216925063a9059cbb91506044016020604051808303816000875af115801561238f573d6000803e3d6000fd5b505050506040513d601f19601f820116820180604052508101906123b39190612b12565b506002546040517f711e619000000000000000000000000000000000000000000000000000000000815273ffffffffffffffffffffffffffffffffffffffff8b811660048301528881166024830152600092169063711e6190906044016020604051808303816000875af115801561242f573d6000803e3d6000fd5b505050506040513d601f19601f820116820180604052508101906124539190612adc565b9050878110156124bf576040517f08c379a000000000000000000000000000000000000000000000000000000000815260206004820152601f60248201527f446c704d616e616765723a20696e73756666696369656e74206f7574707574006044820152606401610def565b6040805173ffffffffffffffffffffffffffffffffffffffff808e1682528c1660208201529081018a9052606081018690526080810185905260a0810184905260c081018290527f87b9679bb9a4944bafa98c267e7cd4a00ab29fed48afdefae25f0fca5da279409060e00160405180910390a19a9950505050505050505050565b6040805173ffffffffffffffffffffffffffffffffffffffff85811660248301528416604482015260648082018490528251808303909101815260849091019091526020810180517bffffffffffffffffffffffffffffffffffffffffffffffffffffffff167f23b872dd000000000000000000000000000000000000000000000000000000001790526125d69085906125dc565b50505050565b600061263e826040518060400160405280602081526020017f5361666545524332303a206c6f772d6c6576656c2063616c6c206661696c65648152508573ffffffffffffffffffffffffffffffffffffffff166126ed9092919063ffffffff16565b8051909150156126e8578080602001905181019061265c9190612b12565b6126e8576040517f08c379a000000000000000000000000000000000000000000000000000000000815260206004820152602a60248201527f5361666545524332303a204552433230206f7065726174696f6e20646964206e60448201527f6f742073756363656564000000000000000000000000000000000000000000006064820152608401610def565b505050565b6060610fea848460008585843b612760576040517f08c379a000000000000000000000000000000000000000000000000000000000815260206004820152601d60248201527f416464726573733a2063616c6c20746f206e6f6e2d636f6e74726163740000006044820152606401610def565b6000808673ffffffffffffffffffffffffffffffffffffffff1685876040516127899190612d8f565b60006040518083038185875af1925050503d80600081146127c6576040519150601f19603f3d011682016040523d82523d6000602084013e6127cb565b606091505b50915091506127db8282866127e6565b979650505050505050565b606083156127f5575081610f42565b8251156128055782518084602001fd5b816040517f08c379a0000000000000000000000000000000000000000000000000000000008152600401610def9190612dab565b801515811461284757600080fd5b50565b60006020828403121561285c57600080fd5b8135610f4281612839565b73ffffffffffffffffffffffffffffffffffffffff8116811461284757600080fd5b60008060008060008060c087890312156128a257600080fd5b86356128ad81612867565b955060208701356128bd81612867565b945060408701356128cd81612867565b959894975094956060810135955060808101359460a0909101359350915050565b6000806000806080858703121561290457600080fd5b843561290f81612867565b966020860135965060408601359560600135945092505050565b60006020828403121561293b57600080fd5b8135610f4281612867565b60006020828403121561295857600080fd5b5035919050565b600080600080600060a0868803121561297757600080fd5b853561298281612867565b9450602086013561299281612867565b9350604086013592506060860135915060808601356129b081612867565b809150509295509295909350565b600080600080608085870312156129d457600080fd5b84356129df81612867565b9350602085013592506040850135915060608501356129fd81612867565b939692955090935050565b60008060408385031215612a1b57600080fd5b50508035926020909101359150565b60008060408385031215612a3d57600080fd5b8235612a4881612867565b91506020830135612a5881612839565b809150509250929050565b600080600060608486031215612a7857600080fd5b8335612a8381612867565b95602085013595506040909401359392505050565b6020808252825182820181905260009190848201906040850190845b81811015612ad057835183529284019291840191600101612ab4565b50909695505050505050565b600060208284031215612aee57600080fd5b5051919050565b600060208284031215612b0757600080fd5b8151610f4281612867565b600060208284031215612b2457600080fd5b8151610f4281612839565b7f4e487b7100000000000000000000000000000000000000000000000000000000600052601160045260246000fd5b600181815b80851115612bb757817fffffffffffffffffffffffffffffffffffffffffffffffffffffffffffffffff04821115612b9d57612b9d612b2f565b80851615612baa57918102915b93841c9390800290612b63565b509250929050565b600082612bce57506001612c7a565b81612bdb57506000612c7a565b8160018114612bf15760028114612bfb57612c17565b6001915050612c7a565b60ff841115612c0c57612c0c612b2f565b50506001821b612c7a565b5060208310610133831016604e8410600b8410161715612c3a575081810a612c7a565b612c448383612b5e565b807fffffffffffffffffffffffffffffffffffffffffffffffffffffffffffffffff04821115612c7657612c76612b2f565b0290505b92915050565b6000610f428383612bbf565b8082028115828204841417612c7a57612c7a612b2f565b600082612cd9577f4e487b7100000000000000000000000000000000000000000000000000000000600052601260045260246000fd5b500490565b80820180821115612c7a57612c7a612b2f565b81810381811115612c7a57612c7a612b2f565b60007fffffffffffffffffffffffffffffffffffffffffffffffffffffffffffffffff8203612d3557612d35612b2f565b5060010190565b7f4e487b7100000000000000000000000000000000000000000000000000000000600052603260045260246000fd5b60005b83811015612d86578181015183820152602001612d6e565b50506000910152565b60008251612da1818460208701612d6b565b9190910192915050565b6020815260008251806020840152612dca816040850160208701612d6b565b601f017fffffffffffffffffffffffffffffffffffffffffffffffffffffffffffffffe016919091016040019291505056fea2646970667358221220cffa61aaa29ed46a272e13270ecd44873896b38890e1745a3c7600c8bcf7703264736f6c63430008140033",
  "linkReferences": {},
  "deployedLinkReferences": {}
}