{
  "_format": "hh-sol-artifact-1",
  "contractName": "OrderExecutor",
  "sourceName": "contracts/core/OrderExecutor.sol",
  "abi": [
    {
      "inputs": [
        {
          "internalType": "address",
          "name": "_vault",
          "type": "address"
        },
        {
          "internalType": "address",
          "name": "_orderBook",
          "type": "address"
        }
      ],
      "stateMutability": "nonpayable",
      "type": "constructor"
    },
    {
      "inputs": [],
      "name": "BASIS_POINTS_DIVISOR",
      "outputs": [
        {
          "internalType": "uint256",
          "name": "",
          "type": "uint256"
        }
      ],
      "stateMutability": "view",
      "type": "function"
    },
    {
      "inputs": [
        {
          "internalType": "address",
          "name": "_address",
          "type": "address"
        },
        {
          "internalType": "uint256",
          "name": "_orderIndex",
          "type": "uint256"
        },
        {
          "internalType": "address payable",
          "name": "_feeReceiver",
          "type": "address"
        }
      ],
      "name": "executeDecreaseOrder",
      "outputs": [],
      "stateMutability": "nonpayable",
      "type": "function"
    },
    {
      "inputs": [
        {
          "internalType": "address",
          "name": "_address",
          "type": "address"
        },
        {
          "internalType": "uint256",
          "name": "_orderIndex",
          "type": "uint256"
        },
        {
          "internalType": "address payable",
          "name": "_feeReceiver",
          "type": "address"
        }
      ],
      "name": "executeIncreaseOrder",
      "outputs": [],
      "stateMutability": "nonpayable",
      "type": "function"
    },
    {
      "inputs": [
        {
          "internalType": "address",
          "name": "_account",
          "type": "address"
        },
        {
          "internalType": "uint256",
          "name": "_orderIndex",
          "type": "uint256"
        },
        {
          "internalType": "address payable",
          "name": "_feeReceiver",
          "type": "address"
        }
      ],
      "name": "executeSwapOrder",
      "outputs": [],
      "stateMutability": "nonpayable",
      "type": "function"
    },
    {
      "inputs": [],
      "name": "orderBook",
      "outputs": [
        {
          "internalType": "address",
          "name": "",
          "type": "address"
        }
      ],
      "stateMutability": "view",
      "type": "function"
    },
    {
      "inputs": [],
      "name": "vault",
      "outputs": [
        {
          "internalType": "address",
          "name": "",
          "type": "address"
        }
      ],
      "stateMutability": "view",
      "type": "function"
    }
  ],
  "bytecode": "0x608060405234801561001057600080fd5b50604051610bdb380380610bdb83398101604081905261002f916100ec565b6001600160a01b0382161580159061004f57506001600160a01b03811615155b61009f5760405162461bcd60e51b815260206004820152601e60248201527f4f726465724578656375746f723a20696e76616c696420616464726573730000604482015260640160405180910390fd5b600080546001600160a01b039384166001600160a01b0319918216179091556001805492909316911617905561011f565b80516001600160a01b03811681146100e757600080fd5b919050565b600080604083850312156100ff57600080fd5b610108836100d0565b9150610116602084016100d0565b90509250929050565b610aad8061012e6000396000f3fe608060405234801561001057600080fd5b50600436106100725760003560e01c8063776af5ba11610050578063776af5ba146100bb578063d38ab51914610100578063fbfa77cf1461011357600080fd5b806307c7edc31461007757806311d9444a1461008c578063126082cf1461009f575b600080fd5b61008a61008536600461084e565b610133565b005b61008a61009a36600461084e565b6101cd565b6100a861271081565b6040519081526020015b60405180910390f35b6001546100db9073ffffffffffffffffffffffffffffffffffffffff1681565b60405173ffffffffffffffffffffffffffffffffffffffff90911681526020016100b2565b61008a61010e36600461084e565b610234565b6000546100db9073ffffffffffffffffffffffffffffffffffffffff1681565b6001546040517f07c7edc300000000000000000000000000000000000000000000000000000000815273ffffffffffffffffffffffffffffffffffffffff8581166004830152602482018590528381166044830152909116906307c7edc3906064015b600060405180830381600087803b1580156101b057600080fd5b505af11580156101c4573d6000803e3d6000fd5b50505050505050565b6001546040517f11d9444a00000000000000000000000000000000000000000000000000000000815273ffffffffffffffffffffffffffffffffffffffff8581166004830152602482018590528381166044830152909116906311d9444a90606401610196565b61023e8383610485565b60008060009054906101000a900473ffffffffffffffffffffffffffffffffffffffff1673ffffffffffffffffffffffffffffffffffffffff166312d43a516040518163ffffffff1660e01b8152600401602060405180830381865afa1580156102ac573d6000803e3d6000fd5b505050506040513d601f19601f820116820180604052508101906102d09190610890565b6000546040517fcd2b123000000000000000000000000000000000000000000000000000000000815273ffffffffffffffffffffffffffffffffffffffff91821660048201526001602482015291925082169063cd2b123090604401600060405180830381600087803b15801561034657600080fd5b505af115801561035a573d6000803e3d6000fd5b50506001546040517fd38ab51900000000000000000000000000000000000000000000000000000000815273ffffffffffffffffffffffffffffffffffffffff8881166004830152602482018890528681166044830152909116925063d38ab5199150606401600060405180830381600087803b1580156103da57600080fd5b505af11580156103ee573d6000803e3d6000fd5b5050600080546040517fcd2b123000000000000000000000000000000000000000000000000000000000815273ffffffffffffffffffffffffffffffffffffffff918216600482015260248101929092528416925063cd2b12309150604401600060405180830381600087803b15801561046757600080fd5b505af115801561047b573d6000803e3d6000fd5b5050505050505050565b6001546040517fd3bab1d100000000000000000000000000000000000000000000000000000000815273ffffffffffffffffffffffffffffffffffffffff848116600483015260248201849052600092839283928392839283929091169063d3bab1d19060440161012060405180830381865afa15801561050a573d6000803e3d6000fd5b505050506040513d601f19601f8201168201806040525081019061052e91906108c9565b5050509550955095509550955095508061054c575050505050505050565b600082116105bb576040517f08c379a000000000000000000000000000000000000000000000000000000000815260206004820152601b60248201527f4f726465724578656375746f723a206c6f6e67206465706f736974000000000060448201526064015b60405180910390fd5b600080546040517f4a3f088d00000000000000000000000000000000000000000000000000000000815273ffffffffffffffffffffffffffffffffffffffff8b81166004830152878116602483015286811660448301528415156064830152909116919081908390634a3f088d9060840161010060405180830381865afa15801561064a573d6000803e3d6000fd5b505050506040513d601f19601f8201168201806040525081019061066e919061095e565b505050505050915091508160000361068d575050505050505050505050565b600061069986846109f3565b6040517f0a48d5a900000000000000000000000000000000000000000000000000000000815273ffffffffffffffffffffffffffffffffffffffff8c81166004830152602482018c9052919250600091861690630a48d5a990604401602060405180830381865afa158015610712573d6000803e3d6000fd5b505050506040513d601f19601f820116820180604052508101906107369190610a0c565b9050600061074482856109f3565b905060008461075561271088610a25565b61075f9190610a3c565b905060008261077161271060646109f3565b61077b9087610a25565b6107859190610a3c565b905081811015610817576040517f08c379a000000000000000000000000000000000000000000000000000000000815260206004820152602560248201527f4f726465724578656375746f723a206c6f6e67206c657665726167652064656360448201527f726561736500000000000000000000000000000000000000000000000000000060648201526084016105b2565b50505050505050505050505050505050565b73ffffffffffffffffffffffffffffffffffffffff8116811461084b57600080fd5b50565b60008060006060848603121561086357600080fd5b833561086e81610829565b925060208401359150604084013561088581610829565b809150509250925092565b6000602082840312156108a257600080fd5b81516108ad81610829565b9392505050565b805180151581146108c457600080fd5b919050565b60008060008060008060008060006101208a8c0312156108e857600080fd5b89516108f381610829565b60208b015160408c0151919a50985061090b81610829565b60608b015190975061091c81610829565b60808b0151909650945061093260a08b016108b4565b935060c08a0151925061094760e08b016108b4565b91506101008a015190509295985092959850929598565b600080600080600080600080610100898b03121561097b57600080fd5b885197506020890151965060408901519550606089015194506080890151935060a089015192506109ae60c08a016108b4565b915060e089015190509295985092959890939650565b7f4e487b7100000000000000000000000000000000000000000000000000000000600052601160045260246000fd5b80820180821115610a0657610a066109c4565b92915050565b600060208284031215610a1e57600080fd5b5051919050565b8082028115828204841417610a0657610a066109c4565b600082610a72577f4e487b7100000000000000000000000000000000000000000000000000000000600052601260045260246000fd5b50049056fea2646970667358221220f8e86310dec8925507a89d0c1eb9a30d8a9ba15b49482c9766f4b86f0fbaa90864736f6c63430008140033",
  "linkReferences": {},
  "deployedLinkReferences": {}
}