{
  "_format": "hh-sol-artifact-1",
  "contractName": "OrderBook",
  "sourceName": "contracts/core/OrderBook.sol",
  "abi": [
    {
      "inputs": [],
      "stateMutability": "nonpayable",
      "type": "constructor"
    },
    {
      "inputs": [],
      "name": "ReentrantCall",
      "type": "error"
    },
    {
      "anonymous": false,
      "inputs": [
        {
          "indexed": true,
          "internalType": "address",
          "name": "account",
          "type": "address"
        },
        {
          "indexed": false,
          "internalType": "uint256",
          "name": "orderIndex",
          "type": "uint256"
        },
        {
          "indexed": false,
          "internalType": "address",
          "name": "collateralToken",
          "type": "address"
        },
        {
          "indexed": false,
          "internalType": "uint256",
          "name": "collateralDelta",
          "type": "uint256"
        },
        {
          "indexed": false,
          "internalType": "address",
          "name": "indexToken",
          "type": "address"
        },
        {
          "indexed": false,
          "internalType": "uint256",
          "name": "sizeDelta",
          "type": "uint256"
        },
        {
          "indexed": false,
          "internalType": "bool",
          "name": "isLong",
          "type": "bool"
        },
        {
          "indexed": false,
          "internalType": "uint256",
          "name": "triggerPrice",
          "type": "uint256"
        },
        {
          "indexed": false,
          "internalType": "bool",
          "name": "triggerAboveThreshold",
          "type": "bool"
        },
        {
          "indexed": false,
          "internalType": "uint256",
          "name": "executionFee",
          "type": "uint256"
        }
      ],
      "name": "CancelDecreaseOrder",
      "type": "event"
    },
    {
      "anonymous": false,
      "inputs": [
        {
          "indexed": true,
          "internalType": "address",
          "name": "account",
          "type": "address"
        },
        {
          "indexed": false,
          "internalType": "uint256",
          "name": "orderIndex",
          "type": "uint256"
        },
        {
          "indexed": false,
          "internalType": "address",
          "name": "purchaseToken",
          "type": "address"
        },
        {
          "indexed": false,
          "internalType": "uint256",
          "name": "purchaseTokenAmount",
          "type": "uint256"
        },
        {
          "indexed": false,
          "internalType": "address",
          "name": "collateralToken",
          "type": "address"
        },
        {
          "indexed": false,
          "internalType": "address",
          "name": "indexToken",
          "type": "address"
        },
        {
          "indexed": false,
          "internalType": "uint256",
          "name": "sizeDelta",
          "type": "uint256"
        },
        {
          "indexed": false,
          "internalType": "bool",
          "name": "isLong",
          "type": "bool"
        },
        {
          "indexed": false,
          "internalType": "uint256",
          "name": "triggerPrice",
          "type": "uint256"
        },
        {
          "indexed": false,
          "internalType": "bool",
          "name": "triggerAboveThreshold",
          "type": "bool"
        },
        {
          "indexed": false,
          "internalType": "uint256",
          "name": "executionFee",
          "type": "uint256"
        }
      ],
      "name": "CancelIncreaseOrder",
      "type": "event"
    },
    {
      "anonymous": false,
      "inputs": [
        {
          "indexed": true,
          "internalType": "address",
          "name": "account",
          "type": "address"
        },
        {
          "indexed": false,
          "internalType": "uint256",
          "name": "orderIndex",
          "type": "uint256"
        },
        {
          "indexed": false,
          "internalType": "address[]",
          "name": "path",
          "type": "address[]"
        },
        {
          "indexed": false,
          "internalType": "uint256",
          "name": "amountIn",
          "type": "uint256"
        },
        {
          "indexed": false,
          "internalType": "uint256",
          "name": "minOut",
          "type": "uint256"
        },
        {
          "indexed": false,
          "internalType": "uint256",
          "name": "triggerRatio",
          "type": "uint256"
        },
        {
          "indexed": false,
          "internalType": "bool",
          "name": "triggerAboveThreshold",
          "type": "bool"
        },
        {
          "indexed": false,
          "internalType": "bool",
          "name": "shouldUnwrap",
          "type": "bool"
        },
        {
          "indexed": false,
          "internalType": "uint256",
          "name": "executionFee",
          "type": "uint256"
        }
      ],
      "name": "CancelSwapOrder",
      "type": "event"
    },
    {
      "anonymous": false,
      "inputs": [
        {
          "indexed": true,
          "internalType": "address",
          "name": "account",
          "type": "address"
        },
        {
          "indexed": false,
          "internalType": "uint256",
          "name": "orderIndex",
          "type": "uint256"
        },
        {
          "indexed": false,
          "internalType": "address",
          "name": "collateralToken",
          "type": "address"
        },
        {
          "indexed": false,
          "internalType": "uint256",
          "name": "collateralDelta",
          "type": "uint256"
        },
        {
          "indexed": false,
          "internalType": "address",
          "name": "indexToken",
          "type": "address"
        },
        {
          "indexed": false,
          "internalType": "uint256",
          "name": "sizeDelta",
          "type": "uint256"
        },
        {
          "indexed": false,
          "internalType": "bool",
          "name": "isLong",
          "type": "bool"
        },
        {
          "indexed": false,
          "internalType": "uint256",
          "name": "triggerPrice",
          "type": "uint256"
        },
        {
          "indexed": false,
          "internalType": "bool",
          "name": "triggerAboveThreshold",
          "type": "bool"
        },
        {
          "indexed": false,
          "internalType": "uint256",
          "name": "executionFee",
          "type": "uint256"
        }
      ],
      "name": "CreateDecreaseOrder",
      "type": "event"
    },
    {
      "anonymous": false,
      "inputs": [
        {
          "indexed": true,
          "internalType": "address",
          "name": "account",
          "type": "address"
        },
        {
          "indexed": false,
          "internalType": "uint256",
          "name": "orderIndex",
          "type": "uint256"
        },
        {
          "indexed": false,
          "internalType": "address",
          "name": "purchaseToken",
          "type": "address"
        },
        {
          "indexed": false,
          "internalType": "uint256",
          "name": "purchaseTokenAmount",
          "type": "uint256"
        },
        {
          "indexed": false,
          "internalType": "address",
          "name": "collateralToken",
          "type": "address"
        },
        {
          "indexed": false,
          "internalType": "address",
          "name": "indexToken",
          "type": "address"
        },
        {
          "indexed": false,
          "internalType": "uint256",
          "name": "sizeDelta",
          "type": "uint256"
        },
        {
          "indexed": false,
          "internalType": "bool",
          "name": "isLong",
          "type": "bool"
        },
        {
          "indexed": false,
          "internalType": "uint256",
          "name": "triggerPrice",
          "type": "uint256"
        },
        {
          "indexed": false,
          "internalType": "bool",
          "name": "triggerAboveThreshold",
          "type": "bool"
        },
        {
          "indexed": false,
          "internalType": "uint256",
          "name": "executionFee",
          "type": "uint256"
        }
      ],
      "name": "CreateIncreaseOrder",
      "type": "event"
    },
    {
      "anonymous": false,
      "inputs": [
        {
          "indexed": true,
          "internalType": "address",
          "name": "account",
          "type": "address"
        },
        {
          "indexed": false,
          "internalType": "uint256",
          "name": "orderIndex",
          "type": "uint256"
        },
        {
          "indexed": false,
          "internalType": "address[]",
          "name": "path",
          "type": "address[]"
        },
        {
          "indexed": false,
          "internalType": "uint256",
          "name": "amountIn",
          "type": "uint256"
        },
        {
          "indexed": false,
          "internalType": "uint256",
          "name": "minOut",
          "type": "uint256"
        },
        {
          "indexed": false,
          "internalType": "uint256",
          "name": "triggerRatio",
          "type": "uint256"
        },
        {
          "indexed": false,
          "internalType": "bool",
          "name": "triggerAboveThreshold",
          "type": "bool"
        },
        {
          "indexed": false,
          "internalType": "bool",
          "name": "shouldUnwrap",
          "type": "bool"
        },
        {
          "indexed": false,
          "internalType": "uint256",
          "name": "executionFee",
          "type": "uint256"
        }
      ],
      "name": "CreateSwapOrder",
      "type": "event"
    },
    {
      "anonymous": false,
      "inputs": [
        {
          "indexed": true,
          "internalType": "address",
          "name": "account",
          "type": "address"
        },
        {
          "indexed": false,
          "internalType": "uint256",
          "name": "orderIndex",
          "type": "uint256"
        },
        {
          "indexed": false,
          "internalType": "address",
          "name": "collateralToken",
          "type": "address"
        },
        {
          "indexed": false,
          "internalType": "uint256",
          "name": "collateralDelta",
          "type": "uint256"
        },
        {
          "indexed": false,
          "internalType": "address",
          "name": "indexToken",
          "type": "address"
        },
        {
          "indexed": false,
          "internalType": "uint256",
          "name": "sizeDelta",
          "type": "uint256"
        },
        {
          "indexed": false,
          "internalType": "bool",
          "name": "isLong",
          "type": "bool"
        },
        {
          "indexed": false,
          "internalType": "uint256",
          "name": "triggerPrice",
          "type": "uint256"
        },
        {
          "indexed": false,
          "internalType": "bool",
          "name": "triggerAboveThreshold",
          "type": "bool"
        },
        {
          "indexed": false,
          "internalType": "uint256",
          "name": "executionFee",
          "type": "uint256"
        },
        {
          "indexed": false,
          "internalType": "uint256",
          "name": "executionPrice",
          "type": "uint256"
        }
      ],
      "name": "ExecuteDecreaseOrder",
      "type": "event"
    },
    {
      "anonymous": false,
      "inputs": [
        {
          "indexed": true,
          "internalType": "address",
          "name": "account",
          "type": "address"
        },
        {
          "indexed": false,
          "internalType": "uint256",
          "name": "orderIndex",
          "type": "uint256"
        },
        {
          "indexed": false,
          "internalType": "address",
          "name": "purchaseToken",
          "type": "address"
        },
        {
          "indexed": false,
          "internalType": "uint256",
          "name": "purchaseTokenAmount",
          "type": "uint256"
        },
        {
          "indexed": false,
          "internalType": "address",
          "name": "collateralToken",
          "type": "address"
        },
        {
          "indexed": false,
          "internalType": "address",
          "name": "indexToken",
          "type": "address"
        },
        {
          "indexed": false,
          "internalType": "uint256",
          "name": "sizeDelta",
          "type": "uint256"
        },
        {
          "indexed": false,
          "internalType": "bool",
          "name": "isLong",
          "type": "bool"
        },
        {
          "indexed": false,
          "internalType": "uint256",
          "name": "triggerPrice",
          "type": "uint256"
        },
        {
          "indexed": false,
          "internalType": "bool",
          "name": "triggerAboveThreshold",
          "type": "bool"
        },
        {
          "indexed": false,
          "internalType": "uint256",
          "name": "executionFee",
          "type": "uint256"
        },
        {
          "indexed": false,
          "internalType": "uint256",
          "name": "executionPrice",
          "type": "uint256"
        }
      ],
      "name": "ExecuteIncreaseOrder",
      "type": "event"
    },
    {
      "anonymous": false,
      "inputs": [
        {
          "indexed": true,
          "internalType": "address",
          "name": "account",
          "type": "address"
        },
        {
          "indexed": false,
          "internalType": "uint256",
          "name": "orderIndex",
          "type": "uint256"
        },
        {
          "indexed": false,
          "internalType": "address[]",
          "name": "path",
          "type": "address[]"
        },
        {
          "indexed": false,
          "internalType": "uint256",
          "name": "amountIn",
          "type": "uint256"
        },
        {
          "indexed": false,
          "internalType": "uint256",
          "name": "minOut",
          "type": "uint256"
        },
        {
          "indexed": false,
          "internalType": "uint256",
          "name": "amountOut",
          "type": "uint256"
        },
        {
          "indexed": false,
          "internalType": "uint256",
          "name": "triggerRatio",
          "type": "uint256"
        },
        {
          "indexed": false,
          "internalType": "bool",
          "name": "triggerAboveThreshold",
          "type": "bool"
        },
        {
          "indexed": false,
          "internalType": "bool",
          "name": "shouldUnwrap",
          "type": "bool"
        },
        {
          "indexed": false,
          "internalType": "uint256",
          "name": "executionFee",
          "type": "uint256"
        }
      ],
      "name": "ExecuteSwapOrder",
      "type": "event"
    },
    {
      "anonymous": false,
      "inputs": [
        {
          "indexed": false,
          "internalType": "address",
          "name": "router",
          "type": "address"
        },
        {
          "indexed": false,
          "internalType": "address",
          "name": "vault",
          "type": "address"
        },
        {
          "indexed": false,
          "internalType": "address",
          "name": "weth",
          "type": "address"
        },
        {
          "indexed": false,
          "internalType": "address",
          "name": "usdg",
          "type": "address"
        },
        {
          "indexed": false,
          "internalType": "uint256",
          "name": "minExecutionFee",
          "type": "uint256"
        },
        {
          "indexed": false,
          "internalType": "uint256",
          "name": "minPurchaseTokenAmountUsd",
          "type": "uint256"
        }
      ],
      "name": "Initialize",
      "type": "event"
    },
    {
      "anonymous": false,
      "inputs": [
        {
          "indexed": true,
          "internalType": "address",
          "name": "account",
          "type": "address"
        },
        {
          "indexed": false,
          "internalType": "uint256",
          "name": "orderIndex",
          "type": "uint256"
        },
        {
          "indexed": false,
          "internalType": "address",
          "name": "collateralToken",
          "type": "address"
        },
        {
          "indexed": false,
          "internalType": "uint256",
          "name": "collateralDelta",
          "type": "uint256"
        },
        {
          "indexed": false,
          "internalType": "address",
          "name": "indexToken",
          "type": "address"
        },
        {
          "indexed": false,
          "internalType": "uint256",
          "name": "sizeDelta",
          "type": "uint256"
        },
        {
          "indexed": false,
          "internalType": "bool",
          "name": "isLong",
          "type": "bool"
        },
        {
          "indexed": false,
          "internalType": "uint256",
          "name": "triggerPrice",
          "type": "uint256"
        },
        {
          "indexed": false,
          "internalType": "bool",
          "name": "triggerAboveThreshold",
          "type": "bool"
        }
      ],
      "name": "UpdateDecreaseOrder",
      "type": "event"
    },
    {
      "anonymous": false,
      "inputs": [
        {
          "indexed": false,
          "internalType": "address",
          "name": "gov",
          "type": "address"
        }
      ],
      "name": "UpdateGov",
      "type": "event"
    },
    {
      "anonymous": false,
      "inputs": [
        {
          "indexed": true,
          "internalType": "address",
          "name": "account",
          "type": "address"
        },
        {
          "indexed": false,
          "internalType": "uint256",
          "name": "orderIndex",
          "type": "uint256"
        },
        {
          "indexed": false,
          "internalType": "address",
          "name": "collateralToken",
          "type": "address"
        },
        {
          "indexed": false,
          "internalType": "address",
          "name": "indexToken",
          "type": "address"
        },
        {
          "indexed": false,
          "internalType": "bool",
          "name": "isLong",
          "type": "bool"
        },
        {
          "indexed": false,
          "internalType": "uint256",
          "name": "sizeDelta",
          "type": "uint256"
        },
        {
          "indexed": false,
          "internalType": "uint256",
          "name": "triggerPrice",
          "type": "uint256"
        },
        {
          "indexed": false,
          "internalType": "bool",
          "name": "triggerAboveThreshold",
          "type": "bool"
        }
      ],
      "name": "UpdateIncreaseOrder",
      "type": "event"
    },
    {
      "anonymous": false,
      "inputs": [
        {
          "indexed": false,
          "internalType": "uint256",
          "name": "minExecutionFee",
          "type": "uint256"
        }
      ],
      "name": "UpdateMinExecutionFee",
      "type": "event"
    },
    {
      "anonymous": false,
      "inputs": [
        {
          "indexed": false,
          "internalType": "uint256",
          "name": "minPurchaseTokenAmountUsd",
          "type": "uint256"
        }
      ],
      "name": "UpdateMinPurchaseTokenAmountUsd",
      "type": "event"
    },
    {
      "anonymous": false,
      "inputs": [
        {
          "indexed": true,
          "internalType": "address",
          "name": "account",
          "type": "address"
        },
        {
          "indexed": false,
          "internalType": "uint256",
          "name": "ordexIndex",
          "type": "uint256"
        },
        {
          "indexed": false,
          "internalType": "address[]",
          "name": "path",
          "type": "address[]"
        },
        {
          "indexed": false,
          "internalType": "uint256",
          "name": "amountIn",
          "type": "uint256"
        },
        {
          "indexed": false,
          "internalType": "uint256",
          "name": "minOut",
          "type": "uint256"
        },
        {
          "indexed": false,
          "internalType": "uint256",
          "name": "triggerRatio",
          "type": "uint256"
        },
        {
          "indexed": false,
          "internalType": "bool",
          "name": "triggerAboveThreshold",
          "type": "bool"
        },
        {
          "indexed": false,
          "internalType": "bool",
          "name": "shouldUnwrap",
          "type": "bool"
        },
        {
          "indexed": false,
          "internalType": "uint256",
          "name": "executionFee",
          "type": "uint256"
        }
      ],
      "name": "UpdateSwapOrder",
      "type": "event"
    },
    {
      "inputs": [],
      "name": "PRICE_PRECISION",
      "outputs": [
        {
          "internalType": "uint256",
          "name": "",
          "type": "uint256"
        }
      ],
      "stateMutability": "view",
      "type": "function"
    },
    {
      "inputs": [],
      "name": "USDG_PRECISION",
      "outputs": [
        {
          "internalType": "uint256",
          "name": "",
          "type": "uint256"
        }
      ],
      "stateMutability": "view",
      "type": "function"
    },
    {
      "inputs": [
        {
          "internalType": "uint256",
          "name": "_orderIndex",
          "type": "uint256"
        }
      ],
      "name": "cancelDecreaseOrder",
      "outputs": [],
      "stateMutability": "nonpayable",
      "type": "function"
    },
    {
      "inputs": [
        {
          "internalType": "uint256",
          "name": "_orderIndex",
          "type": "uint256"
        }
      ],
      "name": "cancelIncreaseOrder",
      "outputs": [],
      "stateMutability": "nonpayable",
      "type": "function"
    },
    {
      "inputs": [
        {
          "internalType": "uint256[]",
          "name": "_swapOrderIndexes",
          "type": "uint256[]"
        },
        {
          "internalType": "uint256[]",
          "name": "_increaseOrderIndexes",
          "type": "uint256[]"
        },
        {
          "internalType": "uint256[]",
          "name": "_decreaseOrderIndexes",
          "type": "uint256[]"
        }
      ],
      "name": "cancelMultiple",
      "outputs": [],
      "stateMutability": "nonpayable",
      "type": "function"
    },
    {
      "inputs": [
        {
          "internalType": "uint256",
          "name": "_orderIndex",
          "type": "uint256"
        }
      ],
      "name": "cancelSwapOrder",
      "outputs": [],
      "stateMutability": "nonpayable",
      "type": "function"
    },
    {
      "inputs": [
        {
          "internalType": "address",
          "name": "_indexToken",
          "type": "address"
        },
        {
          "internalType": "uint256",
          "name": "_sizeDelta",
          "type": "uint256"
        },
        {
          "internalType": "address",
          "name": "_collateralToken",
          "type": "address"
        },
        {
          "internalType": "uint256",
          "name": "_collateralDelta",
          "type": "uint256"
        },
        {
          "internalType": "bool",
          "name": "_isLong",
          "type": "bool"
        },
        {
          "internalType": "uint256",
          "name": "_triggerPrice",
          "type": "uint256"
        },
        {
          "internalType": "bool",
          "name": "_triggerAboveThreshold",
          "type": "bool"
        }
      ],
      "name": "createDecreaseOrder",
      "outputs": [],
      "stateMutability": "payable",
      "type": "function"
    },
    {
      "inputs": [
        {
          "internalType": "address[]",
          "name": "_path",
          "type": "address[]"
        },
        {
          "internalType": "uint256",
          "name": "_amountIn",
          "type": "uint256"
        },
        {
          "internalType": "address",
          "name": "_indexToken",
          "type": "address"
        },
        {
          "internalType": "uint256",
          "name": "_minOut",
          "type": "uint256"
        },
        {
          "internalType": "uint256",
          "name": "_sizeDelta",
          "type": "uint256"
        },
        {
          "internalType": "address",
          "name": "_collateralToken",
          "type": "address"
        },
        {
          "internalType": "bool",
          "name": "_isLong",
          "type": "bool"
        },
        {
          "internalType": "uint256",
          "name": "_triggerPrice",
          "type": "uint256"
        },
        {
          "internalType": "bool",
          "name": "_triggerAboveThreshold",
          "type": "bool"
        },
        {
          "internalType": "uint256",
          "name": "_executionFee",
          "type": "uint256"
        },
        {
          "internalType": "bool",
          "name": "_shouldWrap",
          "type": "bool"
        }
      ],
      "name": "createIncreaseOrder",
      "outputs": [],
      "stateMutability": "payable",
      "type": "function"
    },
    {
      "inputs": [
        {
          "internalType": "address[]",
          "name": "_path",
          "type": "address[]"
        },
        {
          "internalType": "uint256",
          "name": "_amountIn",
          "type": "uint256"
        },
        {
          "internalType": "uint256",
          "name": "_minOut",
          "type": "uint256"
        },
        {
          "internalType": "uint256",
          "name": "_triggerRatio",
          "type": "uint256"
        },
        {
          "internalType": "bool",
          "name": "_triggerAboveThreshold",
          "type": "bool"
        },
        {
          "internalType": "uint256",
          "name": "_executionFee",
          "type": "uint256"
        },
        {
          "internalType": "bool",
          "name": "_shouldWrap",
          "type": "bool"
        },
        {
          "internalType": "bool",
          "name": "_shouldUnwrap",
          "type": "bool"
        }
      ],
      "name": "createSwapOrder",
      "outputs": [],
      "stateMutability": "payable",
      "type": "function"
    },
    {
      "inputs": [
        {
          "internalType": "address",
          "name": "",
          "type": "address"
        },
        {
          "internalType": "uint256",
          "name": "",
          "type": "uint256"
        }
      ],
      "name": "decreaseOrders",
      "outputs": [
        {
          "internalType": "address",
          "name": "account",
          "type": "address"
        },
        {
          "internalType": "address",
          "name": "collateralToken",
          "type": "address"
        },
        {
          "internalType": "uint256",
          "name": "collateralDelta",
          "type": "uint256"
        },
        {
          "internalType": "address",
          "name": "indexToken",
          "type": "address"
        },
        {
          "internalType": "uint256",
          "name": "sizeDelta",
          "type": "uint256"
        },
        {
          "internalType": "bool",
          "name": "isLong",
          "type": "bool"
        },
        {
          "internalType": "uint256",
          "name": "triggerPrice",
          "type": "uint256"
        },
        {
          "internalType": "bool",
          "name": "triggerAboveThreshold",
          "type": "bool"
        },
        {
          "internalType": "uint256",
          "name": "executionFee",
          "type": "uint256"
        }
      ],
      "stateMutability": "view",
      "type": "function"
    },
    {
      "inputs": [
        {
          "internalType": "address",
          "name": "",
          "type": "address"
        }
      ],
      "name": "decreaseOrdersIndex",
      "outputs": [
        {
          "internalType": "uint256",
          "name": "",
          "type": "uint256"
        }
      ],
      "stateMutability": "view",
      "type": "function"
    },
    {
      "inputs": [
        {
          "internalType": "address",
          "name": "_address",
          "type": "address"
        },
        {
          "internalType": "uint256",
          "name": "_orderIndex",
          "type": "uint256"
        },
        {
          "internalType": "address payable",
          "name": "_feeReceiver",
          "type": "address"
        }
      ],
      "name": "executeDecreaseOrder",
      "outputs": [],
      "stateMutability": "nonpayable",
      "type": "function"
    },
    {
      "inputs": [
        {
          "internalType": "address",
          "name": "_address",
          "type": "address"
        },
        {
          "internalType": "uint256",
          "name": "_orderIndex",
          "type": "uint256"
        },
        {
          "internalType": "address payable",
          "name": "_feeReceiver",
          "type": "address"
        }
      ],
      "name": "executeIncreaseOrder",
      "outputs": [],
      "stateMutability": "nonpayable",
      "type": "function"
    },
    {
      "inputs": [
        {
          "internalType": "address",
          "name": "_account",
          "type": "address"
        },
        {
          "internalType": "uint256",
          "name": "_orderIndex",
          "type": "uint256"
        },
        {
          "internalType": "address payable",
          "name": "_feeReceiver",
          "type": "address"
        }
      ],
      "name": "executeSwapOrder",
      "outputs": [],
      "stateMutability": "nonpayable",
      "type": "function"
    },
    {
      "inputs": [
        {
          "internalType": "address",
          "name": "_account",
          "type": "address"
        },
        {
          "internalType": "uint256",
          "name": "_orderIndex",
          "type": "uint256"
        }
      ],
      "name": "getDecreaseOrder",
      "outputs": [
        {
          "internalType": "address",
          "name": "collateralToken",
          "type": "address"
        },
        {
          "internalType": "uint256",
          "name": "collateralDelta",
          "type": "uint256"
        },
        {
          "internalType": "address",
          "name": "indexToken",
          "type": "address"
        },
        {
          "internalType": "uint256",
          "name": "sizeDelta",
          "type": "uint256"
        },
        {
          "internalType": "bool",
          "name": "isLong",
          "type": "bool"
        },
        {
          "internalType": "uint256",
          "name": "triggerPrice",
          "type": "uint256"
        },
        {
          "internalType": "bool",
          "name": "triggerAboveThreshold",
          "type": "bool"
        },
        {
          "internalType": "uint256",
          "name": "executionFee",
          "type": "uint256"
        }
      ],
      "stateMutability": "view",
      "type": "function"
    },
    {
      "inputs": [
        {
          "internalType": "address",
          "name": "_account",
          "type": "address"
        },
        {
          "internalType": "uint256",
          "name": "_orderIndex",
          "type": "uint256"
        }
      ],
      "name": "getIncreaseOrder",
      "outputs": [
        {
          "internalType": "address",
          "name": "purchaseToken",
          "type": "address"
        },
        {
          "internalType": "uint256",
          "name": "purchaseTokenAmount",
          "type": "uint256"
        },
        {
          "internalType": "address",
          "name": "collateralToken",
          "type": "address"
        },
        {
          "internalType": "address",
          "name": "indexToken",
          "type": "address"
        },
        {
          "internalType": "uint256",
          "name": "sizeDelta",
          "type": "uint256"
        },
        {
          "internalType": "bool",
          "name": "isLong",
          "type": "bool"
        },
        {
          "internalType": "uint256",
          "name": "triggerPrice",
          "type": "uint256"
        },
        {
          "internalType": "bool",
          "name": "triggerAboveThreshold",
          "type": "bool"
        },
        {
          "internalType": "uint256",
          "name": "executionFee",
          "type": "uint256"
        }
      ],
      "stateMutability": "view",
      "type": "function"
    },
    {
      "inputs": [
        {
          "internalType": "address",
          "name": "_account",
          "type": "address"
        },
        {
          "internalType": "uint256",
          "name": "_orderIndex",
          "type": "uint256"
        }
      ],
      "name": "getSwapOrder",
      "outputs": [
        {
          "internalType": "address",
          "name": "path0",
          "type": "address"
        },
        {
          "internalType": "address",
          "name": "path1",
          "type": "address"
        },
        {
          "internalType": "address",
          "name": "path2",
          "type": "address"
        },
        {
          "internalType": "uint256",
          "name": "amountIn",
          "type": "uint256"
        },
        {
          "internalType": "uint256",
          "name": "minOut",
          "type": "uint256"
        },
        {
          "internalType": "uint256",
          "name": "triggerRatio",
          "type": "uint256"
        },
        {
          "internalType": "bool",
          "name": "triggerAboveThreshold",
          "type": "bool"
        },
        {
          "internalType": "bool",
          "name": "shouldUnwrap",
          "type": "bool"
        },
        {
          "internalType": "uint256",
          "name": "executionFee",
          "type": "uint256"
        }
      ],
      "stateMutability": "view",
      "type": "function"
    },
    {
      "inputs": [
        {
          "internalType": "address",
          "name": "_otherToken",
          "type": "address"
        }
      ],
      "name": "getUsdgMinPrice",
      "outputs": [
        {
          "internalType": "uint256",
          "name": "",
          "type": "uint256"
        }
      ],
      "stateMutability": "view",
      "type": "function"
    },
    {
      "inputs": [],
      "name": "gov",
      "outputs": [
        {
          "internalType": "address",
          "name": "",
          "type": "address"
        }
      ],
      "stateMutability": "view",
      "type": "function"
    },
    {
      "inputs": [
        {
          "internalType": "address",
          "name": "",
          "type": "address"
        },
        {
          "internalType": "uint256",
          "name": "",
          "type": "uint256"
        }
      ],
      "name": "increaseOrders",
      "outputs": [
        {
          "internalType": "address",
          "name": "account",
          "type": "address"
        },
        {
          "internalType": "address",
          "name": "purchaseToken",
          "type": "address"
        },
        {
          "internalType": "uint256",
          "name": "purchaseTokenAmount",
          "type": "uint256"
        },
        {
          "internalType": "address",
          "name": "collateralToken",
          "type": "address"
        },
        {
          "internalType": "address",
          "name": "indexToken",
          "type": "address"
        },
        {
          "internalType": "uint256",
          "name": "sizeDelta",
          "type": "uint256"
        },
        {
          "internalType": "bool",
          "name": "isLong",
          "type": "bool"
        },
        {
          "internalType": "uint256",
          "name": "triggerPrice",
          "type": "uint256"
        },
        {
          "internalType": "bool",
          "name": "triggerAboveThreshold",
          "type": "bool"
        },
        {
          "internalType": "uint256",
          "name": "executionFee",
          "type": "uint256"
        }
      ],
      "stateMutability": "view",
      "type": "function"
    },
    {
      "inputs": [
        {
          "internalType": "address",
          "name": "",
          "type": "address"
        }
      ],
      "name": "increaseOrdersIndex",
      "outputs": [
        {
          "internalType": "uint256",
          "name": "",
          "type": "uint256"
        }
      ],
      "stateMutability": "view",
      "type": "function"
    },
    {
      "inputs": [
        {
          "internalType": "address",
          "name": "_router",
          "type": "address"
        },
        {
          "internalType": "address",
          "name": "_vault",
          "type": "address"
        },
        {
          "internalType": "address",
          "name": "_weth",
          "type": "address"
        },
        {
          "internalType": "address",
          "name": "_usdg",
          "type": "address"
        },
        {
          "internalType": "uint256",
          "name": "_minExecutionFee",
          "type": "uint256"
        },
        {
          "internalType": "uint256",
          "name": "_minPurchaseTokenAmountUsd",
          "type": "uint256"
        }
      ],
      "name": "initialize",
      "outputs": [],
      "stateMutability": "nonpayable",
      "type": "function"
    },
    {
      "inputs": [],
      "name": "isInitialized",
      "outputs": [
        {
          "internalType": "bool",
          "name": "",
          "type": "bool"
        }
      ],
      "stateMutability": "view",
      "type": "function"
    },
    {
      "inputs": [],
      "name": "minExecutionFee",
      "outputs": [
        {
          "internalType": "uint256",
          "name": "",
          "type": "uint256"
        }
      ],
      "stateMutability": "view",
      "type": "function"
    },
    {
      "inputs": [],
      "name": "minPurchaseTokenAmountUsd",
      "outputs": [
        {
          "internalType": "uint256",
          "name": "",
          "type": "uint256"
        }
      ],
      "stateMutability": "view",
      "type": "function"
    },
    {
      "inputs": [],
      "name": "router",
      "outputs": [
        {
          "internalType": "address",
          "name": "",
          "type": "address"
        }
      ],
      "stateMutability": "view",
      "type": "function"
    },
    {
      "inputs": [
        {
          "internalType": "address",
          "name": "_gov",
          "type": "address"
        }
      ],
      "name": "setGov",
      "outputs": [],
      "stateMutability": "nonpayable",
      "type": "function"
    },
    {
      "inputs": [
        {
          "internalType": "uint256",
          "name": "_minExecutionFee",
          "type": "uint256"
        }
      ],
      "name": "setMinExecutionFee",
      "outputs": [],
      "stateMutability": "nonpayable",
      "type": "function"
    },
    {
      "inputs": [
        {
          "internalType": "uint256",
          "name": "_minPurchaseTokenAmountUsd",
          "type": "uint256"
        }
      ],
      "name": "setMinPurchaseTokenAmountUsd",
      "outputs": [],
      "stateMutability": "nonpayable",
      "type": "function"
    },
    {
      "inputs": [
        {
          "internalType": "address",
          "name": "",
          "type": "address"
        },
        {
          "internalType": "uint256",
          "name": "",
          "type": "uint256"
        }
      ],
      "name": "swapOrders",
      "outputs": [
        {
          "internalType": "address",
          "name": "account",
          "type": "address"
        },
        {
          "internalType": "uint256",
          "name": "amountIn",
          "type": "uint256"
        },
        {
          "internalType": "uint256",
          "name": "minOut",
          "type": "uint256"
        },
        {
          "internalType": "uint256",
          "name": "triggerRatio",
          "type": "uint256"
        },
        {
          "internalType": "bool",
          "name": "triggerAboveThreshold",
          "type": "bool"
        },
        {
          "internalType": "bool",
          "name": "shouldUnwrap",
          "type": "bool"
        },
        {
          "internalType": "uint256",
          "name": "executionFee",
          "type": "uint256"
        }
      ],
      "stateMutability": "view",
      "type": "function"
    },
    {
      "inputs": [
        {
          "internalType": "address",
          "name": "",
          "type": "address"
        }
      ],
      "name": "swapOrdersIndex",
      "outputs": [
        {
          "internalType": "uint256",
          "name": "",
          "type": "uint256"
        }
      ],
      "stateMutability": "view",
      "type": "function"
    },
    {
      "inputs": [
        {
          "internalType": "uint256",
          "name": "_orderIndex",
          "type": "uint256"
        },
        {
          "internalType": "uint256",
          "name": "_collateralDelta",
          "type": "uint256"
        },
        {
          "internalType": "uint256",
          "name": "_sizeDelta",
          "type": "uint256"
        },
        {
          "internalType": "uint256",
          "name": "_triggerPrice",
          "type": "uint256"
        },
        {
          "internalType": "bool",
          "name": "_triggerAboveThreshold",
          "type": "bool"
        }
      ],
      "name": "updateDecreaseOrder",
      "outputs": [],
      "stateMutability": "nonpayable",
      "type": "function"
    },
    {
      "inputs": [
        {
          "internalType": "uint256",
          "name": "_orderIndex",
          "type": "uint256"
        },
        {
          "internalType": "uint256",
          "name": "_sizeDelta",
          "type": "uint256"
        },
        {
          "internalType": "uint256",
          "name": "_triggerPrice",
          "type": "uint256"
        },
        {
          "internalType": "bool",
          "name": "_triggerAboveThreshold",
          "type": "bool"
        }
      ],
      "name": "updateIncreaseOrder",
      "outputs": [],
      "stateMutability": "nonpayable",
      "type": "function"
    },
    {
      "inputs": [
        {
          "internalType": "uint256",
          "name": "_orderIndex",
          "type": "uint256"
        },
        {
          "internalType": "uint256",
          "name": "_minOut",
          "type": "uint256"
        },
        {
          "internalType": "uint256",
          "name": "_triggerRatio",
          "type": "uint256"
        },
        {
          "internalType": "bool",
          "name": "_triggerAboveThreshold",
          "type": "bool"
        }
      ],
      "name": "updateSwapOrder",
      "outputs": [],
      "stateMutability": "nonpayable",
      "type": "function"
    },
    {
      "inputs": [],
      "name": "usdg",
      "outputs": [
        {
          "internalType": "address",
          "name": "",
          "type": "address"
        }
      ],
      "stateMutability": "view",
      "type": "function"
    },
    {
      "inputs": [
        {
          "internalType": "bool",
          "name": "_triggerAboveThreshold",
          "type": "bool"
        },
        {
          "internalType": "uint256",
          "name": "_triggerPrice",
          "type": "uint256"
        },
        {
          "internalType": "address",
          "name": "_indexToken",
          "type": "address"
        },
        {
          "internalType": "bool",
          "name": "_maximizePrice",
          "type": "bool"
        },
        {
          "internalType": "bool",
          "name": "_raise",
          "type": "bool"
        }
      ],
      "name": "validatePositionOrderPrice",
      "outputs": [
        {
          "internalType": "uint256",
          "name": "",
          "type": "uint256"
        },
        {
          "internalType": "bool",
          "name": "",
          "type": "bool"
        }
      ],
      "stateMutability": "view",
      "type": "function"
    },
    {
      "inputs": [
        {
          "internalType": "address[]",
          "name": "_path",
          "type": "address[]"
        },
        {
          "internalType": "uint256",
          "name": "_triggerRatio",
          "type": "uint256"
        }
      ],
      "name": "validateSwapOrderPriceWithTriggerAboveThreshold",
      "outputs": [
        {
          "internalType": "bool",
          "name": "",
          "type": "bool"
        }
      ],
      "stateMutability": "view",
      "type": "function"
    },
    {
      "inputs": [],
      "name": "vault",
      "outputs": [
        {
          "internalType": "address",
          "name": "",
          "type": "address"
        }
      ],
      "stateMutability": "view",
      "type": "function"
    },
    {
      "inputs": [],
      "name": "weth",
      "outputs": [
        {
          "internalType": "address",
          "name": "",
          "type": "address"
        }
      ],
      "stateMutability": "view",
      "type": "function"
    },
    {
      "stateMutability": "payable",
      "type": "receive"
    }
  ],
  "bytecode": "0x6080604052600e805460ff1916905534801561001a57600080fd5b506001600055600780546001600160a01b0319163317905561510b806100416000396000f3fe6080604052600436106102a35760003560e01c80639e23de5c1161016e578063d38ab519116100cb578063f5b91b7b1161007f578063f887ea4011610064578063f887ea4014610c4e578063fbfa77cf14610c6e578063fc2cee6214610c8e57600080fd5b8063f5b91b7b14610c0e578063f882ac0714610c2e57600080fd5b8063d566d0ca116100b0578063d566d0ca14610ae6578063d7c41c7914610b13578063f2d2e01b14610b3357600080fd5b8063d38ab5191461098a578063d3bab1d1146109aa57600080fd5b8063c16cde8a11610122578063c86b0f7d11610107578063c86b0f7d146108d1578063cfad57a2146108f1578063d0d40cd61461091157600080fd5b8063c16cde8a1461089e578063c4a1821b146108b157600080fd5b8063a397ea5411610153578063a397ea541461083e578063aec224551461085e578063b142a4b01461088b57600080fd5b80639e23de5c146107fe5780639e71b0f01461081e57600080fd5b80633fc8cef31161021c57806379221fa2116101d05780638de10c2e116101b55780638de10c2e146107a757806395082d25146107bd5780639983ee1b146107de57600080fd5b806379221fa2146106d5578063807c56001461078757600080fd5b80634a686d67116102015780634a686d671461066e5780634c54f0b01461068a57806363ae2103146106bf57600080fd5b80633fc8cef31461062e57806347e0bbd01461064e57600080fd5b806311d9444a11610273578063269ae6c211610258578063269ae6c2146105055780632b7d629014610518578063392e53cd1461060457600080fd5b806311d9444a146104ad57806312d43a51146104cd57600080fd5b8062cf066b1461030e578063026032ee1461034e57806307c7edc31461046d5780630d5cc9381461048d57600080fd5b36610309576008546001600160a01b031633146103075760405162461bcd60e51b815260206004820152601960248201527f4f72646572426f6f6b3a20696e76616c69642073656e6465720000000000000060448201526064015b60405180910390fd5b005b600080fd5b34801561031a57600080fd5b5061033b610329366004614722565b60066020526000908152604090205481565b6040519081526020015b60405180910390f35b34801561035a57600080fd5b5061041d61036936600461473f565b6001600160a01b039182166000908152600360208181526040808420948452938152918390208351610120810185528154861681526001820154861693810184905260028201549481018590529181015490941660608201819052600485015460808301819052600586015460ff908116151560a08501819052600688015460c086018190526007890154909216151560e08601819052600890980154610100909501859052949795969295919493909291565b604080516001600160a01b03998a1681526020810198909852959097169486019490945260608501929092521515608084015260a0830152151560c082015260e081019190915261010001610345565b34801561047957600080fd5b5061030761048836600461476b565b610cae565b34801561049957600080fd5b506103076104a83660046147ad565b61105a565b3480156104b957600080fd5b506103076104c836600461476b565b6110e7565b3480156104d957600080fd5b506007546104ed906001600160a01b031681565b6040516001600160a01b039091168152602001610345565b6103076105133660046148c3565b61148f565b34801561052457600080fd5b506105a561053336600461473f565b6001602081815260009384526040808520909152918352912080549181015460028201546003830154600484015460058501546006860154600787015460088801546009909801546001600160a01b03998a1699978816989697958616969490951694929360ff92831693919216908a565b604080516001600160a01b039b8c168152998b1660208b0152890197909752948816606088015296909216608086015260a0850152151560c084015260e083019390935291151561010082015261012081019190915261014001610345565b34801561061057600080fd5b50600e5461061e9060ff1681565b6040519015158152602001610345565b34801561063a57600080fd5b506008546104ed906001600160a01b031681565b34801561065a57600080fd5b506103076106693660046147ad565b6118b9565b34801561067a57600080fd5b5061033b670de0b6b3a764000081565b34801561069657600080fd5b506106aa6106a5366004614961565b611b97565b60408051928352901515602083015201610345565b3480156106cb57600080fd5b5061033b600c5481565b3480156106e157600080fd5b506107446106f036600461473f565b600560208181526000938452604080852090915291835291208054600282015460038301546004840154948401546006909401546001600160a01b03909316949193909260ff808316926101009004169087565b604080516001600160a01b039098168852602088019690965294860193909352606085019190915215156080840152151560a083015260c082015260e001610345565b34801561079357600080fd5b506103076107a2366004614a24565b611d09565b3480156107b357600080fd5b5061033b600d5481565b3480156107c957600080fd5b5061033b6c0c9f2c9cd04674edea4000000081565b3480156107ea57600080fd5b506103076107f9366004614aac565b611dd1565b34801561080a57600080fd5b5061033b610819366004614722565b611f07565b34801561082a57600080fd5b506103076108393660046147ad565b6120cb565b34801561084a57600080fd5b50610307610859366004614aed565b61230e565b34801561086a57600080fd5b5061033b610879366004614722565b60026020526000908152604090205481565b610307610899366004614b2c565b612450565b6103076108ac366004614bf4565b612931565b3480156108bd57600080fd5b5061061e6108cc366004614c6f565b6129de565b3480156108dd57600080fd5b506103076108ec366004614aac565b612c22565b3480156108fd57600080fd5b5061030761090c366004614722565b612d2c565b34801561091d57600080fd5b5061093161092c36600461473f565b612dcb565b604080516001600160a01b039a8b168152988a1660208a015296909816958701959095526060860193909352608085019190915260a0840152151560c0830152151560e082015261010081019190915261012001610345565b34801561099657600080fd5b506103076109a536600461476b565b612f98565b3480156109b657600080fd5b50610a8c6109c536600461473f565b6001600160a01b0391821660009081526001602081815260408084209484529381529183902083516101408101855281548616815291810154851692820183905260028101549382018490526003810154851660608301819052600482015490951660808301819052600582015460a08401819052600683015460ff908116151560c08601819052600785015460e0870181905260088601549092161515610100870181905260099095015461012090960186905295989697969295919491939092909190565b604080516001600160a01b039a8b1681526020810199909952968916968801969096529690931660608601526080850191909152151560a084015260c083015291151560e082015261010081019190915261012001610345565b348015610af257600080fd5b5061033b610b01366004614722565b60046020526000908152604090205481565b348015610b1f57600080fd5b50610307610b2e366004614cb4565b6133eb565b348015610b3f57600080fd5b50610bb8610b4e36600461473f565b600360208181526000938452604080852090915291835291208054600182015460028301549383015460048401546005850154600686015460078701546008909701546001600160a01b039687169895871697959690941694929360ff9283169391929091169089565b604080516001600160a01b039a8b168152988a1660208a01528801969096529690931660608601526080850191909152151560a084015260c083015291151560e082015261010081019190915261012001610345565b348015610c1a57600080fd5b506009546104ed906001600160a01b031681565b348015610c3a57600080fd5b50610307610c493660046147ad565b613551565b348015610c5a57600080fd5b50600a546104ed906001600160a01b031681565b348015610c7a57600080fd5b50600b546104ed906001600160a01b031681565b348015610c9a57600080fd5b50610307610ca93660046147ad565b6137f6565b600260005403610cd1576040516306fda65d60e31b815260040160405180910390fd5b600260009081556001600160a01b0380851682526005602090815260408084208685528252808420815161010081018352815490941684526001810180548351818602810186019094528084529193858101939290830182828015610d5f57602002820191906000526020600020905b81546001600160a01b03168152600190910190602001808311610d41575b5050509183525050600282015460208201526003820154604082015260048201546060820152600582015460ff8082161515608084015261010090910416151560a082015260069091015460c09091015280519091506001600160a01b0316610e0a5760405162461bcd60e51b815260206004820152601d60248201527f4f72646572426f6f6b3a206e6f6e2d6578697374656e74206f7264657200000060448201526064016102fe565b8060a0015115610e8157610e26816020015182608001516129de565b610e815760405162461bcd60e51b815260206004820152602660248201527f4f72646572426f6f6b3a20696e76616c696420707269636520666f722065786560448201526531baba34b7b760d11b60648201526084016102fe565b6001600160a01b0384166000908152600560209081526040808320868452909152812080546001600160a01b031916815590610ec06001830182614672565b50600060028201819055600382018190556004820181905560058201805461ffff191690556006909101819055600b54604083015160208401518051610f39946001600160a01b039094169390610f1957610f19614d22565b60200260200101516001600160a01b031661387c9092919063ffffffff16565b600854602082015180516000926001600160a01b03169190610f5d90600190614d4e565b81518110610f6d57610f6d614d22565b60200260200101516001600160a01b0316148015610f8c57508160c001515b15610fb957610fa48260200151836060015130613901565b9050610fb4818360000151613a65565b610fd3565b610fd0826020015183606001518460000151613901565b90505b610fe18260e0015184613a65565b846001600160a01b03167f7e1fe496989eea92b738a562dbf9c0ae6aa6fcf3f1ef09e95ee4f7603721706b858460200151856040015186606001518688608001518960a001518a60c001518b60e0015160405161104699989796959493929190614da5565b60405180910390a250506001600055505050565b6007546001600160a01b031633146110ab5760405162461bcd60e51b815260206004820152601460248201527327b93232b92137b7b59d103337b93134b23232b760611b60448201526064016102fe565b600d8190556040518181527fe46d9daf6d25f7615efa1d0183b90ac6759d85014b598e409aadf0fd918d59a6906020015b60405180910390a150565b60026000540361110a576040516306fda65d60e31b815260040160405180910390fd5b600260008181556001600160a01b038086168252600360208181526040808520888652825293849020845161012081018652815485168082526001830154861693820193909352958101549486019490945290830154909116606084015260048201546080840152600582015460ff908116151560a0850152600683015460c0850152600783015416151560e08401526008909101546101008301526111f25760405162461bcd60e51b815260206004820152601d60248201527f4f72646572426f6f6b3a206e6f6e2d6578697374656e74206f7264657200000060448201526064016102fe565b60006112138260e001518360c0015184606001518560a00151156001611b97565b506001600160a01b0386811660009081526003602081815260408084208a8552825280842080546001600160a01b0319908116825560018201805482169055600282018690559381018054909416909355600480840185905560058401805460ff199081169091556006850186905560078501805490911690556008909301849055600a5488519289015160608a01518a84015160808c015160a08d015195517f2662166b000000000000000000000000000000000000000000000000000000008152968a169787019790975291881660248601528716604485015260648401526084830193909352151560a48201523060c48201529394509092911690632662166b9060e4016020604051808303816000875af1158015611339573d6000803e3d6000fd5b505050506040513d601f19601f8201168201806040525081019061135d9190614dfc565b60085460208501519192506001600160a01b0390811691160361138d57611388818460000151613a65565b6113aa565b825160208401516113aa916001600160a01b03909116908361387c565b6113b983610100015185613a65565b82600001516001600160a01b03167f9a382661d6573da86db000471303be6f0b2b1bb66089b08e3c16a85d7b6e94f88685602001518660400151876060015188608001518960a001518a60c001518b60e001518c61010001518c60405161147a9a99989796959493929190998a526001600160a01b0398891660208b015260408a01979097529490961660608801526080870192909252151560a086015260c085015291151560e08401526101008301919091526101208201526101400190565b60405180910390a25050600160005550505050565b6002600054036114b2576040516306fda65d60e31b815260040160405180910390fd5b60026000819055885114806114c8575087516003145b6115145760405162461bcd60e51b815260206004820152601f60248201527f4f72646572426f6f6b3a20696e76616c6964205f706174682e6c656e6774680060448201526064016102fe565b87600189516115239190614d4e565b8151811061153357611533614d22565b60200260200101516001600160a01b03168860008151811061155757611557614d22565b60200260200101516001600160a01b0316036115b55760405162461bcd60e51b815260206004820152601860248201527f4f72646572426f6f6b3a20696e76616c6964205f70617468000000000000000060448201526064016102fe565b600087116116055760405162461bcd60e51b815260206004820152601c60248201527f4f72646572426f6f6b3a20696e76616c6964205f616d6f756e74496e0000000060448201526064016102fe565b600c548310156116655760405162461bcd60e51b815260206004820152602560248201527f4f72646572426f6f6b3a20696e73756666696369656e7420657865637574696f6044820152646e2066656560d81b60648201526084016102fe565b61166d613af4565b811561176d5760085488516001600160a01b0390911690899060009061169557611695614d22565b60200260200101516001600160a01b0316146117015760405162461bcd60e51b815260206004820152602560248201527f4f72646572426f6f6b3a206f6e6c79207765746820636f756c64206265207772604482015264185c1c195960da1b60648201526084016102fe565b61170b8784614e15565b34146117685760405162461bcd60e51b815260206004820152602660248201527f4f72646572426f6f6b3a20696e636f72726563742076616c7565207472616e7360448201526519995c9c995960d21b60648201526084016102fe565b61189a565b8234146117e25760405162461bcd60e51b815260206004820152602e60248201527f4f72646572426f6f6b3a20696e636f727265637420657865637574696f6e206660448201527f6565207472616e7366657272656400000000000000000000000000000000000060648201526084016102fe565b600a5488516001600160a01b0390911690631b827878908a9060009061180a5761180a614d22565b60209081029190910101516040517fffffffff0000000000000000000000000000000000000000000000000000000060e084901b1681526001600160a01b039091166004820152336024820152306044820152606481018a9052608401600060405180830381600087803b15801561188157600080fd5b505af1158015611895573d6000803e3d6000fd5b505050505b6118aa338989898989878a613b66565b50506001600055505050505050565b6002600054036118dc576040516306fda65d60e31b815260040160405180910390fd5b6002600081815533815260016020818152604080842086855282529283902083516101408101855281546001600160a01b039081168083529483015481169382019390935294810154938501939093526003830154811660608501526004830154166080840152600582015460a0840152600682015460ff908116151560c0850152600783015460e085015260088301541615156101008401526009909101546101208301526119ce5760405162461bcd60e51b815260206004820152601d60248201527f4f72646572426f6f6b3a206e6f6e2d6578697374656e74206f7264657200000060448201526064016102fe565b3360009081526001602081815260408084208685528252832080546001600160a01b0319908116825592810180548416905560028101849055600381018054841690556004810180549093169092556005820183905560068201805460ff19908116909155600783018490556008808401805490921690915560099092019290925554908201516001600160a01b03918216911603611a8a57611a858160400151826101200151611a7f9190614e15565b33613a65565b611abf565b611ab033826040015183602001516001600160a01b031661387c9092919063ffffffff16565b611abf81610120015133613a65565b80600001516001600160a01b03167fd500f34e0ec655b7614ae42e1d9c666d5e4dde909a1297829f8c5ecf00805d328383602001518460400151856060015186608001518760a001518860c001518960e001518a61010001518b6101200151604051611b869a99989796959493929190998a526001600160a01b0398891660208b015260408a0197909752948716606089015292909516608087015260a086015292151560c085015260e08401929092529015156101008301526101208201526101400190565b60405180910390a250506001600055565b600080600084611c1457600b546040516340d3096b60e11b81526001600160a01b038881166004830152909116906381a612d690602401602060405180830381865afa158015611beb573d6000803e3d6000fd5b505050506040513d601f19601f82011682018060405250810190611c0f9190614dfc565b611c82565b600b54604051637092736960e11b81526001600160a01b0388811660048301529091169063e124e6d290602401602060405180830381865afa158015611c5e573d6000803e3d6000fd5b505050506040513d601f19601f82011682018060405250810190611c829190614dfc565b9050600088611c9357878210611c97565b8782115b90508415611cfb5780611cfb5760405162461bcd60e51b815260206004820152602660248201527f4f72646572426f6f6b3a20696e76616c696420707269636520666f722065786560448201526531baba34b7b760d11b60648201526084016102fe565b909890975095505050505050565b60005b8351811015611d4957611d37848281518110611d2a57611d2a614d22565b6020026020010151613551565b80611d4181614e28565b915050611d0c565b5060005b8251811015611d8a57611d78838281518110611d6b57611d6b614d22565b60200260200101516118b9565b80611d8281614e28565b915050611d4d565b5060005b8151811015611dcb57611db9828281518110611dac57611dac614d22565b60200260200101516120cb565b80611dc381614e28565b915050611d8e565b50505050565b600260005403611df4576040516306fda65d60e31b815260040160405180910390fd5b60026000908155338152600160209081526040808320878452909152902080546001600160a01b0316611e695760405162461bcd60e51b815260206004820152601d60248201527f4f72646572426f6f6b3a206e6f6e2d6578697374656e74206f7264657200000060448201526064016102fe565b6007810183905560088101805460ff191683151590811790915560058201859055600382015460048301546006840154604080518a81526001600160a01b039485166020820152939092169183019190915260ff16151560608201526080810186905260a0810185905260c081019190915233907f0a0360dd5c354235bbf8d386ba3b24ef8134088e0785677de1504df219d9149a9060e001611046565b600b546040517f2c668ec10000000000000000000000000000000000000000000000000000000081526001600160a01b038381166004830152670de0b6b3a764000060248301526000928392911690632c668ec190604401602060405180830381865afa158015611f7c573d6000803e3d6000fd5b505050506040513d601f19601f82011682018060405250810190611fa09190614dfc565b600b546040516340d3096b60e11b81526001600160a01b038681166004830152929350600092909116906381a612d690602401602060405180830381865afa158015611ff0573d6000803e3d6000fd5b505050506040513d601f19601f820116820180604052508101906120149190614dfc565b600b546040517f8ee573ac0000000000000000000000000000000000000000000000000000000081526001600160a01b03878116600483015292935060009290911690638ee573ac90602401602060405180830381865afa15801561207d573d6000803e3d6000fd5b505050506040513d601f19601f820116820180604052508101906120a19190614dfc565b90506120ae81600a614f25565b6120b88385614f31565b6120c29190614f48565b95945050505050565b6002600054036120ee576040516306fda65d60e31b815260040160405180910390fd5b6002600081815533815260036020818152604080842086855282529283902083516101208101855281546001600160a01b039081168083526001840154821694830194909452958201549481019490945291820154909316606083015260048101546080830152600581015460ff908116151560a0840152600682015460c0840152600782015416151560e083015260080154610100820152906121d45760405162461bcd60e51b815260206004820152601d60248201527f4f72646572426f6f6b3a206e6f6e2d6578697374656e74206f7264657200000060448201526064016102fe565b336000818152600360208181526040808420878552909152822080546001600160a01b03199081168255600182018054821690556002820184905591810180549092169091556004810182905560058101805460ff199081169091556006820183905560078201805490911690556008015561010082015161225591613a65565b80600001516001600160a01b03167f1154174c82984656b028c8021671988f60a346497e56fe02554761184f82a0758383602001518460400151856060015186608001518760a001518860c001518960e001518a6101000151604051611b86999897969594939291909889526001600160a01b0397881660208a015260408901969096529390951660608701526080860191909152151560a085015260c084019290925290151560e08301526101008201526101200190565b600260005403612331576040516306fda65d60e31b815260040160405180910390fd5b60026000908155338152600360209081526040808320888452909152902080546001600160a01b03166123a65760405162461bcd60e51b815260206004820152601d60248201527f4f72646572426f6f6b3a206e6f6e2d6578697374656e74206f7264657200000060448201526064016102fe565b6006810183905560078101805460ff19168315159081179091556004820185905560028201869055600182015460038301546005840154604080518b81526001600160a01b0394851660208201529081018a90529290911660608301526080820187905260ff16151560a082015260c0810185905260e081019190915233907f75781255bc71c83f89f29e5a2599f2c174a562d2cd8f2e818a47f132e7280498906101000161147a565b600260005403612473576040516306fda65d60e31b815260040160405180910390fd5b6002600055612480613af4565b600c548210156124e05760405162461bcd60e51b815260206004820152602560248201527f4f72646572426f6f6b3a20696e73756666696369656e7420657865637574696f6044820152646e2066656560d81b60648201526084016102fe565b80156125e0576008548b516001600160a01b03909116908c9060009061250857612508614d22565b60200260200101516001600160a01b0316146125745760405162461bcd60e51b815260206004820152602560248201527f4f72646572426f6f6b3a206f6e6c79207765746820636f756c64206265207772604482015264185c1c195960da1b60648201526084016102fe565b61257e8a83614e15565b34146125db5760405162461bcd60e51b815260206004820152602660248201527f4f72646572426f6f6b3a20696e636f72726563742076616c7565207472616e7360448201526519995c9c995960d21b60648201526084016102fe565b61270d565b8134146126555760405162461bcd60e51b815260206004820152602e60248201527f4f72646572426f6f6b3a20696e636f727265637420657865637574696f6e206660448201527f6565207472616e7366657272656400000000000000000000000000000000000060648201526084016102fe565b600a548b516001600160a01b0390911690631b827878908d9060009061267d5761267d614d22565b60209081029190910101516040517fffffffff0000000000000000000000000000000000000000000000000000000060e084901b1681526001600160a01b039091166004820152336024820152306044820152606481018d9052608401600060405180830381600087803b1580156126f457600080fd5b505af1158015612708573d6000803e3d6000fd5b505050505b60008b60018d5161271e9190614d4e565b8151811061272e5761272e614d22565b60200260200101519050600060018d5111156127fe57816001600160a01b03168d60008151811061276157612761614d22565b60200260200101516001600160a01b0316036127bf5760405162461bcd60e51b815260206004820152601860248201527f4f72646572426f6f6b3a20696e76616c6964205f70617468000000000000000060448201526064016102fe565b6127ec600b60009054906101000a90046001600160a01b03168d8f600081518110610f1957610f19614d22565b6127f78d8b30613901565b9050612801565b508a5b600b546040517f0a48d5a90000000000000000000000000000000000000000000000000000000081526001600160a01b038481166004830152602482018490526000921690630a48d5a990604401602060405180830381865afa15801561286c573d6000803e3d6000fd5b505050506040513d601f19601f820116820180604052508101906128909190614dfc565b9050600d5481101561290a5760405162461bcd60e51b815260206004820152602260248201527f4f72646572426f6f6b3a20696e73756666696369656e7420636f6c6c6174657260448201527f616c00000000000000000000000000000000000000000000000000000000000060648201526084016102fe565b5061291d3383838b8f8e8d8d8d8d613ce0565b505060016000555050505050505050505050565b600260005403612954576040516306fda65d60e31b815260040160405180910390fd5b6002600055612961613af4565b600c5434116129c05760405162461bcd60e51b815260206004820152602560248201527f4f72646572426f6f6b3a20696e73756666696369656e7420657865637574696f6044820152646e2066656560d81b60648201526084016102fe565b6129d03386868a8a888888613eea565b505060016000555050505050565b60008251600214806129f1575082516003145b612a3d5760405162461bcd60e51b815260206004820152601f60248201527f4f72646572426f6f6b3a20696e76616c6964205f706174682e6c656e6774680060448201526064016102fe565b600083600081518110612a5257612a52614d22565b6020026020010151905060008460018651612a6d9190614d4e565b81518110612a7d57612a7d614d22565b60200260200101519050600080600960009054906101000a90046001600160a01b03166001600160a01b0316846001600160a01b031603612ae257612adb87600181518110612ace57612ace614d22565b6020026020010151611f07565b9150612b53565b600b546040516340d3096b60e11b81526001600160a01b038681166004830152909116906381a612d690602401602060405180830381865afa158015612b2c573d6000803e3d6000fd5b505050506040513d601f19601f82011682018060405250810190612b509190614dfc565b91505b6009546001600160a01b0390811690841603612b7d57506c0c9f2c9cd04674edea40000000612bee565b600b54604051637092736960e11b81526001600160a01b0385811660048301529091169063e124e6d290602401602060405180830381865afa158015612bc7573d6000803e3d6000fd5b505050506040513d601f19601f82011682018060405250810190612beb9190614dfc565b90505b600082612c086c0c9f2c9cd04674edea4000000084614f31565b612c129190614f48565b8710955050505050505b92915050565b600260005403612c45576040516306fda65d60e31b815260040160405180910390fd5b60026000908155338152600560209081526040808320878452909152902080546001600160a01b0316612cba5760405162461bcd60e51b815260206004820152601d60248201527f4f72646572426f6f6b3a206e6f6e2d6578697374656e74206f7264657200000060448201526064016102fe565b600381018490556004810183905560058101805460ff191683151517908190556002820154600683015460405133937fa7f9f4a25eb76f5ec01b1a429d95d6a00833f0f137c88827c58799a1c1ff0dfe93611046938b9360018901938c928c928c9260ff610100909104169190614f6a565b6007546001600160a01b03163314612d7d5760405162461bcd60e51b815260206004820152601460248201527327b93232b92137b7b59d103337b93134b23232b760611b60448201526064016102fe565b600780546001600160a01b0319166001600160a01b0383169081179091556040519081527fe24c39186e9137521953beaa8446e71f55b8f12296984f9d4273ceb1af728d90906020016110dc565b6001600160a01b038083166000908152600560209081526040808320858452825280832081516101008101835281549095168552600181018054835181860281018601909452808452949586958695869586958695869586958695869592949385820193929091830182828015612e6b57602002820191906000526020600020905b81546001600160a01b03168152600190910190602001808311612e4d575b505050918352505060028201546020808301919091526003830154604083015260048301546060830152600583015460ff8082161515608085015261010090910416151560a083015260069092015460c09091015281015151909150612ed2576000612ef2565b8060200151600081518110612ee957612ee9614d22565b60200260200101515b600182602001515111612f06576000612f26565b8160200151600181518110612f1d57612f1d614d22565b60200260200101515b600283602001515111612f3a576000612f5a565b8260200151600281518110612f5157612f51614d22565b60200260200101515b8360400151846060015185608001518660a001518760c001518860e00151995099509950995099509950995099509950509295985092959850929598565b600260005403612fbb576040516306fda65d60e31b815260040160405180910390fd5b600260008181556001600160a01b0380861682526001602081815260408085208886528252938490208451610140810186528154851680825293820154851692810192909252948501549381019390935260038401548216606084015260048401549091166080830152600583015460a0830152600683015460ff908116151560c0840152600784015460e08401526008840154161515610100830152600990920154610120820152906130b15760405162461bcd60e51b815260206004820152601d60248201527f4f72646572426f6f6b3a206e6f6e2d6578697374656e74206f7264657200000060448201526064016102fe565b60006130d28261010001518360e0015184608001518560c001516001611b97565b506001600160a01b0380871660009081526001602081815260408084208a8552825280842080546001600160a01b0319908116825593810180548516905560028101859055600381018054851690556004810180549094169093556005830184905560068301805460ff19908116909155600784018590556008840180549091169055600990920192909255600b54908601519186015193945061317a93831692169061387c565b81606001516001600160a01b031682602001516001600160a01b03161461325f576040805160028082526060820183526000926020830190803683370190505090508260200151816000815181106131d4576131d4614d22565b60200260200101906001600160a01b031690816001600160a01b03168152505082606001518160018151811061320c5761320c614d22565b60200260200101906001600160a01b031690816001600160a01b031681525050600061323a82600030613901565b600b54606086015191925061325c916001600160a01b0390811691168361387c565b50505b600a5482516060840151608085015160a086015160c08701516040517f1f1dd1760000000000000000000000000000000000000000000000000000000081526001600160a01b03958616600482015293851660248501529184166044840152606483015215156084820152911690631f1dd1769060a401600060405180830381600087803b1580156132f057600080fd5b505af1158015613304573d6000803e3d6000fd5b5050505061331782610120015184613a65565b81600001516001600160a01b03167f7fb1c74d1ea6aa1c9c585e17ce8274c8ff98745e85e7459b73f87d784494f58e8584602001518560400151866060015187608001518860a001518960c001518a60e001518b61010001518c61012001518c6040516110469b9a999897969594939291909a8b526001600160a01b03998a1660208c015260408b019890985295881660608a015293909616608088015260a0870191909152151560c086015260e08501939093529115156101008401526101208301919091526101408201526101600190565b6007546001600160a01b0316331461343c5760405162461bcd60e51b815260206004820152601460248201527327b93232b92137b7b59d103337b93134b23232b760611b60448201526064016102fe565b600e5460ff161561348f5760405162461bcd60e51b815260206004820152601e60248201527f4f72646572426f6f6b3a20616c726561647920696e697469616c697a6564000060448201526064016102fe565b600e805460ff19166001179055600a80546001600160a01b038881166001600160a01b03199283168117909355600b8054898316908416811790915560088054898416908516811790915560098054938916939094168317909355600c869055600d85905560408051948552602085019190915283019190915260608201526080810183905260a081018290527fcfb7ef8749fafc8da2af1ba3d025479ffc4e58f7dc420113e112512a3bda59639060c00160405180910390a1505050505050565b600260005403613574576040516306fda65d60e31b815260040160405180910390fd5b60026000908155338152600560209081526040808320848452825280832081516101008101835281546001600160a01b03168152600182018054845181870281018701909552808552919492938584019390929083018282801561360157602002820191906000526020600020905b81546001600160a01b031681526001909101906020018083116135e3575b5050509183525050600282015460208201526003820154604082015260048201546060820152600582015460ff8082161515608084015261010090910416151560a082015260069091015460c09091015280519091506001600160a01b03166136ac5760405162461bcd60e51b815260206004820152601d60248201527f4f72646572426f6f6b3a206e6f6e2d6578697374656e74206f7264657200000060448201526064016102fe565b336000908152600560209081526040808320858452909152812080546001600160a01b0319168155906136e26001830182614672565b50600060028201819055600382018190556004820181905560058201805461ffff191690556006909101819055600854602083015180516001600160a01b0390921692909161373357613733614d22565b60200260200101516001600160a01b0316036137655761376081604001518260e00151611a7f9190614e15565b613793565b6137853382604001518360200151600081518110610f1957610f19614d22565b6137938160e0015133613a65565b336001600160a01b03167fefd66d4f9c2f880c70aedeb5b26a44fb474cea07e5d6c533f2d27c303d5d94538383602001518460400151856060015186608001518760a001518860c001518960e00151604051611b86989796959493929190614ff6565b6007546001600160a01b031633146138475760405162461bcd60e51b815260206004820152601460248201527327b93232b92137b7b59d103337b93134b23232b760611b60448201526064016102fe565b600c8190556040518181527fbde5eafdc37b81830d70124cddccaaa6d034e71dda3c8fc18a959ca76a7cbcfc906020016110dc565b604080516001600160a01b038416602482015260448082018490528251808303909101815260649091019091526020810180517bffffffffffffffffffffffffffffffffffffffffffffffffffffffff167fa9059cbb000000000000000000000000000000000000000000000000000000001790526138fc9084906140b6565b505050565b600083516002036139535761394c8460008151811061392257613922614d22565b60200260200101518560018151811061393d5761393d614d22565b6020026020010151858561419b565b9050613a5e565b8351600303613a1657600061399f8560008151811061397457613974614d22565b60200260200101518660018151811061398f5761398f614d22565b602002602001015160003061419b565b90506139ce600b60009054906101000a90046001600160a01b03168287600181518110610f1957610f19614d22565b613a0e856001815181106139e4576139e4614d22565b6020026020010151866002815181106139ff576139ff614d22565b6020026020010151868661419b565b915050613a5e565b60405162461bcd60e51b815260206004820152601f60248201527f4f72646572426f6f6b3a20696e76616c6964205f706174682e6c656e6774680060448201526064016102fe565b9392505050565b6008546040517f2e1a7d4d000000000000000000000000000000000000000000000000000000008152600481018490526001600160a01b0390911690632e1a7d4d90602401600060405180830381600087803b158015613ac457600080fd5b505af1158015613ad8573d6000803e3d6000fd5b50613af0925050506001600160a01b038216836143ca565b5050565b3415613b6457600860009054906101000a90046001600160a01b03166001600160a01b031663d0e30db0346040518263ffffffff1660e01b81526004016000604051808303818588803b158015613b4a57600080fd5b505af1158015613b5e573d6000803e3d6000fd5b50505050505b565b6001600160a01b038816600081815260066020908152604091829020548251610100810184529384529083018a9052908201889052606082018790526080820186905284151560a083015283151560c083015260e0820183905290613bcc826001614e15565b6001600160a01b038b8116600090815260066020908152604080832094909455600581528382208683528152929020835181546001600160a01b03191692169190911781558282015180518493613c2a926001850192910190614693565b506040828101516002830155606083015160038301556080830151600483015560a083015160058301805460c086015115156101000261ff00199315159390931661ffff199091161791909117905560e090920151600690910155516001600160a01b038b16907fdf06bb56ffc4029dc0b62b68bb5bbadea93a38b530cefc9b81afb742a6555d8890613ccc9085908d908d908d908d908d908d908d90614ff6565b60405180910390a250505050505050505050565b33600090815260026020908152604091829020548251610140810184526001600160a01b038e811682528d8116938201939093529283018b90528982166060840152908816608083015260a0820187905285151560c083015260e08201859052831515610100830152610120820183905290613d5d826001614e15565b6001600160a01b03808e166000818152600260208181526040808420969096556001808252868420898552825292869020875181549087166001600160a01b0319918216178255918801519381018054948716948316949094179093558686015191830191909155606086015160038301805491861691831691909117905560808601516004830180549190951691161790925560a0840151600583015560c084015160068301805491151560ff1992831617905560e085015160078401556101008501516008840180549115159190921617905561012084015160099092019190915590517fb27b9afe3043b93788c40cfc3cc73f5d928a2e40f3ba01820b246426de8fa1b990613ed49085908f908f908f908f908f908f908f908f908f90998a526001600160a01b0398891660208b015260408a0197909752948716606089015292909516608087015260a086015292151560c085015260e08401929092529015156101008301526101208201526101400190565b60405180910390a2505050505050505050505050565b6001600160a01b03808916600081815260046020908152604091829020548251610120810184529384528b85169184019190915290820189905291871660608201526080810186905284151560a082015260c0810184905282151560e082015234610100820152613f5c826001614e15565b6001600160a01b03808c166000818152600460208181526040808420969096556003808252868420898552825292869020875181549087166001600160a01b0319918216178255918801516001820180549188169184169190911790558787015160028201556060880151938101805494909616939091169290921790935560808501519281019290925560a084015160058301805491151560ff1992831617905560c0850151600684015560e08501516007840180549115159190921617905561010084015160089092019190915590517f48ee333d2a65cc45fdb83bc012920d89181c3377390cd239d2b63f2bef67a02d90613ccc9085908d908d908d908d908d908d908d9034909889526001600160a01b0397881660208a015260408901969096529390951660608701526080860191909152151560a085015260c084019290925290151560e08301526101008201526101200190565b600061410b826040518060400160405280602081526020017f5361666545524332303a206c6f772d6c6576656c2063616c6c206661696c6564815250856001600160a01b03166144e39092919063ffffffff16565b8051909150156138fc57808060200190518101906141299190615045565b6138fc5760405162461bcd60e51b815260206004820152602a60248201527f5361666545524332303a204552433230206f7065726174696f6e20646964206e60448201527f6f7420737563636565640000000000000000000000000000000000000000000060648201526084016102fe565b60095460009081906001600160a01b039081169086160361424f57600b546040517f817bb8570000000000000000000000000000000000000000000000000000000081526001600160a01b03888116600483015285811660248301529091169063817bb857906044015b6020604051808303816000875af1158015614224573d6000803e3d6000fd5b505050506040513d601f19601f820116820180604052508101906142489190614dfc565b9050614354565b6009546001600160a01b03908116908716036142b857600b546040517f711e61900000000000000000000000000000000000000000000000000000000081526001600160a01b03878116600483015285811660248301529091169063711e619090604401614205565b600b546040517f933162120000000000000000000000000000000000000000000000000000000081526001600160a01b03888116600483015287811660248301528581166044830152909116906393316212906064016020604051808303816000875af115801561432d573d6000803e3d6000fd5b505050506040513d601f19601f820116820180604052508101906143519190614dfc565b90505b838110156120c25760405162461bcd60e51b815260206004820152602160248201527f4f72646572426f6f6b3a20696e73756666696369656e7420616d6f756e744f7560448201527f740000000000000000000000000000000000000000000000000000000000000060648201526084016102fe565b8047101561441a5760405162461bcd60e51b815260206004820152601d60248201527f416464726573733a20696e73756666696369656e742062616c616e636500000060448201526064016102fe565b6000826001600160a01b03168260405160006040518083038185875af1925050503d8060008114614467576040519150601f19603f3d011682016040523d82523d6000602084013e61446c565b606091505b50509050806138fc5760405162461bcd60e51b815260206004820152603a60248201527f416464726573733a20756e61626c6520746f2073656e642076616c75652c207260448201527f6563697069656e74206d6179206861766520726576657274656400000000000060648201526084016102fe565b60606144f284846000856144fa565b949350505050565b6060824710156145725760405162461bcd60e51b815260206004820152602660248201527f416464726573733a20696e73756666696369656e742062616c616e636520666f60448201527f722063616c6c000000000000000000000000000000000000000000000000000060648201526084016102fe565b843b6145c05760405162461bcd60e51b815260206004820152601d60248201527f416464726573733a2063616c6c20746f206e6f6e2d636f6e747261637400000060448201526064016102fe565b600080866001600160a01b031685876040516145dc9190615086565b60006040518083038185875af1925050503d8060008114614619576040519150601f19603f3d011682016040523d82523d6000602084013e61461e565b606091505b509150915061462e828286614639565b979650505050505050565b60608315614648575081613a5e565b8251156146585782518084602001fd5b8160405162461bcd60e51b81526004016102fe91906150a2565b508054600082559060005260206000209081019061469091906146f8565b50565b8280548282559060005260206000209081019282156146e8579160200282015b828111156146e857825182546001600160a01b0319166001600160a01b039091161782556020909201916001909101906146b3565b506146f49291506146f8565b5090565b5b808211156146f457600081556001016146f9565b6001600160a01b038116811461469057600080fd5b60006020828403121561473457600080fd5b8135613a5e8161470d565b6000806040838503121561475257600080fd5b823561475d8161470d565b946020939093013593505050565b60008060006060848603121561478057600080fd5b833561478b8161470d565b92506020840135915060408401356147a28161470d565b809150509250925092565b6000602082840312156147bf57600080fd5b5035919050565b634e487b7160e01b600052604160045260246000fd5b604051601f8201601f1916810167ffffffffffffffff81118282101715614805576148056147c6565b604052919050565b600067ffffffffffffffff821115614827576148276147c6565b5060051b60200190565b600082601f83011261484257600080fd5b813560206148576148528361480d565b6147dc565b82815260059290921b8401810191818101908684111561487657600080fd5b8286015b8481101561489a57803561488d8161470d565b835291830191830161487a565b509695505050505050565b801515811461469057600080fd5b80356148be816148a5565b919050565b600080600080600080600080610100898b0312156148e057600080fd5b883567ffffffffffffffff8111156148f757600080fd5b6149038b828c01614831565b9850506020890135965060408901359550606089013594506080890135614929816148a5565b935060a0890135925060c0890135614940816148a5565b915060e0890135614950816148a5565b809150509295985092959890939650565b600080600080600060a0868803121561497957600080fd5b8535614984816148a5565b945060208601359350604086013561499b8161470d565b925060608601356149ab816148a5565b915060808601356149bb816148a5565b809150509295509295909350565b600082601f8301126149da57600080fd5b813560206149ea6148528361480d565b82815260059290921b84018101918181019086841115614a0957600080fd5b8286015b8481101561489a5780358352918301918301614a0d565b600080600060608486031215614a3957600080fd5b833567ffffffffffffffff80821115614a5157600080fd5b614a5d878388016149c9565b94506020860135915080821115614a7357600080fd5b614a7f878388016149c9565b93506040860135915080821115614a9557600080fd5b50614aa2868287016149c9565b9150509250925092565b60008060008060808587031215614ac257600080fd5b8435935060208501359250604085013591506060850135614ae2816148a5565b939692955090935050565b600080600080600060a08688031215614b0557600080fd5b8535945060208601359350604086013592506060860135915060808601356149bb816148a5565b60008060008060008060008060008060006101608c8e031215614b4e57600080fd5b8b3567ffffffffffffffff811115614b6557600080fd5b614b718e828f01614831565b9b505060208c0135995060408c0135614b898161470d565b985060608c0135975060808c0135965060a08c0135614ba78161470d565b9550614bb560c08d016148b3565b945060e08c01359350614bcb6101008d016148b3565b92506101208c01359150614be26101408d016148b3565b90509295989b509295989b9093969950565b600080600080600080600060e0888a031215614c0f57600080fd5b8735614c1a8161470d565b9650602088013595506040880135614c318161470d565b9450606088013593506080880135614c48816148a5565b925060a0880135915060c0880135614c5f816148a5565b8091505092959891949750929550565b60008060408385031215614c8257600080fd5b823567ffffffffffffffff811115614c9957600080fd5b614ca585828601614831565b95602094909401359450505050565b60008060008060008060c08789031215614ccd57600080fd5b8635614cd88161470d565b95506020870135614ce88161470d565b94506040870135614cf88161470d565b93506060870135614d088161470d565b9598949750929560808101359460a0909101359350915050565b634e487b7160e01b600052603260045260246000fd5b634e487b7160e01b600052601160045260246000fd5b81810381811115612c1c57612c1c614d38565b600081518084526020808501945080840160005b83811015614d9a5781516001600160a01b031687529582019590820190600101614d75565b509495945050505050565b60006101208b8352806020840152614dbf8184018c614d61565b604084019a909a5250506060810196909652608086019490945260a0850192909252151560c0840152151560e08301526101009091015292915050565b600060208284031215614e0e57600080fd5b5051919050565b80820180821115612c1c57612c1c614d38565b600060018201614e3a57614e3a614d38565b5060010190565b600181815b80851115614e7c578160001904821115614e6257614e62614d38565b80851615614e6f57918102915b93841c9390800290614e46565b509250929050565b600082614e9357506001612c1c565b81614ea057506000612c1c565b8160018114614eb65760028114614ec057614edc565b6001915050612c1c565b60ff841115614ed157614ed1614d38565b50506001821b612c1c565b5060208310610133831016604e8410600b8410161715614eff575081810a612c1c565b614f098383614e41565b8060001904821115614f1d57614f1d614d38565b029392505050565b6000613a5e8383614e84565b8082028115828204841417612c1c57612c1c614d38565b600082614f6557634e487b7160e01b600052601260045260246000fd5b500490565b8881526101006020808301829052895491830182905260008a8152818120909261012085019290845b81811015614fb85783546001600160a01b031685529382019360019384019301614f93565b5050505080915050876040830152866060830152856080830152614fe060a083018615159052565b92151560c082015260e001529695505050505050565b60006101008a83528060208401526150108184018b614d61565b604084019990995250506060810195909552608085019390935290151560a0840152151560c083015260e09091015292915050565b60006020828403121561505757600080fd5b8151613a5e816148a5565b60005b8381101561507d578181015183820152602001615065565b50506000910152565b60008251615098818460208701615062565b9190910192915050565b60208152600082518060208401526150c1816040850160208701615062565b601f01601f1916919091016040019291505056fea2646970667358221220bb1321ba67b1d1f07b296e5836fda0f29eacc7ef2beef6681b3f87f49e9b21fb64736f6c63430008140033",
  "linkReferences": {},
  "deployedLinkReferences": {}
}