{
  "_format": "hh-sol-artifact-1",
  "contractName": "OrderBookReader",
  "sourceName": "contracts/peripherals/OrderBookReader.sol",
  "abi": [
    {
      "inputs": [
        {
          "internalType": "address payable",
          "name": "_orderBookAddress",
          "type": "address"
        },
        {
          "internalType": "address",
          "name": "_account",
          "type": "address"
        },
        {
          "internalType": "uint256[]",
          "name": "_indices",
          "type": "uint256[]"
        }
      ],
      "name": "getDecreaseOrders",
      "outputs": [
        {
          "internalType": "uint256[]",
          "name": "",
          "type": "uint256[]"
        },
        {
          "internalType": "address[]",
          "name": "",
          "type": "address[]"
        }
      ],
      "stateMutability": "view",
      "type": "function"
    },
    {
      "inputs": [
        {
          "internalType": "address payable",
          "name": "_orderBookAddress",
          "type": "address"
        },
        {
          "internalType": "address",
          "name": "_account",
          "type": "address"
        },
        {
          "internalType": "uint256[]",
          "name": "_indices",
          "type": "uint256[]"
        }
      ],
      "name": "getIncreaseOrders",
      "outputs": [
        {
          "internalType": "uint256[]",
          "name": "",
          "type": "uint256[]"
        },
        {
          "internalType": "address[]",
          "name": "",
          "type": "address[]"
        }
      ],
      "stateMutability": "view",
      "type": "function"
    },
    {
      "inputs": [
        {
          "internalType": "address payable",
          "name": "_orderBookAddress",
          "type": "address"
        },
        {
          "internalType": "address",
          "name": "_account",
          "type": "address"
        },
        {
          "internalType": "uint256[]",
          "name": "_indices",
          "type": "uint256[]"
        }
      ],
      "name": "getSwapOrders",
      "outputs": [
        {
          "internalType": "uint256[]",
          "name": "",
          "type": "uint256[]"
        },
        {
          "internalType": "address[]",
          "name": "",
          "type": "address[]"
        }
      ],
      "stateMutability": "view",
      "type": "function"
    }
  ],
  "bytecode": "0x608060405234801561001057600080fd5b50611219806100206000396000f3fe608060405234801561001057600080fd5b50600436106100415760003560e01c80630ce933b9146100465780632e18146914610070578063c38ccd5014610083575b600080fd5b610059610054366004610ddf565b610096565b604051610067929190610ee2565b60405180910390f35b61005961007e366004610ddf565b6104a7565b610059610091366004610ddf565b610919565b60608060006040518060a0016040528060008152602001600081526020018673ffffffffffffffffffffffffffffffffffffffff16815260200160058152602001600281525090506000845182606001516100f19190610fa2565b67ffffffffffffffff81111561010957610109610db0565b604051908082528060200260200182016040528015610132578160200160208202803683370190505b5090506000855183608001516101489190610fa2565b67ffffffffffffffff81111561016057610160610db0565b604051908082528060200260200182016040528015610189578160200160208202803683370190505b509050875b86518451101561049957868460000151815181106101ae576101ae610fbf565b602002602001015184602001818152505060008060008060008060008773ffffffffffffffffffffffffffffffffffffffff1663026032ee8c604001518d602001516040518363ffffffff1660e01b815260040161022e92919073ffffffffffffffffffffffffffffffffffffffff929092168252602082015260400190565b61010060405180830381865afa15801561024c573d6000803e3d6000fd5b505050506040513d601f19601f820116820180604052508101906102709190611003565b509650965096509650965096509650858a8c606001518d600001516102959190610fa2565b815181106102a5576102a5610fbf565b602002602001018181525050838a8c606001518d600001516102c79190610fa2565b6102d2906001611084565b815181106102e2576102e2610fbf565b602002602001018181525050826102fa5760006102fd565b60015b60ff168a8c606001518d600001516103159190610fa2565b610320906002611084565b8151811061033057610330610fbf565b602002602001018181525050818a8c606001518d600001516103529190610fa2565b61035d906003611084565b8151811061036d5761036d610fbf565b60200260200101818152505080610385576000610388565b60015b60ff168a8c606001518d600001516103a09190610fa2565b6103ab906004611084565b815181106103bb576103bb610fbf565b60200260200101818152505086898c608001518d600001516103dd9190610fa2565b815181106103ed576103ed610fbf565b602002602001019073ffffffffffffffffffffffffffffffffffffffff16908173ffffffffffffffffffffffffffffffffffffffff168152505084898c608001518d6000015161043d9190610fa2565b610448906001611084565b8151811061045857610458610fbf565b73ffffffffffffffffffffffffffffffffffffffff909216602092830291909101909101528a518b61048982611097565b815250505050505050505061018e565b509097909650945050505050565b60608060006040518060a0016040528060008152602001600081526020018673ffffffffffffffffffffffffffffffffffffffff16815260200160058152602001600381525090506000845182606001516105029190610fa2565b67ffffffffffffffff81111561051a5761051a610db0565b604051908082528060200260200182016040528015610543578160200160208202803683370190505b5090506000855183608001516105599190610fa2565b67ffffffffffffffff81111561057157610571610db0565b60405190808252806020026020018201604052801561059a578160200160208202803683370190505b509050875b86518451101561049957868460000151815181106105bf576105bf610fbf565b60200260200101518460200181815250506000806000806000806000808873ffffffffffffffffffffffffffffffffffffffff1663d0d40cd68d604001518e602001516040518363ffffffff1660e01b815260040161064092919073ffffffffffffffffffffffffffffffffffffffff929092168252602082015260400190565b61012060405180830381865afa15801561065e573d6000803e3d6000fd5b505050506040513d601f19601f8201168201806040525081019061068291906110cf565b5097509750975097509750975097509750848b8d606001518e600001516106a99190610fa2565b815181106106b9576106b9610fbf565b602002602001018181525050838b8d606001518e600001516106db9190610fa2565b6106e6906001611084565b815181106106f6576106f6610fbf565b602002602001018181525050828b8d606001518e600001516107189190610fa2565b610723906002611084565b8151811061073357610733610fbf565b6020026020010181815250508161074b57600061074e565b60015b60ff168b8d606001518e600001516107669190610fa2565b610771906003611084565b8151811061078157610781610fbf565b6020026020010181815250508061079957600061079c565b60015b60ff168b8d606001518e600001516107b49190610fa2565b6107bf906004611084565b815181106107cf576107cf610fbf565b602002602001018181525050878a8d608001518e600001516107f19190610fa2565b8151811061080157610801610fbf565b602002602001019073ffffffffffffffffffffffffffffffffffffffff16908173ffffffffffffffffffffffffffffffffffffffff1681525050868a8d608001518e600001516108519190610fa2565b61085c906001611084565b8151811061086c5761086c610fbf565b602002602001019073ffffffffffffffffffffffffffffffffffffffff16908173ffffffffffffffffffffffffffffffffffffffff1681525050858a8d608001518e600001516108bc9190610fa2565b6108c7906002611084565b815181106108d7576108d7610fbf565b73ffffffffffffffffffffffffffffffffffffffff909216602092830291909101909101528b518c61090882611097565b81525050505050505050505061059f565b60608060006040518060a0016040528060008152602001600081526020018673ffffffffffffffffffffffffffffffffffffffff16815260200160058152602001600381525090506000845182606001516109749190610fa2565b67ffffffffffffffff81111561098c5761098c610db0565b6040519080825280602002602001820160405280156109b5578160200160208202803683370190505b5090506000855183608001516109cb9190610fa2565b67ffffffffffffffff8111156109e3576109e3610db0565b604051908082528060200260200182016040528015610a0c578160200160208202803683370190505b509050875b8651845110156104995786846000015181518110610a3157610a31610fbf565b60200260200101518460200181815250506000806000806000806000808873ffffffffffffffffffffffffffffffffffffffff1663d3bab1d18d604001518e602001516040518363ffffffff1660e01b8152600401610ab292919073ffffffffffffffffffffffffffffffffffffffff929092168252602082015260400190565b61012060405180830381865afa158015610ad0573d6000803e3d6000fd5b505050506040513d601f19601f82011682018060405250810190610af49190611165565b5097509750975097509750975097509750868b8d606001518e60000151610b1b9190610fa2565b81518110610b2b57610b2b610fbf565b602002602001018181525050838b8d606001518e60000151610b4d9190610fa2565b610b58906001611084565b81518110610b6857610b68610fbf565b60200260200101818152505082610b80576000610b83565b60015b60ff168b8d606001518e60000151610b9b9190610fa2565b610ba6906002611084565b81518110610bb657610bb6610fbf565b602002602001018181525050818b8d606001518e60000151610bd89190610fa2565b610be3906003611084565b81518110610bf357610bf3610fbf565b60200260200101818152505080610c0b576000610c0e565b60015b60ff168b8d606001518e60000151610c269190610fa2565b610c31906004611084565b81518110610c4157610c41610fbf565b602002602001018181525050878a8d608001518e60000151610c639190610fa2565b81518110610c7357610c73610fbf565b602002602001019073ffffffffffffffffffffffffffffffffffffffff16908173ffffffffffffffffffffffffffffffffffffffff1681525050858a8d608001518e60000151610cc39190610fa2565b610cce906001611084565b81518110610cde57610cde610fbf565b602002602001019073ffffffffffffffffffffffffffffffffffffffff16908173ffffffffffffffffffffffffffffffffffffffff1681525050848a8d608001518e60000151610d2e9190610fa2565b610d39906002611084565b81518110610d4957610d49610fbf565b73ffffffffffffffffffffffffffffffffffffffff909216602092830291909101909101528b518c610d7a82611097565b815250505050505050505050610a11565b73ffffffffffffffffffffffffffffffffffffffff81168114610dad57600080fd5b50565b7f4e487b7100000000000000000000000000000000000000000000000000000000600052604160045260246000fd5b600080600060608486031215610df457600080fd5b8335610dff81610d8b565b9250602084810135610e1081610d8b565b9250604085013567ffffffffffffffff80821115610e2d57600080fd5b818701915087601f830112610e4157600080fd5b813581811115610e5357610e53610db0565b8060051b6040517fffffffffffffffffffffffffffffffffffffffffffffffffffffffffffffffe0603f83011681018181108582111715610e9657610e96610db0565b60405291825284820192508381018501918a831115610eb457600080fd5b938501935b82851015610ed257843584529385019392850192610eb9565b8096505050505050509250925092565b604080825283519082018190526000906020906060840190828701845b82811015610f1b57815184529284019290840190600101610eff565b5050508381038285015284518082528583019183019060005b81811015610f6657835173ffffffffffffffffffffffffffffffffffffffff1683529284019291840191600101610f34565b5090979650505050505050565b7f4e487b7100000000000000000000000000000000000000000000000000000000600052601160045260246000fd5b8082028115828204841417610fb957610fb9610f73565b92915050565b7f4e487b7100000000000000000000000000000000000000000000000000000000600052603260045260246000fd5b80518015158114610ffe57600080fd5b919050565b600080600080600080600080610100898b03121561102057600080fd5b885161102b81610d8b565b60208a015160408b0151919950975061104381610d8b565b60608a0151909650945061105960808a01610fee565b935060a0890151925061106e60c08a01610fee565b915060e089015190509295985092959890939650565b80820180821115610fb957610fb9610f73565b60007fffffffffffffffffffffffffffffffffffffffffffffffffffffffffffffffff82036110c8576110c8610f73565b5060010190565b60008060008060008060008060006101208a8c0312156110ee57600080fd5b89516110f981610d8b565b60208b015190995061110a81610d8b565b60408b015190985061111b81610d8b565b8097505060608a0151955060808a0151945060a08a0151935061114060c08b01610fee565b925061114e60e08b01610fee565b91506101008a015190509295985092959850929598565b60008060008060008060008060006101208a8c03121561118457600080fd5b895161118f81610d8b565b60208b015160408c0151919a5098506111a781610d8b565b60608b01519097506111b881610d8b565b60808b015190965094506111ce60a08b01610fee565b935060c08a0151925061114e60e08b01610fee56fea26469706673582212205daa91f57d4e1aa4cc3d7620f5d7c6fede85823a21d9029734138068c1e27af264736f6c63430008140033",
  "linkReferences": {},
  "deployedLinkReferences": {}
}