{
  "_format": "hh-sol-artifact-1",
  "contractName": "PositionRouter",
  "sourceName": "contracts/core/PositionRouter.sol",
  "abi": [
    {
      "inputs": [
        {
          "internalType": "address",
          "name": "_vault",
          "type": "address"
        },
        {
          "internalType": "address",
          "name": "_router",
          "type": "address"
        },
        {
          "internalType": "address",
          "name": "_weth",
          "type": "address"
        },
        {
          "internalType": "address",
          "name": "_shortsTracker",
          "type": "address"
        },
        {
          "internalType": "uint256",
          "name": "_depositFee",
          "type": "uint256"
        },
        {
          "internalType": "uint256",
          "name": "_minExecutionFee",
          "type": "uint256"
        }
      ],
      "stateMutability": "nonpayable",
      "type": "constructor"
    },
    {
      "inputs": [
        {
          "internalType": "address",
          "name": "violator",
          "type": "address"
        },
        {
          "internalType": "string",
          "name": "check",
          "type": "string"
        }
      ],
      "name": "PermissionDenied",
      "type": "error"
    },
    {
      "inputs": [],
      "name": "ReentrantCall",
      "type": "error"
    },
    {
      "anonymous": false,
      "inputs": [
        {
          "indexed": false,
          "internalType": "address",
          "name": "callbackTarget",
          "type": "address"
        },
        {
          "indexed": false,
          "internalType": "bool",
          "name": "success",
          "type": "bool"
        },
        {
          "indexed": false,
          "internalType": "uint256",
          "name": "callbackGasLimit",
          "type": "uint256"
        }
      ],
      "name": "Callback",
      "type": "event"
    },
    {
      "anonymous": false,
      "inputs": [
        {
          "indexed": true,
          "internalType": "address",
          "name": "account",
          "type": "address"
        },
        {
          "indexed": false,
          "internalType": "address[]",
          "name": "path",
          "type": "address[]"
        },
        {
          "indexed": false,
          "internalType": "address",
          "name": "indexToken",
          "type": "address"
        },
        {
          "indexed": false,
          "internalType": "uint256",
          "name": "collateralDelta",
          "type": "uint256"
        },
        {
          "indexed": false,
          "internalType": "uint256",
          "name": "sizeDelta",
          "type": "uint256"
        },
        {
          "indexed": false,
          "internalType": "bool",
          "name": "isLong",
          "type": "bool"
        },
        {
          "indexed": false,
          "internalType": "address",
          "name": "receiver",
          "type": "address"
        },
        {
          "indexed": false,
          "internalType": "uint256",
          "name": "acceptablePrice",
          "type": "uint256"
        },
        {
          "indexed": false,
          "internalType": "uint256",
          "name": "minOut",
          "type": "uint256"
        },
        {
          "indexed": false,
          "internalType": "uint256",
          "name": "executionFee",
          "type": "uint256"
        },
        {
          "indexed": false,
          "internalType": "uint256",
          "name": "blockGap",
          "type": "uint256"
        },
        {
          "indexed": false,
          "internalType": "uint256",
          "name": "timeGap",
          "type": "uint256"
        }
      ],
      "name": "CancelDecreasePosition",
      "type": "event"
    },
    {
      "anonymous": false,
      "inputs": [
        {
          "indexed": true,
          "internalType": "address",
          "name": "account",
          "type": "address"
        },
        {
          "indexed": false,
          "internalType": "address[]",
          "name": "path",
          "type": "address[]"
        },
        {
          "indexed": false,
          "internalType": "address",
          "name": "indexToken",
          "type": "address"
        },
        {
          "indexed": false,
          "internalType": "uint256",
          "name": "amountIn",
          "type": "uint256"
        },
        {
          "indexed": false,
          "internalType": "uint256",
          "name": "minOut",
          "type": "uint256"
        },
        {
          "indexed": false,
          "internalType": "uint256",
          "name": "sizeDelta",
          "type": "uint256"
        },
        {
          "indexed": false,
          "internalType": "bool",
          "name": "isLong",
          "type": "bool"
        },
        {
          "indexed": false,
          "internalType": "uint256",
          "name": "acceptablePrice",
          "type": "uint256"
        },
        {
          "indexed": false,
          "internalType": "uint256",
          "name": "executionFee",
          "type": "uint256"
        },
        {
          "indexed": false,
          "internalType": "uint256",
          "name": "blockGap",
          "type": "uint256"
        },
        {
          "indexed": false,
          "internalType": "uint256",
          "name": "timeGap",
          "type": "uint256"
        }
      ],
      "name": "CancelIncreasePosition",
      "type": "event"
    },
    {
      "anonymous": false,
      "inputs": [
        {
          "indexed": true,
          "internalType": "address",
          "name": "account",
          "type": "address"
        },
        {
          "indexed": false,
          "internalType": "address[]",
          "name": "path",
          "type": "address[]"
        },
        {
          "indexed": false,
          "internalType": "address",
          "name": "indexToken",
          "type": "address"
        },
        {
          "indexed": false,
          "internalType": "uint256",
          "name": "collateralDelta",
          "type": "uint256"
        },
        {
          "indexed": false,
          "internalType": "uint256",
          "name": "sizeDelta",
          "type": "uint256"
        },
        {
          "indexed": false,
          "internalType": "bool",
          "name": "isLong",
          "type": "bool"
        },
        {
          "indexed": false,
          "internalType": "address",
          "name": "receiver",
          "type": "address"
        },
        {
          "indexed": false,
          "internalType": "uint256",
          "name": "acceptablePrice",
          "type": "uint256"
        },
        {
          "indexed": false,
          "internalType": "uint256",
          "name": "minOut",
          "type": "uint256"
        },
        {
          "indexed": false,
          "internalType": "uint256",
          "name": "executionFee",
          "type": "uint256"
        },
        {
          "indexed": false,
          "internalType": "uint256",
          "name": "index",
          "type": "uint256"
        },
        {
          "indexed": false,
          "internalType": "uint256",
          "name": "queueIndex",
          "type": "uint256"
        },
        {
          "indexed": false,
          "internalType": "uint256",
          "name": "blockNumber",
          "type": "uint256"
        },
        {
          "indexed": false,
          "internalType": "uint256",
          "name": "blockTime",
          "type": "uint256"
        }
      ],
      "name": "CreateDecreasePosition",
      "type": "event"
    },
    {
      "anonymous": false,
      "inputs": [
        {
          "indexed": true,
          "internalType": "address",
          "name": "account",
          "type": "address"
        },
        {
          "indexed": false,
          "internalType": "address[]",
          "name": "path",
          "type": "address[]"
        },
        {
          "indexed": false,
          "internalType": "address",
          "name": "indexToken",
          "type": "address"
        },
        {
          "indexed": false,
          "internalType": "uint256",
          "name": "amountIn",
          "type": "uint256"
        },
        {
          "indexed": false,
          "internalType": "uint256",
          "name": "minOut",
          "type": "uint256"
        },
        {
          "indexed": false,
          "internalType": "uint256",
          "name": "sizeDelta",
          "type": "uint256"
        },
        {
          "indexed": false,
          "internalType": "bool",
          "name": "isLong",
          "type": "bool"
        },
        {
          "indexed": false,
          "internalType": "uint256",
          "name": "acceptablePrice",
          "type": "uint256"
        },
        {
          "indexed": false,
          "internalType": "uint256",
          "name": "executionFee",
          "type": "uint256"
        },
        {
          "indexed": false,
          "internalType": "uint256",
          "name": "index",
          "type": "uint256"
        },
        {
          "indexed": false,
          "internalType": "uint256",
          "name": "queueIndex",
          "type": "uint256"
        },
        {
          "indexed": false,
          "internalType": "uint256",
          "name": "blockNumber",
          "type": "uint256"
        },
        {
          "indexed": false,
          "internalType": "uint256",
          "name": "blockTime",
          "type": "uint256"
        },
        {
          "indexed": false,
          "internalType": "uint256",
          "name": "gasPrice",
          "type": "uint256"
        }
      ],
      "name": "CreateIncreasePosition",
      "type": "event"
    },
    {
      "anonymous": false,
      "inputs": [
        {
          "indexed": false,
          "internalType": "address",
          "name": "account",
          "type": "address"
        },
        {
          "indexed": false,
          "internalType": "uint256",
          "name": "sizeDelta",
          "type": "uint256"
        },
        {
          "indexed": false,
          "internalType": "uint256",
          "name": "marginFeeBasisPoints",
          "type": "uint256"
        },
        {
          "indexed": false,
          "internalType": "bytes32",
          "name": "referralCode",
          "type": "bytes32"
        },
        {
          "indexed": false,
          "internalType": "address",
          "name": "referrer",
          "type": "address"
        }
      ],
      "name": "DecreasePositionReferral",
      "type": "event"
    },
    {
      "anonymous": false,
      "inputs": [
        {
          "indexed": true,
          "internalType": "address",
          "name": "account",
          "type": "address"
        },
        {
          "indexed": false,
          "internalType": "address[]",
          "name": "path",
          "type": "address[]"
        },
        {
          "indexed": false,
          "internalType": "address",
          "name": "indexToken",
          "type": "address"
        },
        {
          "indexed": false,
          "internalType": "uint256",
          "name": "collateralDelta",
          "type": "uint256"
        },
        {
          "indexed": false,
          "internalType": "uint256",
          "name": "sizeDelta",
          "type": "uint256"
        },
        {
          "indexed": false,
          "internalType": "bool",
          "name": "isLong",
          "type": "bool"
        },
        {
          "indexed": false,
          "internalType": "address",
          "name": "receiver",
          "type": "address"
        },
        {
          "indexed": false,
          "internalType": "uint256",
          "name": "acceptablePrice",
          "type": "uint256"
        },
        {
          "indexed": false,
          "internalType": "uint256",
          "name": "minOut",
          "type": "uint256"
        },
        {
          "indexed": false,
          "internalType": "uint256",
          "name": "executionFee",
          "type": "uint256"
        },
        {
          "indexed": false,
          "internalType": "uint256",
          "name": "blockGap",
          "type": "uint256"
        },
        {
          "indexed": false,
          "internalType": "uint256",
          "name": "timeGap",
          "type": "uint256"
        }
      ],
      "name": "ExecuteDecreasePosition",
      "type": "event"
    },
    {
      "anonymous": false,
      "inputs": [
        {
          "indexed": true,
          "internalType": "address",
          "name": "account",
          "type": "address"
        },
        {
          "indexed": false,
          "internalType": "address[]",
          "name": "path",
          "type": "address[]"
        },
        {
          "indexed": false,
          "internalType": "address",
          "name": "indexToken",
          "type": "address"
        },
        {
          "indexed": false,
          "internalType": "uint256",
          "name": "amountIn",
          "type": "uint256"
        },
        {
          "indexed": false,
          "internalType": "uint256",
          "name": "minOut",
          "type": "uint256"
        },
        {
          "indexed": false,
          "internalType": "uint256",
          "name": "sizeDelta",
          "type": "uint256"
        },
        {
          "indexed": false,
          "internalType": "bool",
          "name": "isLong",
          "type": "bool"
        },
        {
          "indexed": false,
          "internalType": "uint256",
          "name": "acceptablePrice",
          "type": "uint256"
        },
        {
          "indexed": false,
          "internalType": "uint256",
          "name": "executionFee",
          "type": "uint256"
        },
        {
          "indexed": false,
          "internalType": "uint256",
          "name": "blockGap",
          "type": "uint256"
        },
        {
          "indexed": false,
          "internalType": "uint256",
          "name": "timeGap",
          "type": "uint256"
        }
      ],
      "name": "ExecuteIncreasePosition",
      "type": "event"
    },
    {
      "anonymous": false,
      "inputs": [
        {
          "indexed": false,
          "internalType": "address",
          "name": "account",
          "type": "address"
        },
        {
          "indexed": false,
          "internalType": "uint256",
          "name": "sizeDelta",
          "type": "uint256"
        },
        {
          "indexed": false,
          "internalType": "uint256",
          "name": "marginFeeBasisPoints",
          "type": "uint256"
        },
        {
          "indexed": false,
          "internalType": "bytes32",
          "name": "referralCode",
          "type": "bytes32"
        },
        {
          "indexed": false,
          "internalType": "address",
          "name": "referrer",
          "type": "address"
        }
      ],
      "name": "IncreasePositionReferral",
      "type": "event"
    },
    {
      "anonymous": false,
      "inputs": [
        {
          "indexed": false,
          "internalType": "address",
          "name": "admin",
          "type": "address"
        }
      ],
      "name": "SetAdmin",
      "type": "event"
    },
    {
      "anonymous": false,
      "inputs": [
        {
          "indexed": false,
          "internalType": "uint256",
          "name": "callbackGasLimit",
          "type": "uint256"
        }
      ],
      "name": "SetCallbackGasLimit",
      "type": "event"
    },
    {
      "anonymous": false,
      "inputs": [
        {
          "indexed": false,
          "internalType": "address",
          "name": "callbackTarget",
          "type": "address"
        },
        {
          "indexed": false,
          "internalType": "uint256",
          "name": "callbackGasLimit",
          "type": "uint256"
        }
      ],
      "name": "SetCustomCallbackGasLimit",
      "type": "event"
    },
    {
      "anonymous": false,
      "inputs": [
        {
          "indexed": false,
          "internalType": "uint256",
          "name": "minBlockDelayKeeper",
          "type": "uint256"
        },
        {
          "indexed": false,
          "internalType": "uint256",
          "name": "minTimeDelayPublic",
          "type": "uint256"
        },
        {
          "indexed": false,
          "internalType": "uint256",
          "name": "maxTimeDelay",
          "type": "uint256"
        }
      ],
      "name": "SetDelayValues",
      "type": "event"
    },
    {
      "anonymous": false,
      "inputs": [
        {
          "indexed": false,
          "internalType": "uint256",
          "name": "depositFee",
          "type": "uint256"
        }
      ],
      "name": "SetDepositFee",
      "type": "event"
    },
    {
      "anonymous": false,
      "inputs": [
        {
          "indexed": false,
          "internalType": "uint256",
          "name": "ethTransferGasLimit",
          "type": "uint256"
        }
      ],
      "name": "SetEthTransferGasLimit",
      "type": "event"
    },
    {
      "anonymous": false,
      "inputs": [
        {
          "indexed": false,
          "internalType": "uint256",
          "name": "increasePositionBufferBps",
          "type": "uint256"
        }
      ],
      "name": "SetIncreasePositionBufferBps",
      "type": "event"
    },
    {
      "anonymous": false,
      "inputs": [
        {
          "indexed": false,
          "internalType": "bool",
          "name": "isLeverageEnabled",
          "type": "bool"
        }
      ],
      "name": "SetIsLeverageEnabled",
      "type": "event"
    },
    {
      "anonymous": false,
      "inputs": [
        {
          "indexed": false,
          "internalType": "address[]",
          "name": "tokens",
          "type": "address[]"
        },
        {
          "indexed": false,
          "internalType": "uint256[]",
          "name": "longSizes",
          "type": "uint256[]"
        },
        {
          "indexed": false,
          "internalType": "uint256[]",
          "name": "shortSizes",
          "type": "uint256[]"
        }
      ],
      "name": "SetMaxGlobalSizes",
      "type": "event"
    },
    {
      "anonymous": false,
      "inputs": [
        {
          "indexed": false,
          "internalType": "uint256",
          "name": "minExecutionFee",
          "type": "uint256"
        }
      ],
      "name": "SetMinExecutionFee",
      "type": "event"
    },
    {
      "anonymous": false,
      "inputs": [
        {
          "indexed": true,
          "internalType": "address",
          "name": "account",
          "type": "address"
        },
        {
          "indexed": false,
          "internalType": "bool",
          "name": "isActive",
          "type": "bool"
        }
      ],
      "name": "SetPositionKeeper",
      "type": "event"
    },
    {
      "anonymous": false,
      "inputs": [
        {
          "indexed": false,
          "internalType": "address",
          "name": "referralStorage",
          "type": "address"
        }
      ],
      "name": "SetReferralStorage",
      "type": "event"
    },
    {
      "anonymous": false,
      "inputs": [
        {
          "indexed": false,
          "internalType": "uint256",
          "name": "increasePositionRequestKeysStart",
          "type": "uint256"
        },
        {
          "indexed": false,
          "internalType": "uint256",
          "name": "decreasePositionRequestKeysStart",
          "type": "uint256"
        }
      ],
      "name": "SetRequestKeysStartValues",
      "type": "event"
    },
    {
      "anonymous": false,
      "inputs": [
        {
          "indexed": false,
          "internalType": "address",
          "name": "token",
          "type": "address"
        },
        {
          "indexed": false,
          "internalType": "address",
          "name": "receiver",
          "type": "address"
        },
        {
          "indexed": false,
          "internalType": "uint256",
          "name": "amount",
          "type": "uint256"
        }
      ],
      "name": "WithdrawFees",
      "type": "event"
    },
    {
      "inputs": [],
      "name": "BASIS_POINTS_DIVISOR",
      "outputs": [
        {
          "internalType": "uint256",
          "name": "",
          "type": "uint256"
        }
      ],
      "stateMutability": "view",
      "type": "function"
    },
    {
      "inputs": [],
      "name": "admin",
      "outputs": [
        {
          "internalType": "address",
          "name": "",
          "type": "address"
        }
      ],
      "stateMutability": "view",
      "type": "function"
    },
    {
      "inputs": [
        {
          "internalType": "address",
          "name": "_token",
          "type": "address"
        },
        {
          "internalType": "address",
          "name": "_spender",
          "type": "address"
        },
        {
          "internalType": "uint256",
          "name": "_amount",
          "type": "uint256"
        }
      ],
      "name": "approve",
      "outputs": [],
      "stateMutability": "nonpayable",
      "type": "function"
    },
    {
      "inputs": [],
      "name": "callbackGasLimit",
      "outputs": [
        {
          "internalType": "uint256",
          "name": "",
          "type": "uint256"
        }
      ],
      "stateMutability": "view",
      "type": "function"
    },
    {
      "inputs": [
        {
          "internalType": "bytes32",
          "name": "_key",
          "type": "bytes32"
        },
        {
          "internalType": "address payable",
          "name": "_executionFeeReceiver",
          "type": "address"
        }
      ],
      "name": "cancelDecreasePosition",
      "outputs": [
        {
          "internalType": "bool",
          "name": "",
          "type": "bool"
        }
      ],
      "stateMutability": "nonpayable",
      "type": "function"
    },
    {
      "inputs": [
        {
          "internalType": "bytes32",
          "name": "_key",
          "type": "bytes32"
        },
        {
          "internalType": "address payable",
          "name": "_executionFeeReceiver",
          "type": "address"
        }
      ],
      "name": "cancelIncreasePosition",
      "outputs": [
        {
          "internalType": "bool",
          "name": "",
          "type": "bool"
        }
      ],
      "stateMutability": "nonpayable",
      "type": "function"
    },
    {
      "inputs": [
        {
          "internalType": "address[]",
          "name": "_path",
          "type": "address[]"
        },
        {
          "internalType": "address",
          "name": "_indexToken",
          "type": "address"
        },
        {
          "internalType": "uint256",
          "name": "_collateralDelta",
          "type": "uint256"
        },
        {
          "internalType": "uint256",
          "name": "_sizeDelta",
          "type": "uint256"
        },
        {
          "internalType": "bool",
          "name": "_isLong",
          "type": "bool"
        },
        {
          "internalType": "address",
          "name": "_receiver",
          "type": "address"
        },
        {
          "internalType": "uint256",
          "name": "_acceptablePrice",
          "type": "uint256"
        },
        {
          "internalType": "uint256",
          "name": "_minOut",
          "type": "uint256"
        },
        {
          "internalType": "uint256",
          "name": "_executionFee",
          "type": "uint256"
        },
        {
          "internalType": "bool",
          "name": "_withdrawETH",
          "type": "bool"
        },
        {
          "internalType": "address",
          "name": "_callbackTarget",
          "type": "address"
        }
      ],
      "name": "createDecreasePosition",
      "outputs": [
        {
          "internalType": "bytes32",
          "name": "",
          "type": "bytes32"
        }
      ],
      "stateMutability": "payable",
      "type": "function"
    },
    {
      "inputs": [
        {
          "internalType": "address[]",
          "name": "_path",
          "type": "address[]"
        },
        {
          "internalType": "address",
          "name": "_indexToken",
          "type": "address"
        },
        {
          "internalType": "uint256",
          "name": "_amountIn",
          "type": "uint256"
        },
        {
          "internalType": "uint256",
          "name": "_minOut",
          "type": "uint256"
        },
        {
          "internalType": "uint256",
          "name": "_sizeDelta",
          "type": "uint256"
        },
        {
          "internalType": "bool",
          "name": "_isLong",
          "type": "bool"
        },
        {
          "internalType": "uint256",
          "name": "_acceptablePrice",
          "type": "uint256"
        },
        {
          "internalType": "uint256",
          "name": "_executionFee",
          "type": "uint256"
        },
        {
          "internalType": "bytes32",
          "name": "_referralCode",
          "type": "bytes32"
        },
        {
          "internalType": "address",
          "name": "_callbackTarget",
          "type": "address"
        }
      ],
      "name": "createIncreasePosition",
      "outputs": [
        {
          "internalType": "bytes32",
          "name": "",
          "type": "bytes32"
        }
      ],
      "stateMutability": "payable",
      "type": "function"
    },
    {
      "inputs": [
        {
          "internalType": "address[]",
          "name": "_path",
          "type": "address[]"
        },
        {
          "internalType": "address",
          "name": "_indexToken",
          "type": "address"
        },
        {
          "internalType": "uint256",
          "name": "_minOut",
          "type": "uint256"
        },
        {
          "internalType": "uint256",
          "name": "_sizeDelta",
          "type": "uint256"
        },
        {
          "internalType": "bool",
          "name": "_isLong",
          "type": "bool"
        },
        {
          "internalType": "uint256",
          "name": "_acceptablePrice",
          "type": "uint256"
        },
        {
          "internalType": "uint256",
          "name": "_executionFee",
          "type": "uint256"
        },
        {
          "internalType": "bytes32",
          "name": "_referralCode",
          "type": "bytes32"
        },
        {
          "internalType": "address",
          "name": "_callbackTarget",
          "type": "address"
        }
      ],
      "name": "createIncreasePositionETH",
      "outputs": [
        {
          "internalType": "bytes32",
          "name": "",
          "type": "bytes32"
        }
      ],
      "stateMutability": "payable",
      "type": "function"
    },
    {
      "inputs": [
        {
          "internalType": "address",
          "name": "",
          "type": "address"
        }
      ],
      "name": "customCallbackGasLimits",
      "outputs": [
        {
          "internalType": "uint256",
          "name": "",
          "type": "uint256"
        }
      ],
      "stateMutability": "view",
      "type": "function"
    },
    {
      "inputs": [
        {
          "internalType": "uint256",
          "name": "",
          "type": "uint256"
        }
      ],
      "name": "decreasePositionRequestKeys",
      "outputs": [
        {
          "internalType": "bytes32",
          "name": "",
          "type": "bytes32"
        }
      ],
      "stateMutability": "view",
      "type": "function"
    },
    {
      "inputs": [],
      "name": "decreasePositionRequestKeysStart",
      "outputs": [
        {
          "internalType": "uint256",
          "name": "",
          "type": "uint256"
        }
      ],
      "stateMutability": "view",
      "type": "function"
    },
    {
      "inputs": [
        {
          "internalType": "bytes32",
          "name": "",
          "type": "bytes32"
        }
      ],
      "name": "decreasePositionRequests",
      "outputs": [
        {
          "internalType": "address",
          "name": "account",
          "type": "address"
        },
        {
          "internalType": "address",
          "name": "indexToken",
          "type": "address"
        },
        {
          "internalType": "uint256",
          "name": "collateralDelta",
          "type": "uint256"
        },
        {
          "internalType": "uint256",
          "name": "sizeDelta",
          "type": "uint256"
        },
        {
          "internalType": "bool",
          "name": "isLong",
          "type": "bool"
        },
        {
          "internalType": "address",
          "name": "receiver",
          "type": "address"
        },
        {
          "internalType": "uint256",
          "name": "acceptablePrice",
          "type": "uint256"
        },
        {
          "internalType": "uint256",
          "name": "minOut",
          "type": "uint256"
        },
        {
          "internalType": "uint256",
          "name": "executionFee",
          "type": "uint256"
        },
        {
          "internalType": "uint256",
          "name": "blockNumber",
          "type": "uint256"
        },
        {
          "internalType": "uint256",
          "name": "blockTime",
          "type": "uint256"
        },
        {
          "internalType": "bool",
          "name": "withdrawETH",
          "type": "bool"
        },
        {
          "internalType": "address",
          "name": "callbackTarget",
          "type": "address"
        }
      ],
      "stateMutability": "view",
      "type": "function"
    },
    {
      "inputs": [
        {
          "internalType": "address",
          "name": "",
          "type": "address"
        }
      ],
      "name": "decreasePositionsIndex",
      "outputs": [
        {
          "internalType": "uint256",
          "name": "",
          "type": "uint256"
        }
      ],
      "stateMutability": "view",
      "type": "function"
    },
    {
      "inputs": [],
      "name": "depositFee",
      "outputs": [
        {
          "internalType": "uint256",
          "name": "",
          "type": "uint256"
        }
      ],
      "stateMutability": "view",
      "type": "function"
    },
    {
      "inputs": [],
      "name": "ethTransferGasLimit",
      "outputs": [
        {
          "internalType": "uint256",
          "name": "",
          "type": "uint256"
        }
      ],
      "stateMutability": "view",
      "type": "function"
    },
    {
      "inputs": [
        {
          "internalType": "bytes32",
          "name": "_key",
          "type": "bytes32"
        },
        {
          "internalType": "address payable",
          "name": "_executionFeeReceiver",
          "type": "address"
        }
      ],
      "name": "executeDecreasePosition",
      "outputs": [
        {
          "internalType": "bool",
          "name": "",
          "type": "bool"
        }
      ],
      "stateMutability": "nonpayable",
      "type": "function"
    },
    {
      "inputs": [
        {
          "internalType": "uint256",
          "name": "_endIndex",
          "type": "uint256"
        },
        {
          "internalType": "address payable",
          "name": "_executionFeeReceiver",
          "type": "address"
        }
      ],
      "name": "executeDecreasePositions",
      "outputs": [],
      "stateMutability": "nonpayable",
      "type": "function"
    },
    {
      "inputs": [
        {
          "internalType": "bytes32",
          "name": "_key",
          "type": "bytes32"
        },
        {
          "internalType": "address payable",
          "name": "_executionFeeReceiver",
          "type": "address"
        }
      ],
      "name": "executeIncreasePosition",
      "outputs": [
        {
          "internalType": "bool",
          "name": "",
          "type": "bool"
        }
      ],
      "stateMutability": "nonpayable",
      "type": "function"
    },
    {
      "inputs": [
        {
          "internalType": "uint256",
          "name": "_endIndex",
          "type": "uint256"
        },
        {
          "internalType": "address payable",
          "name": "_executionFeeReceiver",
          "type": "address"
        }
      ],
      "name": "executeIncreasePositions",
      "outputs": [],
      "stateMutability": "nonpayable",
      "type": "function"
    },
    {
      "inputs": [
        {
          "internalType": "address",
          "name": "",
          "type": "address"
        }
      ],
      "name": "feeReserves",
      "outputs": [
        {
          "internalType": "uint256",
          "name": "",
          "type": "uint256"
        }
      ],
      "stateMutability": "view",
      "type": "function"
    },
    {
      "inputs": [
        {
          "internalType": "bytes32",
          "name": "_key",
          "type": "bytes32"
        }
      ],
      "name": "getDecreasePositionRequestPath",
      "outputs": [
        {
          "internalType": "address[]",
          "name": "",
          "type": "address[]"
        }
      ],
      "stateMutability": "view",
      "type": "function"
    },
    {
      "inputs": [
        {
          "internalType": "bytes32",
          "name": "_key",
          "type": "bytes32"
        }
      ],
      "name": "getIncreasePositionRequestPath",
      "outputs": [
        {
          "internalType": "address[]",
          "name": "",
          "type": "address[]"
        }
      ],
      "stateMutability": "view",
      "type": "function"
    },
    {
      "inputs": [
        {
          "internalType": "address",
          "name": "_account",
          "type": "address"
        },
        {
          "internalType": "uint256",
          "name": "_index",
          "type": "uint256"
        }
      ],
      "name": "getRequestKey",
      "outputs": [
        {
          "internalType": "bytes32",
          "name": "",
          "type": "bytes32"
        }
      ],
      "stateMutability": "pure",
      "type": "function"
    },
    {
      "inputs": [],
      "name": "getRequestQueueLengths",
      "outputs": [
        {
          "internalType": "uint256",
          "name": "",
          "type": "uint256"
        },
        {
          "internalType": "uint256",
          "name": "",
          "type": "uint256"
        },
        {
          "internalType": "uint256",
          "name": "",
          "type": "uint256"
        },
        {
          "internalType": "uint256",
          "name": "",
          "type": "uint256"
        }
      ],
      "stateMutability": "view",
      "type": "function"
    },
    {
      "inputs": [],
      "name": "gov",
      "outputs": [
        {
          "internalType": "address",
          "name": "",
          "type": "address"
        }
      ],
      "stateMutability": "view",
      "type": "function"
    },
    {
      "inputs": [],
      "name": "increasePositionBufferBps",
      "outputs": [
        {
          "internalType": "uint256",
          "name": "",
          "type": "uint256"
        }
      ],
      "stateMutability": "view",
      "type": "function"
    },
    {
      "inputs": [
        {
          "internalType": "uint256",
          "name": "",
          "type": "uint256"
        }
      ],
      "name": "increasePositionRequestKeys",
      "outputs": [
        {
          "internalType": "bytes32",
          "name": "",
          "type": "bytes32"
        }
      ],
      "stateMutability": "view",
      "type": "function"
    },
    {
      "inputs": [],
      "name": "increasePositionRequestKeysStart",
      "outputs": [
        {
          "internalType": "uint256",
          "name": "",
          "type": "uint256"
        }
      ],
      "stateMutability": "view",
      "type": "function"
    },
    {
      "inputs": [
        {
          "internalType": "bytes32",
          "name": "",
          "type": "bytes32"
        }
      ],
      "name": "increasePositionRequests",
      "outputs": [
        {
          "internalType": "address",
          "name": "account",
          "type": "address"
        },
        {
          "internalType": "address",
          "name": "indexToken",
          "type": "address"
        },
        {
          "internalType": "uint256",
          "name": "amountIn",
          "type": "uint256"
        },
        {
          "internalType": "uint256",
          "name": "minOut",
          "type": "uint256"
        },
        {
          "internalType": "uint256",
          "name": "sizeDelta",
          "type": "uint256"
        },
        {
          "internalType": "bool",
          "name": "isLong",
          "type": "bool"
        },
        {
          "internalType": "uint256",
          "name": "acceptablePrice",
          "type": "uint256"
        },
        {
          "internalType": "uint256",
          "name": "executionFee",
          "type": "uint256"
        },
        {
          "internalType": "uint256",
          "name": "blockNumber",
          "type": "uint256"
        },
        {
          "internalType": "uint256",
          "name": "blockTime",
          "type": "uint256"
        },
        {
          "internalType": "bool",
          "name": "hasCollateralInETH",
          "type": "bool"
        },
        {
          "internalType": "address",
          "name": "callbackTarget",
          "type": "address"
        }
      ],
      "stateMutability": "view",
      "type": "function"
    },
    {
      "inputs": [
        {
          "internalType": "address",
          "name": "",
          "type": "address"
        }
      ],
      "name": "increasePositionsIndex",
      "outputs": [
        {
          "internalType": "uint256",
          "name": "",
          "type": "uint256"
        }
      ],
      "stateMutability": "view",
      "type": "function"
    },
    {
      "inputs": [],
      "name": "isLeverageEnabled",
      "outputs": [
        {
          "internalType": "bool",
          "name": "",
          "type": "bool"
        }
      ],
      "stateMutability": "view",
      "type": "function"
    },
    {
      "inputs": [
        {
          "internalType": "address",
          "name": "",
          "type": "address"
        }
      ],
      "name": "isPositionKeeper",
      "outputs": [
        {
          "internalType": "bool",
          "name": "",
          "type": "bool"
        }
      ],
      "stateMutability": "view",
      "type": "function"
    },
    {
      "inputs": [
        {
          "internalType": "address",
          "name": "",
          "type": "address"
        }
      ],
      "name": "maxGlobalLongSizes",
      "outputs": [
        {
          "internalType": "uint256",
          "name": "",
          "type": "uint256"
        }
      ],
      "stateMutability": "view",
      "type": "function"
    },
    {
      "inputs": [
        {
          "internalType": "address",
          "name": "",
          "type": "address"
        }
      ],
      "name": "maxGlobalShortSizes",
      "outputs": [
        {
          "internalType": "uint256",
          "name": "",
          "type": "uint256"
        }
      ],
      "stateMutability": "view",
      "type": "function"
    },
    {
      "inputs": [],
      "name": "maxTimeDelay",
      "outputs": [
        {
          "internalType": "uint256",
          "name": "",
          "type": "uint256"
        }
      ],
      "stateMutability": "view",
      "type": "function"
    },
    {
      "inputs": [],
      "name": "minBlockDelayKeeper",
      "outputs": [
        {
          "internalType": "uint256",
          "name": "",
          "type": "uint256"
        }
      ],
      "stateMutability": "view",
      "type": "function"
    },
    {
      "inputs": [],
      "name": "minExecutionFee",
      "outputs": [
        {
          "internalType": "uint256",
          "name": "",
          "type": "uint256"
        }
      ],
      "stateMutability": "view",
      "type": "function"
    },
    {
      "inputs": [],
      "name": "minTimeDelayPublic",
      "outputs": [
        {
          "internalType": "uint256",
          "name": "",
          "type": "uint256"
        }
      ],
      "stateMutability": "view",
      "type": "function"
    },
    {
      "inputs": [],
      "name": "referralStorage",
      "outputs": [
        {
          "internalType": "address",
          "name": "",
          "type": "address"
        }
      ],
      "stateMutability": "view",
      "type": "function"
    },
    {
      "inputs": [],
      "name": "router",
      "outputs": [
        {
          "internalType": "address",
          "name": "",
          "type": "address"
        }
      ],
      "stateMutability": "view",
      "type": "function"
    },
    {
      "inputs": [
        {
          "internalType": "address payable",
          "name": "_receiver",
          "type": "address"
        },
        {
          "internalType": "uint256",
          "name": "_amount",
          "type": "uint256"
        }
      ],
      "name": "sendValue",
      "outputs": [],
      "stateMutability": "nonpayable",
      "type": "function"
    },
    {
      "inputs": [
        {
          "internalType": "address",
          "name": "_admin",
          "type": "address"
        }
      ],
      "name": "setAdmin",
      "outputs": [],
      "stateMutability": "nonpayable",
      "type": "function"
    },
    {
      "inputs": [
        {
          "internalType": "uint256",
          "name": "_callbackGasLimit",
          "type": "uint256"
        }
      ],
      "name": "setCallbackGasLimit",
      "outputs": [],
      "stateMutability": "nonpayable",
      "type": "function"
    },
    {
      "inputs": [
        {
          "internalType": "address",
          "name": "_callbackTarget",
          "type": "address"
        },
        {
          "internalType": "uint256",
          "name": "_callbackGasLimit",
          "type": "uint256"
        }
      ],
      "name": "setCustomCallbackGasLimit",
      "outputs": [],
      "stateMutability": "nonpayable",
      "type": "function"
    },
    {
      "inputs": [
        {
          "internalType": "uint256",
          "name": "_minBlockDelayKeeper",
          "type": "uint256"
        },
        {
          "internalType": "uint256",
          "name": "_minTimeDelayPublic",
          "type": "uint256"
        },
        {
          "internalType": "uint256",
          "name": "_maxTimeDelay",
          "type": "uint256"
        }
      ],
      "name": "setDelayValues",
      "outputs": [],
      "stateMutability": "nonpayable",
      "type": "function"
    },
    {
      "inputs": [
        {
          "internalType": "uint256",
          "name": "_depositFee",
          "type": "uint256"
        }
      ],
      "name": "setDepositFee",
      "outputs": [],
      "stateMutability": "nonpayable",
      "type": "function"
    },
    {
      "inputs": [
        {
          "internalType": "uint256",
          "name": "_ethTransferGasLimit",
          "type": "uint256"
        }
      ],
      "name": "setEthTransferGasLimit",
      "outputs": [],
      "stateMutability": "nonpayable",
      "type": "function"
    },
    {
      "inputs": [
        {
          "internalType": "address",
          "name": "_gov",
          "type": "address"
        }
      ],
      "name": "setGov",
      "outputs": [],
      "stateMutability": "nonpayable",
      "type": "function"
    },
    {
      "inputs": [
        {
          "internalType": "uint256",
          "name": "_increasePositionBufferBps",
          "type": "uint256"
        }
      ],
      "name": "setIncreasePositionBufferBps",
      "outputs": [],
      "stateMutability": "nonpayable",
      "type": "function"
    },
    {
      "inputs": [
        {
          "internalType": "bool",
          "name": "_isLeverageEnabled",
          "type": "bool"
        }
      ],
      "name": "setIsLeverageEnabled",
      "outputs": [],
      "stateMutability": "nonpayable",
      "type": "function"
    },
    {
      "inputs": [
        {
          "internalType": "address[]",
          "name": "_tokens",
          "type": "address[]"
        },
        {
          "internalType": "uint256[]",
          "name": "_longSizes",
          "type": "uint256[]"
        },
        {
          "internalType": "uint256[]",
          "name": "_shortSizes",
          "type": "uint256[]"
        }
      ],
      "name": "setMaxGlobalSizes",
      "outputs": [],
      "stateMutability": "nonpayable",
      "type": "function"
    },
    {
      "inputs": [
        {
          "internalType": "uint256",
          "name": "_minExecutionFee",
          "type": "uint256"
        }
      ],
      "name": "setMinExecutionFee",
      "outputs": [],
      "stateMutability": "nonpayable",
      "type": "function"
    },
    {
      "inputs": [
        {
          "internalType": "address",
          "name": "_account",
          "type": "address"
        },
        {
          "internalType": "bool",
          "name": "_isActive",
          "type": "bool"
        }
      ],
      "name": "setPositionKeeper",
      "outputs": [],
      "stateMutability": "nonpayable",
      "type": "function"
    },
    {
      "inputs": [
        {
          "internalType": "address",
          "name": "_referralStorage",
          "type": "address"
        }
      ],
      "name": "setReferralStorage",
      "outputs": [],
      "stateMutability": "nonpayable",
      "type": "function"
    },
    {
      "inputs": [
        {
          "internalType": "uint256",
          "name": "_increasePositionRequestKeysStart",
          "type": "uint256"
        },
        {
          "internalType": "uint256",
          "name": "_decreasePositionRequestKeysStart",
          "type": "uint256"
        }
      ],
      "name": "setRequestKeysStartValues",
      "outputs": [],
      "stateMutability": "nonpayable",
      "type": "function"
    },
    {
      "inputs": [],
      "name": "shortsTracker",
      "outputs": [
        {
          "internalType": "address",
          "name": "",
          "type": "address"
        }
      ],
      "stateMutability": "view",
      "type": "function"
    },
    {
      "inputs": [],
      "name": "vault",
      "outputs": [
        {
          "internalType": "address",
          "name": "",
          "type": "address"
        }
      ],
      "stateMutability": "view",
      "type": "function"
    },
    {
      "inputs": [],
      "name": "weth",
      "outputs": [
        {
          "internalType": "address",
          "name": "",
          "type": "address"
        }
      ],
      "stateMutability": "view",
      "type": "function"
    },
    {
      "inputs": [
        {
          "internalType": "address",
          "name": "_token",
          "type": "address"
        },
        {
          "internalType": "address",
          "name": "_receiver",
          "type": "address"
        }
      ],
      "name": "withdrawFees",
      "outputs": [],
      "stateMutability": "nonpayable",
      "type": "function"
    },
    {
      "stateMutability": "payable",
      "type": "receive"
    }
  ],
  "bytecode": "0x60806040526207a12060075560646009556012805460ff191660011790553480156200002a57600080fd5b5060405162005cc838038062005cc8833981810160405260c08110156200005057600080fd5b508051602082015160408301516060840151608085015160a090950151600160008181558154336001600160a01b031991821681179093556003805482166001600160a01b03998a16179055600580548216978916979097179096556006805487169588169590951790945560089690965560048054851695909216949094179055600280549092169093179055600e55615bd6908190620000f290396000f3fe60806040526004361061039a5760003560e01c8063633451de116101dc578063c4f38e3311610102578063f2cea6a5116100a0578063fa4445771161006f578063fa444577146112cb578063faf990f31461130b578063fbfa77cf14611413578063fc2cee621461143357600080fd5b8063f2cea6a514611213578063f3883d8b14611252578063f851a4401461128b578063f887ea40146112ab57600080fd5b8063e1f21c67116100dc578063e1f21c6714610efc578063ef12c67e14610f3f578063f2555278146110f7578063f2ae372f1461113257600080fd5b8063c4f38e3314610e73578063cb0269c914610eb3578063cfad57a214610ec957600080fd5b8063804fc7021161017a57806398d1e03a1161014957806398d1e03a14610ddb5780639a20810014610df15780639b57862014610e2a578063ae4d7f9a14610e4057600080fd5b8063804fc70214610d0e5780638a54942f14610d4757806395e9bbd714610d715780639698d25a14610d9b57600080fd5b806367a52793116101b657806367a5279314610bac578063704b6c0214610bc25780637be7d14114610bf55780637c2eb9f714610ce257600080fd5b8063633451de14610b3657806363ae210314610b76578063657bc5d014610b8c57600080fd5b8063308aa81f116102c15780634067b1321161025f5780635b88e8c61161022e5780635b88e8c61461096f5780635d5c22e814610a4a57806360a362e214610ac457806362f8a3fe14610afd57600080fd5b80634067b132146108cf5780634278555f14610905578063490ae2101461092f5780635841fcaa1461095957600080fd5b80633a2a80c71161029b5780633a2a80c7146108555780633a9b52ad1461086b5780633e72a262146108955780633fc8cef3146108af57600080fd5b8063308aa81f146107a75780633422ead1146107d757806336eba48a1461081257600080fd5b80631ce9cb8f1161033957806324a084df1161030857806324a084df1461070957806324f746971461074257806327b42c0f146107585780632d79cf421461079157600080fd5b80631ce9cb8f146105565780631f28510614610596578063225fc9fd146106a6578063233bfe3b146106df57600080fd5b80631045c74e116103755780631045c74e146104ca578063126082cf1461050a57806312d43a51146105205780631bca8cf01461054057600080fd5b80626cc35e1461040557806304225954146104415780630d4d003d1461047d57600080fd5b36610400576006546001600160a01b031633146103fe5760405162461bcd60e51b815260206004820152600e60248201527f696e76616c69642073656e64657200000000000000000000000000000000000060448201526064015b60405180910390fd5b005b600080fd5b34801561041157600080fd5b50600a54610425906001600160a01b031681565b604080516001600160a01b039092168252519081900360200190f35b34801561044d57600080fd5b5061046b6004803603602081101561046457600080fd5b503561145d565b60408051918252519081900360200190f35b34801561048957600080fd5b506104b6600480360360408110156104a057600080fd5b50803590602001356001600160a01b031661147e565b604080519115158252519081900360200190f35b3480156104d657600080fd5b5061046b600480360360208110156104ed57600080fd5b50600c602052356001600160a01b03166000908152604090205481565b34801561051657600080fd5b5061046b61271081565b34801561052c57600080fd5b50600154610425906001600160a01b031681565b34801561054c57600080fd5b5061046b60165481565b34801561056257600080fd5b5061046b6004803603602081101561057957600080fd5b50600b602052356001600160a01b03166000908152604090205481565b3480156105a257600080fd5b5061062e600480360360208110156105b957600080fd5b50601d60205235600090815260409020805460028201546003830154600484015460058501546006860154600787015460088801546009890154600a8a0154600b909a01546001600160a01b03998a169a988a16999798969760ff80881698610100988990048316989093918216929104168d565b604080516001600160a01b039e8f1681529c8e1660208e01528c81019b909b5260608c019990995296151560808b0152948a1660a08a015260c089019390935260e088019190915261010087015261012086015261014085015215156101608401529092166101808201529051908190036101a00190f35b3480156106b257600080fd5b506104b6600480360360408110156106c957600080fd5b50803590602001356001600160a01b0316611904565b3480156106eb57600080fd5b506103fe6004803603602081101561070257600080fd5b5035611ca1565b34801561071557600080fd5b506103fe6004803603604081101561072c57600080fd5b506001600160a01b038135169060200135611d23565b34801561074e57600080fd5b5061046b60175481565b34801561076457600080fd5b506104b66004803603604081101561077b57600080fd5b50803590602001356001600160a01b0316611d87565b34801561079d57600080fd5b5061046b60075481565b3480156107b357600080fd5b506103fe600480360360408110156107ca57600080fd5b50803590602001356121cc565b3480156107e357600080fd5b506103fe600480360360408110156107fa57600080fd5b506001600160a01b038135169060200135151561225b565b34801561081e57600080fd5b506104b66004803603602081101561083557600080fd5b506019602052356001600160a01b03166000908152604090205460ff1681565b34801561086157600080fd5b5061046b60105481565b34801561087757600080fd5b506103fe6004803603602081101561088e57600080fd5b5035612301565b3480156108a157600080fd5b506012546104b69060ff1681565b3480156108bb57600080fd5b50600654610425906001600160a01b031681565b3480156108db57600080fd5b506103fe600480360360608110156108f257600080fd5b508035906020810135906040013561237c565b34801561091157600080fd5b5061046b6004803603602081101561092857600080fd5b5035612416565b34801561093b57600080fd5b506103fe6004803603602081101561095257600080fd5b5035612426565b34801561096557600080fd5b5061046b600f5481565b61046b600480360361012081101561098657600080fd5b8101906020810181356401000000008111156109a157600080fd5b8201836020820111156109b357600080fd5b803590602001918460208302840111640100000000831117156109d557600080fd5b919080806020026020016040519081016040528093929190818152602001838360200280828437600092019190915250929550505081356001600160a01b03908116935060208301359260408101359250606081013515159160808201359160a08101359160c08201359160e00135166124a1565b348015610a5657600080fd5b50610a7460048036036020811015610a6d57600080fd5b5035612640565b60408051602080825283518183015283519192839290830191858101910280838360005b83811015610ab0578181015183820152602001610a98565b505050509050019250505060405180910390f35b348015610ad057600080fd5b506104b660048036036040811015610ae757600080fd5b50803590602001356001600160a01b031661276f565b348015610b0957600080fd5b5061046b60048036036040811015610b2057600080fd5b506001600160a01b038135169060200135612ada565b348015610b4257600080fd5b5061046b60048036036020811015610b5957600080fd5b50601a602052356001600160a01b03166000908152604090205481565b348015610b8257600080fd5b5061046b600e5481565b348015610b9857600080fd5b50600454610425906001600160a01b031681565b348015610bb857600080fd5b5061046b60085481565b348015610bce57600080fd5b506103fe60048036036020811015610be557600080fd5b50356001600160a01b0316612b20565b61046b6004803603610160811015610c0c57600080fd5b810190602081018135640100000000811115610c2757600080fd5b820183602082011115610c3957600080fd5b80359060200191846020830284011164010000000083111715610c5b57600080fd5b919080806020026020016040519081016040528093929190818152602001838360200280828437600092019190915250929550505081356001600160a01b039081169350602083013592604081013592506060810135151591608082013581169160a08101359160c08201359160e081013591610100820135151591610120013516612bbb565b348015610cee57600080fd5b506103fe60048036036020811015610d0557600080fd5b50351515612d56565b348015610d1a57600080fd5b506103fe60048036036040811015610d3157600080fd5b506001600160a01b038135169060200135612de3565b348015610d5357600080fd5b506103fe60048036036020811015610d6a57600080fd5b5035612e82565b348015610d7d57600080fd5b50610a7460048036036020811015610d9457600080fd5b5035612f03565b348015610da757600080fd5b5061046b60048036036020811015610dbe57600080fd5b50600d602052356001600160a01b03166000908152604090205481565b348015610de757600080fd5b5061046b60095481565b348015610dfd57600080fd5b506103fe60048036036040811015610e1457600080fd5b50803590602001356001600160a01b031661302a565b348015610e3657600080fd5b5061046b60155481565b348015610e4c57600080fd5b506103fe60048036036020811015610e6357600080fd5b50356001600160a01b031661320b565b348015610e7f57600080fd5b5061046b60048036036020811015610e9657600080fd5b506018602052356001600160a01b03166000908152604090205481565b348015610ebf57600080fd5b5061046b60115481565b348015610ed557600080fd5b506103fe60048036036020811015610eec57600080fd5b50356001600160a01b031661329f565b348015610f0857600080fd5b506103fe60048036036060811015610f1f57600080fd5b506001600160a01b0381358116916020810135909116906040013561330e565b348015610f4b57600080fd5b506103fe60048036036060811015610f6257600080fd5b810190602081018135640100000000811115610f7d57600080fd5b820183602082011115610f8f57600080fd5b80359060200191846020830284011164010000000083111715610fb157600080fd5b919080806020026020016040519081016040528093929190818152602001838360200280828437600092019190915250929594936020810193503591505064010000000081111561100157600080fd5b82018360208201111561101357600080fd5b8035906020019184602083028401116401000000008311171561103557600080fd5b919080806020026020016040519081016040528093929190818152602001838360200280828437600092019190915250929594936020810193503591505064010000000081111561108557600080fd5b82018360208201111561109757600080fd5b803590602001918460208302840111640100000000831117156110b957600080fd5b9190808060200260200160405190810160405280939291908181526020018383602002808284376000920191909152509295506133ed945050505050565b34801561110357600080fd5b506103fe6004803603604081101561111a57600080fd5b506001600160a01b038135811691602001351661352b565b61046b600480360361014081101561114957600080fd5b81019060208101813564010000000081111561116457600080fd5b82018360208201111561117657600080fd5b8035906020019184602083028401116401000000008311171561119857600080fd5b919080806020026020016040519081016040528093929190818152602001838360200280828437600092019190915250929550506001600160a01b038335811694506020840135936040810135935060608101359250608081013515159160a08201359160c08101359160e082013591610100013516613603565b34801561121f57600080fd5b50601554601354601654601454604080519485526020850193909352838301919091526060830152519081900360800190f35b34801561125e57600080fd5b506103fe6004803603604081101561127557600080fd5b50803590602001356001600160a01b03166137c9565b34801561129757600080fd5b50600254610425906001600160a01b031681565b3480156112b757600080fd5b50600554610425906001600160a01b031681565b3480156112d757600080fd5b5061046b600480360360208110156112ee57600080fd5b50601c602052356001600160a01b03166000908152604090205481565b34801561131757600080fd5b506113a46004803603602081101561132e57600080fd5b50601b60205235600090815260409020805460028201546003830154600484015460058501546006860154600787015460088801546009890154600a8a0154600b909a01546001600160a01b03998a169a988a169997989697959660ff958616969495939492939092908216916101009004168c565b604080516001600160a01b039d8e1681529b8d1660208d01528b81019a909a5260608b019890985260808a019690965293151560a089015260c088019290925260e087015261010086015261012085015215156101408401529092166101608201529051908190036101800190f35b34801561141f57600080fd5b50600354610425906001600160a01b031681565b34801561143f57600080fd5b506103fe6004803603602081101561145657600080fd5b50356139aa565b6013818154811061146d57600080fd5b600091825260209091200154905081565b60006002600054036114a3576040516306fda65d60e31b815260040160405180910390fd5b60026000908155838152601d6020908152604080832081516101c08101835281546001600160a01b03168152600182018054845181870281018701909552808552919492938584019390929083018282801561152857602002820191906000526020600020905b81546001600160a01b0316815260019091019060200180831161150a575b505050918352505060028201546001600160a01b0390811660208301526003830154604083015260048301546060830152600583015460ff8082161515608085015261010091829004831660a0850152600685015460c0850152600785015460e08501526008850154828501526009850154610120850152600a850154610140850152600b9094015493841615156101608401529092048216610180909101528151919250166115dc5760019150506118f9565b60006115f78261014001518361016001518460000151613a2b565b905080611609576000925050506118f9565b6000858152601d6020526040812080546001600160a01b031916815590611633600183018261581b565b506002810180546001600160a01b0319169055600060038201819055600482018190556005820180546001600160a81b031990811690915560068301829055600783018290556008830182905560098301829055600a8301829055600b90920180549092169091558251602084015180516116df92919084906116b8576116b86158b3565b60200260200101518560400151866060015187608001518860a00151308a60e00151613aa3565b905080156117a35760018360200151511115611755576003546020840151805161173e926001600160a01b031691849160009061171e5761171e6158b3565b60200260200101516001600160a01b0316613f649092919063ffffffff16565b611752836020015184610100015130613fd0565b90505b826101800151156117735761176e818460c0015161406a565b6117a3565b6117a38360c00151828560200151600187602001515161179391906158df565b8151811061171e5761171e6158b3565b6117b28361012001518661406a565b82600001516001600160a01b03167f21435c5b618d77ff3657140cd3318e2cffaebc5e0e1b7318f56a9ba4044c3ed284602001518560400151866060015187608001518860a001518960c001518a60e001518b61010001518c61012001518d61014001514361182191906158df565b6101608f015161183190426158df565b60405180806020018c6001600160a01b031681526020018b81526020018a81526020018915158152602001886001600160a01b0316815260200187815260200186815260200185815260200184815260200183815260200182810382528d818151815260200191508051906020019060200280838360005b838110156118c15781810151838201526020016118a9565b505050509050019c5050505050505050505050505060405180910390a26118f1836101a001518760016000614216565b600193505050505b600160005592915050565b6000600260005403611929576040516306fda65d60e31b815260040160405180910390fd5b60026000908155838152601b6020908152604080832081516101a08101835281546001600160a01b0316815260018201805484518187028101870190955280855291949293858401939092908301828280156119ae57602002820191906000526020600020905b81546001600160a01b03168152600190910190602001808311611990575b505050918352505060028201546001600160a01b039081166020830152600383015460408301526004830154606083015260058301546080830152600683015460ff908116151560a0840152600784015460c0840152600884015460e0840152600984015461010080850191909152600a850154610120850152600b90940154908116151561014084015292909204821661016090910152815191925016611a5a5760019150506118f9565b6000611a758261012001518361014001518460000151614337565b905080611a87576000925050506118f9565b6000858152601b6020526040812080546001600160a01b031916815590611ab1600183018261581b565b506002810180546001600160a01b0319169055600060038201819055600482018190556005820181905560068201805460ff19169055600782018190556008820181905560098201819055600a820155600b0180546001600160a81b031916905561016082015115611b3457611b2f8260600151836000015161406a565b611b58565b611b5882600001518360600151846020015160008151811061171e5761171e6158b3565b611b678261010001518561406a565b81600001516001600160a01b03167f35b638e650e2328786fb405bd69d2083dbedc018d086662e74b775b4f1dae4bf83602001518460400151856060015186608001518760a001518860c001518960e001518a61010001518b610120015143611bd091906158df565b6101408d0151611be090426158df565b60405180806020018b6001600160a01b031681526020018a8152602001898152602001888152602001871515815260200186815260200185815260200184815260200183815260200182810382528c818151815260200191508051906020019060200280838360005b83811015611c61578181015183820152602001611c49565b505050509050019b50505050505050505050505060405180910390a2611c908261018001518660006001614216565b600192505050600160005592915050565b6002546001600160a01b03163314611ce75760405162461bcd60e51b81526020600482015260096024820152683337b93134b23232b760b91b60448201526064016103f5565b60098190556040518181527f21167d0d4661af93817ebce920f18986eed3d75d5e1c03f2aed05efcbafbc452906020015b60405180910390a150565b6001546001600160a01b03163314611d705760408051630aa275af60e21b81523360048201526024810191909152600760448201526637b7363ca3b7bb60c91b60648201526084016103f5565b611d836001600160a01b03831682614344565b5050565b6000600260005403611dac576040516306fda65d60e31b815260040160405180910390fd5b60026000908155838152601b6020908152604080832081516101a08101835281546001600160a01b031681526001820180548451818702810187019095528085529194929385840193909290830182828015611e3157602002820191906000526020600020905b81546001600160a01b03168152600190910190602001808311611e13575b505050918352505060028201546001600160a01b039081166020830152600383015460408301526004830154606083015260058301546080830152600683015460ff908116151560a0840152600784015460c0840152600884015460e0840152600984015461010080850191909152600a850154610120850152600b90940154908116151561014084015292909204821661016090910152815191925016611edd5760019150506118f9565b6000611ef88261012001518361014001518460000151613a2b565b905080611f0a576000925050506118f9565b6000858152601b6020526040812080546001600160a01b031916815590611f34600183018261581b565b506002810180546001600160a01b0319169055600060038201819055600482018190556005820181905560068201805460ff19169055600782018190556008820181905560098201819055600a820155600b0180546001600160a81b031916905560608201511561204957606082015160208301515160011015611ff657600354606084015160208501518051611fe0936001600160a01b031692919060009061171e5761171e6158b3565b611ff38360200151846080015130613fd0565b90505b600061201a846000015185602001518487604001518860c001518960a0015161445d565b60035460208601518051929350612046926001600160a01b0390921691849190611793906001906158df565b50505b815160208301518051612095929190612064906001906158df565b81518110612074576120746158b3565b602002602001015184604001518560a001518660c001518760e001516145df565b6120a48261010001518561406a565b81600001516001600160a01b03167f1be316b94d38c07bd41cdb4913772d0a0a82802786a2f8b657b6e85dbcdfc64183602001518460400151856060015186608001518760a001518860c001518960e001518a61010001518b61012001514361210d91906158df565b6101408d015161211d90426158df565b60405180806020018b6001600160a01b031681526020018a8152602001898152602001888152602001871515815260200186815260200185815260200184815260200183815260200182810382528c818151815260200191508051906020019060200280838360005b8381101561219e578181015183820152602001612186565b505050509050019b50505050505050505050505060405180910390a2611c9082610180015186600180614216565b6002546001600160a01b031633146122125760405162461bcd60e51b81526020600482015260096024820152683337b93134b23232b760b91b60448201526064016103f5565b60158290556016819055604080518381526020810183905281517febb0f666150f4be5b60c45df8f3e49992510b0128027fe58eea6110f296493bc929181900390910190a15050565b6002546001600160a01b031633146122a15760405162461bcd60e51b81526020600482015260096024820152683337b93134b23232b760b91b60448201526064016103f5565b6001600160a01b038216600081815260196020908152604091829020805460ff1916851515908117909155825190815291517ffbabc02389290a451c6e600d05bf9887b99bfad39d8e1237e4e3df042e4941fe9281900390910190a25050565b6002546001600160a01b031633146123475760405162461bcd60e51b81526020600482015260096024820152683337b93134b23232b760b91b60448201526064016103f5565b60078190556040518181527f4d371d598d3a13f99ce992a17975bbaf1e1c256e072ec7d2f93ce88e40d9ba1c90602001611d18565b6002546001600160a01b031633146123c25760405162461bcd60e51b81526020600482015260096024820152683337b93134b23232b760b91b60448201526064016103f5565b600f83905560108290556011819055604080518481526020810184905280820183905290517fb98e759701eaca2e60c25e91109003c1c7442ef731b5d569037063005da8254d9181900360600190a1505050565b6014818154811061146d57600080fd5b6002546001600160a01b0316331461246c5760405162461bcd60e51b81526020600482015260096024820152683337b93134b23232b760b91b60448201526064016103f5565b60088190556040518181527f974fd3c1fcb4653dfc4fb740c4c692cd212d55c28f163f310128cb64d830067590602001611d18565b60006002600054036124c6576040516306fda65d60e31b815260040160405180910390fd5b6002600055600e54841015612508576040805162461bcd60e51b815260206004820152600360248201526266656560e81b604482015290519081900360640190fd5b83341015612543576040805162461bcd60e51b81526020600482015260036024820152621d985b60ea1b604482015290519081900360640190fd5b895160011480612554575089516002145b61258b576040805162461bcd60e51b81526020600482015260036024820152623632b760e91b604482015290519081900360640190fd5b6006548a516001600160a01b03909116908b906000906125ad576125ad6158b3565b60200260200101516001600160a01b0316146125f9576040805162461bcd60e51b815260206004808301919091526024820152630e0c2e8d60e31b604482015290519081900360640190fd5b6126016146cd565b61260a83614739565b600061261685346158df565b905061262c338c8c848d8d8d8d8d60018d6147c6565b60016000559b9a5050505050505050505050565b6000818152601d6020908152604080832081516101c08101835281546001600160a01b0316815260018201805484518187028101870190955280855260609695929485840193909291908301828280156126c357602002820191906000526020600020905b81546001600160a01b031681526001909101906020018083116126a5575b505050918352505060028201546001600160a01b039081166020808401919091526003840154604084015260048401546060840152600584015460ff8082161515608086015261010091829004841660a0860152600686015460c0860152600786015460e08601526008860154828601526009860154610120860152600a860154610140860152600b909501549485161515610160850152909304166101809091015201519392505050565b6000600260005403612794576040516306fda65d60e31b815260040160405180910390fd5b60026000908155838152601d6020908152604080832081516101c08101835281546001600160a01b03168152600182018054845181870281018701909552808552919492938584019390929083018282801561281957602002820191906000526020600020905b81546001600160a01b031681526001909101906020018083116127fb575b505050918352505060028201546001600160a01b0390811660208301526003830154604083015260048301546060830152600583015460ff8082161515608085015261010091829004831660a0850152600685015460c0850152600785015460e08501526008850154828501526009850154610120850152600a850154610140850152600b9094015493841615156101608401529092048216610180909101528151919250166128cd5760019150506118f9565b60006128e88261014001518361016001518460000151614337565b9050806128fa576000925050506118f9565b6000858152601d6020526040812080546001600160a01b031916815590612924600183018261581b565b506002810180546001600160a01b0319169055600060038201819055600482018190556005820180546001600160a81b031990811690915560068301829055600783018290556008830182905560098301829055600a830191909155600b9091018054909116905561012082015161299c908561406a565b81600001516001600160a01b03167f87abfd78e844f28318363bdf3da99eab2f4a2da9ff7ae365484507f7b6c3f80583602001518460400151856060015186608001518760a001518860c001518960e001518a61010001518b61012001518c610140015143612a0b91906158df565b6101608e0151612a1b90426158df565b60405180806020018c6001600160a01b031681526020018b81526020018a81526020018915158152602001886001600160a01b0316815260200187815260200186815260200185815260200184815260200183815260200182810382528d818151815260200191508051906020019060200280838360005b83811015612aab578181015183820152602001612a93565b505050509050019c5050505050505050505050505060405180910390a2611c90826101a0015186600080614216565b6000828260405160200180836001600160a01b031660601b8152601401828152602001925050506040516020818303038152906040528051906020012090505b92915050565b6001546001600160a01b03163314612b6d5760408051630aa275af60e21b81523360048201526024810191909152600760448201526637b7363ca3b7bb60c91b60648201526084016103f5565b600280546001600160a01b0319166001600160a01b0383169081179091556040519081527f5a272403b402d892977df56625f4164ccaf70ca3863991c43ecfe76a6905b0a190602001611d18565b6000600260005403612be0576040516306fda65d60e31b815260040160405180910390fd5b6002600055600e54841015612c22576040805162461bcd60e51b815260206004820152600360248201526266656560e81b604482015290519081900360640190fd5b833414612c5c576040805162461bcd60e51b81526020600482015260036024820152621d985b60ea1b604482015290519081900360640190fd5b8b5160011480612c6d57508b516002145b612ca4576040805162461bcd60e51b81526020600482015260036024820152623632b760e91b604482015290519081900360640190fd5b8215612d25576006548c516001600160a01b03909116908d90612cc9906001906158df565b81518110612cd957612cd96158b3565b60200260200101516001600160a01b031614612d25576040805162461bcd60e51b815260206004808301919091526024820152630e0c2e8d60e31b604482015290519081900360640190fd5b612d2d6146cd565b612d41338d8d8d8d8d8d8d8d8d8d8d61495f565b60016000559c9b505050505050505050505050565b6002546001600160a01b03163314612d9c5760405162461bcd60e51b81526020600482015260096024820152683337b93134b23232b760b91b60448201526064016103f5565b6012805482151560ff19909116811790915560408051918252517f4eb87a5935d402aa24c01b45bfb30adefcd2328b480f2d967864de4b64ea929f9181900360200190a150565b6002546001600160a01b03163314612e295760405162461bcd60e51b81526020600482015260096024820152683337b93134b23232b760b91b60448201526064016103f5565b6001600160a01b0382166000818152601860209081526040918290208490558151928352820183905280517f0a585bcfd5f265014b902e5350c05f3a465468d433f13009dcf83f17dc1316be9281900390910190a15050565b6002546001600160a01b03163314612ec85760405162461bcd60e51b81526020600482015260096024820152683337b93134b23232b760b91b60448201526064016103f5565b60178190556040805182815290517f22bd2c9f980325d046be74aaef5fc76df4a2bc3fbc7c5a1200fcc79fe80dab6c9181900360200190a150565b6000818152601b6020908152604080832081516101a08101835281546001600160a01b031681526001820180548451818702810187019095528085526060969592948584019390929190830182828015612f8657602002820191906000526020600020905b81546001600160a01b03168152600190910190602001808311612f68575b505050918352505060028201546001600160a01b03908116602080840191909152600384015460408401526004840154606084015260058401546080840152600684015460ff908116151560a0850152600785015460c0850152600885015460e0850152600985015461010080860191909152600a860154610120860152600b90950154908116151561014085015293909304166101609091015201519392505050565b3360009081526019602052604090205460ff16613074576040805162461bcd60e51b815260206004820152600360248201526234303360e81b604482015290519081900360640190fd5b6015546013548082106130875750505050565b80841115613093578093505b83821015613203576000601383815481106130b0576130b06158b3565b90600052602060002001549050306001600160a01b03166327b42c0f82866040518363ffffffff1660e01b815260040180838152602001826001600160a01b03168152602001925050506020604051808303816000875af192505050801561312a57506040513d602081101561312557600080fd5b505160015b6131c457604080517f225fc9fd000000000000000000000000000000000000000000000000000000008152600481018390526001600160a01b03861660248201529051309163225fc9fd91604480830192602092919082900301816000875af19250505080156131ac57506040513d60208110156131a757600080fd5b505160015b156131bf57806131bd575050613203565b505b6131d2565b806131d0575050613203565b505b601383815481106131e5576131e56158b3565b6000918252602082200155826131fa816158f2565b93505050613093565b506015555050565b6002546001600160a01b031633146132515760405162461bcd60e51b81526020600482015260096024820152683337b93134b23232b760b91b60448201526064016103f5565b600a80546001600160a01b0319166001600160a01b0383169081179091556040519081527f828abcccea18192c21d645e575652c49e20b986dab777906fc473d056b01b6a890602001611d18565b6001546001600160a01b031633146132ec5760408051630aa275af60e21b81523360048201526024810191909152600760448201526637b7363ca3b7bb60c91b60648201526084016103f5565b600180546001600160a01b0319166001600160a01b0392909216919091179055565b6001546001600160a01b0316331461335b5760408051630aa275af60e21b81523360048201526024810191909152600760448201526637b7363ca3b7bb60c91b60648201526084016103f5565b6040517f095ea7b30000000000000000000000000000000000000000000000000000000081526001600160a01b0383811660048301526024820183905284169063095ea7b3906044016020604051808303816000875af11580156133c3573d6000803e3d6000fd5b505050506040513d601f19601f820116820180604052508101906133e7919061590b565b50505050565b6002546001600160a01b031633146134335760405162461bcd60e51b81526020600482015260096024820152683337b93134b23232b760b91b60448201526064016103f5565b60005b83518110156134ea576000848281518110613453576134536158b3565b6020026020010151905083828151811061346f5761346f6158b3565b6020026020010151600c6000836001600160a01b03166001600160a01b03168152602001908152602001600020819055508282815181106134b2576134b26158b3565b6020908102919091018101516001600160a01b039092166000908152600d9091526040902055806134e2816158f2565b915050613436565b507fae32d569b058895b9620d6552b09aaffedc9a6f396be4d595a224ad09f8b213983838360405161351e93929190615968565b60405180910390a1505050565b6002546001600160a01b031633146135715760405162461bcd60e51b81526020600482015260096024820152683337b93134b23232b760b91b60448201526064016103f5565b6001600160a01b0382166000908152600b60205260408120549081900361359757505050565b6001600160a01b0383166000818152600b60205260408120556135bb908383613f64565b604080516001600160a01b038086168252841660208201529081018290527f4f1b51dd7a2fcb861aa2670f668be66835c4ee12b4bbbf037e4d0018f39819e49060600161351e565b6000600260005403613628576040516306fda65d60e31b815260040160405180910390fd5b6002600055600e5484101561366a576040805162461bcd60e51b815260206004820152600360248201526266656560e81b604482015290519081900360640190fd5b8334146136a4576040805162461bcd60e51b81526020600482015260036024820152621d985b60ea1b604482015290519081900360640190fd5b8a51600114806136b557508a516002145b6136ec576040805162461bcd60e51b81526020600482015260036024820152623632b760e91b604482015290519081900360640190fd5b6136f46146cd565b6136fd83614739565b88156137b5576005548b516001600160a01b0390911690631b827878908d9060009061372b5761372b6158b3565b602002602001015133308d6040518563ffffffff1660e01b815260040180856001600160a01b03168152602001846001600160a01b03168152602001836001600160a01b03168152602001828152602001945050505050600060405180830381600087803b15801561379c57600080fd5b505af11580156137b0573d6000803e3d6000fd5b505050505b61262c338c8c8c8c8c8c8c8c60008c6147c6565b3360009081526019602052604090205460ff16613813576040805162461bcd60e51b815260206004820152600360248201526234303360e81b604482015290519081900360640190fd5b6016546014548082106138265750505050565b80841115613832578093505b838210156139a25760006014838154811061384f5761384f6158b3565b90600052602060002001549050306001600160a01b0316630d4d003d82866040518363ffffffff1660e01b815260040180838152602001826001600160a01b03168152602001925050506020604051808303816000875af19250505080156138c957506040513d60208110156138c457600080fd5b505160015b61396357604080517f60a362e2000000000000000000000000000000000000000000000000000000008152600481018390526001600160a01b0386166024820152905130916360a362e291604480830192602092919082900301816000875af192505050801561394b57506040513d602081101561394657600080fd5b505160015b1561395e578061395c5750506139a2565b505b613971565b8061396f5750506139a2565b505b60148381548110613984576139846158b3565b600091825260208220015582613999816158f2565b93505050613832565b506016555050565b6002546001600160a01b031633146139f05760405162461bcd60e51b81526020600482015260096024820152683337b93134b23232b760b91b60448201526064016103f5565b600e8190556040805182815290517f52a8358457e20bbb36e4086b83fb0749599f1893fe4c35a876c46dc4886d12db9181900360200190a150565b60004260115484613a3c91906159d3565b11613a8e576040805162461bcd60e51b815260206004820152600760248201527f6578706972656400000000000000000000000000000000000000000000000000604482015290519081900360640190fd5b613a99848484614b3b565b90505b9392505050565b6003546000906001600160a01b03168185613b40576040517fe124e6d20000000000000000000000000000000000000000000000000000000081526001600160a01b038a8116600483015283169063e124e6d290602401602060405180830381865afa158015613b17573d6000803e3d6000fd5b505050506040513d601f19601f82011682018060405250810190613b3b91906159e6565b613bc3565b6040517f81a612d60000000000000000000000000000000000000000000000000000000081526001600160a01b038a811660048301528316906381a612d690602401602060405180830381865afa158015613b9f573d6000803e3d6000fd5b505050506040513d601f19601f82011682018060405250810190613bc391906159e6565b90508515613c205783811015613c1b5760405162461bcd60e51b815260206004820152601160248201527f6d61726b5072696365203c20707269636500000000000000000000000000000060448201526064016103f5565b613c70565b83811115613c705760405162461bcd60e51b815260206004820152601160248201527f6d61726b5072696365203e20707269636500000000000000000000000000000060448201526064016103f5565b6000826001600160a01b03166312d43a516040518163ffffffff1660e01b8152600401602060405180830381865afa158015613cb0573d6000803e3d6000fd5b505050506040513d601f19601f82011682018060405250810190613cd49190615a1b565b9050600460009054906101000a90046001600160a01b03166001600160a01b031663f3238cec8d8d8d8b8d8860006040518863ffffffff1660e01b8152600401613d6097969594939291906001600160a01b03978816815295871660208701529390951660408501529015156060840152608083015260a082019290925290151560c082015260e00190565b600060405180830381600087803b158015613d7a57600080fd5b505af1158015613d8e573d6000803e3d6000fd5b50506040517f6d63c1d00000000000000000000000000000000000000000000000000000000081526001600160a01b03868116600483015284169250636d63c1d09150602401600060405180830381600087803b158015613dee57600080fd5b505af1158015613e02573d6000803e3d6000fd5b505050506000600560009054906101000a90046001600160a01b03166001600160a01b0316632662166b8e8e8e8e8e8e8e6040518863ffffffff1660e01b8152600401613e8f97969594939291906001600160a01b0397881681529587166020870152938616604086015260608501929092526080840152151560a083015290911660c082015260e00190565b6020604051808303816000875af1158015613eae573d6000803e3d6000fd5b505050506040513d601f19601f82011682018060405250810190613ed291906159e6565b6040517fd3c87bbb0000000000000000000000000000000000000000000000000000000081526001600160a01b0386811660048301529192509083169063d3c87bbb90602401600060405180830381600087803b158015613f3257600080fd5b505af1158015613f46573d6000803e3d6000fd5b50505050613f548d8a614c76565b9c9b505050505050505050505050565b604080516001600160a01b038416602482015260448082018490528251808303909101815260649091019091526020810180517bffffffffffffffffffffffffffffffffffffffffffffffffffffffff1663a9059cbb60e01b179052613fcb908490614e40565b505050565b600083516002036140225761401b84600081518110613ff157613ff16158b3565b60200260200101518560018151811061400c5761400c6158b3565b60200260200101518585614f25565b9050613a9c565b60405162461bcd60e51b815260206004820152601460248201527f696e76616c6964205f706174682e6c656e67746800000000000000000000000060448201526064016103f5565b6006546040517f2e1a7d4d000000000000000000000000000000000000000000000000000000008152600481018490526001600160a01b03909116908190632e1a7d4d90602401600060405180830381600087803b1580156140cb57600080fd5b505af11580156140df573d6000803e3d6000fd5b5050600754604051600093506001600160a01b0386169250869084818181858888f193505050503d8060008114614132576040519150601f19603f3d011682016040523d82523d6000602084013e614137565b606091505b5050905080156141475750505050565b816001600160a01b031663d0e30db0856040518263ffffffff1660e01b81526004016000604051808303818588803b15801561418257600080fd5b505af1158015614196573d6000803e3d6000fd5b505060405163a9059cbb60e01b81526001600160a01b038781166004830152602482018990528616935063a9059cbb925060440190506020604051808303816000875af11580156141eb573d6000803e3d6000fd5b505050506040513d601f19601f8201168201806040525081019061420f919061590b565b5050505050565b6001600160a01b038416156133e7576001600160a01b0384163b156133e7576017546001600160a01b0385166000908152601860205260409020548181111561425d578091505b8160000361426c5750506133e7565b6000866001600160a01b031663c8809cd4848888886040518563ffffffff1660e01b815260040180848152602001831515815260200182151581526020019350505050600060405180830381600088803b1580156142c957600080fd5b5087f1935050505080156142db575060015b156142e4575060015b604080516001600160a01b0389168152821515602082015280820185905290517fc9123a2a8e16684aa24686f2bf8a6d0eb0c601bdc109140c9729916865a58bc49181900360600190a150505050505050565b6000613a99848484614b3b565b804710156143945760405162461bcd60e51b815260206004820152601d60248201527f416464726573733a20696e73756666696369656e742062616c616e636500000060448201526064016103f5565b6000826001600160a01b03168260405160006040518083038185875af1925050503d80600081146143e1576040519150601f19603f3d011682016040523d82523d6000602084013e6143e6565b606091505b5050905080613fcb5760405162461bcd60e51b815260206004820152603a60248201527f416464726573733a20756e61626c6520746f2073656e642076616c75652c207260448201527f6563697069656e74206d6179206861766520726576657274656400000000000060648201526084016103f5565b6003546009546040517fe0cab550000000000000000000000000000000000000000000000000000000008152600092839273__$4ebf70e2aa99c076c4a72b3e77f175d419$__9263e0cab550926144ce926001600160a01b03909116918d918d918d918d918d918d91600401615a36565b602060405180830381865af41580156144eb573d6000803e3d6000fd5b505050506040513d601f19601f8201168201806040525081019061450f919061590b565b905080156145d057600061271060085461271061452c91906158df565b6145369089615ac8565b6145409190615adf565b9050600061454e82896158df565b905060008960018b5161456191906158df565b81518110614571576145716158b3565b6020026020010151905081600b6000836001600160a01b03166001600160a01b03168152602001908152602001600020546145ac91906159d3565b6001600160a01b039091166000908152600b60205260409020555091506145d59050565b859150505b9695505050505050565b6145ea84838561501d565b600354600554600480546040517fbe1e78780000000000000000000000000000000000000000000000000000000081526001600160a01b0394851692810192909252918316602482015290821660448201528782166064820152868216608482015290851660a482015260c4810184905282151560e4820152610104810182905273__$4ebf70e2aa99c076c4a72b3e77f175d419$__9063be1e7878906101240160006040518083038186803b1580156146a357600080fd5b505af41580156146b7573d6000803e3d6000fd5b505050506146c5868461523c565b505050505050565b341561473757600660009054906101000a90046001600160a01b03166001600160a01b031663d0e30db0346040518263ffffffff1660e01b81526004016000604051808303818588803b15801561472357600080fd5b505af115801561420f573d6000803e3d6000fd5b565b80158015906147525750600a546001600160a01b031615155b156147c357600a54604080517f56b4b2ad0000000000000000000000000000000000000000000000000000000081523360048201526024810184905290516001600160a01b03909216916356b4b2ad9160448082019260009290919082900301818387803b15801561472357600080fd5b50565b600080604051806101a001604052808e6001600160a01b031681526020018d81526020018c6001600160a01b031681526020018b81526020018a815260200189815260200188151581526020018781526020018681526020014381526020014281526020018515158152602001846001600160a01b0316815250905060008061484e836153a4565b915091508e6001600160a01b03167f5265bc4952da402633b3fc35f67ab4245493a0ab94dd8ab123667c8d45a4485c8f8f8f8f8f8f8f8f8b600160138054905061489891906158df565b43423a60405180806020018e6001600160a01b031681526020018d81526020018c81526020018b81526020018a1515815260200189815260200188815260200187815260200186815260200185815260200184815260200183815260200182810382528f818151815260200191508051906020019060200280838360005b8381101561492e578181015183820152602001614916565b505050509050019e50505050505050505050505050505060405180910390a29e9d5050505050505050505050505050565b600080604051806101c001604052808f6001600160a01b031681526020018e81526020018d6001600160a01b031681526020018c81526020018b81526020018a15158152602001896001600160a01b031681526020018881526020018781526020018681526020014381526020014281526020018515158152602001846001600160a01b031681525090506000806149f683615554565b9150915082600001516001600160a01b03167f81ed0476a7e785a9e4728fffd679ea97176ca1ac85e1003462558bb5677da57b84602001518560400151866060015187608001518860a001518960c001518a60e001518b61010001518c61012001518c6001601480549050614a6b91906158df565b434260405180806020018e6001600160a01b031681526020018d81526020018c81526020018b151581526020018a6001600160a01b0316815260200189815260200188815260200187815260200186815260200185815260200184815260200183815260200182810382528f818151815260200191508051906020019060200280838360005b83811015614b09578181015183820152602001614af1565b505050509050019e50505050505050505050505050505060405180910390a29f9e505050505050505050505050505050565b60008033301480614b5b57503360009081526019602052604090205460ff165b60125490915060ff16158015614b6f575080155b15614ba7576040805162461bcd60e51b815260206004820152600360248201526234303360e81b604482015290519081900360640190fd5b8015614bc65743600f5486614bbc91906159d3565b1115915050613a9c565b336001600160a01b03841614614c09576040805162461bcd60e51b815260206004820152600360248201526234303360e81b604482015290519081900360640190fd5b4260105485614c1891906159d3565b1115614c6b576040805162461bcd60e51b815260206004820152600560248201527f64656c6179000000000000000000000000000000000000000000000000000000604482015290519081900360640190fd5b506001949350505050565b600a546001600160a01b031680614c8c57505050565b60405163534ef88360e01b81526001600160a01b038481166004830152600091829184169063534ef883906024016040805180830381865afa158015614cd6573d6000803e3d6000fd5b505050506040513d601f19601f82011682018060405250810190614cfa9190615b01565b909250905081614d0b575050505050565b600354604080516312d43a5160e01b815290516000926001600160a01b0316916312d43a519160048083019260209291908290030181865afa158015614d55573d6000803e3d6000fd5b505050506040513d601f19601f82011682018060405250810190614d799190615a1b565b90507f474c763ff84bf2c2039a6d9fea955ecd0f724030e3c365b91169c6a16fe751b78686836001600160a01b031663318bc6896040518163ffffffff1660e01b81526004016020604051808303816000875af1158015614dde573d6000803e3d6000fd5b505050506040513d601f19601f82011682018060405250810190614e0291906159e6565b604080516001600160a01b039485168152602081019390935282015260608101869052908416608082015260a00160405180910390a1505050505050565b6000614e95826040518060400160405280602081526020017f5361666545524332303a206c6f772d6c6576656c2063616c6c206661696c6564815250856001600160a01b03166157109092919063ffffffff16565b805190915015613fcb5780806020019051810190614eb3919061590b565b613fcb5760405162461bcd60e51b815260206004820152602a60248201527f5361666545524332303a204552433230206f7065726174696f6e20646964206e60448201527f6f7420737563636565640000000000000000000000000000000000000000000060648201526084016103f5565b6003546040517f933162120000000000000000000000000000000000000000000000000000000081526001600160a01b0386811660048301528581166024830152838116604483015260009283929116906393316212906064016020604051808303816000875af1158015614f9e573d6000803e3d6000fd5b505050506040513d601f19601f82011682018060405250810190614fc291906159e6565b9050838110156150145760405162461bcd60e51b815260206004820152601660248201527f696e73756666696369656e7420616d6f756e744f75740000000000000000000060448201526064016103f5565b95945050505050565b8060000361502a57505050565b8115615136576001600160a01b0383166000908152600c602052604090205480158015906150e957506003546040517ff07456ce0000000000000000000000000000000000000000000000000000000081526001600160a01b0386811660048301528392859291169063f07456ce90602401602060405180830381865afa1580156150b9573d6000803e3d6000fd5b505050506040513d601f19601f820116820180604052508101906150dd91906159e6565b6150e791906159d3565b115b156133e75760405162461bcd60e51b815260206004820152601260248201527f6d6178206c6f6e6773206578636565646564000000000000000000000000000060448201526064016103f5565b6001600160a01b0383166000908152600d602052604090205480158015906151ef57506003546040517f8a78daa80000000000000000000000000000000000000000000000000000000081526001600160a01b03868116600483015283928592911690638a78daa890602401602060405180830381865afa1580156151bf573d6000803e3d6000fd5b505050506040513d601f19601f820116820180604052508101906151e391906159e6565b6151ed91906159d3565b115b156133e75760405162461bcd60e51b815260206004820152601360248201527f6d61782073686f7274732065786365656465640000000000000000000000000060448201526064016103f5565b600a546001600160a01b03168061525257505050565b60405163534ef88360e01b81526001600160a01b038481166004830152600091829184169063534ef883906024016040805180830381865afa15801561529c573d6000803e3d6000fd5b505050506040513d601f19601f820116820180604052508101906152c09190615b01565b9092509050816152d1575050505050565b600354604080516312d43a5160e01b815290516000926001600160a01b0316916312d43a519160048083019260209291908290030181865afa15801561531b573d6000803e3d6000fd5b505050506040513d601f19601f8201168201806040525081019061533f9190615a1b565b90507fc2414023ce7002ee98557d1e7be21e5559073336f2217ee5f9b2e50fd85f71ee8686836001600160a01b031663318bc6896040518163ffffffff1660e01b81526004016020604051808303816000875af1158015614dde573d6000803e3d6000fd5b80516001600160a01b0381166000908152601a60205260408120549091829182906153d09060016159d3565b6001600160a01b0383166000908152601a602052604081208290559091506153f88383612ada565b6000818152601b60209081526040909120885181546001600160a01b0319166001600160a01b039091161781558882015180519394508993919261544492600185019290910190615839565b5060408201516002820180546001600160a01b0319166001600160a01b03928316179055606083015160038301556080830151600483015560a0830151600583015560c083015160068301805460ff191691151591909117905560e083015160078301556101008084015160088401556101208401516009840155610140840151600a840155610160840151600b9093018054610180909501516001600160a81b031990951693151574ffffffffffffffffffffffffffffffffffffffff001916939093179390911602919091179055601380546001810182556000919091527f66de8ffda797e3de9c05e8fc57b3bf0ec28a930d40b0d285d93c06501cf6a09001819055909590945092505050565b80516001600160a01b0381166000908152601c60205260408120549091829182906155809060016159d3565b6001600160a01b0383166000908152601c602052604081208290559091506155a88383612ada565b6000818152601d60209081526040909120885181546001600160a01b0319166001600160a01b03909116178155888201518051939450899391926155f492600185019290910190615839565b5060408201516002820180546001600160a01b039283166001600160a01b0319909116179055606083015160038301556080830151600483015560a083015160058301805460c0860151841661010090810274ffffffffffffffffffffffffffffffffffffffff001994151585166001600160a81b0319938416171790925560e0860151600686015581860151600786015561012086015160088601556101408601516009860155610160860151600a860155610180860151600b90950180546101a090970151909416909102931515909116931692909217179055601480546001810182556000919091527fce6d7b5282bd9a3661ae061feed1dbda4e52ab073b1f9285be6e155d9c38d4ec01819055909590945092505050565b6060613a99848460008585843b6157695760405162461bcd60e51b815260206004820152601d60248201527f416464726573733a2063616c6c20746f206e6f6e2d636f6e747261637400000060448201526064016103f5565b600080866001600160a01b031685876040516157859190615b51565b60006040518083038185875af1925050503d80600081146157c2576040519150601f19603f3d011682016040523d82523d6000602084013e6157c7565b606091505b50915091506157d78282866157e2565b979650505050505050565b606083156157f1575081613a9c565b8251156158015782518084602001fd5b8160405162461bcd60e51b81526004016103f59190615b6d565b50805460008255906000526020600020908101906147c3919061589e565b82805482825590600052602060002090810192821561588e579160200282015b8281111561588e57825182546001600160a01b0319166001600160a01b03909116178255602090920191600190910190615859565b5061589a92915061589e565b5090565b5b8082111561589a576000815560010161589f565b634e487b7160e01b600052603260045260246000fd5b634e487b7160e01b600052601160045260246000fd5b81810381811115612b1a57612b1a6158c9565b600060018201615904576159046158c9565b5060010190565b60006020828403121561591d57600080fd5b81518015158114613a9c57600080fd5b600081518084526020808501945080840160005b8381101561595d57815187529582019590820190600101615941565b509495945050505050565b606080825284519082018190526000906020906080840190828801845b828110156159aa5781516001600160a01b031684529284019290840190600101615985565b505050838103828501526159be818761592d565b91505082810360408401526145d5818561592d565b80820180821115612b1a57612b1a6158c9565b6000602082840312156159f857600080fd5b5051919050565b80516001600160a01b0381168114615a1657600080fd5b919050565b600060208284031215615a2d57600080fd5b613a9c826159ff565b60006101008083016001600160a01b03808d1685526020818d16818701528360408701528293508b5180845261012087019450818d01935060005b81811015615a8f578451841686529482019493820193600101615a71565b50505050506060830197909752506001600160a01b0394909416608085015291151560a084015260c083015260e0909101529392505050565b8082028115828204841417612b1a57612b1a6158c9565b600082615afc57634e487b7160e01b600052601260045260246000fd5b500490565b60008060408385031215615b1457600080fd5b82519150615b24602084016159ff565b90509250929050565b60005b83811015615b48578181015183820152602001615b30565b50506000910152565b60008251615b63818460208701615b2d565b9190910192915050565b6020815260008251806020840152615b8c816040850160208701615b2d565b601f01601f1916919091016040019291505056fea2646970667358221220350ac57144543b9a708440299a339e182f382441effd23a40f6a1db9889d4cf264736f6c63430008140033",
  "linkReferences": {
    "contracts/core/PositionUtils.sol": {
      "PositionUtils": [
        {
          "length": 20,
          "start": 17794
        },
        {
          "length": 20,
          "start": 18271
        }
      ]
    }
  },
  "deployedLinkReferences": {
    "contracts/core/PositionUtils.sol": {
      "PositionUtils": [
        {
          "length": 20,
          "start": 17552
        },
        {
          "length": 20,
          "start": 18029
        }
      ]
    }
  }
}