{
  "_format": "hh-sol-artifact-1",
  "contractName": "PositionManager",
  "sourceName": "contracts/core/PositionManager.sol",
  "abi": [
    {
      "inputs": [
        {
          "internalType": "address",
          "name": "_vault",
          "type": "address"
        },
        {
          "internalType": "address",
          "name": "_router",
          "type": "address"
        },
        {
          "internalType": "address",
          "name": "_shortsTracker",
          "type": "address"
        },
        {
          "internalType": "address",
          "name": "_weth",
          "type": "address"
        },
        {
          "internalType": "uint256",
          "name": "_depositFee",
          "type": "uint256"
        },
        {
          "internalType": "address",
          "name": "_orderBook",
          "type": "address"
        }
      ],
      "stateMutability": "nonpayable",
      "type": "constructor"
    },
    {
      "inputs": [
        {
          "internalType": "address",
          "name": "violator",
          "type": "address"
        },
        {
          "internalType": "string",
          "name": "check",
          "type": "string"
        }
      ],
      "name": "PermissionDenied",
      "type": "error"
    },
    {
      "inputs": [],
      "name": "ReentrantCall",
      "type": "error"
    },
    {
      "anonymous": false,
      "inputs": [
        {
          "indexed": false,
          "internalType": "address",
          "name": "account",
          "type": "address"
        },
        {
          "indexed": false,
          "internalType": "uint256",
          "name": "sizeDelta",
          "type": "uint256"
        },
        {
          "indexed": false,
          "internalType": "uint256",
          "name": "marginFeeBasisPoints",
          "type": "uint256"
        },
        {
          "indexed": false,
          "internalType": "bytes32",
          "name": "referralCode",
          "type": "bytes32"
        },
        {
          "indexed": false,
          "internalType": "address",
          "name": "referrer",
          "type": "address"
        }
      ],
      "name": "DecreasePositionReferral",
      "type": "event"
    },
    {
      "anonymous": false,
      "inputs": [
        {
          "indexed": false,
          "internalType": "address",
          "name": "account",
          "type": "address"
        },
        {
          "indexed": false,
          "internalType": "uint256",
          "name": "sizeDelta",
          "type": "uint256"
        },
        {
          "indexed": false,
          "internalType": "uint256",
          "name": "marginFeeBasisPoints",
          "type": "uint256"
        },
        {
          "indexed": false,
          "internalType": "bytes32",
          "name": "referralCode",
          "type": "bytes32"
        },
        {
          "indexed": false,
          "internalType": "address",
          "name": "referrer",
          "type": "address"
        }
      ],
      "name": "IncreasePositionReferral",
      "type": "event"
    },
    {
      "anonymous": false,
      "inputs": [
        {
          "indexed": false,
          "internalType": "address",
          "name": "admin",
          "type": "address"
        }
      ],
      "name": "SetAdmin",
      "type": "event"
    },
    {
      "anonymous": false,
      "inputs": [
        {
          "indexed": false,
          "internalType": "uint256",
          "name": "depositFee",
          "type": "uint256"
        }
      ],
      "name": "SetDepositFee",
      "type": "event"
    },
    {
      "anonymous": false,
      "inputs": [
        {
          "indexed": false,
          "internalType": "uint256",
          "name": "ethTransferGasLimit",
          "type": "uint256"
        }
      ],
      "name": "SetEthTransferGasLimit",
      "type": "event"
    },
    {
      "anonymous": false,
      "inputs": [
        {
          "indexed": false,
          "internalType": "bool",
          "name": "inLegacyMode",
          "type": "bool"
        }
      ],
      "name": "SetInLegacyMode",
      "type": "event"
    },
    {
      "anonymous": false,
      "inputs": [
        {
          "indexed": false,
          "internalType": "uint256",
          "name": "increasePositionBufferBps",
          "type": "uint256"
        }
      ],
      "name": "SetIncreasePositionBufferBps",
      "type": "event"
    },
    {
      "anonymous": false,
      "inputs": [
        {
          "indexed": true,
          "internalType": "address",
          "name": "account",
          "type": "address"
        },
        {
          "indexed": false,
          "internalType": "bool",
          "name": "isActive",
          "type": "bool"
        }
      ],
      "name": "SetLiquidator",
      "type": "event"
    },
    {
      "anonymous": false,
      "inputs": [
        {
          "indexed": false,
          "internalType": "address[]",
          "name": "tokens",
          "type": "address[]"
        },
        {
          "indexed": false,
          "internalType": "uint256[]",
          "name": "longSizes",
          "type": "uint256[]"
        },
        {
          "indexed": false,
          "internalType": "uint256[]",
          "name": "shortSizes",
          "type": "uint256[]"
        }
      ],
      "name": "SetMaxGlobalSizes",
      "type": "event"
    },
    {
      "anonymous": false,
      "inputs": [
        {
          "indexed": true,
          "internalType": "address",
          "name": "account",
          "type": "address"
        },
        {
          "indexed": false,
          "internalType": "bool",
          "name": "isActive",
          "type": "bool"
        }
      ],
      "name": "SetOrderKeeper",
      "type": "event"
    },
    {
      "anonymous": false,
      "inputs": [
        {
          "indexed": false,
          "internalType": "address",
          "name": "account",
          "type": "address"
        },
        {
          "indexed": false,
          "internalType": "bool",
          "name": "isActive",
          "type": "bool"
        }
      ],
      "name": "SetPartner",
      "type": "event"
    },
    {
      "anonymous": false,
      "inputs": [
        {
          "indexed": false,
          "internalType": "address",
          "name": "referralStorage",
          "type": "address"
        }
      ],
      "name": "SetReferralStorage",
      "type": "event"
    },
    {
      "anonymous": false,
      "inputs": [
        {
          "indexed": false,
          "internalType": "bool",
          "name": "shouldValidateIncreaseOrder",
          "type": "bool"
        }
      ],
      "name": "SetShouldValidateIncreaseOrder",
      "type": "event"
    },
    {
      "anonymous": false,
      "inputs": [
        {
          "indexed": false,
          "internalType": "address",
          "name": "token",
          "type": "address"
        },
        {
          "indexed": false,
          "internalType": "address",
          "name": "receiver",
          "type": "address"
        },
        {
          "indexed": false,
          "internalType": "uint256",
          "name": "amount",
          "type": "uint256"
        }
      ],
      "name": "WithdrawFees",
      "type": "event"
    },
    {
      "inputs": [],
      "name": "BASIS_POINTS_DIVISOR",
      "outputs": [
        {
          "internalType": "uint256",
          "name": "",
          "type": "uint256"
        }
      ],
      "stateMutability": "view",
      "type": "function"
    },
    {
      "inputs": [],
      "name": "admin",
      "outputs": [
        {
          "internalType": "address",
          "name": "",
          "type": "address"
        }
      ],
      "stateMutability": "view",
      "type": "function"
    },
    {
      "inputs": [
        {
          "internalType": "address",
          "name": "_token",
          "type": "address"
        },
        {
          "internalType": "address",
          "name": "_spender",
          "type": "address"
        },
        {
          "internalType": "uint256",
          "name": "_amount",
          "type": "uint256"
        }
      ],
      "name": "approve",
      "outputs": [],
      "stateMutability": "nonpayable",
      "type": "function"
    },
    {
      "inputs": [
        {
          "internalType": "address",
          "name": "_collateralToken",
          "type": "address"
        },
        {
          "internalType": "address",
          "name": "_indexToken",
          "type": "address"
        },
        {
          "internalType": "uint256",
          "name": "_collateralDelta",
          "type": "uint256"
        },
        {
          "internalType": "uint256",
          "name": "_sizeDelta",
          "type": "uint256"
        },
        {
          "internalType": "bool",
          "name": "_isLong",
          "type": "bool"
        },
        {
          "internalType": "address",
          "name": "_receiver",
          "type": "address"
        },
        {
          "internalType": "uint256",
          "name": "_price",
          "type": "uint256"
        }
      ],
      "name": "decreasePosition",
      "outputs": [],
      "stateMutability": "nonpayable",
      "type": "function"
    },
    {
      "inputs": [
        {
          "internalType": "address[]",
          "name": "_path",
          "type": "address[]"
        },
        {
          "internalType": "address",
          "name": "_indexToken",
          "type": "address"
        },
        {
          "internalType": "uint256",
          "name": "_collateralDelta",
          "type": "uint256"
        },
        {
          "internalType": "uint256",
          "name": "_sizeDelta",
          "type": "uint256"
        },
        {
          "internalType": "bool",
          "name": "_isLong",
          "type": "bool"
        },
        {
          "internalType": "address",
          "name": "_receiver",
          "type": "address"
        },
        {
          "internalType": "uint256",
          "name": "_price",
          "type": "uint256"
        },
        {
          "internalType": "uint256",
          "name": "_minOut",
          "type": "uint256"
        }
      ],
      "name": "decreasePositionAndSwap",
      "outputs": [],
      "stateMutability": "nonpayable",
      "type": "function"
    },
    {
      "inputs": [
        {
          "internalType": "address[]",
          "name": "_path",
          "type": "address[]"
        },
        {
          "internalType": "address",
          "name": "_indexToken",
          "type": "address"
        },
        {
          "internalType": "uint256",
          "name": "_collateralDelta",
          "type": "uint256"
        },
        {
          "internalType": "uint256",
          "name": "_sizeDelta",
          "type": "uint256"
        },
        {
          "internalType": "bool",
          "name": "_isLong",
          "type": "bool"
        },
        {
          "internalType": "address payable",
          "name": "_receiver",
          "type": "address"
        },
        {
          "internalType": "uint256",
          "name": "_price",
          "type": "uint256"
        },
        {
          "internalType": "uint256",
          "name": "_minOut",
          "type": "uint256"
        }
      ],
      "name": "decreasePositionAndSwapETH",
      "outputs": [],
      "stateMutability": "nonpayable",
      "type": "function"
    },
    {
      "inputs": [
        {
          "internalType": "address",
          "name": "_collateralToken",
          "type": "address"
        },
        {
          "internalType": "address",
          "name": "_indexToken",
          "type": "address"
        },
        {
          "internalType": "uint256",
          "name": "_collateralDelta",
          "type": "uint256"
        },
        {
          "internalType": "uint256",
          "name": "_sizeDelta",
          "type": "uint256"
        },
        {
          "internalType": "bool",
          "name": "_isLong",
          "type": "bool"
        },
        {
          "internalType": "address payable",
          "name": "_receiver",
          "type": "address"
        },
        {
          "internalType": "uint256",
          "name": "_price",
          "type": "uint256"
        }
      ],
      "name": "decreasePositionETH",
      "outputs": [],
      "stateMutability": "nonpayable",
      "type": "function"
    },
    {
      "inputs": [],
      "name": "depositFee",
      "outputs": [
        {
          "internalType": "uint256",
          "name": "",
          "type": "uint256"
        }
      ],
      "stateMutability": "view",
      "type": "function"
    },
    {
      "inputs": [],
      "name": "ethTransferGasLimit",
      "outputs": [
        {
          "internalType": "uint256",
          "name": "",
          "type": "uint256"
        }
      ],
      "stateMutability": "view",
      "type": "function"
    },
    {
      "inputs": [
        {
          "internalType": "address",
          "name": "_account",
          "type": "address"
        },
        {
          "internalType": "uint256",
          "name": "_orderIndex",
          "type": "uint256"
        },
        {
          "internalType": "address payable",
          "name": "_feeReceiver",
          "type": "address"
        }
      ],
      "name": "executeDecreaseOrder",
      "outputs": [],
      "stateMutability": "nonpayable",
      "type": "function"
    },
    {
      "inputs": [
        {
          "internalType": "address",
          "name": "_account",
          "type": "address"
        },
        {
          "internalType": "uint256",
          "name": "_orderIndex",
          "type": "uint256"
        },
        {
          "internalType": "address payable",
          "name": "_feeReceiver",
          "type": "address"
        }
      ],
      "name": "executeIncreaseOrder",
      "outputs": [],
      "stateMutability": "nonpayable",
      "type": "function"
    },
    {
      "inputs": [
        {
          "internalType": "address",
          "name": "_account",
          "type": "address"
        },
        {
          "internalType": "uint256",
          "name": "_orderIndex",
          "type": "uint256"
        },
        {
          "internalType": "address payable",
          "name": "_feeReceiver",
          "type": "address"
        }
      ],
      "name": "executeSwapOrder",
      "outputs": [],
      "stateMutability": "nonpayable",
      "type": "function"
    },
    {
      "inputs": [
        {
          "internalType": "address",
          "name": "",
          "type": "address"
        }
      ],
      "name": "feeReserves",
      "outputs": [
        {
          "internalType": "uint256",
          "name": "",
          "type": "uint256"
        }
      ],
      "stateMutability": "view",
      "type": "function"
    },
    {
      "inputs": [],
      "name": "gov",
      "outputs": [
        {
          "internalType": "address",
          "name": "",
          "type": "address"
        }
      ],
      "stateMutability": "view",
      "type": "function"
    },
    {
      "inputs": [],
      "name": "inLegacyMode",
      "outputs": [
        {
          "internalType": "bool",
          "name": "",
          "type": "bool"
        }
      ],
      "stateMutability": "view",
      "type": "function"
    },
    {
      "inputs": [
        {
          "internalType": "address[]",
          "name": "_path",
          "type": "address[]"
        },
        {
          "internalType": "address",
          "name": "_indexToken",
          "type": "address"
        },
        {
          "internalType": "uint256",
          "name": "_amountIn",
          "type": "uint256"
        },
        {
          "internalType": "uint256",
          "name": "_minOut",
          "type": "uint256"
        },
        {
          "internalType": "uint256",
          "name": "_sizeDelta",
          "type": "uint256"
        },
        {
          "internalType": "bool",
          "name": "_isLong",
          "type": "bool"
        },
        {
          "internalType": "uint256",
          "name": "_price",
          "type": "uint256"
        }
      ],
      "name": "increasePosition",
      "outputs": [],
      "stateMutability": "nonpayable",
      "type": "function"
    },
    {
      "inputs": [],
      "name": "increasePositionBufferBps",
      "outputs": [
        {
          "internalType": "uint256",
          "name": "",
          "type": "uint256"
        }
      ],
      "stateMutability": "view",
      "type": "function"
    },
    {
      "inputs": [
        {
          "internalType": "address[]",
          "name": "_path",
          "type": "address[]"
        },
        {
          "internalType": "address",
          "name": "_indexToken",
          "type": "address"
        },
        {
          "internalType": "uint256",
          "name": "_minOut",
          "type": "uint256"
        },
        {
          "internalType": "uint256",
          "name": "_sizeDelta",
          "type": "uint256"
        },
        {
          "internalType": "bool",
          "name": "_isLong",
          "type": "bool"
        },
        {
          "internalType": "uint256",
          "name": "_price",
          "type": "uint256"
        }
      ],
      "name": "increasePositionETH",
      "outputs": [],
      "stateMutability": "payable",
      "type": "function"
    },
    {
      "inputs": [
        {
          "internalType": "address",
          "name": "",
          "type": "address"
        }
      ],
      "name": "isLiquidator",
      "outputs": [
        {
          "internalType": "bool",
          "name": "",
          "type": "bool"
        }
      ],
      "stateMutability": "view",
      "type": "function"
    },
    {
      "inputs": [
        {
          "internalType": "address",
          "name": "",
          "type": "address"
        }
      ],
      "name": "isOrderKeeper",
      "outputs": [
        {
          "internalType": "bool",
          "name": "",
          "type": "bool"
        }
      ],
      "stateMutability": "view",
      "type": "function"
    },
    {
      "inputs": [
        {
          "internalType": "address",
          "name": "",
          "type": "address"
        }
      ],
      "name": "isPartner",
      "outputs": [
        {
          "internalType": "bool",
          "name": "",
          "type": "bool"
        }
      ],
      "stateMutability": "view",
      "type": "function"
    },
    {
      "inputs": [
        {
          "internalType": "address",
          "name": "_account",
          "type": "address"
        },
        {
          "internalType": "address",
          "name": "_collateralToken",
          "type": "address"
        },
        {
          "internalType": "address",
          "name": "_indexToken",
          "type": "address"
        },
        {
          "internalType": "bool",
          "name": "_isLong",
          "type": "bool"
        },
        {
          "internalType": "address",
          "name": "_feeReceiver",
          "type": "address"
        }
      ],
      "name": "liquidatePosition",
      "outputs": [],
      "stateMutability": "nonpayable",
      "type": "function"
    },
    {
      "inputs": [
        {
          "internalType": "address",
          "name": "",
          "type": "address"
        }
      ],
      "name": "maxGlobalLongSizes",
      "outputs": [
        {
          "internalType": "uint256",
          "name": "",
          "type": "uint256"
        }
      ],
      "stateMutability": "view",
      "type": "function"
    },
    {
      "inputs": [
        {
          "internalType": "address",
          "name": "",
          "type": "address"
        }
      ],
      "name": "maxGlobalShortSizes",
      "outputs": [
        {
          "internalType": "uint256",
          "name": "",
          "type": "uint256"
        }
      ],
      "stateMutability": "view",
      "type": "function"
    },
    {
      "inputs": [],
      "name": "orderBook",
      "outputs": [
        {
          "internalType": "address",
          "name": "",
          "type": "address"
        }
      ],
      "stateMutability": "view",
      "type": "function"
    },
    {
      "inputs": [],
      "name": "referralStorage",
      "outputs": [
        {
          "internalType": "address",
          "name": "",
          "type": "address"
        }
      ],
      "stateMutability": "view",
      "type": "function"
    },
    {
      "inputs": [],
      "name": "router",
      "outputs": [
        {
          "internalType": "address",
          "name": "",
          "type": "address"
        }
      ],
      "stateMutability": "view",
      "type": "function"
    },
    {
      "inputs": [
        {
          "internalType": "address payable",
          "name": "_receiver",
          "type": "address"
        },
        {
          "internalType": "uint256",
          "name": "_amount",
          "type": "uint256"
        }
      ],
      "name": "sendValue",
      "outputs": [],
      "stateMutability": "nonpayable",
      "type": "function"
    },
    {
      "inputs": [
        {
          "internalType": "address",
          "name": "_admin",
          "type": "address"
        }
      ],
      "name": "setAdmin",
      "outputs": [],
      "stateMutability": "nonpayable",
      "type": "function"
    },
    {
      "inputs": [
        {
          "internalType": "uint256",
          "name": "_depositFee",
          "type": "uint256"
        }
      ],
      "name": "setDepositFee",
      "outputs": [],
      "stateMutability": "nonpayable",
      "type": "function"
    },
    {
      "inputs": [
        {
          "internalType": "uint256",
          "name": "_ethTransferGasLimit",
          "type": "uint256"
        }
      ],
      "name": "setEthTransferGasLimit",
      "outputs": [],
      "stateMutability": "nonpayable",
      "type": "function"
    },
    {
      "inputs": [
        {
          "internalType": "address",
          "name": "_gov",
          "type": "address"
        }
      ],
      "name": "setGov",
      "outputs": [],
      "stateMutability": "nonpayable",
      "type": "function"
    },
    {
      "inputs": [
        {
          "internalType": "bool",
          "name": "_inLegacyMode",
          "type": "bool"
        }
      ],
      "name": "setInLegacyMode",
      "outputs": [],
      "stateMutability": "nonpayable",
      "type": "function"
    },
    {
      "inputs": [
        {
          "internalType": "uint256",
          "name": "_increasePositionBufferBps",
          "type": "uint256"
        }
      ],
      "name": "setIncreasePositionBufferBps",
      "outputs": [],
      "stateMutability": "nonpayable",
      "type": "function"
    },
    {
      "inputs": [
        {
          "internalType": "address",
          "name": "_account",
          "type": "address"
        },
        {
          "internalType": "bool",
          "name": "_isActive",
          "type": "bool"
        }
      ],
      "name": "setLiquidator",
      "outputs": [],
      "stateMutability": "nonpayable",
      "type": "function"
    },
    {
      "inputs": [
        {
          "internalType": "address[]",
          "name": "_tokens",
          "type": "address[]"
        },
        {
          "internalType": "uint256[]",
          "name": "_longSizes",
          "type": "uint256[]"
        },
        {
          "internalType": "uint256[]",
          "name": "_shortSizes",
          "type": "uint256[]"
        }
      ],
      "name": "setMaxGlobalSizes",
      "outputs": [],
      "stateMutability": "nonpayable",
      "type": "function"
    },
    {
      "inputs": [
        {
          "internalType": "address",
          "name": "_account",
          "type": "address"
        },
        {
          "internalType": "bool",
          "name": "_isActive",
          "type": "bool"
        }
      ],
      "name": "setOrderKeeper",
      "outputs": [],
      "stateMutability": "nonpayable",
      "type": "function"
    },
    {
      "inputs": [
        {
          "internalType": "address",
          "name": "_account",
          "type": "address"
        },
        {
          "internalType": "bool",
          "name": "_isActive",
          "type": "bool"
        }
      ],
      "name": "setPartner",
      "outputs": [],
      "stateMutability": "nonpayable",
      "type": "function"
    },
    {
      "inputs": [
        {
          "internalType": "address",
          "name": "_referralStorage",
          "type": "address"
        }
      ],
      "name": "setReferralStorage",
      "outputs": [],
      "stateMutability": "nonpayable",
      "type": "function"
    },
    {
      "inputs": [
        {
          "internalType": "bool",
          "name": "_shouldValidateIncreaseOrder",
          "type": "bool"
        }
      ],
      "name": "setShouldValidateIncreaseOrder",
      "outputs": [],
      "stateMutability": "nonpayable",
      "type": "function"
    },
    {
      "inputs": [],
      "name": "shortsTracker",
      "outputs": [
        {
          "internalType": "address",
          "name": "",
          "type": "address"
        }
      ],
      "stateMutability": "view",
      "type": "function"
    },
    {
      "inputs": [],
      "name": "shouldValidateIncreaseOrder",
      "outputs": [
        {
          "internalType": "bool",
          "name": "",
          "type": "bool"
        }
      ],
      "stateMutability": "view",
      "type": "function"
    },
    {
      "inputs": [],
      "name": "vault",
      "outputs": [
        {
          "internalType": "address",
          "name": "",
          "type": "address"
        }
      ],
      "stateMutability": "view",
      "type": "function"
    },
    {
      "inputs": [],
      "name": "weth",
      "outputs": [
        {
          "internalType": "address",
          "name": "",
          "type": "address"
        }
      ],
      "stateMutability": "view",
      "type": "function"
    },
    {
      "inputs": [
        {
          "internalType": "address",
          "name": "_token",
          "type": "address"
        },
        {
          "internalType": "address",
          "name": "_receiver",
          "type": "address"
        }
      ],
      "name": "withdrawFees",
      "outputs": [],
      "stateMutability": "nonpayable",
      "type": "function"
    },
    {
      "stateMutability": "payable",
      "type": "receive"
    }
  ],
  "bytecode": "0x60806040526207a1206007556064600955600e805460ff60a81b1916600160a81b1790553480156200003057600080fd5b5060405162004e8738038062004e878339810160408190526200005391620000f5565b600160008190558054336001600160a01b031991821681179092556003805482166001600160a01b03998a161790556005805482169789169790971790965560068054871694881694909417909355600891909155600480548516938616939093179092556002805484169091179055600e805490921692169190911790556200016d565b80516001600160a01b0381168114620000f057600080fd5b919050565b60008060008060008060c087890312156200010f57600080fd5b6200011a87620000d8565b95506200012a60208801620000d8565b94506200013a60408801620000d8565b93506200014a60608801620000d8565b9250608087015191506200016160a08801620000d8565b90509295509295509295565b614d0a806200017d6000396000f3fe6080604052600436106102f55760003560e01c80635fc8500e1161018f578063b32755de116100e1578063e1f21c671161008a578063f851a44011610064578063f851a440146108ff578063f887ea401461091f578063fbfa77cf1461093f57600080fd5b8063e1f21c671461089f578063ef12c67e146108bf578063f2555278146108df57600080fd5b8063d38ab519116100bb578063d38ab5191461083e578063d4ca83f91461085e578063de2ea9481461087f57600080fd5b8063b32755de146107eb578063b7ddc992146107fe578063cfad57a21461081e57600080fd5b80638c0f9aac1161014357806398d1e03a1161011d57806398d1e03a146107955780639c95332f146107ab578063ae4d7f9a146107cb57600080fd5b80638c0f9aac1461071857806390205d8c146107485780639698d25a1461076857600080fd5b806367a527931161017457806367a52793146106c2578063704b6c02146106d8578063776af5ba146106f857600080fd5b80635fc8500e14610682578063657bc5d0146106a257600080fd5b806324a084df116102485780633fc8cef3116101fc5780634584bd4b116101d65780634584bd4b14610611578063490ae21014610632578063529a356f1461065257600080fd5b80633fc8cef3146105b1578063430ed37c146105d15780634453a374146105f157600080fd5b80633039e37f1161022d5780633039e37f146105315780633833f5f5146105515780633a9b52ad1461059157600080fd5b806324a084df146104fb5780632d79cf421461051b57600080fd5b806312d43a51116102aa5780631e261538116102845780631e2615381461049b57806321acf659146104bb578063233bfe3b146104db57600080fd5b806312d43a511461042e5780631b9043591461044e5780631ce9cb8f1461046e57600080fd5b80631045c74e116102db5780631045c74e146103bd57806311d9444a146103f8578063126082cf1461041857600080fd5b80626cc35e1461036057806307c7edc31461039d57600080fd5b3661035b576006546001600160a01b031633146103595760405162461bcd60e51b815260206004820152600e60248201527f696e76616c69642073656e64657200000000000000000000000000000000000060448201526064015b60405180910390fd5b005b600080fd5b34801561036c57600080fd5b50600a54610380906001600160a01b031681565b6040516001600160a01b0390911681526020015b60405180910390f35b3480156103a957600080fd5b506103596103b83660046142dc565b61095f565b3480156103c957600080fd5b506103ea6103d836600461431e565b600c6020526000908152604090205481565b604051908152602001610394565b34801561040457600080fd5b506103596104133660046142dc565b610a4a565b34801561042457600080fd5b506103ea61271081565b34801561043a57600080fd5b50600154610380906001600160a01b031681565b34801561045a57600080fd5b50610359610469366004614349565b610e86565b34801561047a57600080fd5b506103ea61048936600461431e565b600b6020526000908152604090205481565b3480156104a757600080fd5b506103596104b6366004614366565b610f3f565b3480156104c757600080fd5b506103596104d6366004614366565b610fe5565b3480156104e757600080fd5b506103596104f636600461439f565b61108e565b34801561050757600080fd5b506103596105163660046143b8565b611109565b34801561052757600080fd5b506103ea60075481565b34801561053d57600080fd5b5061035961054c3660046144c3565b61116d565b34801561055d57600080fd5b5061058161056c36600461431e565b600f6020526000908152604090205460ff1681565b6040519015158152602001610394565b34801561059d57600080fd5b506103596105ac36600461439f565b611398565b3480156105bd57600080fd5b50600654610380906001600160a01b031681565b3480156105dd57600080fd5b506103596105ec36600461455f565b611413565b3480156105fd57600080fd5b5061035961060c366004614366565b61155d565b34801561061d57600080fd5b50600e5461058190600160a81b900460ff1681565b34801561063e57600080fd5b5061035961064d36600461439f565b6115fb565b34801561065e57600080fd5b5061058161066d36600461431e565b60116020526000908152604090205460ff1681565b34801561068e57600080fd5b5061035961069d3660046144c3565b611676565b3480156106ae57600080fd5b50600454610380906001600160a01b031681565b3480156106ce57600080fd5b506103ea60085481565b3480156106e457600080fd5b506103596106f336600461431e565b6117c2565b34801561070457600080fd5b50600e54610380906001600160a01b031681565b34801561072457600080fd5b5061058161073336600461431e565b60106020526000908152604090205460ff1681565b34801561075457600080fd5b5061035961076336600461455f565b61186a565b34801561077457600080fd5b506103ea61078336600461431e565b600d6020526000908152604090205481565b3480156107a157600080fd5b506103ea60095481565b3480156107b757600080fd5b506103596107c6366004614349565b611914565b3480156107d757600080fd5b506103596107e636600461431e565b6119c2565b6103596107f93660046145da565b611a63565b34801561080a57600080fd5b5061035961081936600461465a565b611cbc565b34801561082a57600080fd5b5061035961083936600461431e565b611fd4565b34801561084a57600080fd5b506103596108593660046142dc565b612050565b34801561086a57600080fd5b50600e5461058190600160a01b900460ff1681565b34801561088b57600080fd5b5061035961089a3660046146ce565b612472565b3480156108ab57600080fd5b506103596108ba36600461473f565b6128cb565b3480156108cb57600080fd5b506103596108da3660046147db565b6129aa565b3480156108eb57600080fd5b506103596108fa366004614863565b612ae8565b34801561090b57600080fd5b50600254610380906001600160a01b031681565b34801561092b57600080fd5b50600554610380906001600160a01b031681565b34801561094b57600080fd5b50600354610380906001600160a01b031681565b336000908152600f602052604090205460ff166109be5760405162461bcd60e51b815260206004820152601a60248201527f506f736974696f6e4d616e616765723a20666f7262696464656e0000000000006044820152606401610350565b600e546040517f07c7edc30000000000000000000000000000000000000000000000000000000081526001600160a01b038581166004830152602482018590528381166044830152909116906307c7edc390606401600060405180830381600087803b158015610a2d57600080fd5b505af1158015610a41573d6000803e3d6000fd5b50505050505050565b336000908152600f602052604090205460ff16610aa95760405162461bcd60e51b815260206004820152601a60248201527f506f736974696f6e4d616e616765723a20666f7262696464656e0000000000006044820152606401610350565b600354604080516312d43a5160e01b815290516001600160a01b039092169160009183916312d43a51916004808201926020929091908290030181865afa158015610af8573d6000803e3d6000fd5b505050506040513d601f19601f82011682018060405250810190610b1c9190614891565b600e546040517f026032ee0000000000000000000000000000000000000000000000000000000081526001600160a01b038881166004830152602482018890529293506000928392839283929091169063026032ee9060440161010060405180830381865afa158015610b93573d6000803e3d6000fd5b505050506040513d601f19601f82011682018060405250810190610bb791906148ae565b505050945094509450509350600081610c3957604051637092736960e11b81526001600160a01b03858116600483015288169063e124e6d290602401602060405180830381865afa158015610c10573d6000803e3d6000fd5b505050506040513d601f19601f82011682018060405250810190610c349190614936565b610ca3565b6040516340d3096b60e11b81526001600160a01b0385811660048301528816906381a612d690602401602060405180830381865afa158015610c7f573d6000803e3d6000fd5b505050506040513d601f19601f82011682018060405250810190610ca39190614936565b60048054604051633cc8e33b60e21b81526001600160a01b038e8116938201939093528883166024820152878316604482015285151560648201526084810187905260a48101849052600060c4820152929350169063f3238cec9060e401600060405180830381600087803b158015610d1b57600080fd5b505af1158015610d2f573d6000803e3d6000fd5b50506040516306d63c1d60e41b81526001600160a01b038a8116600483015289169250636d63c1d09150602401600060405180830381600087803b158015610d7657600080fd5b505af1158015610d8a573d6000803e3d6000fd5b5050600e546040517f11d9444a0000000000000000000000000000000000000000000000000000000081526001600160a01b038e81166004830152602482018e90528c8116604483015290911692506311d9444a9150606401600060405180830381600087803b158015610dfd57600080fd5b505af1158015610e11573d6000803e3d6000fd5b505060405163d3c87bbb60e01b81526001600160a01b038a811660048301528916925063d3c87bbb9150602401600060405180830381600087803b158015610e5857600080fd5b505af1158015610e6c573d6000803e3d6000fd5b50505050610e7a8a84612bc0565b50505050505050505050565b6002546001600160a01b03163314610ecc5760405162461bcd60e51b81526020600482015260096024820152683337b93134b23232b760b91b6044820152606401610350565b600e8054821515600160a81b027fffffffffffffffffffff00ffffffffffffffffffffffffffffffffffffffffff9091161790556040517fa956222e37fe025ff51e5440ac729a9bd417ff91e485e14dcffa2c0ba8894f4090610f3490831515815260200190565b60405180910390a150565b6002546001600160a01b03163314610f855760405162461bcd60e51b81526020600482015260096024820152683337b93134b23232b760b91b6044820152606401610350565b6001600160a01b0382166000818152600f6020908152604091829020805460ff191685151590811790915591519182527f1d5bc0255b943d6a5b5279e8a55d74d620baccbceecb25e87a3558f14c4c118e91015b60405180910390a25050565b6002546001600160a01b0316331461102b5760405162461bcd60e51b81526020600482015260096024820152683337b93134b23232b760b91b6044820152606401610350565b6001600160a01b038216600081815260106020908152604091829020805460ff19168515159081179091558251938452908301527fa4e46c70ff429a91de7d1716d736e877c7cca1c22ac850b23d242530dd95e474910160405180910390a15050565b6002546001600160a01b031633146110d45760405162461bcd60e51b81526020600482015260096024820152683337b93134b23232b760b91b6044820152606401610350565b60098190556040518181527f21167d0d4661af93817ebce920f18986eed3d75d5e1c03f2aed05efcbafbc45290602001610f34565b6001546001600160a01b031633146111565760408051630aa275af60e21b81523360048201526024810191909152600760448201526637b7363ca3b7bb60c91b6064820152608401610350565b6111696001600160a01b03831682612d8a565b5050565b600260005403611190576040516306fda65d60e31b815260040160405180910390fd5b600260009081553381526010602052604090205460ff16806111bb5750600e54600160a01b900460ff165b6112075760405162461bcd60e51b815260206004820152601a60248201527f506f736974696f6e4d616e616765723a20666f7262696464656e0000000000006044820152606401610350565b87516002146112665760405162461bcd60e51b815260206004820152602560248201527f506f736974696f6e4d616e616765723a20696e76616c6964205f706174682e6c6044820152640cadccee8d60db1b6064820152608401610350565b60065488516001600160a01b0390911690899061128590600190614965565b815181106112955761129561497e565b60200260200101516001600160a01b0316146112f35760405162461bcd60e51b815260206004820152601e60248201527f506f736974696f6e4d616e616765723a20696e76616c6964205f7061746800006044820152606401610350565b600061131f338a60008151811061130c5761130c61497e565b60200260200101518a8a8a8a308a612ea8565b905061136e600360009054906101000a90046001600160a01b0316828b60008151811061134e5761134e61497e565b60200260200101516001600160a01b03166133059092919063ffffffff16565b600061137b8a843061336c565b9050611387818661340d565b505060016000555050505050505050565b6002546001600160a01b031633146113de5760405162461bcd60e51b81526020600482015260096024820152683337b93134b23232b760b91b6044820152606401610350565b60078190556040518181527f4d371d598d3a13f99ce992a17975bbaf1e1c256e072ec7d2f93ce88e40d9ba1c90602001610f34565b600260005403611436576040516306fda65d60e31b815260040160405180910390fd5b600260009081553381526010602052604090205460ff16806114615750600e54600160a01b900460ff165b6114ad5760405162461bcd60e51b815260206004820152601a60248201527f506f736974696f6e4d616e616765723a20666f7262696464656e0000000000006044820152606401610350565b6006546001600160a01b038881169116146115305760405162461bcd60e51b815260206004820152602960248201527f506f736974696f6e4d616e616765723a20696e76616c6964205f636f6c6c617460448201527f6572616c546f6b656e00000000000000000000000000000000000000000000006064820152608401610350565b60006115423389898989893089612ea8565b905061154e818461340d565b50506001600055505050505050565b6002546001600160a01b031633146115a35760405162461bcd60e51b81526020600482015260096024820152683337b93134b23232b760b91b6044820152606401610350565b6001600160a01b038216600081815260116020908152604091829020805460ff191685151590811790915591519182527f8c0d56805c3b43d441481229dc64bee168253ffe4305f37ab7cfe63b1c4268c69101610fd9565b6002546001600160a01b031633146116415760405162461bcd60e51b81526020600482015260096024820152683337b93134b23232b760b91b6044820152606401610350565b60088190556040518181527f974fd3c1fcb4653dfc4fb740c4c692cd212d55c28f163f310128cb64d830067590602001610f34565b600260005403611699576040516306fda65d60e31b815260040160405180910390fd5b600260009081553381526010602052604090205460ff16806116c45750600e54600160a01b900460ff165b6117105760405162461bcd60e51b815260206004820152601a60248201527f506f736974696f6e4d616e616765723a20666f7262696464656e0000000000006044820152606401610350565b875160021461176f5760405162461bcd60e51b815260206004820152602560248201527f506f736974696f6e4d616e616765723a20696e76616c6964205f706174682e6c6044820152640cadccee8d60db1b6064820152608401610350565b6000611788338a60008151811061130c5761130c61497e565b90506117b7600360009054906101000a90046001600160a01b0316828b60008151811061134e5761134e61497e565b61138789838661336c565b6001546001600160a01b0316331461180f5760408051630aa275af60e21b81523360048201526024810191909152600760448201526637b7363ca3b7bb60c91b6064820152608401610350565b6002805473ffffffffffffffffffffffffffffffffffffffff19166001600160a01b0383169081179091556040519081527f5a272403b402d892977df56625f4164ccaf70ca3863991c43ecfe76a6905b0a190602001610f34565b60026000540361188d576040516306fda65d60e31b815260040160405180910390fd5b600260009081553381526010602052604090205460ff16806118b85750600e54600160a01b900460ff165b6119045760405162461bcd60e51b815260206004820152601a60248201527f506f736974696f6e4d616e616765723a20666f7262696464656e0000000000006044820152606401610350565b61154e3388888888888888612ea8565b6002546001600160a01b0316331461195a5760405162461bcd60e51b81526020600482015260096024820152683337b93134b23232b760b91b6044820152606401610350565b600e8054821515600160a01b027fffffffffffffffffffffff00ffffffffffffffffffffffffffffffffffffffff9091161790556040517feac6b3611e79ff0d8ea5daa8439f6b1ab7eea4ebf95f1dd360417f712c3fc30490610f3490831515815260200190565b6002546001600160a01b03163314611a085760405162461bcd60e51b81526020600482015260096024820152683337b93134b23232b760b91b6044820152606401610350565b600a805473ffffffffffffffffffffffffffffffffffffffff19166001600160a01b0383169081179091556040519081527f828abcccea18192c21d645e575652c49e20b986dab777906fc473d056b01b6a890602001610f34565b600260005403611a86576040516306fda65d60e31b815260040160405180910390fd5b600260009081553381526010602052604090205460ff1680611ab15750600e54600160a01b900460ff165b611afd5760405162461bcd60e51b815260206004820152601a60248201527f506f736974696f6e4d616e616765723a20666f7262696464656e0000000000006044820152606401610350565b855160011480611b0e575085516002145b611b685760405162461bcd60e51b815260206004820152602560248201527f506f736974696f6e4d616e616765723a20696e76616c6964205f706174682e6c6044820152640cadccee8d60db1b6064820152608401610350565b60065486516001600160a01b03909116908790600090611b8a57611b8a61497e565b60200260200101516001600160a01b031614611be85760405162461bcd60e51b815260206004820152601e60248201527f506f736974696f6e4d616e616765723a20696e76616c6964205f7061746800006044820152606401610350565b3415611c7b57611bf66135b9565b8551349060011015611c2d57600354600654611c1f916001600160a01b03918216911634613305565b611c2a87863061336c565b90505b6000611c3d3389848a888a613625565b9050611c78600360009054906101000a90046001600160a01b0316828a60018c51611c689190614965565b8151811061134e5761134e61497e565b50505b611caf338760018951611c8e9190614965565b81518110611c9e57611c9e61497e565b6020026020010151878686866137a7565b5050600160005550505050565b600260005403611cdf576040516306fda65d60e31b815260040160405180910390fd5b600260009081553381526010602052604090205460ff1680611d0a5750600e54600160a01b900460ff165b611d565760405162461bcd60e51b815260206004820152601a60248201527f506f736974696f6e4d616e616765723a20666f7262696464656e0000000000006044820152606401610350565b865160011480611d67575086516002145b611dc15760405162461bcd60e51b815260206004820152602560248201527f506f736974696f6e4d616e616765723a20696e76616c6964205f706174682e6c6044820152640cadccee8d60db1b6064820152608401610350565b8415611f92578651600103611e8c5760055487516001600160a01b0390911690631b827878908990600090611df857611df861497e565b60209081029190910101516040517fffffffff0000000000000000000000000000000000000000000000000000000060e084901b1681526001600160a01b03909116600482015233602482015230604482015260648101889052608401600060405180830381600087803b158015611e6f57600080fd5b505af1158015611e83573d6000803e3d6000fd5b50505050611f55565b60055487516001600160a01b0390911690631b827878908990600090611eb457611eb461497e565b60209081029190910101516003546040517fffffffff0000000000000000000000000000000000000000000000000000000060e085901b1681526001600160a01b0392831660048201523360248201529116604482015260648101889052608401600060405180830381600087803b158015611f2f57600080fd5b505af1158015611f43573d6000803e3d6000fd5b50505050611f5287853061336c565b94505b6000611f653389888a8789613625565b9050611f90600360009054906101000a90046001600160a01b0316828a60018c51611c689190614965565b505b611fc6338860018a51611fa59190614965565b81518110611fb557611fb561497e565b6020026020010151888686866137a7565b505060016000555050505050565b6001546001600160a01b031633146120215760408051630aa275af60e21b81523360048201526024810191909152600760448201526637b7363ca3b7bb60c91b6064820152608401610350565b6001805473ffffffffffffffffffffffffffffffffffffffff19166001600160a01b0392909216919091179055565b336000908152600f602052604090205460ff166120af5760405162461bcd60e51b815260206004820152601a60248201527f506f736974696f6e4d616e616765723a20666f7262696464656e0000000000006044820152606401610350565b6120b98383613895565b600354604080516312d43a5160e01b815290516001600160a01b039092169160009183916312d43a51916004808201926020929091908290030181865afa158015612108573d6000803e3d6000fd5b505050506040513d601f19601f8201168201806040525081019061212c9190614891565b600e5460405163d3bab1d160e01b81526001600160a01b038881166004830152602482018890529293506000928392839283929091169063d3bab1d19060440161012060405180830381865afa15801561218a573d6000803e3d6000fd5b505050506040513d601f19601f820116820180604052508101906121ae9190614994565b50505095509550955095505050600081612231576040516340d3096b60e11b81526001600160a01b0385811660048301528816906381a612d690602401602060405180830381865afa158015612208573d6000803e3d6000fd5b505050506040513d601f19601f8201168201806040525081019061222c9190614936565b61229b565b604051637092736960e11b81526001600160a01b03858116600483015288169063e124e6d290602401602060405180830381865afa158015612277573d6000803e3d6000fd5b505050506040513d601f19601f8201168201806040525081019061229b9190614936565b60048054604051633cc8e33b60e21b81526001600160a01b038e8116938201939093528883166024820152878316604482015285151560648201526084810187905260a48101849052600160c4820152929350169063f3238cec9060e401600060405180830381600087803b15801561231357600080fd5b505af1158015612327573d6000803e3d6000fd5b50506040516306d63c1d60e41b81526001600160a01b038a8116600483015289169250636d63c1d09150602401600060405180830381600087803b15801561236e57600080fd5b505af1158015612382573d6000803e3d6000fd5b5050600e546040517fd38ab5190000000000000000000000000000000000000000000000000000000081526001600160a01b038e81166004830152602482018e90528c81166044830152909116925063d38ab5199150606401600060405180830381600087803b1580156123f557600080fd5b505af1158015612409573d6000803e3d6000fd5b505060405163d3c87bbb60e01b81526001600160a01b038a811660048301528916925063d3c87bbb9150602401600060405180830381600087803b15801561245057600080fd5b505af1158015612464573d6000803e3d6000fd5b50505050610e7a8a84613bd1565b600260005403612495576040516306fda65d60e31b815260040160405180910390fd5b600260009081553381526011602052604090205460ff166124f85760405162461bcd60e51b815260206004820152601a60248201527f506f736974696f6e4d616e616765723a20666f7262696464656e0000000000006044820152606401610350565b600354604080516312d43a5160e01b815290516001600160a01b039092169160009183916312d43a51916004808201926020929091908290030181865afa158015612547573d6000803e3d6000fd5b505050506040513d601f19601f8201168201806040525081019061256b9190614891565b600354604051634a3f088d60e01b81526001600160a01b038a8116600483015289811660248301528881166044830152871515606483015292935060009290911690634a3f088d9060840161010060405180830381865afa1580156125d4573d6000803e3d6000fd5b505050506040513d601f19601f820116820180604052508101906125f89190614a30565b50505050505050905060008561267757604051637092736960e11b81526001600160a01b03888116600483015285169063e124e6d290602401602060405180830381865afa15801561264e573d6000803e3d6000fd5b505050506040513d601f19601f820116820180604052508101906126729190614936565b6126e1565b6040516340d3096b60e11b81526001600160a01b0388811660048301528516906381a612d690602401602060405180830381865afa1580156126bd573d6000803e3d6000fd5b505050506040513d601f19601f820116820180604052508101906126e19190614936565b60048054604051633cc8e33b60e21b81526001600160a01b038d8116938201939093528b831660248201528a8316604482015289151560648201526084810186905260a48101849052600060c4820152929350169063f3238cec9060e401600060405180830381600087803b15801561275957600080fd5b505af115801561276d573d6000803e3d6000fd5b50506040516306d63c1d60e41b81526001600160a01b03878116600483015286169250636d63c1d09150602401600060405180830381600087803b1580156127b457600080fd5b505af11580156127c8573d6000803e3d6000fd5b50506040517fde2ea9480000000000000000000000000000000000000000000000000000000081526001600160a01b038c811660048301528b811660248301528a81166044830152891515606483015288811660848301528716925063de2ea948915060a401600060405180830381600087803b15801561284857600080fd5b505af115801561285c573d6000803e3d6000fd5b505060405163d3c87bbb60e01b81526001600160a01b0387811660048301528616925063d3c87bbb9150602401600060405180830381600087803b1580156128a357600080fd5b505af11580156128b7573d6000803e3d6000fd5b505060016000555050505050505050505050565b6001546001600160a01b031633146129185760408051630aa275af60e21b81523360048201526024810191909152600760448201526637b7363ca3b7bb60c91b6064820152608401610350565b6040517f095ea7b30000000000000000000000000000000000000000000000000000000081526001600160a01b0383811660048301526024820183905284169063095ea7b3906044016020604051808303816000875af1158015612980573d6000803e3d6000fd5b505050506040513d601f19601f820116820180604052508101906129a49190614a82565b50505050565b6002546001600160a01b031633146129f05760405162461bcd60e51b81526020600482015260096024820152683337b93134b23232b760b91b6044820152606401610350565b60005b8351811015612aa7576000848281518110612a1057612a1061497e565b60200260200101519050838281518110612a2c57612a2c61497e565b6020026020010151600c6000836001600160a01b03166001600160a01b0316815260200190815260200160002081905550828281518110612a6f57612a6f61497e565b6020908102919091018101516001600160a01b039092166000908152600d909152604090205580612a9f81614a9f565b9150506129f3565b507fae32d569b058895b9620d6552b09aaffedc9a6f396be4d595a224ad09f8b2139838383604051612adb93929190614af3565b60405180910390a1505050565b6002546001600160a01b03163314612b2e5760405162461bcd60e51b81526020600482015260096024820152683337b93134b23232b760b91b6044820152606401610350565b6001600160a01b0382166000908152600b602052604081205490819003612b5457505050565b6001600160a01b0383166000818152600b6020526040812055612b78908383613305565b604080516001600160a01b038086168252841660208201529081018290527f4f1b51dd7a2fcb861aa2670f668be66835c4ee12b4bbbf037e4d0018f39819e490606001612adb565b600a546001600160a01b031680612bd657505050565b60405163534ef88360e01b81526001600160a01b038481166004830152600091829184169063534ef883906024016040805180830381865afa158015612c20573d6000803e3d6000fd5b505050506040513d601f19601f82011682018060405250810190612c449190614b5e565b909250905081612c55575050505050565b600354604080516312d43a5160e01b815290516000926001600160a01b0316916312d43a519160048083019260209291908290030181865afa158015612c9f573d6000803e3d6000fd5b505050506040513d601f19601f82011682018060405250810190612cc39190614891565b90507f474c763ff84bf2c2039a6d9fea955ecd0f724030e3c365b91169c6a16fe751b78686836001600160a01b031663318bc6896040518163ffffffff1660e01b81526004016020604051808303816000875af1158015612d28573d6000803e3d6000fd5b505050506040513d601f19601f82011682018060405250810190612d4c9190614936565b604080516001600160a01b039485168152602081019390935282015260608101869052908416608082015260a00160405180910390a1505050505050565b80471015612dda5760405162461bcd60e51b815260206004820152601d60248201527f416464726573733a20696e73756666696369656e742062616c616e63650000006044820152606401610350565b6000826001600160a01b03168260405160006040518083038185875af1925050503d8060008114612e27576040519150601f19603f3d011682016040523d82523d6000602084013e612e2c565b606091505b5050905080612ea35760405162461bcd60e51b815260206004820152603a60248201527f416464726573733a20756e61626c6520746f2073656e642076616c75652c207260448201527f6563697069656e74206d617920686176652072657665727465640000000000006064820152608401610350565b505050565b6003546000906001600160a01b03168185612f2c57604051637092736960e11b81526001600160a01b038a8116600483015283169063e124e6d290602401602060405180830381865afa158015612f03573d6000803e3d6000fd5b505050506040513d601f19601f82011682018060405250810190612f279190614936565b612f96565b6040516340d3096b60e11b81526001600160a01b038a811660048301528316906381a612d690602401602060405180830381865afa158015612f72573d6000803e3d6000fd5b505050506040513d601f19601f82011682018060405250810190612f969190614936565b90508515612ff35783811015612fee5760405162461bcd60e51b815260206004820152601160248201527f6d61726b5072696365203c2070726963650000000000000000000000000000006044820152606401610350565b613043565b838111156130435760405162461bcd60e51b815260206004820152601160248201527f6d61726b5072696365203e2070726963650000000000000000000000000000006044820152606401610350565b6000826001600160a01b03166312d43a516040518163ffffffff1660e01b8152600401602060405180830381865afa158015613083573d6000803e3d6000fd5b505050506040513d601f19601f820116820180604052508101906130a79190614891565b9050600460009054906101000a90046001600160a01b03166001600160a01b031663f3238cec8d8d8d8b8d8860006040518863ffffffff1660e01b815260040161313397969594939291906001600160a01b03978816815295871660208701529390951660408501529015156060840152608083015260a082019290925290151560c082015260e00190565b600060405180830381600087803b15801561314d57600080fd5b505af1158015613161573d6000803e3d6000fd5b50506040516306d63c1d60e41b81526001600160a01b03868116600483015284169250636d63c1d09150602401600060405180830381600087803b1580156131a857600080fd5b505af11580156131bc573d6000803e3d6000fd5b505050506000600560009054906101000a90046001600160a01b03166001600160a01b0316632662166b8e8e8e8e8e8e8e6040518863ffffffff1660e01b815260040161324997969594939291906001600160a01b0397881681529587166020870152938616604086015260608501929092526080840152151560a083015290911660c082015260e00190565b6020604051808303816000875af1158015613268573d6000803e3d6000fd5b505050506040513d601f19601f8201168201806040525081019061328c9190614936565b60405163d3c87bbb60e01b81526001600160a01b0386811660048301529192509083169063d3c87bbb90602401600060405180830381600087803b1580156132d357600080fd5b505af11580156132e7573d6000803e3d6000fd5b505050506132f58d8a612bc0565b9c9b505050505050505050505050565b604080516001600160a01b038416602482015260448082018490528251808303909101815260649091019091526020810180517bffffffffffffffffffffffffffffffffffffffffffffffffffffffff1663a9059cbb60e01b179052612ea3908490613d39565b600083516002036133be576133b78460008151811061338d5761338d61497e565b6020026020010151856001815181106133a8576133a861497e565b60200260200101518585613e1e565b9050613406565b60405162461bcd60e51b815260206004820152601460248201527f696e76616c6964205f706174682e6c656e6774680000000000000000000000006044820152606401610350565b9392505050565b6006546040517f2e1a7d4d000000000000000000000000000000000000000000000000000000008152600481018490526001600160a01b03909116908190632e1a7d4d90602401600060405180830381600087803b15801561346e57600080fd5b505af1158015613482573d6000803e3d6000fd5b5050600754604051600093506001600160a01b0386169250869084818181858888f193505050503d80600081146134d5576040519150601f19603f3d011682016040523d82523d6000602084013e6134da565b606091505b5050905080156134ea5750505050565b816001600160a01b031663d0e30db0856040518263ffffffff1660e01b81526004016000604051808303818588803b15801561352557600080fd5b505af1158015613539573d6000803e3d6000fd5b505060405163a9059cbb60e01b81526001600160a01b038781166004830152602482018990528616935063a9059cbb925060440190506020604051808303816000875af115801561358e573d6000803e3d6000fd5b505050506040513d601f19601f820116820180604052508101906135b29190614a82565b5050505050565b341561362357600660009054906101000a90046001600160a01b03166001600160a01b031663d0e30db0346040518263ffffffff1660e01b81526004016000604051808303818588803b15801561360f57600080fd5b505af11580156135b2573d6000803e3d6000fd5b565b6003546009546040517fe0cab550000000000000000000000000000000000000000000000000000000008152600092839273__$4ebf70e2aa99c076c4a72b3e77f175d419$__9263e0cab55092613696926001600160a01b03909116918d918d918d918d918d918d91600401614b83565b602060405180830381865af41580156136b3573d6000803e3d6000fd5b505050506040513d601f19601f820116820180604052508101906136d79190614a82565b905080156137985760006127106008546127106136f49190614965565b6136fe9089614c15565b6137089190614c2c565b905060006137168289614965565b905060008960018b516137299190614965565b815181106137395761373961497e565b6020026020010151905081600b6000836001600160a01b03166001600160a01b03168152602001908152602001600020546137749190614c4e565b6001600160a01b039091166000908152600b602052604090205550915061379d9050565b859150505b9695505050505050565b6137b2848385613f16565b600354600554600480546040517fbe1e78780000000000000000000000000000000000000000000000000000000081526001600160a01b0394851692810192909252918316602482015290821660448201528782166064820152868216608482015290851660a482015260c4810184905282151560e4820152610104810182905273__$4ebf70e2aa99c076c4a72b3e77f175d419$__9063be1e7878906101240160006040518083038186803b15801561386b57600080fd5b505af415801561387f573d6000803e3d6000fd5b5050505061388d8684613bd1565b505050505050565b600e5460405163d3bab1d160e01b81526001600160a01b03848116600483015260248201849052600092839283928392839283929091169063d3bab1d19060440161012060405180830381865afa1580156138f4573d6000803e3d6000fd5b505050506040513d601f19601f820116820180604052508101906139189190614994565b505050955095509550955095509550613932838284613f16565b600e54600160a81b900460ff1661394d575050505050505050565b8061395c575050505050505050565b600082116139ac5760405162461bcd60e51b815260206004820152601d60248201527f506f736974696f6e4d616e616765723a206c6f6e67206465706f7369740000006044820152606401610350565b600354604051634a3f088d60e01b81526001600160a01b038a811660048301528681166024830152858116604483015283151560648301529091169060009081908390634a3f088d9060840161010060405180830381865afa158015613a16573d6000803e3d6000fd5b505050506040513d601f19601f82011682018060405250810190613a3a9190614a30565b5050505050509150915081600003613a59575050505050505050505050565b6000613a658684614c4e565b6040517f0a48d5a90000000000000000000000000000000000000000000000000000000081526001600160a01b038c81166004830152602482018c9052919250600091861690630a48d5a990604401602060405180830381865afa158015613ad1573d6000803e3d6000fd5b505050506040513d601f19601f82011682018060405250810190613af59190614936565b90506000613b038285614c4e565b9050600084613b1461271088614c15565b613b1e9190614c2c565b9050600082600954612710613b339190614c4e565b613b3d9087614c15565b613b479190614c2c565b905081811015613bbf5760405162461bcd60e51b815260206004820152602760248201527f506f736974696f6e4d616e616765723a206c6f6e67206c65766572616765206460448201527f65637265617365000000000000000000000000000000000000000000000000006064820152608401610350565b50505050505050505050505050505050565b600a546001600160a01b031680613be757505050565b60405163534ef88360e01b81526001600160a01b038481166004830152600091829184169063534ef883906024016040805180830381865afa158015613c31573d6000803e3d6000fd5b505050506040513d601f19601f82011682018060405250810190613c559190614b5e565b909250905081613c66575050505050565b600354604080516312d43a5160e01b815290516000926001600160a01b0316916312d43a519160048083019260209291908290030181865afa158015613cb0573d6000803e3d6000fd5b505050506040513d601f19601f82011682018060405250810190613cd49190614891565b90507fc2414023ce7002ee98557d1e7be21e5559073336f2217ee5f9b2e50fd85f71ee8686836001600160a01b031663318bc6896040518163ffffffff1660e01b81526004016020604051808303816000875af1158015612d28573d6000803e3d6000fd5b6000613d8e826040518060400160405280602081526020017f5361666545524332303a206c6f772d6c6576656c2063616c6c206661696c6564815250856001600160a01b03166141359092919063ffffffff16565b805190915015612ea35780806020019051810190613dac9190614a82565b612ea35760405162461bcd60e51b815260206004820152602a60248201527f5361666545524332303a204552433230206f7065726174696f6e20646964206e60448201527f6f742073756363656564000000000000000000000000000000000000000000006064820152608401610350565b6003546040517f933162120000000000000000000000000000000000000000000000000000000081526001600160a01b0386811660048301528581166024830152838116604483015260009283929116906393316212906064016020604051808303816000875af1158015613e97573d6000803e3d6000fd5b505050506040513d601f19601f82011682018060405250810190613ebb9190614936565b905083811015613f0d5760405162461bcd60e51b815260206004820152601660248201527f696e73756666696369656e7420616d6f756e744f7574000000000000000000006044820152606401610350565b95945050505050565b80600003613f2357505050565b811561402f576001600160a01b0383166000908152600c60205260409020548015801590613fe257506003546040517ff07456ce0000000000000000000000000000000000000000000000000000000081526001600160a01b0386811660048301528392859291169063f07456ce90602401602060405180830381865afa158015613fb2573d6000803e3d6000fd5b505050506040513d601f19601f82011682018060405250810190613fd69190614936565b613fe09190614c4e565b115b156129a45760405162461bcd60e51b815260206004820152601260248201527f6d6178206c6f6e677320657863656564656400000000000000000000000000006044820152606401610350565b6001600160a01b0383166000908152600d602052604090205480158015906140e857506003546040517f8a78daa80000000000000000000000000000000000000000000000000000000081526001600160a01b03868116600483015283928592911690638a78daa890602401602060405180830381865afa1580156140b8573d6000803e3d6000fd5b505050506040513d601f19601f820116820180604052508101906140dc9190614936565b6140e69190614c4e565b115b156129a45760405162461bcd60e51b815260206004820152601360248201527f6d61782073686f727473206578636565646564000000000000000000000000006044820152606401610350565b6060614144848460008561414c565b949350505050565b6060824710156141c45760405162461bcd60e51b815260206004820152602660248201527f416464726573733a20696e73756666696369656e742062616c616e636520666f60448201527f722063616c6c00000000000000000000000000000000000000000000000000006064820152608401610350565b843b6142125760405162461bcd60e51b815260206004820152601d60248201527f416464726573733a2063616c6c20746f206e6f6e2d636f6e74726163740000006044820152606401610350565b600080866001600160a01b0316858760405161422e9190614c85565b60006040518083038185875af1925050503d806000811461426b576040519150601f19603f3d011682016040523d82523d6000602084013e614270565b606091505b509150915061428082828661428b565b979650505050505050565b6060831561429a575081613406565b8251156142aa5782518084602001fd5b8160405162461bcd60e51b81526004016103509190614ca1565b6001600160a01b03811681146142d957600080fd5b50565b6000806000606084860312156142f157600080fd5b83356142fc816142c4565b9250602084013591506040840135614313816142c4565b809150509250925092565b60006020828403121561433057600080fd5b8135613406816142c4565b80151581146142d957600080fd5b60006020828403121561435b57600080fd5b81356134068161433b565b6000806040838503121561437957600080fd5b8235614384816142c4565b915060208301356143948161433b565b809150509250929050565b6000602082840312156143b157600080fd5b5035919050565b600080604083850312156143cb57600080fd5b82356143d6816142c4565b946020939093013593505050565b634e487b7160e01b600052604160045260246000fd5b604051601f8201601f1916810167ffffffffffffffff81118282101715614423576144236143e4565b604052919050565b600067ffffffffffffffff821115614445576144456143e4565b5060051b60200190565b600082601f83011261446057600080fd5b813560206144756144708361442b565b6143fa565b82815260059290921b8401810191818101908684111561449457600080fd5b8286015b848110156144b85780356144ab816142c4565b8352918301918301614498565b509695505050505050565b600080600080600080600080610100898b0312156144e057600080fd5b883567ffffffffffffffff8111156144f757600080fd5b6145038b828c0161444f565b9850506020890135614514816142c4565b9650604089013595506060890135945060808901356145328161433b565b935060a0890135614542816142c4565b979a969950949793969295929450505060c08201359160e0013590565b600080600080600080600060e0888a03121561457a57600080fd5b8735614585816142c4565b96506020880135614595816142c4565b9550604088013594506060880135935060808801356145b38161433b565b925060a08801356145c3816142c4565b8092505060c0880135905092959891949750929550565b60008060008060008060c087890312156145f357600080fd5b863567ffffffffffffffff81111561460a57600080fd5b61461689828a0161444f565b9650506020870135614627816142c4565b9450604087013593506060870135925060808701356146458161433b565b8092505060a087013590509295509295509295565b600080600080600080600060e0888a03121561467557600080fd5b873567ffffffffffffffff81111561468c57600080fd5b6146988a828b0161444f565b97505060208801356146a9816142c4565b955060408801359450606088013593506080880135925060a08801356145c38161433b565b600080600080600060a086880312156146e657600080fd5b85356146f1816142c4565b94506020860135614701816142c4565b93506040860135614711816142c4565b925060608601356147218161433b565b91506080860135614731816142c4565b809150509295509295909350565b60008060006060848603121561475457600080fd5b833561475f816142c4565b9250602084013561476f816142c4565b929592945050506040919091013590565b600082601f83011261479157600080fd5b813560206147a16144708361442b565b82815260059290921b840181019181810190868411156147c057600080fd5b8286015b848110156144b857803583529183019183016147c4565b6000806000606084860312156147f057600080fd5b833567ffffffffffffffff8082111561480857600080fd5b6148148783880161444f565b9450602086013591508082111561482a57600080fd5b61483687838801614780565b9350604086013591508082111561484c57600080fd5b5061485986828701614780565b9150509250925092565b6000806040838503121561487657600080fd5b8235614881816142c4565b91506020830135614394816142c4565b6000602082840312156148a357600080fd5b8151613406816142c4565b600080600080600080600080610100898b0312156148cb57600080fd5b88516148d6816142c4565b60208a015160408b015191995097506148ee816142c4565b60608a015160808b015191975095506149068161433b565b60a08a015160c08b0151919550935061491e8161433b565b8092505060e089015190509295985092959890939650565b60006020828403121561494857600080fd5b5051919050565b634e487b7160e01b600052601160045260246000fd5b818103818111156149785761497861494f565b92915050565b634e487b7160e01b600052603260045260246000fd5b60008060008060008060008060006101208a8c0312156149b357600080fd5b89516149be816142c4565b60208b015160408c0151919a5098506149d6816142c4565b60608b01519097506149e7816142c4565b60808b015160a08c015191975095506149ff8161433b565b60c08b015160e08c01519195509350614a178161433b565b809250506101008a015190509295985092959850929598565b600080600080600080600080610100898b031215614a4d57600080fd5b885197506020890151965060408901519550606089015194506080890151935060a0890151925060c089015161491e8161433b565b600060208284031215614a9457600080fd5b81516134068161433b565b600060018201614ab157614ab161494f565b5060010190565b600081518084526020808501945080840160005b83811015614ae857815187529582019590820190600101614acc565b509495945050505050565b606080825284519082018190526000906020906080840190828801845b82811015614b355781516001600160a01b031684529284019290840190600101614b10565b50505083810382850152614b498187614ab8565b915050828103604084015261379d8185614ab8565b60008060408385031215614b7157600080fd5b825191506020830151614394816142c4565b60006101008083016001600160a01b03808d1685526020818d16818701528360408701528293508b5180845261012087019450818d01935060005b81811015614bdc578451841686529482019493820193600101614bbe565b50505050506060830197909752506001600160a01b0394909416608085015291151560a084015260c083015260e0909101529392505050565b80820281158282048414176149785761497861494f565b600082614c4957634e487b7160e01b600052601260045260246000fd5b500490565b808201808211156149785761497861494f565b60005b83811015614c7c578181015183820152602001614c64565b50506000910152565b60008251614c97818460208701614c61565b9190910192915050565b6020815260008251806020840152614cc0816040850160208701614c61565b601f01601f1916919091016040019291505056fea2646970667358221220e6f57cdb9ba606ab16a923882aaf08eae6e7a114d92b9ce9b6c948d465eca31464736f6c63430008140033",
  "linkReferences": {
    "contracts/core/PositionUtils.sol": {
      "PositionUtils": [
        {
          "length": 20,
          "start": 14293
        },
        {
          "length": 20,
          "start": 14770
        }
      ]
    }
  },
  "deployedLinkReferences": {
    "contracts/core/PositionUtils.sol": {
      "PositionUtils": [
        {
          "length": 20,
          "start": 13912
        },
        {
          "length": 20,
          "start": 14389
        }
      ]
    }
  }
}