{
  "_format": "hh-sol-artifact-1",
  "contractName": "Reader",
  "sourceName": "contracts/peripherals/Reader.sol",
  "abi": [
    {
      "inputs": [
        {
          "internalType": "address",
          "name": "violator",
          "type": "address"
        },
        {
          "internalType": "string",
          "name": "check",
          "type": "string"
        }
      ],
      "name": "PermissionDenied",
      "type": "error"
    },
    {
      "inputs": [],
      "name": "BASIS_POINTS_DIVISOR",
      "outputs": [
        {
          "internalType": "uint256",
          "name": "",
          "type": "uint256"
        }
      ],
      "stateMutability": "view",
      "type": "function"
    },
    {
      "inputs": [],
      "name": "POSITION_PROPS_LENGTH",
      "outputs": [
        {
          "internalType": "uint256",
          "name": "",
          "type": "uint256"
        }
      ],
      "stateMutability": "view",
      "type": "function"
    },
    {
      "inputs": [],
      "name": "PRICE_PRECISION",
      "outputs": [
        {
          "internalType": "uint256",
          "name": "",
          "type": "uint256"
        }
      ],
      "stateMutability": "view",
      "type": "function"
    },
    {
      "inputs": [],
      "name": "USDG_DECIMALS",
      "outputs": [
        {
          "internalType": "uint256",
          "name": "",
          "type": "uint256"
        }
      ],
      "stateMutability": "view",
      "type": "function"
    },
    {
      "inputs": [
        {
          "internalType": "contract IVault",
          "name": "_vault",
          "type": "address"
        },
        {
          "internalType": "address",
          "name": "_tokenIn",
          "type": "address"
        },
        {
          "internalType": "address",
          "name": "_tokenOut",
          "type": "address"
        },
        {
          "internalType": "uint256",
          "name": "_amountIn",
          "type": "uint256"
        }
      ],
      "name": "getAmountOut",
      "outputs": [
        {
          "internalType": "uint256",
          "name": "",
          "type": "uint256"
        },
        {
          "internalType": "uint256",
          "name": "",
          "type": "uint256"
        }
      ],
      "stateMutability": "view",
      "type": "function"
    },
    {
      "inputs": [
        {
          "internalType": "contract IVault",
          "name": "_vault",
          "type": "address"
        },
        {
          "internalType": "address",
          "name": "_tokenIn",
          "type": "address"
        },
        {
          "internalType": "address",
          "name": "_tokenOut",
          "type": "address"
        },
        {
          "internalType": "uint256",
          "name": "_amountIn",
          "type": "uint256"
        }
      ],
      "name": "getFeeBasisPoints",
      "outputs": [
        {
          "internalType": "uint256",
          "name": "",
          "type": "uint256"
        },
        {
          "internalType": "uint256",
          "name": "",
          "type": "uint256"
        },
        {
          "internalType": "uint256",
          "name": "",
          "type": "uint256"
        }
      ],
      "stateMutability": "view",
      "type": "function"
    },
    {
      "inputs": [
        {
          "internalType": "address",
          "name": "_vault",
          "type": "address"
        },
        {
          "internalType": "address[]",
          "name": "_tokens",
          "type": "address[]"
        }
      ],
      "name": "getFees",
      "outputs": [
        {
          "internalType": "uint256[]",
          "name": "",
          "type": "uint256[]"
        }
      ],
      "stateMutability": "view",
      "type": "function"
    },
    {
      "inputs": [
        {
          "internalType": "address",
          "name": "_vault",
          "type": "address"
        },
        {
          "internalType": "address",
          "name": "_weth",
          "type": "address"
        },
        {
          "internalType": "uint256",
          "name": "_usdgAmount",
          "type": "uint256"
        },
        {
          "internalType": "address[]",
          "name": "_tokens",
          "type": "address[]"
        }
      ],
      "name": "getFullVaultTokenInfo",
      "outputs": [
        {
          "internalType": "uint256[]",
          "name": "",
          "type": "uint256[]"
        }
      ],
      "stateMutability": "view",
      "type": "function"
    },
    {
      "inputs": [
        {
          "internalType": "address",
          "name": "_vault",
          "type": "address"
        },
        {
          "internalType": "address",
          "name": "_weth",
          "type": "address"
        },
        {
          "internalType": "address[]",
          "name": "_tokens",
          "type": "address[]"
        }
      ],
      "name": "getFundingRates",
      "outputs": [
        {
          "internalType": "uint256[]",
          "name": "",
          "type": "uint256[]"
        }
      ],
      "stateMutability": "view",
      "type": "function"
    },
    {
      "inputs": [
        {
          "internalType": "contract IVault",
          "name": "_vault",
          "type": "address"
        },
        {
          "internalType": "address",
          "name": "_tokenIn",
          "type": "address"
        },
        {
          "internalType": "address",
          "name": "_tokenOut",
          "type": "address"
        }
      ],
      "name": "getMaxAmountIn",
      "outputs": [
        {
          "internalType": "uint256",
          "name": "",
          "type": "uint256"
        }
      ],
      "stateMutability": "view",
      "type": "function"
    },
    {
      "inputs": [
        {
          "internalType": "address",
          "name": "_factory",
          "type": "address"
        },
        {
          "internalType": "address[]",
          "name": "_tokens",
          "type": "address[]"
        }
      ],
      "name": "getPairInfo",
      "outputs": [
        {
          "internalType": "uint256[]",
          "name": "",
          "type": "uint256[]"
        }
      ],
      "stateMutability": "view",
      "type": "function"
    },
    {
      "inputs": [
        {
          "internalType": "address",
          "name": "_vault",
          "type": "address"
        },
        {
          "internalType": "address",
          "name": "_account",
          "type": "address"
        },
        {
          "internalType": "address[]",
          "name": "_collateralTokens",
          "type": "address[]"
        },
        {
          "internalType": "address[]",
          "name": "_indexTokens",
          "type": "address[]"
        },
        {
          "internalType": "bool[]",
          "name": "_isLong",
          "type": "bool[]"
        }
      ],
      "name": "getPositions",
      "outputs": [
        {
          "internalType": "uint256[]",
          "name": "",
          "type": "uint256[]"
        }
      ],
      "stateMutability": "view",
      "type": "function"
    },
    {
      "inputs": [
        {
          "internalType": "contract IVaultPriceFeed",
          "name": "_priceFeed",
          "type": "address"
        },
        {
          "internalType": "address[]",
          "name": "_tokens",
          "type": "address[]"
        }
      ],
      "name": "getPrices",
      "outputs": [
        {
          "internalType": "uint256[]",
          "name": "",
          "type": "uint256[]"
        }
      ],
      "stateMutability": "view",
      "type": "function"
    },
    {
      "inputs": [
        {
          "internalType": "address",
          "name": "_account",
          "type": "address"
        },
        {
          "internalType": "address[]",
          "name": "_yieldTrackers",
          "type": "address[]"
        }
      ],
      "name": "getStakingInfo",
      "outputs": [
        {
          "internalType": "uint256[]",
          "name": "",
          "type": "uint256[]"
        }
      ],
      "stateMutability": "view",
      "type": "function"
    },
    {
      "inputs": [
        {
          "internalType": "address",
          "name": "_account",
          "type": "address"
        },
        {
          "internalType": "address[]",
          "name": "_tokens",
          "type": "address[]"
        }
      ],
      "name": "getTokenBalances",
      "outputs": [
        {
          "internalType": "uint256[]",
          "name": "",
          "type": "uint256[]"
        }
      ],
      "stateMutability": "view",
      "type": "function"
    },
    {
      "inputs": [
        {
          "internalType": "address",
          "name": "_account",
          "type": "address"
        },
        {
          "internalType": "address[]",
          "name": "_tokens",
          "type": "address[]"
        }
      ],
      "name": "getTokenBalancesWithSupplies",
      "outputs": [
        {
          "internalType": "uint256[]",
          "name": "",
          "type": "uint256[]"
        }
      ],
      "stateMutability": "view",
      "type": "function"
    },
    {
      "inputs": [
        {
          "internalType": "contract IERC20",
          "name": "_token",
          "type": "address"
        },
        {
          "internalType": "address[]",
          "name": "_excludedAccounts",
          "type": "address[]"
        }
      ],
      "name": "getTokenSupply",
      "outputs": [
        {
          "internalType": "uint256",
          "name": "",
          "type": "uint256"
        }
      ],
      "stateMutability": "view",
      "type": "function"
    },
    {
      "inputs": [
        {
          "internalType": "contract IERC20",
          "name": "_token",
          "type": "address"
        },
        {
          "internalType": "address[]",
          "name": "_accounts",
          "type": "address[]"
        }
      ],
      "name": "getTotalBalance",
      "outputs": [
        {
          "internalType": "uint256",
          "name": "",
          "type": "uint256"
        }
      ],
      "stateMutability": "view",
      "type": "function"
    },
    {
      "inputs": [
        {
          "internalType": "address[]",
          "name": "_yieldTokens",
          "type": "address[]"
        }
      ],
      "name": "getTotalStaked",
      "outputs": [
        {
          "internalType": "uint256[]",
          "name": "",
          "type": "uint256[]"
        }
      ],
      "stateMutability": "view",
      "type": "function"
    },
    {
      "inputs": [
        {
          "internalType": "address",
          "name": "_vault",
          "type": "address"
        },
        {
          "internalType": "address",
          "name": "_weth",
          "type": "address"
        },
        {
          "internalType": "uint256",
          "name": "_usdgAmount",
          "type": "uint256"
        },
        {
          "internalType": "address[]",
          "name": "_tokens",
          "type": "address[]"
        }
      ],
      "name": "getVaultTokenInfo",
      "outputs": [
        {
          "internalType": "uint256[]",
          "name": "",
          "type": "uint256[]"
        }
      ],
      "stateMutability": "view",
      "type": "function"
    },
    {
      "inputs": [
        {
          "internalType": "address",
          "name": "_vault",
          "type": "address"
        },
        {
          "internalType": "address",
          "name": "_weth",
          "type": "address"
        },
        {
          "internalType": "uint256",
          "name": "_usdgAmount",
          "type": "uint256"
        },
        {
          "internalType": "address[]",
          "name": "_tokens",
          "type": "address[]"
        }
      ],
      "name": "getVaultTokenInfoV2",
      "outputs": [
        {
          "internalType": "uint256[]",
          "name": "",
          "type": "uint256[]"
        }
      ],
      "stateMutability": "view",
      "type": "function"
    },
    {
      "inputs": [
        {
          "internalType": "address",
          "name": "_account",
          "type": "address"
        },
        {
          "internalType": "address[]",
          "name": "_vesters",
          "type": "address[]"
        }
      ],
      "name": "getVestingInfo",
      "outputs": [
        {
          "internalType": "uint256[]",
          "name": "",
          "type": "uint256[]"
        }
      ],
      "stateMutability": "view",
      "type": "function"
    },
    {
      "inputs": [],
      "name": "gov",
      "outputs": [
        {
          "internalType": "address",
          "name": "",
          "type": "address"
        }
      ],
      "stateMutability": "view",
      "type": "function"
    },
    {
      "inputs": [],
      "name": "hasMaxGlobalShortSizes",
      "outputs": [
        {
          "internalType": "bool",
          "name": "",
          "type": "bool"
        }
      ],
      "stateMutability": "view",
      "type": "function"
    },
    {
      "inputs": [
        {
          "internalType": "bool",
          "name": "_hasMaxGlobalShortSizes",
          "type": "bool"
        }
      ],
      "name": "setConfig",
      "outputs": [],
      "stateMutability": "nonpayable",
      "type": "function"
    },
    {
      "inputs": [
        {
          "internalType": "address",
          "name": "_gov",
          "type": "address"
        }
      ],
      "name": "setGov",
      "outputs": [],
      "stateMutability": "nonpayable",
      "type": "function"
    }
  ],
  "bytecode": "0x608060405234801561001057600080fd5b50600080546001600160a01b031916331790556157d780620000336000396000f3fe608060405234801561001057600080fd5b50600436106101ae5760003560e01c8063937a0be8116100ee578063c6f1d67611610097578063d802178e11610071578063d802178e146103b1578063dc383cab146103c4578063f3535e6c146103d7578063fbdb05ca146103ea57600080fd5b8063c6f1d67614610352578063cfad57a214610376578063d7176ca91461038957600080fd5b80639b0183c3116100c85780639b0183c314610322578063a4543ead14610337578063ad7e54971461034a57600080fd5b8063937a0be8146102e857806395082d25146102fb57806395a7535a1461030f57600080fd5b80633613d5271161015b5780637b906e93116101355780637b906e93146102a757806386d4d0f5146102ba578063870d917c146102cd5780638e83ca32146102d557600080fd5b80633613d52714610253578063440f018c14610266578063482119341461029457600080fd5b80632413c8c11161018c5780632413c8c11461021a5780632ac0184c1461022d5780632e3e33421461024057600080fd5b8063126082cf146101b357806312d43a51146101cf57806320542568146101fa575b600080fd5b6101bc61271081565b6040519081526020015b60405180910390f35b6000546101e2906001600160a01b031681565b6040516001600160a01b0390911681526020016101c6565b61020d610208366004615192565b6103fd565b6040516101c691906151fe565b61020d610228366004615242565b610b5e565b6101bc61023b36600461527f565b610c6b565b61020d61024e36600461527f565b610d9a565b61020d61026136600461527f565b610fe6565b6102796102743660046152cf565b6114b1565b604080519384526020840192909252908201526060016101c6565b61020d6102a236600461527f565b6119e1565b61020d6102b5366004615192565b611f4c565b61020d6102c836600461527f565b6127d6565b6101bc601281565b61020d6102e3366004615192565b6128f0565b61020d6102f636600461527f565b613303565b6101bc6c0c9f2c9cd04674edea4000000081565b61020d61031d366004615320565b6134c4565b610335610330366004615390565b613998565b005b61020d61034536600461527f565b613a23565b6101bc600981565b60005461036690600160a01b900460ff1681565b60405190151581526020016101c6565b6103356103843660046153ad565b613cdf565b61039c6103973660046152cf565b613d66565b604080519283526020830191909152016101c6565b61020d6103bf36600461527f565b6143ff565b61020d6103d23660046153ca565b614558565b6101bc6103e53660046154d7565b614a65565b6101bc6103f836600461527f565b614fe6565b60606000600a905060008690506000816001600160a01b031663741bef1a6040518163ffffffff1660e01b8152600401602060405180830381865afa15801561044a573d6000803e3d6000fd5b505050506040513d601f19601f8201168201806040525081019061046e9190615522565b9050600083865161047f9190615555565b67ffffffffffffffff811115610497576104976150be565b6040519080825280602002602001820160405280156104c0578160200160208202803683370190505b50905060005b8651811015610b515760008782815181106104e3576104e361556c565b6020026020010151905060006001600160a01b0316816001600160a01b03160361050a5750885b6040516352f55eed60e01b81526001600160a01b0382811660048301528616906352f55eed90602401602060405180830381865afa158015610550573d6000803e3d6000fd5b505050506040513d601f19601f820116820180604052508101906105749190615582565b8361057f8885615555565b8151811061058f5761058f61556c565b602090810291909101015260405163c3c7b9e960e01b81526001600160a01b03828116600483015286169063c3c7b9e990602401602060405180830381865afa1580156105e0573d6000803e3d6000fd5b505050506040513d601f19601f820116820180604052508101906106049190615582565b8361060f8885615555565b61061a90600161559b565b8151811061062a5761062a61556c565b6020908102919091010152604051631aa4ace560e01b81526001600160a01b038281166004830152861690631aa4ace590602401602060405180830381865afa15801561067b573d6000803e3d6000fd5b505050506040513d601f19601f8201168201806040525081019061069f9190615582565b836106aa8885615555565b6106b590600261559b565b815181106106c5576106c561556c565b6020908102919091010152604051632c668ec160e01b81526001600160a01b038281166004830152602482018b9052861690632c668ec190604401602060405180830381865afa15801561071d573d6000803e3d6000fd5b505050506040513d601f19601f820116820180604052508101906107419190615582565b8361074c8885615555565b61075790600361559b565b815181106107675761076761556c565b6020908102919091010152604051632acbceb560e21b81526001600160a01b03828116600483015286169063ab2f3ad490602401602060405180830381865afa1580156107b8573d6000803e3d6000fd5b505050506040513d601f19601f820116820180604052508101906107dc9190615582565b836107e78885615555565b6107f290600461559b565b815181106108025761080261556c565b60209081029190910101526040516340d3096b60e11b81526001600160a01b0382811660048301528616906381a612d690602401602060405180830381865afa158015610853573d6000803e3d6000fd5b505050506040513d601f19601f820116820180604052508101906108779190615582565b836108828885615555565b61088d90600561559b565b8151811061089d5761089d61556c565b6020908102919091010152604051637092736960e11b81526001600160a01b03828116600483015286169063e124e6d290602401602060405180830381865afa1580156108ee573d6000803e3d6000fd5b505050506040513d601f19601f820116820180604052508101906109129190615582565b8361091d8885615555565b61092890600661559b565b815181106109385761093861556c565b602090810291909101015260405163783a2b6760e11b81526001600160a01b03828116600483015286169063f07456ce90602401602060405180830381865afa158015610989573d6000803e3d6000fd5b505050506040513d601f19601f820116820180604052508101906109ad9190615582565b836109b88885615555565b6109c390600761559b565b815181106109d3576109d361556c565b60209081029190910101526040516317e1d38560e11b81526001600160a01b038281166004830152600060248301819052600160448401526064830152851690632fc3a70a90608401602060405180830381865afa158015610a39573d6000803e3d6000fd5b505050506040513d601f19601f82011682018060405250810190610a5d9190615582565b83610a688885615555565b610a7390600861559b565b81518110610a8357610a8361556c565b60209081029190910101526040516317e1d38560e11b81526001600160a01b038281166004830152600160248301819052604483015260006064830152851690632fc3a70a90608401602060405180830381865afa158015610ae9573d6000803e3d6000fd5b505050506040513d601f19601f82011682018060405250810190610b0d9190615582565b83610b188885615555565b610b2390600961559b565b81518110610b3357610b3361556c565b60209081029190910101525080610b49816155ae565b9150506104c6565b5098975050505050505050565b60606000825167ffffffffffffffff811115610b7c57610b7c6150be565b604051908082528060200260200182016040528015610ba5578160200160208202803683370190505b50905060005b8351811015610c64576000848281518110610bc857610bc861556c565b60200260200101519050806001600160a01b031663817b1cd26040518163ffffffff1660e01b8152600401602060405180830381865afa158015610c10573d6000803e3d6000fd5b505050506040513d601f19601f82011682018060405250810190610c349190615582565b838381518110610c4657610c4661556c565b60209081029190910101525080610c5c816155ae565b915050610bab565b5092915050565b600080836001600160a01b03166318160ddd6040518163ffffffff1660e01b8152600401602060405180830381865afa158015610cac573d6000803e3d6000fd5b505050506040513d601f19601f82011682018060405250810190610cd09190615582565b905060005b8351811015610d90576000848281518110610cf257610cf261556c565b60209081029190910101516040516370a0823160e01b81526001600160a01b0380831660048301529192506000918816906370a0823190602401602060405180830381865afa158015610d49573d6000803e3d6000fd5b505050506040513d601f19601f82011682018060405250810190610d6d9190615582565b9050610d7981856155c7565b935050508080610d88906155ae565b915050610cd5565b5090505b92915050565b60606000600290506000818451610db19190615555565b67ffffffffffffffff811115610dc957610dc96150be565b604051908082528060200260200182016040528015610df2578160200160208202803683370190505b50905060005b8451811015610fdd576000858281518110610e1557610e1561556c565b6020026020010151905060006001600160a01b0316816001600160a01b031603610ea4576001600160a01b0387163183610e4f8685615555565b81518110610e5f57610e5f61556c565b6020908102919091010152600083610e778685615555565b610e8290600161559b565b81518110610e9257610e9261556c565b60200260200101818152505050610fcb565b6040516370a0823160e01b81526001600160a01b0388811660048301528216906370a0823190602401602060405180830381865afa158015610eea573d6000803e3d6000fd5b505050506040513d601f19601f82011682018060405250810190610f0e9190615582565b83610f198685615555565b81518110610f2957610f2961556c565b602002602001018181525050806001600160a01b03166318160ddd6040518163ffffffff1660e01b8152600401602060405180830381865afa158015610f73573d6000803e3d6000fd5b505050506040513d601f19601f82011682018060405250810190610f979190615582565b83610fa28685615555565b610fad90600161559b565b81518110610fbd57610fbd61556c565b602002602001018181525050505b80610fd5816155ae565b915050610df8565b50949350505050565b60606000600690506000818451610ffd9190615555565b67ffffffffffffffff811115611015576110156150be565b60405190808252806020026020018201604052801561103e578160200160208202803683370190505b50905060005b8451811015610fdd5760008582815181106110615761106161556c565b60209081029190910101516040516317e1d38560e11b81526001600160a01b03808316600483015260016024830181905260448301526000606483015291925090881690632fc3a70a90608401602060405180830381865afa1580156110cb573d6000803e3d6000fd5b505050506040513d601f19601f820116820180604052508101906110ef9190615582565b836110fa8685615555565b8151811061110a5761110a61556c565b60209081029190910101526040516317e1d38560e11b81526001600160a01b038281166004830152600060248301819052600160448401526064830152881690632fc3a70a90608401602060405180830381865afa158015611170573d6000803e3d6000fd5b505050506040513d601f19601f820116820180604052508101906111949190615582565b8361119f8685615555565b6111aa90600161559b565b815181106111ba576111ba61556c565b60209081029190910101526040516317e1d38560e11b81526001600160a01b038281166004830152600160248301819052604483015260006064830152881690632fc3a70a90608401602060405180830381865afa158015611220573d6000803e3d6000fd5b505050506040513d601f19601f820116820180604052508101906112449190615582565b8361124f8685615555565b61125a90600261559b565b8151811061126a5761126a61556c565b60209081029190910101526040516317e1d38560e11b81526001600160a01b038281166004830152600060248301819052600160448401526064830152881690632fc3a70a90608401602060405180830381865afa1580156112d0573d6000803e3d6000fd5b505050506040513d601f19601f820116820180604052508101906112f49190615582565b836112ff8685615555565b61130a90600361559b565b8151811061131a5761131a61556c565b60209081029190910101526040517f6ce8a44b0000000000000000000000000000000000000000000000000000000081526001600160a01b038281166004830152881690636ce8a44b90602401602060405180830381865afa158015611384573d6000803e3d6000fd5b505050506040513d601f19601f820116820180604052508101906113a891906155da565b6113b35760006113b6565b60015b60ff16836113c48685615555565b6113cf90600461559b565b815181106113df576113df61556c565b60209081029190910101526040517f48cac2770000000000000000000000000000000000000000000000000000000081526001600160a01b0382811660048301528816906348cac27790602401602060405180830381865afa158015611449573d6000803e3d6000fd5b505050506040513d601f19601f8201168201806040525081019061146d9190615582565b836114788685615555565b61148390600561559b565b815181106114935761149361556c565b602090810291909101015250806114a9816155ae565b915050611044565b6040516340d3096b60e11b81526001600160a01b0384811660048301526000918291829182918916906381a612d690602401602060405180830381865afa158015611500573d6000803e3d6000fd5b505050506040513d601f19601f820116820180604052508101906115249190615582565b6040516323b95ceb60e21b81526001600160a01b0389811660048301529192506000918a1690638ee573ac90602401602060405180830381865afa158015611570573d6000803e3d6000fd5b505050506040513d601f19601f820116820180604052508101906115949190615582565b905060006c0c9f2c9cd04674edea400000006115b08489615555565b6115ba91906155f7565b90506115c782600a6156fd565b6115d36012600a6156fd565b6115dd9083615555565b6115e791906155f7565b6040516342b60b0360e01b81526001600160a01b038b811660048301529192506000918c16906342b60b0390602401602060405180830381865afa158015611633573d6000803e3d6000fd5b505050506040513d601f19601f8201168201806040525081019061165791906155da565b80156116c857506040516342b60b0360e01b81526001600160a01b038a811660048301528c16906342b60b0390602401602060405180830381865afa1580156116a4573d6000803e3d6000fd5b505050506040513d601f19601f820116820180604052508101906116c891906155da565b9050600081611738578b6001600160a01b031663a22f23926040518163ffffffff1660e01b8152600401602060405180830381865afa15801561170f573d6000803e3d6000fd5b505050506040513d601f19601f820116820180604052508101906117339190615582565b61179a565b8b6001600160a01b031663df73a2676040518163ffffffff1660e01b8152600401602060405180830381865afa158015611776573d6000803e3d6000fd5b505050506040513d601f19601f8201168201806040525081019061179a9190615582565b905060008261180a578c6001600160a01b0316637a210a2b6040518163ffffffff1660e01b8152600401602060405180830381865afa1580156117e1573d6000803e3d6000fd5b505050506040513d601f19601f820116820180604052508101906118059190615582565b61186c565b8c6001600160a01b03166310eb56c26040518163ffffffff1660e01b8152600401602060405180830381865afa158015611848573d6000803e3d6000fd5b505050506040513d601f19601f8201168201806040525081019061186c9190615582565b6040517fc7e074c30000000000000000000000000000000000000000000000000000000081526001600160a01b038e81166004830152602482018790526044820185905260648201839052600160848301529192506000918f169063c7e074c39060a401602060405180830381865afa1580156118ed573d6000803e3d6000fd5b505050506040513d601f19601f820116820180604052508101906119119190615582565b905060008e6001600160a01b031663c7e074c38e88878760006040518663ffffffff1660e01b81526004016119759594939291906001600160a01b039590951685526020850193909352604084019190915260608301521515608082015260a00190565b602060405180830381865afa158015611992573d6000803e3d6000fd5b505050506040513d601f19601f820116820180604052508101906119b69190615582565b905060008183116119c757816119c9565b825b9b509199509750505050505050509450945094915050565b606060006007905060008184516119f89190615555565b67ffffffffffffffff811115611a1057611a106150be565b604051908082528060200260200182016040528015611a39578160200160208202803683370190505b50905060005b8451811015610fdd576000858281518110611a5c57611a5c61556c565b60209081029190910101516040517f5d50e7290000000000000000000000000000000000000000000000000000000081526001600160a01b03898116600483015291925090821690635d50e72990602401602060405180830381865afa158015611aca573d6000803e3d6000fd5b505050506040513d601f19601f82011682018060405250810190611aee9190615582565b83611af98685615555565b81518110611b0957611b0961556c565b60209081029190910101526040517fd5a73fdd0000000000000000000000000000000000000000000000000000000081526001600160a01b03888116600483015282169063d5a73fdd90602401602060405180830381865afa158015611b73573d6000803e3d6000fd5b505050506040513d601f19601f82011682018060405250810190611b979190615582565b83611ba28685615555565b611bad90600161559b565b81518110611bbd57611bbd61556c565b602002602001018181525050858281518110611bdb57611bdb61556c565b60209081029190910101516040516370a0823160e01b81526001600160a01b038981166004830152909116906370a0823190602401602060405180830381865afa158015611c2d573d6000803e3d6000fd5b505050506040513d601f19601f82011682018060405250810190611c519190615582565b83611c5c8685615555565b611c6790600261559b565b81518110611c7757611c7761556c565b60209081029190910101526040517f71417b320000000000000000000000000000000000000000000000000000000081526001600160a01b0388811660048301528216906371417b3290602401602060405180830381865afa158015611ce1573d6000803e3d6000fd5b505050506040513d601f19601f82011682018060405250810190611d059190615582565b83611d108685615555565b611d1b90600361559b565b81518110611d2b57611d2b61556c565b602090810291909101015260405163402914f560e01b81526001600160a01b03888116600483015282169063402914f590602401602060405180830381865afa158015611d7c573d6000803e3d6000fd5b505050506040513d601f19601f82011682018060405250810190611da09190615582565b83611dab8685615555565b611db690600461559b565b81518110611dc657611dc661556c565b60209081029190910101526040517f08f26c760000000000000000000000000000000000000000000000000000000081526001600160a01b0388811660048301528216906308f26c7690602401602060405180830381865afa158015611e30573d6000803e3d6000fd5b505050506040513d601f19601f82011682018060405250810190611e549190615582565b83611e5f8685615555565b611e6a90600561559b565b81518110611e7a57611e7a61556c565b60209081029190910101526040517f45f01ee60000000000000000000000000000000000000000000000000000000081526001600160a01b0388811660048301528216906345f01ee690602401602060405180830381865afa158015611ee4573d6000803e3d6000fd5b505050506040513d601f19601f82011682018060405250810190611f089190615582565b83611f138685615555565b611f1e90600661559b565b81518110611f2e57611f2e61556c565b60209081029190910101525080611f44816155ae565b915050611a3f565b60606000600c905060008690506000816001600160a01b031663741bef1a6040518163ffffffff1660e01b8152600401602060405180830381865afa158015611f99573d6000803e3d6000fd5b505050506040513d601f19601f82011682018060405250810190611fbd9190615522565b90506000838651611fce9190615555565b67ffffffffffffffff811115611fe657611fe66150be565b60405190808252806020026020018201604052801561200f578160200160208202803683370190505b50905060005b8651811015610b515760008782815181106120325761203261556c565b6020026020010151905060006001600160a01b0316816001600160a01b0316036120595750885b6040516352f55eed60e01b81526001600160a01b0382811660048301528616906352f55eed90602401602060405180830381865afa15801561209f573d6000803e3d6000fd5b505050506040513d601f19601f820116820180604052508101906120c39190615582565b836120ce8885615555565b815181106120de576120de61556c565b602090810291909101015260405163c3c7b9e960e01b81526001600160a01b03828116600483015286169063c3c7b9e990602401602060405180830381865afa15801561212f573d6000803e3d6000fd5b505050506040513d601f19601f820116820180604052508101906121539190615582565b8361215e8885615555565b61216990600161559b565b815181106121795761217961556c565b6020908102919091010152604051631aa4ace560e01b81526001600160a01b038281166004830152861690631aa4ace590602401602060405180830381865afa1580156121ca573d6000803e3d6000fd5b505050506040513d601f19601f820116820180604052508101906121ee9190615582565b836121f98885615555565b61220490600261559b565b815181106122145761221461556c565b6020908102919091010152604051632c668ec160e01b81526001600160a01b038281166004830152602482018b9052861690632c668ec190604401602060405180830381865afa15801561226c573d6000803e3d6000fd5b505050506040513d601f19601f820116820180604052508101906122909190615582565b8361229b8885615555565b6122a690600361559b565b815181106122b6576122b661556c565b6020908102919091010152604051632acbceb560e21b81526001600160a01b03828116600483015286169063ab2f3ad490602401602060405180830381865afa158015612307573d6000803e3d6000fd5b505050506040513d601f19601f8201168201806040525081019061232b9190615582565b836123368885615555565b61234190600461559b565b815181106123515761235161556c565b6020908102919091010152604051634a993ee960e01b81526001600160a01b038281166004830152861690634a993ee990602401602060405180830381865afa1580156123a2573d6000803e3d6000fd5b505050506040513d601f19601f820116820180604052508101906123c69190615582565b836123d18885615555565b6123dc90600561559b565b815181106123ec576123ec61556c565b602090810291909101015260405163ad1e4f8d60e01b81526001600160a01b03828116600483015286169063ad1e4f8d90602401602060405180830381865afa15801561243d573d6000803e3d6000fd5b505050506040513d601f19601f820116820180604052508101906124619190615582565b8361246c8885615555565b61247790600661559b565b815181106124875761248761556c565b60209081029190910101526040516340d3096b60e11b81526001600160a01b0382811660048301528616906381a612d690602401602060405180830381865afa1580156124d8573d6000803e3d6000fd5b505050506040513d601f19601f820116820180604052508101906124fc9190615582565b836125078885615555565b61251290600761559b565b815181106125225761252261556c565b6020908102919091010152604051637092736960e11b81526001600160a01b03828116600483015286169063e124e6d290602401602060405180830381865afa158015612573573d6000803e3d6000fd5b505050506040513d601f19601f820116820180604052508101906125979190615582565b836125a28885615555565b6125ad90600861559b565b815181106125bd576125bd61556c565b602090810291909101015260405163783a2b6760e11b81526001600160a01b03828116600483015286169063f07456ce90602401602060405180830381865afa15801561260e573d6000803e3d6000fd5b505050506040513d601f19601f820116820180604052508101906126329190615582565b8361263d8885615555565b61264890600961559b565b815181106126585761265861556c565b60209081029190910101526040516317e1d38560e11b81526001600160a01b038281166004830152600060248301819052600160448401526064830152851690632fc3a70a90608401602060405180830381865afa1580156126be573d6000803e3d6000fd5b505050506040513d601f19601f820116820180604052508101906126e29190615582565b836126ed8885615555565b6126f890600a61559b565b815181106127085761270861556c565b60209081029190910101526040516317e1d38560e11b81526001600160a01b038281166004830152600160248301819052604483015260006064830152851690632fc3a70a90608401602060405180830381865afa15801561276e573d6000803e3d6000fd5b505050506040513d601f19601f820116820180604052508101906127929190615582565b8361279d8885615555565b6127a890600b61559b565b815181106127b8576127b861556c565b602090810291909101015250806127ce816155ae565b915050612015565b60606000825167ffffffffffffffff8111156127f4576127f46150be565b60405190808252806020026020018201604052801561281d578160200160208202803683370190505b50905060005b8351811015610d9057846001600160a01b0316631ce9cb8f85838151811061284d5761284d61556c565b60200260200101516040518263ffffffff1660e01b815260040161288091906001600160a01b0391909116815260200190565b602060405180830381865afa15801561289d573d6000803e3d6000fd5b505050506040513d601f19601f820116820180604052508101906128c19190615582565b8282815181106128d3576128d361556c565b6020908102919091010152806128e8816155ae565b915050612823565b60606000600e905060008690506000816001600160a01b031663741bef1a6040518163ffffffff1660e01b8152600401602060405180830381865afa15801561293d573d6000803e3d6000fd5b505050506040513d601f19601f820116820180604052508101906129619190615522565b905060008386516129729190615555565b67ffffffffffffffff81111561298a5761298a6150be565b6040519080825280602002602001820160405280156129b3578160200160208202803683370190505b50905060005b8651811015610b515760008782815181106129d6576129d661556c565b6020026020010151905060006001600160a01b0316816001600160a01b0316036129fd5750885b60008054600160a01b900460ff16612a16576000612a99565b6040517f9698d25a0000000000000000000000000000000000000000000000000000000081526001600160a01b038381166004830152871690639698d25a90602401602060405180830381865afa158015612a75573d6000803e3d6000fd5b505050506040513d601f19601f82011682018060405250810190612a999190615582565b6040516352f55eed60e01b81526001600160a01b038481166004830152919250908716906352f55eed90602401602060405180830381865afa158015612ae3573d6000803e3d6000fd5b505050506040513d601f19601f82011682018060405250810190612b079190615582565b84612b128986615555565b81518110612b2257612b2261556c565b602090810291909101015260405163c3c7b9e960e01b81526001600160a01b03838116600483015287169063c3c7b9e990602401602060405180830381865afa158015612b73573d6000803e3d6000fd5b505050506040513d601f19601f82011682018060405250810190612b979190615582565b84612ba28986615555565b612bad90600161559b565b81518110612bbd57612bbd61556c565b6020908102919091010152604051631aa4ace560e01b81526001600160a01b038381166004830152871690631aa4ace590602401602060405180830381865afa158015612c0e573d6000803e3d6000fd5b505050506040513d601f19601f82011682018060405250810190612c329190615582565b84612c3d8986615555565b612c4890600261559b565b81518110612c5857612c5861556c565b6020908102919091010152604051632c668ec160e01b81526001600160a01b038381166004830152602482018c9052871690632c668ec190604401602060405180830381865afa158015612cb0573d6000803e3d6000fd5b505050506040513d601f19601f82011682018060405250810190612cd49190615582565b84612cdf8986615555565b612cea90600361559b565b81518110612cfa57612cfa61556c565b6020908102919091010152604051632acbceb560e21b81526001600160a01b03838116600483015287169063ab2f3ad490602401602060405180830381865afa158015612d4b573d6000803e3d6000fd5b505050506040513d601f19601f82011682018060405250810190612d6f9190615582565b84612d7a8986615555565b612d8590600461559b565b81518110612d9557612d9561556c565b6020908102919091010152604051634a993ee960e01b81526001600160a01b038381166004830152871690634a993ee990602401602060405180830381865afa158015612de6573d6000803e3d6000fd5b505050506040513d601f19601f82011682018060405250810190612e0a9190615582565b84612e158986615555565b612e2090600561559b565b81518110612e3057612e3061556c565b602090810291909101015260405163ad1e4f8d60e01b81526001600160a01b03838116600483015287169063ad1e4f8d90602401602060405180830381865afa158015612e81573d6000803e3d6000fd5b505050506040513d601f19601f82011682018060405250810190612ea59190615582565b84612eb08986615555565b612ebb90600661559b565b81518110612ecb57612ecb61556c565b60209081029190910101526040517f8a78daa80000000000000000000000000000000000000000000000000000000081526001600160a01b038381166004830152871690638a78daa890602401602060405180830381865afa158015612f35573d6000803e3d6000fd5b505050506040513d601f19601f82011682018060405250810190612f599190615582565b84612f648986615555565b612f6f90600761559b565b81518110612f7f57612f7f61556c565b60209081029190910101528084612f968986615555565b612fa190600861559b565b81518110612fb157612fb161556c565b60209081029190910101526040516340d3096b60e11b81526001600160a01b0383811660048301528716906381a612d690602401602060405180830381865afa158015613002573d6000803e3d6000fd5b505050506040513d601f19601f820116820180604052508101906130269190615582565b846130318986615555565b61303c90600961559b565b8151811061304c5761304c61556c565b6020908102919091010152604051637092736960e11b81526001600160a01b03838116600483015287169063e124e6d290602401602060405180830381865afa15801561309d573d6000803e3d6000fd5b505050506040513d601f19601f820116820180604052508101906130c19190615582565b846130cc8986615555565b6130d790600a61559b565b815181106130e7576130e761556c565b602090810291909101015260405163783a2b6760e11b81526001600160a01b03838116600483015287169063f07456ce90602401602060405180830381865afa158015613138573d6000803e3d6000fd5b505050506040513d601f19601f8201168201806040525081019061315c9190615582565b846131678986615555565b61317290600b61559b565b815181106131825761318261556c565b60209081029190910101526040516317e1d38560e11b81526001600160a01b038381166004830152600060248301819052600160448401526064830152861690632fc3a70a90608401602060405180830381865afa1580156131e8573d6000803e3d6000fd5b505050506040513d601f19601f8201168201806040525081019061320c9190615582565b846132178986615555565b61322290600c61559b565b815181106132325761323261556c565b60209081029190910101526040516317e1d38560e11b81526001600160a01b038381166004830152600160248301819052604483015260006064830152861690632fc3a70a90608401602060405180830381865afa158015613298573d6000803e3d6000fd5b505050506040513d601f19601f820116820180604052508101906132bc9190615582565b846132c78986615555565b6132d290600d61559b565b815181106132e2576132e261556c565b602002602001018181525050505080806132fb906155ae565b9150506129b9565b6060600060029050600081845161331a9190615555565b67ffffffffffffffff811115613332576133326150be565b60405190808252806020026020018201604052801561335b578160200160208202803683370190505b50905060005b8451811015610fdd57600085828151811061337e5761337e61556c565b602090810291909101015160405163402914f560e01b81526001600160a01b0389811660048301529192509082169063402914f590602401602060405180830381865afa1580156133d3573d6000803e3d6000fd5b505050506040513d601f19601f820116820180604052508101906133f79190615582565b836134028685615555565b815181106134125761341261556c565b602002602001018181525050806001600160a01b0316632459f51d6040518163ffffffff1660e01b8152600401602060405180830381865afa15801561345c573d6000803e3d6000fd5b505050506040513d601f19601f820116820180604052508101906134809190615582565b8361348b8685615555565b61349690600161559b565b815181106134a6576134a661556c565b602090810291909101015250806134bc816155ae565b915050613361565b606060006002905060008184516134db9190615555565b67ffffffffffffffff8111156134f3576134f36150be565b60405190808252806020026020018201604052801561351c578160200160208202803683370190505b5090508560005b855181101561398a5760008682815181106135405761354061556c565b6020026020010151905060006001600160a01b0316816001600160a01b0316036135675750865b6040516342b60b0360e01b81526001600160a01b038281166004830152600091908516906342b60b0390602401602060405180830381865afa1580156135b1573d6000803e3d6000fd5b505050506040513d601f19601f820116820180604052508101906135d591906155da565b61364057836001600160a01b031663c4f718bf6040518163ffffffff1660e01b8152600401602060405180830381865afa158015613617573d6000803e3d6000fd5b505050506040513d601f19601f8201168201806040525081019061363b9190615582565b6136a2565b836001600160a01b031663134ca63b6040518163ffffffff1660e01b8152600401602060405180830381865afa15801561367e573d6000803e3d6000fd5b505050506040513d601f19601f820116820180604052508101906136a29190615582565b60405163c3c7b9e960e01b81526001600160a01b03848116600483015291925060009186169063c3c7b9e990602401602060405180830381865afa1580156136ee573d6000803e3d6000fd5b505050506040513d601f19601f820116820180604052508101906137129190615582565b6040516352f55eed60e01b81526001600160a01b0385811660048301529192506000918716906352f55eed90602401602060405180830381865afa15801561375e573d6000803e3d6000fd5b505050506040513d601f19601f820116820180604052508101906137829190615582565b905080156137c757806137958385615555565b61379f91906155f7565b876137aa8a88615555565b815181106137ba576137ba61556c565b6020026020010181815250505b60405163c65bc7b160e01b81526001600160a01b0385811660048301526000919088169063c65bc7b190602401602060405180830381865afa158015613811573d6000803e3d6000fd5b505050506040513d601f19601f820116820180604052508101906138359190615582565b1115613973576040517fa93acac20000000000000000000000000000000000000000000000000000000081526001600160a01b0385811660048301526000919088169063a93acac290602401602060405180830381865afa15801561389e573d6000803e3d6000fd5b505050506040513d601f19601f820116820180604052508101906138c29190615582565b60405163c65bc7b160e01b81526001600160a01b03878116600483015291925060009189169063c65bc7b190602401602060405180830381865afa15801561390e573d6000803e3d6000fd5b505050506040513d601f19601f820116820180604052508101906139329190615582565b905061393e828261559b565b896139498c8a615555565b61395490600161559b565b815181106139645761396461556c565b60200260200101818152505050505b505050508080613982906155ae565b915050613523565b5090925050505b9392505050565b6000546001600160a01b031633146139ea5760408051630aa275af60e21b81523360048201526024810191909152600760448201526637b7363ca3b7bb60c91b60648201526084015b60405180910390fd5b60008054911515600160a01b027fffffffffffffffffffffff00ffffffffffffffffffffffffffffffffffffffff909216919091179055565b805160609060029081906000908290613a3d9082906155f7565b613a479190615555565b67ffffffffffffffff811115613a5f57613a5f6150be565b604051908082528060200260200182016040528015613a88578160200160208202803683370190505b50905060005b838651613a9b91906155f7565b811015613cd557600086613aaf8684615555565b81518110613abf57613abf61556c565b602002602001015190506000878684613ad89190615555565b613ae390600161559b565b81518110613af357613af361556c565b60209081029190910101516040517fe6a439050000000000000000000000000000000000000000000000000000000081526001600160a01b03848116600483015280831660248301529192506000918b169063e6a4390590604401602060405180830381865afa158015613b6b573d6000803e3d6000fd5b505050506040513d601f19601f82011682018060405250810190613b8f9190615522565b6040516370a0823160e01b81526001600160a01b038083166004830152919250908416906370a0823190602401602060405180830381865afa158015613bd9573d6000803e3d6000fd5b505050506040513d601f19601f82011682018060405250810190613bfd9190615582565b85613c088887615555565b81518110613c1857613c1861556c565b60209081029190910101526040516370a0823160e01b81526001600160a01b0382811660048301528316906370a0823190602401602060405180830381865afa158015613c69573d6000803e3d6000fd5b505050506040513d601f19601f82011682018060405250810190613c8d9190615582565b85613c988887615555565b613ca390600161559b565b81518110613cb357613cb361556c565b6020026020010181815250505050508080613ccd906155ae565b915050613a8e565b5095945050505050565b6000546001600160a01b03163314613d2c5760408051630aa275af60e21b81523360048201526024810191909152600760448201526637b7363ca3b7bb60c91b60648201526084016139e1565b600080547fffffffffffffffffffffffff0000000000000000000000000000000000000000166001600160a01b0392909216919091179055565b6040516340d3096b60e11b81526001600160a01b03848116600483015260009182918291908816906381a612d690602401602060405180830381865afa158015613db4573d6000803e3d6000fd5b505050506040513d601f19601f82011682018060405250810190613dd89190615582565b6040516323b95ceb60e21b81526001600160a01b038881166004830152919250600091891690638ee573ac90602401602060405180830381865afa158015613e24573d6000803e3d6000fd5b505050506040513d601f19601f82011682018060405250810190613e489190615582565b6040516323b95ceb60e21b81526001600160a01b0388811660048301529192506000918a1690638ee573ac90602401602060405180830381865afa158015613e94573d6000803e3d6000fd5b505050506040513d601f19601f82011682018060405250810190613eb89190615582565b90506000806c0c9f2c9cd04674edea40000000613ed5868a615555565b613edf91906155f7565b9050613eec84600a6156fd565b613ef86012600a6156fd565b613f029083615555565b613f0c91906155f7565b6040516342b60b0360e01b81526001600160a01b038c811660048301529192506000918d16906342b60b0390602401602060405180830381865afa158015613f58573d6000803e3d6000fd5b505050506040513d601f19601f82011682018060405250810190613f7c91906155da565b8015613fed57506040516342b60b0360e01b81526001600160a01b038b811660048301528d16906342b60b0390602401602060405180830381865afa158015613fc9573d6000803e3d6000fd5b505050506040513d601f19601f82011682018060405250810190613fed91906155da565b905060008161405d578c6001600160a01b031663a22f23926040518163ffffffff1660e01b8152600401602060405180830381865afa158015614034573d6000803e3d6000fd5b505050506040513d601f19601f820116820180604052508101906140589190615582565b6140bf565b8c6001600160a01b031663df73a2676040518163ffffffff1660e01b8152600401602060405180830381865afa15801561409b573d6000803e3d6000fd5b505050506040513d601f19601f820116820180604052508101906140bf9190615582565b905060008261412f578d6001600160a01b0316637a210a2b6040518163ffffffff1660e01b8152600401602060405180830381865afa158015614106573d6000803e3d6000fd5b505050506040513d601f19601f8201168201806040525081019061412a9190615582565b614191565b8d6001600160a01b03166310eb56c26040518163ffffffff1660e01b8152600401602060405180830381865afa15801561416d573d6000803e3d6000fd5b505050506040513d601f19601f820116820180604052508101906141919190615582565b905060008e6001600160a01b031663c7e074c38f87868660016040518663ffffffff1660e01b81526004016141f59594939291906001600160a01b039590951685526020850193909352604084019190915260608301521515608082015260a00190565b602060405180830381865afa158015614212573d6000803e3d6000fd5b505050506040513d601f19601f820116820180604052508101906142369190615582565b905060008f6001600160a01b031663c7e074c38f88878760006040518663ffffffff1660e01b815260040161429a9594939291906001600160a01b039590951685526020850193909352604084019190915260608301521515608082015260a00190565b602060405180830381865afa1580156142b7573d6000803e3d6000fd5b505050506040513d601f19601f820116820180604052508101906142db9190615582565b90508082116142ea57806142ec565b815b965050505050505060008a6001600160a01b031663e124e6d28a6040518263ffffffff1660e01b815260040161433191906001600160a01b0391909116815260200190565b602060405180830381865afa15801561434e573d6000803e3d6000fd5b505050506040513d601f19601f820116820180604052508101906143729190615582565b9050600081614381878b615555565b61438b91906155f7565b905061439885600a6156fd565b6143a385600a6156fd565b6143ad9083615555565b6143b791906155f7565b905060006127106143c885826155c7565b6143d29084615555565b6143dc91906155f7565b905060006143ea82846155c7565b919e919d50909b505050505050505050505050565b60606000825167ffffffffffffffff81111561441d5761441d6150be565b604051908082528060200260200182016040528015614446578160200160208202803683370190505b50905060005b8351811015610d905760008482815181106144695761446961556c565b6020026020010151905060006001600160a01b0316816001600160a01b0316036144bc57856001600160a01b0316318383815181106144aa576144aa61556c565b60200260200101818152505050614546565b6040516370a0823160e01b81526001600160a01b0387811660048301528216906370a0823190602401602060405180830381865afa158015614502573d6000803e3d6000fd5b505050506040513d601f19601f820116820180604052508101906145269190615582565b8383815181106145385761453861556c565b602002602001018181525050505b80614550816155ae565b91505061444c565b606060006009855161456a9190615555565b67ffffffffffffffff811115614582576145826150be565b6040519080825280602002602001820160405280156145ab578160200160208202803683370190505b50905060005b8551811015614a5a5760008060008060008060008e6001600160a01b0316634a3f088d8f8f8b815181106145e7576145e761556c565b60200260200101518f8c815181106146015761460161556c565b60200260200101518f8d8151811061461b5761461b61556c565b60209081029190910101516040517fffffffff0000000000000000000000000000000000000000000000000000000060e087901b1681526001600160a01b039485166004820152928416602484015292166044820152901515606482015260840161010060405180830381865afa15801561469a573d6000803e3d6000fd5b505050506040513d601f19601f820116820180604052508101906146be9190615709565b975097509750509650965096509650868960098a6146dc9190615555565b815181106146ec576146ec61556c565b6020908102919091010152858961470460098b615555565b61470f90600161559b565b8151811061471f5761471f61556c565b6020908102919091010152848961473760098b615555565b61474290600261559b565b815181106147525761475261556c565b6020908102919091010152838961476a60098b615555565b61477590600361559b565b815181106147855761478561556c565b6020026020010181815250508161479d5760006147a0565b60015b60ff16896147af60098b615555565b6147ba90600461559b565b815181106147ca576147ca61556c565b602090810291909101015282896147e260098b615555565b6147ed90600561559b565b815181106147fd576147fd61556c565b6020908102919091010152808961481560098b615555565b61482090600661559b565b815181106148305761483061556c565b602002602001018181525050505050505050506000826009836148539190615555565b815181106148635761486361556c565b6020026020010151905060008360098461487d9190615555565b61488890600261559b565b815181106148985761489861556c565b602002602001015190506000846009856148b29190615555565b6148bd90600661559b565b815181106148cd576148cd61556c565b602002602001015190506000821115614a44576000808c6001600160a01b0316635c07eaab8b88815181106149045761490461556c565b602002602001015187878d8b815181106149205761492061556c565b60209081029190910101516040517fffffffff0000000000000000000000000000000000000000000000000000000060e087901b1681526001600160a01b03909416600485015260248401929092526044830152151560648201526084810186905260a4016040805180830381865afa1580156149a1573d6000803e3d6000fd5b505050506040513d601f19601f820116820180604052508101906149c59190615773565b91509150816149d55760006149d8565b60015b60ff16876149e7600989615555565b6149f290600761559b565b81518110614a0257614a0261556c565b60209081029190910101528087614a1a600989615555565b614a2590600861559b565b81518110614a3557614a3561556c565b60200260200101818152505050505b5050508080614a52906155ae565b9150506145b1565b509695505050505050565b6040516340d3096b60e11b81526001600160a01b03838116600483015260009182918616906381a612d690602401602060405180830381865afa158015614ab0573d6000803e3d6000fd5b505050506040513d601f19601f82011682018060405250810190614ad49190615582565b604051637092736960e11b81526001600160a01b03858116600483015291925060009187169063e124e6d290602401602060405180830381865afa158015614b20573d6000803e3d6000fd5b505050506040513d601f19601f82011682018060405250810190614b449190615582565b6040516323b95ceb60e21b81526001600160a01b038781166004830152919250600091881690638ee573ac90602401602060405180830381865afa158015614b90573d6000803e3d6000fd5b505050506040513d601f19601f82011682018060405250810190614bb49190615582565b6040516323b95ceb60e21b81526001600160a01b038781166004830152919250600091891690638ee573ac90602401602060405180830381865afa158015614c00573d6000803e3d6000fd5b505050506040513d601f19601f82011682018060405250810190614c249190615582565b6040516352f55eed60e01b81526001600160a01b0388811660048301529192506000918291908b16906352f55eed90602401602060405180830381865afa158015614c73573d6000803e3d6000fd5b505050506040513d601f19601f82011682018060405250810190614c979190615582565b60405163c3c7b9e960e01b81526001600160a01b038a811660048301529192506000918c169063c3c7b9e990602401602060405180830381865afa158015614ce3573d6000803e3d6000fd5b505050506040513d601f19601f82011682018060405250810190614d079190615582565b604051634a993ee960e01b81526001600160a01b038b811660048301529192506000918d1690634a993ee990602401602060405180830381865afa158015614d53573d6000803e3d6000fd5b505050506040513d601f19601f82011682018060405250810190614d779190615582565b90506000818311614d885781614d8a565b825b9050838110614da55760009950505050505050505050613991565b6000614db182866155c7565b9050614dbe87600a6156fd565b614dc989600a6156fd565b8b614dd48c85615555565b614dde91906155f7565b614de89190615555565b614df291906155f7565b60405163ad1e4f8d60e01b81526001600160a01b038f8116600483015291975060009650908f16945063ad1e4f8d93506024019150614e2e9050565b602060405180830381865afa158015614e4b573d6000803e3d6000fd5b505050506040513d601f19601f82011682018060405250810190614e6f9190615582565b90508015610b5157604051631aa4ace560e01b81526001600160a01b038a811660048301528b1690631aa4ace590602401602060405180830381865afa158015614ebd573d6000803e3d6000fd5b505050506040513d601f19601f82011682018060405250810190614ee19190615582565b811015614ef75760009650505050505050613991565b604051631aa4ace560e01b81526001600160a01b038a81166004830152600091908c1690631aa4ace590602401602060405180830381865afa158015614f41573d6000803e3d6000fd5b505050506040513d601f19601f82011682018060405250810190614f659190615582565b614f6f90836155c7565b9050614f7d6012600a6156fd565b614f8886600a6156fd565b614f929083615555565b614f9c91906155f7565b905086614fb66c0c9f2c9cd04674edea4000000083615555565b614fc091906155f7565b905080831115614fd857965061399195505050505050565b505098975050505050505050565b600080805b8351811015610d905760008482815181106150085761500861556c565b60209081029190910101516040516370a0823160e01b81526001600160a01b0380831660048301529192506000918816906370a0823190602401602060405180830381865afa15801561505f573d6000803e3d6000fd5b505050506040513d601f19601f820116820180604052508101906150839190615582565b905061508f818561559b565b93505050808061509e906155ae565b915050614feb565b6001600160a01b03811681146150bb57600080fd5b50565b634e487b7160e01b600052604160045260246000fd5b604051601f8201601f1916810167ffffffffffffffff811182821017156150fd576150fd6150be565b604052919050565b600067ffffffffffffffff82111561511f5761511f6150be565b5060051b60200190565b600082601f83011261513a57600080fd5b8135602061514f61514a83615105565b6150d4565b82815260059290921b8401810191818101908684111561516e57600080fd5b8286015b84811015614a5a578035615185816150a6565b8352918301918301615172565b600080600080608085870312156151a857600080fd5b84356151b3816150a6565b935060208501356151c3816150a6565b925060408501359150606085013567ffffffffffffffff8111156151e657600080fd5b6151f287828801615129565b91505092959194509250565b6020808252825182820181905260009190848201906040850190845b818110156152365783518352928401929184019160010161521a565b50909695505050505050565b60006020828403121561525457600080fd5b813567ffffffffffffffff81111561526b57600080fd5b61527784828501615129565b949350505050565b6000806040838503121561529257600080fd5b823561529d816150a6565b9150602083013567ffffffffffffffff8111156152b957600080fd5b6152c585828601615129565b9150509250929050565b600080600080608085870312156152e557600080fd5b84356152f0816150a6565b93506020850135615300816150a6565b92506040850135615310816150a6565b9396929550929360600135925050565b60008060006060848603121561533557600080fd5b8335615340816150a6565b92506020840135615350816150a6565b9150604084013567ffffffffffffffff81111561536c57600080fd5b61537886828701615129565b9150509250925092565b80151581146150bb57600080fd5b6000602082840312156153a257600080fd5b813561399181615382565b6000602082840312156153bf57600080fd5b8135613991816150a6565b600080600080600060a086880312156153e257600080fd5b85356153ed816150a6565b94506020868101356153fe816150a6565b9450604087013567ffffffffffffffff8082111561541b57600080fd5b6154278a838b01615129565b9550606089013591508082111561543d57600080fd5b6154498a838b01615129565b9450608089013591508082111561545f57600080fd5b508701601f8101891361547157600080fd5b803561547f61514a82615105565b81815260059190911b8201830190838101908b83111561549e57600080fd5b928401925b828410156154c55783356154b681615382565b825292840192908401906154a3565b80955050505050509295509295909350565b6000806000606084860312156154ec57600080fd5b83356154f7816150a6565b92506020840135615507816150a6565b91506040840135615517816150a6565b809150509250925092565b60006020828403121561553457600080fd5b8151613991816150a6565b634e487b7160e01b600052601160045260246000fd5b8082028115828204841417610d9457610d9461553f565b634e487b7160e01b600052603260045260246000fd5b60006020828403121561559457600080fd5b5051919050565b80820180821115610d9457610d9461553f565b6000600182016155c0576155c061553f565b5060010190565b81810381811115610d9457610d9461553f565b6000602082840312156155ec57600080fd5b815161399181615382565b60008261561457634e487b7160e01b600052601260045260246000fd5b500490565b600181815b8085111561565457816000190482111561563a5761563a61553f565b8085161561564757918102915b93841c939080029061561e565b509250929050565b60008261566b57506001610d94565b8161567857506000610d94565b816001811461568e5760028114615698576156b4565b6001915050610d94565b60ff8411156156a9576156a961553f565b50506001821b610d94565b5060208310610133831016604e8410600b84101617156156d7575081810a610d94565b6156e18383615619565b80600019048211156156f5576156f561553f565b029392505050565b6000613991838361565c565b600080600080600080600080610100898b03121561572657600080fd5b885197506020890151965060408901519550606089015194506080890151935060a0890151925060c089015161575b81615382565b8092505060e089015190509295985092959890939650565b6000806040838503121561578657600080fd5b825161579181615382565b602093909301519294929350505056fea264697066735822122095260be1281df73fad70515d6c585d4bed64d84442df7cd6e2afcfb04d05049164736f6c63430008140033",
  "linkReferences": {},
  "deployedLinkReferences": {}
}