{
  "_format": "hh-sol-artifact-1",
  "contractName": "ReferralStorage",
  "sourceName": "contracts/referrals/ReferralStorage.sol",
  "abi": [
    {
      "inputs": [
        {
          "internalType": "address",
          "name": "violator",
          "type": "address"
        },
        {
          "internalType": "string",
          "name": "check",
          "type": "string"
        }
      ],
      "name": "PermissionDenied",
      "type": "error"
    },
    {
      "anonymous": false,
      "inputs": [
        {
          "indexed": false,
          "internalType": "bytes32",
          "name": "code",
          "type": "bytes32"
        },
        {
          "indexed": false,
          "internalType": "address",
          "name": "newAccount",
          "type": "address"
        }
      ],
      "name": "GovSetCodeOwner",
      "type": "event"
    },
    {
      "anonymous": false,
      "inputs": [
        {
          "indexed": false,
          "internalType": "address",
          "name": "account",
          "type": "address"
        },
        {
          "indexed": false,
          "internalType": "bytes32",
          "name": "code",
          "type": "bytes32"
        }
      ],
      "name": "RegisterCode",
      "type": "event"
    },
    {
      "anonymous": false,
      "inputs": [
        {
          "indexed": false,
          "internalType": "address",
          "name": "account",
          "type": "address"
        },
        {
          "indexed": false,
          "internalType": "address",
          "name": "newAccount",
          "type": "address"
        },
        {
          "indexed": false,
          "internalType": "bytes32",
          "name": "code",
          "type": "bytes32"
        }
      ],
      "name": "SetCodeOwner",
      "type": "event"
    },
    {
      "anonymous": false,
      "inputs": [
        {
          "indexed": false,
          "internalType": "address",
          "name": "handler",
          "type": "address"
        },
        {
          "indexed": false,
          "internalType": "bool",
          "name": "isActive",
          "type": "bool"
        }
      ],
      "name": "SetHandler",
      "type": "event"
    },
    {
      "anonymous": false,
      "inputs": [
        {
          "indexed": false,
          "internalType": "address",
          "name": "referrer",
          "type": "address"
        },
        {
          "indexed": false,
          "internalType": "uint256",
          "name": "discountShare",
          "type": "uint256"
        }
      ],
      "name": "SetReferrerDiscountShare",
      "type": "event"
    },
    {
      "anonymous": false,
      "inputs": [
        {
          "indexed": false,
          "internalType": "address",
          "name": "referrer",
          "type": "address"
        },
        {
          "indexed": false,
          "internalType": "uint256",
          "name": "tierId",
          "type": "uint256"
        }
      ],
      "name": "SetReferrerTier",
      "type": "event"
    },
    {
      "anonymous": false,
      "inputs": [
        {
          "indexed": false,
          "internalType": "uint256",
          "name": "tierId",
          "type": "uint256"
        },
        {
          "indexed": false,
          "internalType": "uint256",
          "name": "totalRebate",
          "type": "uint256"
        },
        {
          "indexed": false,
          "internalType": "uint256",
          "name": "discountShare",
          "type": "uint256"
        }
      ],
      "name": "SetTier",
      "type": "event"
    },
    {
      "anonymous": false,
      "inputs": [
        {
          "indexed": false,
          "internalType": "address",
          "name": "account",
          "type": "address"
        },
        {
          "indexed": false,
          "internalType": "bytes32",
          "name": "code",
          "type": "bytes32"
        }
      ],
      "name": "SetTraderReferralCode",
      "type": "event"
    },
    {
      "inputs": [],
      "name": "BASIS_POINTS",
      "outputs": [
        {
          "internalType": "uint256",
          "name": "",
          "type": "uint256"
        }
      ],
      "stateMutability": "view",
      "type": "function"
    },
    {
      "inputs": [
        {
          "internalType": "bytes32",
          "name": "",
          "type": "bytes32"
        }
      ],
      "name": "codeOwners",
      "outputs": [
        {
          "internalType": "address",
          "name": "",
          "type": "address"
        }
      ],
      "stateMutability": "view",
      "type": "function"
    },
    {
      "inputs": [
        {
          "internalType": "address",
          "name": "_account",
          "type": "address"
        }
      ],
      "name": "getTraderReferralInfo",
      "outputs": [
        {
          "internalType": "bytes32",
          "name": "",
          "type": "bytes32"
        },
        {
          "internalType": "address",
          "name": "",
          "type": "address"
        }
      ],
      "stateMutability": "view",
      "type": "function"
    },
    {
      "inputs": [],
      "name": "gov",
      "outputs": [
        {
          "internalType": "address",
          "name": "",
          "type": "address"
        }
      ],
      "stateMutability": "view",
      "type": "function"
    },
    {
      "inputs": [
        {
          "internalType": "bytes32",
          "name": "_code",
          "type": "bytes32"
        },
        {
          "internalType": "address",
          "name": "_newAccount",
          "type": "address"
        }
      ],
      "name": "govSetCodeOwner",
      "outputs": [],
      "stateMutability": "nonpayable",
      "type": "function"
    },
    {
      "inputs": [
        {
          "internalType": "address",
          "name": "",
          "type": "address"
        }
      ],
      "name": "isHandler",
      "outputs": [
        {
          "internalType": "bool",
          "name": "",
          "type": "bool"
        }
      ],
      "stateMutability": "view",
      "type": "function"
    },
    {
      "inputs": [
        {
          "internalType": "address",
          "name": "",
          "type": "address"
        }
      ],
      "name": "referrerDiscountShares",
      "outputs": [
        {
          "internalType": "uint256",
          "name": "",
          "type": "uint256"
        }
      ],
      "stateMutability": "view",
      "type": "function"
    },
    {
      "inputs": [
        {
          "internalType": "address",
          "name": "",
          "type": "address"
        }
      ],
      "name": "referrerTiers",
      "outputs": [
        {
          "internalType": "uint256",
          "name": "",
          "type": "uint256"
        }
      ],
      "stateMutability": "view",
      "type": "function"
    },
    {
      "inputs": [
        {
          "internalType": "bytes32",
          "name": "_code",
          "type": "bytes32"
        }
      ],
      "name": "registerCode",
      "outputs": [],
      "stateMutability": "nonpayable",
      "type": "function"
    },
    {
      "inputs": [
        {
          "internalType": "bytes32",
          "name": "_code",
          "type": "bytes32"
        },
        {
          "internalType": "address",
          "name": "_newAccount",
          "type": "address"
        }
      ],
      "name": "setCodeOwner",
      "outputs": [],
      "stateMutability": "nonpayable",
      "type": "function"
    },
    {
      "inputs": [
        {
          "internalType": "address",
          "name": "_gov",
          "type": "address"
        }
      ],
      "name": "setGov",
      "outputs": [],
      "stateMutability": "nonpayable",
      "type": "function"
    },
    {
      "inputs": [
        {
          "internalType": "address",
          "name": "_handler",
          "type": "address"
        },
        {
          "internalType": "bool",
          "name": "_isActive",
          "type": "bool"
        }
      ],
      "name": "setHandler",
      "outputs": [],
      "stateMutability": "nonpayable",
      "type": "function"
    },
    {
      "inputs": [
        {
          "internalType": "uint256",
          "name": "_discountShare",
          "type": "uint256"
        }
      ],
      "name": "setReferrerDiscountShare",
      "outputs": [],
      "stateMutability": "nonpayable",
      "type": "function"
    },
    {
      "inputs": [
        {
          "internalType": "address",
          "name": "_referrer",
          "type": "address"
        },
        {
          "internalType": "uint256",
          "name": "_tierId",
          "type": "uint256"
        }
      ],
      "name": "setReferrerTier",
      "outputs": [],
      "stateMutability": "nonpayable",
      "type": "function"
    },
    {
      "inputs": [
        {
          "internalType": "uint256",
          "name": "_tierId",
          "type": "uint256"
        },
        {
          "internalType": "uint256",
          "name": "_totalRebate",
          "type": "uint256"
        },
        {
          "internalType": "uint256",
          "name": "_discountShare",
          "type": "uint256"
        }
      ],
      "name": "setTier",
      "outputs": [],
      "stateMutability": "nonpayable",
      "type": "function"
    },
    {
      "inputs": [
        {
          "internalType": "address",
          "name": "_account",
          "type": "address"
        },
        {
          "internalType": "bytes32",
          "name": "_code",
          "type": "bytes32"
        }
      ],
      "name": "setTraderReferralCode",
      "outputs": [],
      "stateMutability": "nonpayable",
      "type": "function"
    },
    {
      "inputs": [
        {
          "internalType": "bytes32",
          "name": "_code",
          "type": "bytes32"
        }
      ],
      "name": "setTraderReferralCodeByUser",
      "outputs": [],
      "stateMutability": "nonpayable",
      "type": "function"
    },
    {
      "inputs": [
        {
          "internalType": "uint256",
          "name": "",
          "type": "uint256"
        }
      ],
      "name": "tiers",
      "outputs": [
        {
          "internalType": "uint256",
          "name": "totalRebate",
          "type": "uint256"
        },
        {
          "internalType": "uint256",
          "name": "discountShare",
          "type": "uint256"
        }
      ],
      "stateMutability": "view",
      "type": "function"
    },
    {
      "inputs": [
        {
          "internalType": "address",
          "name": "",
          "type": "address"
        }
      ],
      "name": "traderReferralCodes",
      "outputs": [
        {
          "internalType": "bytes32",
          "name": "",
          "type": "bytes32"
        }
      ],
      "stateMutability": "view",
      "type": "function"
    }
  ],
  "bytecode": "0x608060405234801561001057600080fd5b50600080546001600160a01b031916331790556110c5806100326000396000f3fe608060405234801561001057600080fd5b50600436106101515760003560e01c8063836a0187116100cd578063cfad57a211610081578063e1e01bf311610066578063e1e01bf31461038a578063e1f1c4a71461039d578063ed843134146103a657600080fd5b8063cfad57a214610364578063dfcfa2501461037757600080fd5b80639c8e2de9116100b25780639c8e2de9146103085780639cb7de4b1461031b578063c8b3c4601461032e57600080fd5b8063836a0187146102d557806385725b58146102e857600080fd5b80633fb8b32311610124578063534ef88311610109578063534ef8831461026557806356b4b2ad146102a257806371a6a790146102b557600080fd5b80633fb8b3231461021f57806346ea87af1461023257600080fd5b8063039af9eb1461015657806312d43a51146101975780631582a018146101dc57806336def2c81461020a575b600080fd5b61017d610164366004610f6d565b6003602052600090815260409020805460019091015482565b604080519283526020830191909152015b60405180910390f35b6000546101b79073ffffffffffffffffffffffffffffffffffffffff1681565b60405173ffffffffffffffffffffffffffffffffffffffff909116815260200161018e565b6101fc6101ea366004610faf565b60026020526000908152604090205481565b60405190815260200161018e565b61021d610218366004610f6d565b6103b9565b005b61021d61022d366004610fd1565b61054d565b610255610240366004610faf565b60046020526000908152604090205460ff1681565b604051901515815260200161018e565b610278610273366004610faf565b61063c565b6040805192835273ffffffffffffffffffffffffffffffffffffffff90911660208301520161018e565b61021d6102b0366004610fd1565b61069c565b6101fc6102c3366004610faf565b60016020526000908152604090205481565b61021d6102e3366004610ffb565b610723565b6101fc6102f6366004610faf565b60066020526000908152604090205481565b61021d610316366004610f6d565b61094b565b61021d610329366004611027565b610a25565b6101b761033c366004610f6d565b60056020526000908152604090205473ffffffffffffffffffffffffffffffffffffffff1681565b61021d610372366004610faf565b610b35565b61021d610385366004611063565b610c05565b61021d610398366004610f6d565b610d79565b6101fc61271081565b61021d6103b4366004611063565b610d86565b80610425576040517f08c379a000000000000000000000000000000000000000000000000000000000815260206004820152601e60248201527f526566657272616c53746f726167653a20696e76616c6964205f636f6465000060448201526064015b60405180910390fd5b60008181526005602052604090205473ffffffffffffffffffffffffffffffffffffffff16156104d6576040517f08c379a0000000000000000000000000000000000000000000000000000000008152602060048201526024808201527f526566657272616c53746f726167653a20636f646520616c726561647920657860448201527f6973747300000000000000000000000000000000000000000000000000000000606482015260840161041c565b60008181526005602090815260409182902080547fffffffffffffffffffffffff0000000000000000000000000000000000000000163390811790915582519081529081018390527f04f82286a2a3b2ee5c8555de8304dfe2ea70991613213184b73a9e408d2d802991015b60405180910390a150565b60005473ffffffffffffffffffffffffffffffffffffffff1633146105d657604080517f2a89d6bc0000000000000000000000000000000000000000000000000000000081523360048201526024810191909152600760448201527f6f6e6c79476f7600000000000000000000000000000000000000000000000000606482015260840161041c565b73ffffffffffffffffffffffffffffffffffffffff8216600081815260026020908152604091829020849055815192835282018390527f7696855cdbb94bb5a44cb0a95caff6f29173aa1cbfba193834b12b90827ce2bc91015b60405180910390a15050565b73ffffffffffffffffffffffffffffffffffffffff81166000908152600660205260408120548190818115610692575060008181526005602052604090205473ffffffffffffffffffffffffffffffffffffffff165b9094909350915050565b3360009081526004602052604090205460ff16610715576040517f08c379a000000000000000000000000000000000000000000000000000000000815260206004820152601a60248201527f526566657272616c53746f726167653a20666f7262696464656e000000000000604482015260640161041c565b61071f8282610f0f565b5050565b60005473ffffffffffffffffffffffffffffffffffffffff1633146107ac57604080517f2a89d6bc0000000000000000000000000000000000000000000000000000000081523360048201526024810191909152600760448201527f6f6e6c79476f7600000000000000000000000000000000000000000000000000606482015260840161041c565b61271082111561083d576040517f08c379a0000000000000000000000000000000000000000000000000000000008152602060048201526024808201527f526566657272616c53746f726167653a20696e76616c696420746f74616c526560448201527f6261746500000000000000000000000000000000000000000000000000000000606482015260840161041c565b6127108111156108cf576040517f08c379a000000000000000000000000000000000000000000000000000000000815260206004820152602660248201527f526566657272616c53746f726167653a20696e76616c696420646973636f756e60448201527f7453686172650000000000000000000000000000000000000000000000000000606482015260840161041c565b600083815260036020818152604080842081518083018352878152808401878152958990529383528351815593516001909401939093558251868152908101859052918201839052907f4ebd23a492b2bd79586cb57cae40d7793408265f20320f68b478b971e696f4c79060600160405180910390a150505050565b6127108111156109dd576040517f08c379a000000000000000000000000000000000000000000000000000000000815260206004820152602660248201527f526566657272616c53746f726167653a20696e76616c696420646973636f756e60448201527f7453686172650000000000000000000000000000000000000000000000000000606482015260840161041c565b33600081815260016020908152604091829020849055815192835282018390527fbd224f3917462b0fa80805fe3ec29be3a37f664955aad6224e5ece036224c4299101610542565b60005473ffffffffffffffffffffffffffffffffffffffff163314610aae57604080517f2a89d6bc0000000000000000000000000000000000000000000000000000000081523360048201526024810191909152600760448201527f6f6e6c79476f7600000000000000000000000000000000000000000000000000606482015260840161041c565b73ffffffffffffffffffffffffffffffffffffffff821660008181526004602090815260409182902080547fffffffffffffffffffffffffffffffffffffffffffffffffffffffffffffff00168515159081179091558251938452908301527fd373464a39404e5f98fdb4b152b8ba9a094561e97e5c4b4ea11eb18cd9e6695e9101610630565b60005473ffffffffffffffffffffffffffffffffffffffff163314610bbe57604080517f2a89d6bc0000000000000000000000000000000000000000000000000000000081523360048201526024810191909152600760448201527f6f6e6c79476f7600000000000000000000000000000000000000000000000000606482015260840161041c565b600080547fffffffffffffffffffffffff00000000000000000000000000000000000000001673ffffffffffffffffffffffffffffffffffffffff92909216919091179055565b60005473ffffffffffffffffffffffffffffffffffffffff163314610c8e57604080517f2a89d6bc0000000000000000000000000000000000000000000000000000000081523360048201526024810191909152600760448201527f6f6e6c79476f7600000000000000000000000000000000000000000000000000606482015260840161041c565b81610cf5576040517f08c379a000000000000000000000000000000000000000000000000000000000815260206004820152601e60248201527f526566657272616c53746f726167653a20696e76616c6964205f636f64650000604482015260640161041c565b60008281526005602090815260409182902080547fffffffffffffffffffffffff00000000000000000000000000000000000000001673ffffffffffffffffffffffffffffffffffffffff85169081179091558251858152918201527f6431f88c655dd0e2b8d09b6405c007c515c66d67f2998e69c902873a8c8f3e979101610630565b610d833382610f0f565b50565b81610ded576040517f08c379a000000000000000000000000000000000000000000000000000000000815260206004820152601e60248201527f526566657272616c53746f726167653a20696e76616c6964205f636f64650000604482015260640161041c565b60008281526005602052604090205473ffffffffffffffffffffffffffffffffffffffff16338114610e7b576040517f08c379a000000000000000000000000000000000000000000000000000000000815260206004820152601a60248201527f526566657272616c53746f726167653a20666f7262696464656e000000000000604482015260640161041c565b60008381526005602090815260409182902080547fffffffffffffffffffffffff00000000000000000000000000000000000000001673ffffffffffffffffffffffffffffffffffffffff86169081179091558251338152918201529081018490527f5640856798d41ce9ca0a109b54c20a06eb99ba9c36ab4547115dafb8473cf3979060600160405180910390a1505050565b73ffffffffffffffffffffffffffffffffffffffff8216600081815260066020908152604091829020849055815192835282018390527f43825f14567dda057e821be2e51a5aa79aa51f3907a647e3ed2bd486a01050f19101610630565b600060208284031215610f7f57600080fd5b5035919050565b803573ffffffffffffffffffffffffffffffffffffffff81168114610faa57600080fd5b919050565b600060208284031215610fc157600080fd5b610fca82610f86565b9392505050565b60008060408385031215610fe457600080fd5b610fed83610f86565b946020939093013593505050565b60008060006060848603121561101057600080fd5b505081359360208301359350604090920135919050565b6000806040838503121561103a57600080fd5b61104383610f86565b91506020830135801515811461105857600080fd5b809150509250929050565b6000806040838503121561107657600080fd5b8235915061108660208401610f86565b9050925092905056fea26469706673582212202e801f678677dd386b8b594e167af964322dc29e50e0736da0c58d00e6272b6264736f6c63430008140033",
  "linkReferences": {},
  "deployedLinkReferences": {}
}