{
  "_format": "hh-sol-artifact-1",
  "contractName": "RewardRouterV2",
  "sourceName": "contracts/staking/RewardRouterV2.sol",
  "abi": [
    {
      "inputs": [
        {
          "internalType": "address",
          "name": "_weth",
          "type": "address"
        }
      ],
      "stateMutability": "nonpayable",
      "type": "constructor"
    },
    {
      "inputs": [
        {
          "internalType": "address",
          "name": "violator",
          "type": "address"
        },
        {
          "internalType": "string",
          "name": "check",
          "type": "string"
        }
      ],
      "name": "PermissionDenied",
      "type": "error"
    },
    {
      "inputs": [],
      "name": "ReentrantCall",
      "type": "error"
    },
    {
      "anonymous": false,
      "inputs": [
        {
          "indexed": false,
          "internalType": "address",
          "name": "account",
          "type": "address"
        },
        {
          "indexed": false,
          "internalType": "address",
          "name": "token",
          "type": "address"
        },
        {
          "indexed": false,
          "internalType": "uint256",
          "name": "amount",
          "type": "uint256"
        }
      ],
      "name": "StakeDfx",
      "type": "event"
    },
    {
      "anonymous": false,
      "inputs": [
        {
          "indexed": false,
          "internalType": "address",
          "name": "account",
          "type": "address"
        },
        {
          "indexed": false,
          "internalType": "uint256",
          "name": "amount",
          "type": "uint256"
        }
      ],
      "name": "StakeDlp",
      "type": "event"
    },
    {
      "anonymous": false,
      "inputs": [
        {
          "indexed": false,
          "internalType": "address",
          "name": "account",
          "type": "address"
        },
        {
          "indexed": false,
          "internalType": "address",
          "name": "token",
          "type": "address"
        },
        {
          "indexed": false,
          "internalType": "uint256",
          "name": "amount",
          "type": "uint256"
        }
      ],
      "name": "UnstakeDfx",
      "type": "event"
    },
    {
      "anonymous": false,
      "inputs": [
        {
          "indexed": false,
          "internalType": "address",
          "name": "account",
          "type": "address"
        },
        {
          "indexed": false,
          "internalType": "uint256",
          "name": "amount",
          "type": "uint256"
        }
      ],
      "name": "UnstakeDlp",
      "type": "event"
    },
    {
      "inputs": [
        {
          "internalType": "address",
          "name": "_sender",
          "type": "address"
        }
      ],
      "name": "acceptTransfer",
      "outputs": [],
      "stateMutability": "nonpayable",
      "type": "function"
    },
    {
      "inputs": [
        {
          "internalType": "address[]",
          "name": "_accounts",
          "type": "address[]"
        }
      ],
      "name": "batchCompoundForAccounts",
      "outputs": [],
      "stateMutability": "nonpayable",
      "type": "function"
    },
    {
      "inputs": [
        {
          "internalType": "address[]",
          "name": "_accounts",
          "type": "address[]"
        },
        {
          "internalType": "uint256[]",
          "name": "_amounts",
          "type": "uint256[]"
        }
      ],
      "name": "batchStakeDfxForAccount",
      "outputs": [],
      "stateMutability": "nonpayable",
      "type": "function"
    },
    {
      "inputs": [],
      "name": "bnDfx",
      "outputs": [
        {
          "internalType": "address",
          "name": "",
          "type": "address"
        }
      ],
      "stateMutability": "view",
      "type": "function"
    },
    {
      "inputs": [],
      "name": "bonusDfxTracker",
      "outputs": [
        {
          "internalType": "address",
          "name": "",
          "type": "address"
        }
      ],
      "stateMutability": "view",
      "type": "function"
    },
    {
      "inputs": [],
      "name": "claim",
      "outputs": [],
      "stateMutability": "nonpayable",
      "type": "function"
    },
    {
      "inputs": [],
      "name": "claimEsDfx",
      "outputs": [],
      "stateMutability": "nonpayable",
      "type": "function"
    },
    {
      "inputs": [],
      "name": "claimFees",
      "outputs": [],
      "stateMutability": "nonpayable",
      "type": "function"
    },
    {
      "inputs": [],
      "name": "compound",
      "outputs": [],
      "stateMutability": "nonpayable",
      "type": "function"
    },
    {
      "inputs": [
        {
          "internalType": "address",
          "name": "_account",
          "type": "address"
        }
      ],
      "name": "compoundForAccount",
      "outputs": [],
      "stateMutability": "nonpayable",
      "type": "function"
    },
    {
      "inputs": [],
      "name": "dfx",
      "outputs": [
        {
          "internalType": "address",
          "name": "",
          "type": "address"
        }
      ],
      "stateMutability": "view",
      "type": "function"
    },
    {
      "inputs": [],
      "name": "dfxVester",
      "outputs": [
        {
          "internalType": "address",
          "name": "",
          "type": "address"
        }
      ],
      "stateMutability": "view",
      "type": "function"
    },
    {
      "inputs": [],
      "name": "dlp",
      "outputs": [
        {
          "internalType": "address",
          "name": "",
          "type": "address"
        }
      ],
      "stateMutability": "view",
      "type": "function"
    },
    {
      "inputs": [],
      "name": "dlpManager",
      "outputs": [
        {
          "internalType": "address",
          "name": "",
          "type": "address"
        }
      ],
      "stateMutability": "view",
      "type": "function"
    },
    {
      "inputs": [],
      "name": "dlpVester",
      "outputs": [
        {
          "internalType": "address",
          "name": "",
          "type": "address"
        }
      ],
      "stateMutability": "view",
      "type": "function"
    },
    {
      "inputs": [],
      "name": "esDfx",
      "outputs": [
        {
          "internalType": "address",
          "name": "",
          "type": "address"
        }
      ],
      "stateMutability": "view",
      "type": "function"
    },
    {
      "inputs": [],
      "name": "feeDfxTracker",
      "outputs": [
        {
          "internalType": "address",
          "name": "",
          "type": "address"
        }
      ],
      "stateMutability": "view",
      "type": "function"
    },
    {
      "inputs": [],
      "name": "feeDlpTracker",
      "outputs": [
        {
          "internalType": "address",
          "name": "",
          "type": "address"
        }
      ],
      "stateMutability": "view",
      "type": "function"
    },
    {
      "inputs": [],
      "name": "gov",
      "outputs": [
        {
          "internalType": "address",
          "name": "",
          "type": "address"
        }
      ],
      "stateMutability": "view",
      "type": "function"
    },
    {
      "inputs": [
        {
          "internalType": "bool",
          "name": "_shouldClaimDfx",
          "type": "bool"
        },
        {
          "internalType": "bool",
          "name": "_shouldStakeDfx",
          "type": "bool"
        },
        {
          "internalType": "bool",
          "name": "_shouldClaimEsDfx",
          "type": "bool"
        },
        {
          "internalType": "bool",
          "name": "_shouldStakeEsDfx",
          "type": "bool"
        },
        {
          "internalType": "bool",
          "name": "_shouldStakeMultiplierPoints",
          "type": "bool"
        },
        {
          "internalType": "bool",
          "name": "_shouldClaimWeth",
          "type": "bool"
        },
        {
          "internalType": "bool",
          "name": "_shouldConvertWethToEth",
          "type": "bool"
        }
      ],
      "name": "handleRewards",
      "outputs": [],
      "stateMutability": "nonpayable",
      "type": "function"
    },
    {
      "inputs": [
        {
          "internalType": "address",
          "name": "dfx_",
          "type": "address"
        },
        {
          "internalType": "address",
          "name": "_esDfx",
          "type": "address"
        },
        {
          "internalType": "address",
          "name": "_bnDfx",
          "type": "address"
        },
        {
          "internalType": "address",
          "name": "_dlp",
          "type": "address"
        },
        {
          "internalType": "address",
          "name": "_dlpManager",
          "type": "address"
        },
        {
          "components": [
            {
              "internalType": "address",
              "name": "stakedDfxTracker",
              "type": "address"
            },
            {
              "internalType": "address",
              "name": "stakedDlpTracker",
              "type": "address"
            },
            {
              "internalType": "address",
              "name": "feeDfxTracker",
              "type": "address"
            },
            {
              "internalType": "address",
              "name": "feeDlpTracker",
              "type": "address"
            },
            {
              "internalType": "address",
              "name": "bonusDfxTracker",
              "type": "address"
            }
          ],
          "internalType": "struct Trackers",
          "name": "_trackers",
          "type": "tuple"
        },
        {
          "components": [
            {
              "internalType": "address",
              "name": "dfx",
              "type": "address"
            },
            {
              "internalType": "address",
              "name": "dlp",
              "type": "address"
            }
          ],
          "internalType": "struct Vesters",
          "name": "_vesters",
          "type": "tuple"
        }
      ],
      "name": "initialize",
      "outputs": [],
      "stateMutability": "nonpayable",
      "type": "function"
    },
    {
      "inputs": [],
      "name": "isInitialized",
      "outputs": [
        {
          "internalType": "bool",
          "name": "",
          "type": "bool"
        }
      ],
      "stateMutability": "view",
      "type": "function"
    },
    {
      "inputs": [
        {
          "internalType": "address",
          "name": "_token",
          "type": "address"
        },
        {
          "internalType": "uint256",
          "name": "_amount",
          "type": "uint256"
        },
        {
          "internalType": "uint256",
          "name": "_minUsdg",
          "type": "uint256"
        },
        {
          "internalType": "uint256",
          "name": "_minDlp",
          "type": "uint256"
        }
      ],
      "name": "mintAndStakeDlp",
      "outputs": [
        {
          "internalType": "uint256",
          "name": "",
          "type": "uint256"
        }
      ],
      "stateMutability": "nonpayable",
      "type": "function"
    },
    {
      "inputs": [
        {
          "internalType": "uint256",
          "name": "_minUsdg",
          "type": "uint256"
        },
        {
          "internalType": "uint256",
          "name": "_minDlp",
          "type": "uint256"
        }
      ],
      "name": "mintAndStakeDlpETH",
      "outputs": [
        {
          "internalType": "uint256",
          "name": "",
          "type": "uint256"
        }
      ],
      "stateMutability": "payable",
      "type": "function"
    },
    {
      "inputs": [
        {
          "internalType": "address",
          "name": "",
          "type": "address"
        }
      ],
      "name": "pendingReceivers",
      "outputs": [
        {
          "internalType": "address",
          "name": "",
          "type": "address"
        }
      ],
      "stateMutability": "view",
      "type": "function"
    },
    {
      "inputs": [
        {
          "internalType": "address",
          "name": "_gov",
          "type": "address"
        }
      ],
      "name": "setGov",
      "outputs": [],
      "stateMutability": "nonpayable",
      "type": "function"
    },
    {
      "inputs": [
        {
          "internalType": "address",
          "name": "_receiver",
          "type": "address"
        }
      ],
      "name": "signalTransfer",
      "outputs": [],
      "stateMutability": "nonpayable",
      "type": "function"
    },
    {
      "inputs": [
        {
          "internalType": "uint256",
          "name": "_amount",
          "type": "uint256"
        }
      ],
      "name": "stakeDfx",
      "outputs": [],
      "stateMutability": "nonpayable",
      "type": "function"
    },
    {
      "inputs": [
        {
          "internalType": "address",
          "name": "_account",
          "type": "address"
        },
        {
          "internalType": "uint256",
          "name": "_amount",
          "type": "uint256"
        }
      ],
      "name": "stakeDfxForAccount",
      "outputs": [],
      "stateMutability": "nonpayable",
      "type": "function"
    },
    {
      "inputs": [
        {
          "internalType": "uint256",
          "name": "_amount",
          "type": "uint256"
        }
      ],
      "name": "stakeEsDfx",
      "outputs": [],
      "stateMutability": "nonpayable",
      "type": "function"
    },
    {
      "inputs": [],
      "name": "stakedDfxTracker",
      "outputs": [
        {
          "internalType": "address",
          "name": "",
          "type": "address"
        }
      ],
      "stateMutability": "view",
      "type": "function"
    },
    {
      "inputs": [],
      "name": "stakedDlpTracker",
      "outputs": [
        {
          "internalType": "address",
          "name": "",
          "type": "address"
        }
      ],
      "stateMutability": "view",
      "type": "function"
    },
    {
      "inputs": [
        {
          "internalType": "address",
          "name": "_tokenOut",
          "type": "address"
        },
        {
          "internalType": "uint256",
          "name": "_dlpAmount",
          "type": "uint256"
        },
        {
          "internalType": "uint256",
          "name": "_minOut",
          "type": "uint256"
        },
        {
          "internalType": "address",
          "name": "_receiver",
          "type": "address"
        }
      ],
      "name": "unstakeAndRedeemDlp",
      "outputs": [
        {
          "internalType": "uint256",
          "name": "",
          "type": "uint256"
        }
      ],
      "stateMutability": "nonpayable",
      "type": "function"
    },
    {
      "inputs": [
        {
          "internalType": "uint256",
          "name": "_dlpAmount",
          "type": "uint256"
        },
        {
          "internalType": "uint256",
          "name": "_minOut",
          "type": "uint256"
        },
        {
          "internalType": "address payable",
          "name": "_receiver",
          "type": "address"
        }
      ],
      "name": "unstakeAndRedeemDlpETH",
      "outputs": [
        {
          "internalType": "uint256",
          "name": "",
          "type": "uint256"
        }
      ],
      "stateMutability": "nonpayable",
      "type": "function"
    },
    {
      "inputs": [
        {
          "internalType": "uint256",
          "name": "_amount",
          "type": "uint256"
        }
      ],
      "name": "unstakeDfx",
      "outputs": [],
      "stateMutability": "nonpayable",
      "type": "function"
    },
    {
      "inputs": [
        {
          "internalType": "uint256",
          "name": "_amount",
          "type": "uint256"
        }
      ],
      "name": "unstakeEsDfx",
      "outputs": [],
      "stateMutability": "nonpayable",
      "type": "function"
    },
    {
      "inputs": [],
      "name": "weth",
      "outputs": [
        {
          "internalType": "address",
          "name": "",
          "type": "address"
        }
      ],
      "stateMutability": "view",
      "type": "function"
    },
    {
      "inputs": [
        {
          "internalType": "address",
          "name": "_token",
          "type": "address"
        },
        {
          "internalType": "address",
          "name": "_account",
          "type": "address"
        },
        {
          "internalType": "uint256",
          "name": "_amount",
          "type": "uint256"
        }
      ],
      "name": "withdrawToken",
      "outputs": [],
      "stateMutability": "nonpayable",
      "type": "function"
    },
    {
      "stateMutability": "payable",
      "type": "receive"
    }
  ],
  "bytecode": "0x60a06040523480156200001157600080fd5b5060405162004d5238038062004d5283398101604081905262000034916200005d565b6001600081905580546001600160a01b031916331790556001600160a01b03166080526200008f565b6000602082840312156200007057600080fd5b81516001600160a01b03811681146200008857600080fd5b9392505050565b608051614c76620000dc60003960008181610239015281816104c101528181610b3401528181610bcb01528181610c70015281816112ba015281816127da01526128820152614c766000f3fe6080604052600436106102295760003560e01c80634e71d92d11610123578063af2631fe116100ab578063ed12a2c71161006f578063ed12a2c714610703578063ef9aacfd14610723578063f1992b8f14610743578063f69e204614610763578063fbf950211461077857600080fd5b8063af2631fe14610658578063bb090d7214610678578063cfad57a214610698578063d294f093146106b8578063e1b9db89146106cd57600080fd5b80636fd8fab6116100f25780636fd8fab6146105b8578063719712b6146105d857806374937a43146105f857806398885f8214610618578063ae7b20bd1461063857600080fd5b80634e71d92d1461054357806352094de51461055857806357e2f91f14610578578063655603a41461059857600080fd5b80632a9f4083116101b15780633acbfc49116101755780633acbfc491461048f5780633fc8cef3146104af57806344c8a06e146104e357806348319d2a146105035780634d7d6dd91461052357600080fd5b80632a9f4083146103dd5780632c3c1535146103fd5780632fa5b6571461041d57806330b700021461043e578063392e53cd1461045e57600080fd5b80631a1c26d4116101f85780631a1c26d41461033d5780631af276a61461035d5780631b52cbbd1461037d5780631c1427961461039d5780632198c3b4146103bd57600080fd5b806301e33667146102ab57806302a514f4146102cb57806312d43a51146102e057806317707d9b1461031d57600080fd5b366102a657336001600160a01b037f000000000000000000000000000000000000000000000000000000000000000016146102a45760405162461bcd60e51b81526020600482015260166024820152752937baba32b91d1034b73b30b634b21039b2b73232b960511b60448201526064015b60405180910390fd5b005b600080fd5b3480156102b757600080fd5b506102a46102c6366004614363565b610798565b3480156102d757600080fd5b506102a46107de565b3480156102ec57600080fd5b50600154610300906001600160a01b031681565b6040516001600160a01b0390911681526020015b60405180910390f35b34801561032957600080fd5b50600254610300906001600160a01b031681565b34801561034957600080fd5b506102a46103583660046143a4565b6108fa565b34801561036957600080fd5b506102a46103783660046144c5565b610944565b34801561038957600080fd5b506102a46103983660046143a4565b6109d9565b3480156103a957600080fd5b50600654610300906001600160a01b031681565b3480156103c957600080fd5b506102a46103d83660046143a4565b610a1b565b3480156103e957600080fd5b506102a46103f8366004614502565b610a5d565b34801561040957600080fd5b50600c54610300906001600160a01b031681565b61043061042b36600461451f565b610abb565b604051908152602001610314565b34801561044a57600080fd5b506102a461045936600461454f565b610e0d565b34801561046a57600080fd5b5060015461047f90600160a01b900460ff1681565b6040519015158152602001610314565b34801561049b57600080fd5b50600854610300906001600160a01b031681565b3480156104bb57600080fd5b506103007f000000000000000000000000000000000000000000000000000000000000000081565b3480156104ef57600080fd5b50600354610300906001600160a01b031681565b34801561050f57600080fd5b506102a461051e3660046143a4565b611438565b34801561052f57600080fd5b50600954610300906001600160a01b031681565b34801561054f57600080fd5b506102a461147a565b34801561056457600080fd5b50600d54610300906001600160a01b031681565b34801561058457600080fd5b506104306105933660046145e5565b6115c0565b3480156105a457600080fd5b506102a46105b3366004614502565b6117b8565b3480156105c457600080fd5b50600554610300906001600160a01b031681565b3480156105e457600080fd5b506102a46105f3366004614620565b612069565b34801561060457600080fd5b50600a54610300906001600160a01b031681565b34801561062457600080fd5b50600754610300906001600160a01b031681565b34801561064457600080fd5b506104306106533660046146db565b612131565b34801561066457600080fd5b506102a4610673366004614788565b612353565b34801561068457600080fd5b506102a4610693366004614889565b6124dd565b3480156106a457600080fd5b506102a46106b3366004614502565b61254c565b3480156106c457600080fd5b506102a461259b565b3480156106d957600080fd5b506103006106e8366004614502565b600e602052600090815260409020546001600160a01b031681565b34801561070f57600080fd5b5061043061071e3660046148b5565b61266b565b34801561072f57600080fd5b506102a461073e366004614502565b61294a565b34801561074f57600080fd5b50600b54610300906001600160a01b031681565b34801561076f57600080fd5b506102a4612ac1565b34801561078457600080fd5b50600454610300906001600160a01b031681565b6001546001600160a01b031633146107c55733604051630aa275af60e21b815260040161029b91906148ee565b6107d96001600160a01b0384168383612af9565b505050565b600260005403610801576040516306fda65d60e31b815260040160405180910390fd5b60026000556006546040516309f4173d60e11b815233916001600160a01b0316906313e82e7a906108389084908190600401614921565b6020604051808303816000875af1158015610857573d6000803e3d6000fd5b505050506040513d601f19601f8201168201806040525081019061087b919061493b565b506009546040516309f4173d60e11b81526001600160a01b03909116906313e82e7a906108ae9084908190600401614921565b6020604051808303816000875af11580156108cd573d6000803e3d6000fd5b505050506040513d601f19601f820116820180604052508101906108f1919061493b565b50506001600055565b60026000540361091d576040516306fda65d60e31b815260040160405180910390fd5b600260005560035461093c9033906001600160a01b0316836001612b4b565b506001600055565b600260005403610967576040516306fda65d60e31b815260040160405180910390fd5b60026000556001546001600160a01b031633146109995733604051630aa275af60e21b815260040161029b91906148ee565b60005b81518110156108f1576109c78282815181106109ba576109ba614954565b6020026020010151612fd4565b806109d181614980565b91505061099c565b6002600054036109fc576040516306fda65d60e31b815260040160405180910390fd5b600260005560035461093c90339081906001600160a01b031684612fe9565b600260005403610a3e576040516306fda65d60e31b815260040160405180910390fd5b600260008190555461093c9033906001600160a01b0316836001612b4b565b600260005403610a80576040516306fda65d60e31b815260040160405180910390fd5b60026000556001546001600160a01b03163314610ab25733604051630aa275af60e21b815260040161029b91906148ee565b61093c81612fd4565b6000600260005403610ae0576040516306fda65d60e31b815260040160405180910390fd5b600260005534610b325760405162461bcd60e51b815260206004820152601f60248201527f526577617264526f757465723a20696e76616c6964206d73672e76616c756500604482015260640161029b565b7f00000000000000000000000000000000000000000000000000000000000000006001600160a01b031663d0e30db0346040518263ffffffff1660e01b81526004016000604051808303818588803b158015610b8d57600080fd5b505af1158015610ba1573d6000803e3d6000fd5b5050600b5460405163095ea7b360e01b81526001600160a01b0391821660048201523460248201527f0000000000000000000000000000000000000000000000000000000000000000909116935063095ea7b3925060440190506020604051808303816000875af1158015610c1a573d6000803e3d6000fd5b505050506040513d601f19601f82011682018060405250810190610c3e9190614999565b50600b546040516317eb2a1560e01b815233916000916001600160a01b03909116906317eb2a1590610c9e90309086907f00000000000000000000000000000000000000000000000000000000000000009034908c908c906004016149b6565b6020604051808303816000875af1158015610cbd573d6000803e3d6000fd5b505050506040513d601f19601f82011682018060405250810190610ce1919061493b565b600a54600554604051631e42d69b60e21b81529293506001600160a01b039182169263790b5a6c92610d1f92879283929091169087906004016149ef565b600060405180830381600087803b158015610d3957600080fd5b505af1158015610d4d573d6000803e3d6000fd5b5050600954600a54604051631e42d69b60e21b81526001600160a01b03928316945063790b5a6c9350610d8b928792839291169087906004016149ef565b600060405180830381600087803b158015610da557600080fd5b505af1158015610db9573d6000803e3d6000fd5b5050604080516001600160a01b0386168152602081018590527f0f29be1dde644188b51494b5f0ade9b1af9e356b987cca3430202907842437d8935001905060405180910390a16001600055949350505050565b600260005403610e30576040516306fda65d60e31b815260040160405180910390fd5b6002600090815533908815610f4157600c546040516309f4173d60e11b81526000916001600160a01b0316906313e82e7a90610e729086908190600401614921565b6020604051808303816000875af1158015610e91573d6000803e3d6000fd5b505050506040513d601f19601f82011682018060405250810190610eb5919061493b565b600d546040516309f4173d60e11b81529192506000916001600160a01b03909116906313e82e7a90610eed9087908190600401614921565b6020604051808303816000875af1158015610f0c573d6000803e3d6000fd5b505050506040513d601f19601f82011682018060405250810190610f30919061493b565b9050610f3c8183614a19565b925050505b878015610f4e5750600081115b15610f6d57600254610f6d90839081906001600160a01b031684612fe9565b60008715611077576006546040516309f4173d60e11b81526000916001600160a01b0316906313e82e7a90610fa89087908190600401614921565b6020604051808303816000875af1158015610fc7573d6000803e3d6000fd5b505050506040513d601f19601f82011682018060405250810190610feb919061493b565b6009546040516309f4173d60e11b81529192506000916001600160a01b03909116906313e82e7a906110239088908190600401614921565b6020604051808303816000875af1158015611042573d6000803e3d6000fd5b505050506040513d601f19601f82011682018060405250810190611066919061493b565b90506110728183614a19565b925050505b8680156110845750600081115b156110a3576003546110a390849081906001600160a01b031684612fe9565b8515611196576007546040516309f4173d60e11b81526000916001600160a01b0316906313e82e7a906110dc9087908190600401614921565b6020604051808303816000875af11580156110fb573d6000803e3d6000fd5b505050506040513d601f19601f8201168201806040525081019061111f919061493b565b905080156111945760085460048054604051631e42d69b60e21b81526001600160a01b039384169363790b5a6c93611161938a938493909116918891016149ef565b600060405180830381600087803b15801561117b57600080fd5b505af115801561118f573d6000803e3d6000fd5b505050505b505b841561142757831561133a576008546040516309f4173d60e11b81526000916001600160a01b0316906313e82e7a906111d59087903090600401614921565b6020604051808303816000875af11580156111f4573d6000803e3d6000fd5b505050506040513d601f19601f82011682018060405250810190611218919061493b565b600a546040516309f4173d60e11b81529192506000916001600160a01b03909116906313e82e7a906112509088903090600401614921565b6020604051808303816000875af115801561126f573d6000803e3d6000fd5b505050506040513d601f19601f82011682018060405250810190611293919061493b565b905060006112a18284614a19565b604051632e1a7d4d60e01b8152600481018290529091507f00000000000000000000000000000000000000000000000000000000000000006001600160a01b031690632e1a7d4d90602401600060405180830381600087803b15801561130657600080fd5b505af115801561131a573d6000803e3d6000fd5b50611332925050506001600160a01b0387168261319b565b505050611427565b6008546040516309f4173d60e11b81526001600160a01b03909116906313e82e7a9061136c9086908190600401614921565b6020604051808303816000875af115801561138b573d6000803e3d6000fd5b505050506040513d601f19601f820116820180604052508101906113af919061493b565b50600a546040516309f4173d60e11b81526001600160a01b03909116906313e82e7a906113e29086908190600401614921565b6020604051808303816000875af1158015611401573d6000803e3d6000fd5b505050506040513d601f19601f82011682018060405250810190611425919061493b565b505b505060016000555050505050505050565b60026000540361145b576040516306fda65d60e31b815260040160405180910390fd5b600260008190555461093c90339081906001600160a01b031684612fe9565b60026000540361149d576040516306fda65d60e31b815260040160405180910390fd5b60026000556008546040516309f4173d60e11b815233916001600160a01b0316906313e82e7a906114d49084908190600401614921565b6020604051808303816000875af11580156114f3573d6000803e3d6000fd5b505050506040513d601f19601f82011682018060405250810190611517919061493b565b50600a546040516309f4173d60e11b81526001600160a01b03909116906313e82e7a9061154a9084908190600401614921565b6020604051808303816000875af1158015611569573d6000803e3d6000fd5b505050506040513d601f19601f8201168201806040525081019061158d919061493b565b506006546040516309f4173d60e11b81526001600160a01b03909116906313e82e7a906108389084908190600401614921565b60006002600054036115e5576040516306fda65d60e31b815260040160405180910390fd5b6002600055836116075760405162461bcd60e51b815260040161029b90614a32565b600b546040516317eb2a1560e01b815233916000916001600160a01b03909116906317eb2a159061164690859081908c908c908c908c906004016149b6565b6020604051808303816000875af1158015611665573d6000803e3d6000fd5b505050506040513d601f19601f82011682018060405250810190611689919061493b565b600a54600554604051631e42d69b60e21b81529293506001600160a01b039182169263790b5a6c926116c792879283929091169087906004016149ef565b600060405180830381600087803b1580156116e157600080fd5b505af11580156116f5573d6000803e3d6000fd5b5050600954600a54604051631e42d69b60e21b81526001600160a01b03928316945063790b5a6c9350611733928792839291169087906004016149ef565b600060405180830381600087803b15801561174d57600080fd5b505af1158015611761573d6000803e3d6000fd5b5050604080516001600160a01b0386168152602081018590527f0f29be1dde644188b51494b5f0ade9b1af9e356b987cca3430202907842437d893500190505b60405180910390a160016000559695505050505050565b6002600054036117db576040516306fda65d60e31b815260040160405180910390fd5b6002600055600c546040516370a0823160e01b81526001600160a01b038381166004830152909116906370a0823190602401602060405180830381865afa15801561182a573d6000803e3d6000fd5b505050506040513d601f19601f8201168201806040525081019061184e919061493b565b1561186b5760405162461bcd60e51b815260040161029b90614a69565b600d546040516370a0823160e01b81526001600160a01b038381166004830152909116906370a0823190602401602060405180830381865afa1580156118b5573d6000803e3d6000fd5b505050506040513d601f19601f820116820180604052508101906118d9919061493b565b156118f65760405162461bcd60e51b815260040161029b90614a69565b6001600160a01b038181166000908152600e6020526040902054339116811461196d5760405162461bcd60e51b8152602060048201526024808201527f526577617264526f757465723a207472616e73666572206e6f74207369676e616044820152631b1b195960e21b606482015260840161029b565b6001600160a01b0382166000908152600e6020526040902080546001600160a01b031916905561199c816132b4565b6119a582612fd4565b600654600254604051637aeceb1f60e11b81526000926001600160a01b039081169263f5d9d63e926119dd9288921690600401614921565b602060405180830381865afa1580156119fa573d6000803e3d6000fd5b505050506040513d601f19601f82011682018060405250810190611a1e919061493b565b90508015611a5a57600254611a409084906001600160a01b0316836000612b4b565b600254611a5a90849084906001600160a01b031684612fe9565b600654600354604051637aeceb1f60e11b81526000926001600160a01b039081169263f5d9d63e92611a929289921690600401614921565b602060405180830381865afa158015611aaf573d6000803e3d6000fd5b505050506040513d601f19601f82011682018060405250810190611ad3919061493b565b90508015611b0f57600354611af59085906001600160a01b0316836000612b4b565b600354611b0f90859085906001600160a01b031684612fe9565b60085460048054604051637aeceb1f60e11b81526000936001600160a01b039081169363f5d9d63e93611b48938b939091169101614921565b602060405180830381865afa158015611b65573d6000803e3d6000fd5b505050506040513d601f19601f82011682018060405250810190611b89919061493b565b90508015611c69576008546004805460405163098bf59d60e01b81526001600160a01b039384169363098bf59d93611bca938b939216918791849101614aaf565b600060405180830381600087803b158015611be457600080fd5b505af1158015611bf8573d6000803e3d6000fd5b505060085460048054604051631e42d69b60e21b81526001600160a01b03938416955063790b5a6c9450611c36938b938b93909116918891016149ef565b600060405180830381600087803b158015611c5057600080fd5b505af1158015611c64573d6000803e3d6000fd5b505050505b6003546040516370a0823160e01b81526001600160a01b03878116600483015260009216906370a0823190602401602060405180830381865afa158015611cb4573d6000803e3d6000fd5b505050506040513d601f19601f82011682018060405250810190611cd8919061493b565b90508015611d61576003546040516323b872dd60e01b81526001600160a01b038881166004830152878116602483015260448201849052909116906323b872dd906064016020604051808303816000875af1158015611d3b573d6000803e3d6000fd5b505050506040513d601f19601f82011682018060405250810190611d5f9190614999565b505b600a54600554604051637aeceb1f60e11b81526000926001600160a01b039081169263f5d9d63e92611d99928c921690600401614921565b602060405180830381865afa158015611db6573d6000803e3d6000fd5b505050506040513d601f19601f82011682018060405250810190611dda919061493b565b90508015611f9357600954600a5460405163098bf59d60e01b81526001600160a01b039283169263098bf59d92611e1d928c929091169086908390600401614aaf565b600060405180830381600087803b158015611e3757600080fd5b505af1158015611e4b573d6000803e3d6000fd5b5050600a5460055460405163098bf59d60e01b81526001600160a01b03928316945063098bf59d9350611e88928c92169086908390600401614aaf565b600060405180830381600087803b158015611ea257600080fd5b505af1158015611eb6573d6000803e3d6000fd5b5050600a54600554604051631e42d69b60e21b81526001600160a01b03928316945063790b5a6c9350611ef4928c928c9291169087906004016149ef565b600060405180830381600087803b158015611f0e57600080fd5b505af1158015611f22573d6000803e3d6000fd5b5050600954600a54604051631e42d69b60e21b81526001600160a01b03928316945063790b5a6c9350611f60928b92839291169087906004016149ef565b600060405180830381600087803b158015611f7a57600080fd5b505af1158015611f8e573d6000803e3d6000fd5b505050505b600c54604051630f713c2360e41b81526001600160a01b039091169063f713c23090611fc5908a908a90600401614921565b600060405180830381600087803b158015611fdf57600080fd5b505af1158015611ff3573d6000803e3d6000fd5b5050600d54604051630f713c2360e41b81526001600160a01b03909116925063f713c2309150612029908a908a90600401614921565b600060405180830381600087803b15801561204357600080fd5b505af1158015612057573d6000803e3d6000fd5b50506001600055505050505050505050565b60026000540361208c576040516306fda65d60e31b815260040160405180910390fd5b60026000556001546001600160a01b031633146120be5733604051630aa275af60e21b815260040161029b91906148ee565b6002546001600160a01b031660005b835181101561212657612114338583815181106120ec576120ec614954565b60200260200101518486858151811061210757612107614954565b6020026020010151612fe9565b8061211e81614980565b9150506120cd565b505060016000555050565b6000600260005403612156576040516306fda65d60e31b815260040160405180910390fd5b6002600055836121a85760405162461bcd60e51b815260206004820181905260248201527f526577617264526f757465723a20696e76616c6964205f646c70416d6f756e74604482015260640161029b565b600954600a5460405163098bf59d60e01b815233926001600160a01b039081169263098bf59d926121e392869216908a908390600401614aaf565b600060405180830381600087803b1580156121fd57600080fd5b505af1158015612211573d6000803e3d6000fd5b5050600a5460055460405163098bf59d60e01b81526001600160a01b03928316945063098bf59d935061224e92869216908a908390600401614aaf565b600060405180830381600087803b15801561226857600080fd5b505af115801561227c573d6000803e3d6000fd5b5050600b546040516371d597ad60e01b81526001600160a01b0385811660048301528a81166024830152604482018a90526064820189905287811660848301526000945090911691506371d597ad9060a4016020604051808303816000875af11580156122ed573d6000803e3d6000fd5b505050506040513d601f19601f82011682018060405250810190612311919061493b565b604080516001600160a01b0385168152602081018990529192507fe6de574619aa06acc3fca433d0757f3e97d2670888a10cfc879262c3cc547c4391016117a1565b6001546001600160a01b031633146123805733604051630aa275af60e21b815260040161029b91906148ee565b600154600160a01b900460ff16156123e45760405162461bcd60e51b815260206004820152602160248201527f526577617264526f757465723a20616c726561647920696e697469616c697a656044820152601960fa1b606482015260840161029b565b60018054600160a01b60ff60a01b19909116179055600280546001600160a01b03199081166001600160a01b03998a16179091556003805482169789169790971790965560048054871695881695909517909455600580548616938716939093179092558151600680548616918716919091179055608082015160078054861691871691909117905560408201516008805486169187169190911790556060820151600a80548616918716919091179055602091820151600980548616918716919091179055600b805485169186169190911790558151600c805485169186169190911790550151600d80549092169216919091179055565b600260005403612500576040516306fda65d60e31b815260040160405180910390fd5b60026000556001546001600160a01b031633146125325733604051630aa275af60e21b815260040161029b91906148ee565b6002546108f190339084906001600160a01b031684612fe9565b6001546001600160a01b031633146125795733604051630aa275af60e21b815260040161029b91906148ee565b600180546001600160a01b0319166001600160a01b0392909216919091179055565b6002600054036125be576040516306fda65d60e31b815260040160405180910390fd5b60026000556008546040516309f4173d60e11b815233916001600160a01b0316906313e82e7a906125f59084908190600401614921565b6020604051808303816000875af1158015612614573d6000803e3d6000fd5b505050506040513d601f19601f82011682018060405250810190612638919061493b565b50600a546040516309f4173d60e11b81526001600160a01b03909116906313e82e7a906108ae9084908190600401614921565b6000600260005403612690576040516306fda65d60e31b815260040160405180910390fd5b6002600055836126e25760405162461bcd60e51b815260206004820181905260248201527f526577617264526f757465723a20696e76616c6964205f646c70416d6f756e74604482015260640161029b565b600954600a5460405163098bf59d60e01b815233926001600160a01b039081169263098bf59d9261271d92869216908a908390600401614aaf565b600060405180830381600087803b15801561273757600080fd5b505af115801561274b573d6000803e3d6000fd5b5050600a5460055460405163098bf59d60e01b81526001600160a01b03928316945063098bf59d935061278892869216908a908390600401614aaf565b600060405180830381600087803b1580156127a257600080fd5b505af11580156127b6573d6000803e3d6000fd5b5050600b546040516371d597ad60e01b81526001600160a01b0385811660048301527f000000000000000000000000000000000000000000000000000000000000000081166024830152604482018a9052606482018990523060848301526000945090911691506371d597ad9060a4016020604051808303816000875af1158015612845573d6000803e3d6000fd5b505050506040513d601f19601f82011682018060405250810190612869919061493b565b604051632e1a7d4d60e01b8152600481018290529091507f00000000000000000000000000000000000000000000000000000000000000006001600160a01b031690632e1a7d4d90602401600060405180830381600087803b1580156128ce57600080fd5b505af11580156128e2573d6000803e3d6000fd5b506128fa925050506001600160a01b0385168261319b565b604080516001600160a01b0384168152602081018890527fe6de574619aa06acc3fca433d0757f3e97d2670888a10cfc879262c3cc547c43910160405180910390a1600160005595945050505050565b60026000540361296d576040516306fda65d60e31b815260040160405180910390fd5b6002600055600c546040516370a0823160e01b81523360048201526001600160a01b03909116906370a0823190602401602060405180830381865afa1580156129ba573d6000803e3d6000fd5b505050506040513d601f19601f820116820180604052508101906129de919061493b565b156129fb5760405162461bcd60e51b815260040161029b90614a69565b600d546040516370a0823160e01b81523360048201526001600160a01b03909116906370a0823190602401602060405180830381865afa158015612a43573d6000803e3d6000fd5b505050506040513d601f19601f82011682018060405250810190612a67919061493b565b15612a845760405162461bcd60e51b815260040161029b90614a69565b612a8d816132b4565b336000908152600e6020526040812080546001600160a01b0319166001600160a01b03939093169290921790915560019055565b600260005403612ae4576040516306fda65d60e31b815260040160405180910390fd5b6002600055612af233612fd4565b6001600055565b604080516001600160a01b038416602482015260448082018490528251808303909101815260649091019091526020810180516001600160e01b031663a9059cbb60e01b1790526107d9908490613edf565b60008211612b6b5760405162461bcd60e51b815260040161029b90614a32565b6006546040516310c1c10360e01b81526001600160a01b03868116600483015260009216906310c1c10390602401602060405180830381865afa158015612bb6573d6000803e3d6000fd5b505050506040513d601f19601f82011682018060405250810190612bda919061493b565b60085460075460405163098bf59d60e01b81529293506001600160a01b039182169263098bf59d92612c17928a9291169088908390600401614aaf565b600060405180830381600087803b158015612c3157600080fd5b505af1158015612c45573d6000803e3d6000fd5b505060075460065460405163098bf59d60e01b81526001600160a01b03928316945063098bf59d9350612c82928a92169088908390600401614aaf565b600060405180830381600087803b158015612c9c57600080fd5b505af1158015612cb0573d6000803e3d6000fd5b505060065460405163098bf59d60e01b81526001600160a01b03909116925063098bf59d9150612cea908890889088908390600401614aaf565b600060405180830381600087803b158015612d0457600080fd5b505af1158015612d18573d6000803e3d6000fd5b505050508115612f82576007546040516309f4173d60e11b81526000916001600160a01b0316906313e82e7a90612d559089908190600401614921565b6020604051808303816000875af1158015612d74573d6000803e3d6000fd5b505050506040513d601f19601f82011682018060405250810190612d98919061493b565b90508015612e0d5760085460048054604051631e42d69b60e21b81526001600160a01b039384169363790b5a6c93612dda938c938493909116918891016149ef565b600060405180830381600087803b158015612df457600080fd5b505af1158015612e08573d6000803e3d6000fd5b505050505b60085460048054604051637aeceb1f60e11b81526000936001600160a01b039081169363f5d9d63e93612e46938d939091169101614921565b602060405180830381865afa158015612e63573d6000803e3d6000fd5b505050506040513d601f19601f82011682018060405250810190612e87919061493b565b90508015612f7f57600083612e9c8784614ada565b612ea69190614af1565b6008546004805460405163098bf59d60e01b81529394506001600160a01b039283169363098bf59d93612ee3938e93909116918791849101614aaf565b600060405180830381600087803b158015612efd57600080fd5b505af1158015612f11573d6000803e3d6000fd5b505060048054604051632770a7eb60e21b81526001600160a01b038d8116938201939093526024810186905291169250639dc29fac9150604401600060405180830381600087803b158015612f6557600080fd5b505af1158015612f79573d6000803e3d6000fd5b50505050505b50505b604080516001600160a01b038088168252861660208201529081018490527fcc600a32c554cfb9e23e1400709dc61ea7a32c3673539af1740bce6c4333770c9060600160405180910390a15050505050565b612fdd81613fb1565b612fe681614138565b50565b600081116130095760405162461bcd60e51b815260040161029b90614a32565b600654604051631e42d69b60e21b81526001600160a01b039091169063790b5a6c9061303f9087908790879087906004016149ef565b600060405180830381600087803b15801561305957600080fd5b505af115801561306d573d6000803e3d6000fd5b5050600754600654604051631e42d69b60e21b81526001600160a01b03928316945063790b5a6c93506130ab928892839291169087906004016149ef565b600060405180830381600087803b1580156130c557600080fd5b505af11580156130d9573d6000803e3d6000fd5b5050600854600754604051631e42d69b60e21b81526001600160a01b03928316945063790b5a6c9350613117928892839291169087906004016149ef565b600060405180830381600087803b15801561313157600080fd5b505af1158015613145573d6000803e3d6000fd5b5050604080516001600160a01b038088168252861660208201529081018490527f9c736e5d304143d4d31d04bd6a17dc4266f187b7ac8e5c040b65a83a745f744d9250606001905060405180910390a150505050565b804710156131eb5760405162461bcd60e51b815260206004820152601d60248201527f416464726573733a20696e73756666696369656e742062616c616e6365000000604482015260640161029b565b6000826001600160a01b03168260405160006040518083038185875af1925050503d8060008114613238576040519150601f19603f3d011682016040523d82523d6000602084013e61323d565b606091505b50509050806107d95760405162461bcd60e51b815260206004820152603a60248201527f416464726573733a20756e61626c6520746f2073656e642076616c75652c207260448201527f6563697069656e74206d61792068617665207265766572746564000000000000606482015260840161029b565b60065460405163a318021760e01b81526001600160a01b0383811660048301529091169063a318021790602401602060405180830381865afa1580156132fe573d6000803e3d6000fd5b505050506040513d601f19601f82011682018060405250810190613322919061493b565b1561338f5760405162461bcd60e51b815260206004820152603760248201527f526577617264526f757465723a207374616b6564446678547261636b65722e6160448201527607665726167655374616b6564416d6f756e7473203e203604c1b606482015260840161029b565b600654604051633792def360e01b81526001600160a01b03838116600483015290911690633792def390602401602060405180830381865afa1580156133d9573d6000803e3d6000fd5b505050506040513d601f19601f820116820180604052508101906133fd919061493b565b156134675760405162461bcd60e51b815260206004820152603460248201527f526577617264526f757465723a207374616b6564446678547261636b65722e636044820152730756d756c617469766552657761726473203e20360641b606482015260840161029b565b60075460405163a318021760e01b81526001600160a01b0383811660048301529091169063a318021790602401602060405180830381865afa1580156134b1573d6000803e3d6000fd5b505050506040513d601f19601f820116820180604052508101906134d5919061493b565b156135415760405162461bcd60e51b815260206004820152603660248201527f526577617264526f757465723a20626f6e7573446678547261636b65722e6176604482015275065726167655374616b6564416d6f756e7473203e20360541b606482015260840161029b565b600754604051633792def360e01b81526001600160a01b03838116600483015290911690633792def390602401602060405180830381865afa15801561358b573d6000803e3d6000fd5b505050506040513d601f19601f820116820180604052508101906135af919061493b565b156136185760405162461bcd60e51b815260206004820152603360248201527f526577617264526f757465723a20626f6e7573446678547261636b65722e637560448201527206d756c617469766552657761726473203e203606c1b606482015260840161029b565b60085460405163a318021760e01b81526001600160a01b0383811660048301529091169063a318021790602401602060405180830381865afa158015613662573d6000803e3d6000fd5b505050506040513d601f19601f82011682018060405250810190613686919061493b565b156136f05760405162461bcd60e51b815260206004820152603460248201527f526577617264526f757465723a20666565446678547261636b65722e6176657260448201527306167655374616b6564416d6f756e7473203e20360641b606482015260840161029b565b600854604051633792def360e01b81526001600160a01b03838116600483015290911690633792def390602401602060405180830381865afa15801561373a573d6000803e3d6000fd5b505050506040513d601f19601f8201168201806040525081019061375e919061493b565b156137c55760405162461bcd60e51b815260206004820152603160248201527f526577617264526f757465723a20666565446678547261636b65722e63756d7560448201527006c617469766552657761726473203e203607c1b606482015260840161029b565b600c54604051631ccdc0d760e21b81526001600160a01b03838116600483015290911690637337035c90602401602060405180830381865afa15801561380f573d6000803e3d6000fd5b505050506040513d601f19601f82011682018060405250810190613833919061493b565b156138505760405162461bcd60e51b815260040161029b90614b13565b600c54604051635b8de71560e11b81526001600160a01b0383811660048301529091169063b71bce2a90602401602060405180830381865afa15801561389a573d6000803e3d6000fd5b505050506040513d601f19601f820116820180604052508101906138be919061493b565b156138db5760405162461bcd60e51b815260040161029b90614b70565b60095460405163a318021760e01b81526001600160a01b0383811660048301529091169063a318021790602401602060405180830381865afa158015613925573d6000803e3d6000fd5b505050506040513d601f19601f82011682018060405250810190613949919061493b565b156139b65760405162461bcd60e51b815260206004820152603760248201527f526577617264526f757465723a207374616b6564446c70547261636b65722e6160448201527607665726167655374616b6564416d6f756e7473203e203604c1b606482015260840161029b565b600954604051633792def360e01b81526001600160a01b03838116600483015290911690633792def390602401602060405180830381865afa158015613a00573d6000803e3d6000fd5b505050506040513d601f19601f82011682018060405250810190613a24919061493b565b15613a8e5760405162461bcd60e51b815260206004820152603460248201527f526577617264526f757465723a207374616b6564446c70547261636b65722e636044820152730756d756c617469766552657761726473203e20360641b606482015260840161029b565b600a5460405163a318021760e01b81526001600160a01b0383811660048301529091169063a318021790602401602060405180830381865afa158015613ad8573d6000803e3d6000fd5b505050506040513d601f19601f82011682018060405250810190613afc919061493b565b15613b665760405162461bcd60e51b815260206004820152603460248201527f526577617264526f757465723a20666565446c70547261636b65722e6176657260448201527306167655374616b6564416d6f756e7473203e20360641b606482015260840161029b565b600a54604051633792def360e01b81526001600160a01b03838116600483015290911690633792def390602401602060405180830381865afa158015613bb0573d6000803e3d6000fd5b505050506040513d601f19601f82011682018060405250810190613bd4919061493b565b15613c3b5760405162461bcd60e51b815260206004820152603160248201527f526577617264526f757465723a20666565446c70547261636b65722e63756d7560448201527006c617469766552657761726473203e203607c1b606482015260840161029b565b600d54604051631ccdc0d760e21b81526001600160a01b03838116600483015290911690637337035c90602401602060405180830381865afa158015613c85573d6000803e3d6000fd5b505050506040513d601f19601f82011682018060405250810190613ca9919061493b565b15613cc65760405162461bcd60e51b815260040161029b90614b13565b600d54604051635b8de71560e11b81526001600160a01b0383811660048301529091169063b71bce2a90602401602060405180830381865afa158015613d10573d6000803e3d6000fd5b505050506040513d601f19601f82011682018060405250810190613d34919061493b565b15613d515760405162461bcd60e51b815260040161029b90614b70565b600c546040516370a0823160e01b81526001600160a01b038381166004830152909116906370a0823190602401602060405180830381865afa158015613d9b573d6000803e3d6000fd5b505050506040513d601f19601f82011682018060405250810190613dbf919061493b565b15613e185760405162461bcd60e51b815260206004820152602360248201527f526577617264526f757465723a206466785665737465722e62616c616e63652060448201526203e20360ec1b606482015260840161029b565b600d546040516370a0823160e01b81526001600160a01b038381166004830152909116906370a0823190602401602060405180830381865afa158015613e62573d6000803e3d6000fd5b505050506040513d601f19601f82011682018060405250810190613e86919061493b565b15612fe65760405162461bcd60e51b815260206004820152602360248201527f526577617264526f757465723a20646c705665737465722e62616c616e63652060448201526203e20360ec1b606482015260840161029b565b6000613f34826040518060400160405280602081526020017f5361666545524332303a206c6f772d6c6576656c2063616c6c206661696c6564815250856001600160a01b03166141d49092919063ffffffff16565b8051909150156107d95780806020019051810190613f529190614999565b6107d95760405162461bcd60e51b815260206004820152602a60248201527f5361666545524332303a204552433230206f7065726174696f6e20646964206e6044820152691bdd081cdd58d8d9595960b21b606482015260840161029b565b6006546040516309f4173d60e11b81526000916001600160a01b0316906313e82e7a90613fe49085908190600401614921565b6020604051808303816000875af1158015614003573d6000803e3d6000fd5b505050506040513d601f19601f82011682018060405250810190614027919061493b565b905080156140495760035461404990839081906001600160a01b031684612fe9565b6007546040516309f4173d60e11b81526000916001600160a01b0316906313e82e7a9061407c9086908190600401614921565b6020604051808303816000875af115801561409b573d6000803e3d6000fd5b505050506040513d601f19601f820116820180604052508101906140bf919061493b565b905080156107d95760085460048054604051631e42d69b60e21b81526001600160a01b039384169363790b5a6c936141019389938493909116918891016149ef565b600060405180830381600087803b15801561411b57600080fd5b505af115801561412f573d6000803e3d6000fd5b50505050505050565b6009546040516309f4173d60e11b81526000916001600160a01b0316906313e82e7a9061416b9085908190600401614921565b6020604051808303816000875af115801561418a573d6000803e3d6000fd5b505050506040513d601f19601f820116820180604052508101906141ae919061493b565b905080156141d0576003546141d090839081906001600160a01b031684612fe9565b5050565b60606141e384846000856141ed565b90505b9392505050565b60608247101561424e5760405162461bcd60e51b815260206004820152602660248201527f416464726573733a20696e73756666696369656e742062616c616e636520666f6044820152651c8818d85b1b60d21b606482015260840161029b565b843b61429c5760405162461bcd60e51b815260206004820152601d60248201527f416464726573733a2063616c6c20746f206e6f6e2d636f6e7472616374000000604482015260640161029b565b600080866001600160a01b031685876040516142b89190614bf1565b60006040518083038185875af1925050503d80600081146142f5576040519150601f19603f3d011682016040523d82523d6000602084013e6142fa565b606091505b509150915061430a828286614315565b979650505050505050565b606083156143245750816141e6565b8251156143345782518084602001fd5b8160405162461bcd60e51b815260040161029b9190614c0d565b6001600160a01b0381168114612fe657600080fd5b60008060006060848603121561437857600080fd5b83356143838161434e565b925060208401356143938161434e565b929592945050506040919091013590565b6000602082840312156143b657600080fd5b5035919050565b634e487b7160e01b600052604160045260246000fd5b60405160a0810167ffffffffffffffff811182821017156143f6576143f66143bd565b60405290565b604051601f8201601f1916810167ffffffffffffffff81118282101715614425576144256143bd565b604052919050565b600067ffffffffffffffff821115614447576144476143bd565b5060051b60200190565b600082601f83011261446257600080fd5b813560206144776144728361442d565b6143fc565b82815260059290921b8401810191818101908684111561449657600080fd5b8286015b848110156144ba5780356144ad8161434e565b835291830191830161449a565b509695505050505050565b6000602082840312156144d757600080fd5b813567ffffffffffffffff8111156144ee57600080fd5b6144fa84828501614451565b949350505050565b60006020828403121561451457600080fd5b81356141e68161434e565b6000806040838503121561453257600080fd5b50508035926020909101359150565b8015158114612fe657600080fd5b600080600080600080600060e0888a03121561456a57600080fd5b873561457581614541565b9650602088013561458581614541565b9550604088013561459581614541565b945060608801356145a581614541565b935060808801356145b581614541565b925060a08801356145c581614541565b915060c08801356145d581614541565b8091505092959891949750929550565b600080600080608085870312156145fb57600080fd5b84356146068161434e565b966020860135965060408601359560600135945092505050565b6000806040838503121561463357600080fd5b823567ffffffffffffffff8082111561464b57600080fd5b61465786838701614451565b935060209150818501358181111561466e57600080fd5b85019050601f8101861361468157600080fd5b803561468f6144728261442d565b81815260059190911b820183019083810190888311156146ae57600080fd5b928401925b828410156146cc578335825292840192908401906146b3565b80955050505050509250929050565b600080600080608085870312156146f157600080fd5b84356146fc8161434e565b93506020850135925060408501359150606085013561471a8161434e565b939692955090935050565b60006040828403121561473757600080fd5b6040516040810181811067ffffffffffffffff8211171561475a5761475a6143bd565b604052905080823561476b8161434e565b8152602083013561477b8161434e565b6020919091015292915050565b60008060008060008060008789036101808112156147a557600080fd5b88356147b08161434e565b975060208901356147c08161434e565b965060408901356147d08161434e565b955060608901356147e08161434e565b945060808901356147f08161434e565b935060a0609f198201121561480457600080fd5b5061480d6143d3565b60a089013561481b8161434e565b815260c089013561482b8161434e565b602082015260e089013561483e8161434e565b60408201526101008901356148528161434e565b60608201526101208901356148668161434e565b6080820152915061487b896101408a01614725565b905092959891949750929550565b6000806040838503121561489c57600080fd5b82356148a78161434e565b946020939093013593505050565b6000806000606084860312156148ca57600080fd5b833592506020840135915060408401356148e38161434e565b809150509250925092565b6001600160a01b039190911681526040602082018190526007908201526637b7363ca3b7bb60c91b606082015260800190565b6001600160a01b0392831681529116602082015260400190565b60006020828403121561494d57600080fd5b5051919050565b634e487b7160e01b600052603260045260246000fd5b634e487b7160e01b600052601160045260246000fd5b6000600182016149925761499261496a565b5060010190565b6000602082840312156149ab57600080fd5b81516141e681614541565b6001600160a01b03968716815294861660208601529290941660408401526060830152608082019290925260a081019190915260c00190565b6001600160a01b039485168152928416602084015292166040820152606081019190915260800190565b80820180821115614a2c57614a2c61496a565b92915050565b6020808252601d908201527f526577617264526f757465723a20696e76616c6964205f616d6f756e74000000604082015260600190565b60208082526026908201527f526577617264526f757465723a2073656e646572206861732076657374656420604082015265746f6b656e7360d01b606082015260800190565b6001600160a01b03948516815292841660208401526040830191909152909116606082015260800190565b8082028115828204841417614a2c57614a2c61496a565b600082614b0e57634e487b7160e01b600052601260045260246000fd5b500490565b6020808252603b908201527f526577617264526f757465723a206466785665737465722e7472616e7366657260408201527f726564417665726167655374616b6564416d6f756e7473203e20300000000000606082015260800190565b60208082526038908201527f526577617264526f757465723a206466785665737465722e7472616e7366657260408201527f72656443756d756c617469766552657761726473203e20300000000000000000606082015260800190565b60005b83811015614be8578181015183820152602001614bd0565b50506000910152565b60008251614c03818460208701614bcd565b9190910192915050565b6020815260008251806020840152614c2c816040850160208701614bcd565b601f01601f1916919091016040019291505056fea264697066735822122027c639ec9581cab79dfe7b898f413a1376bd3eb920498a8433320d944b45645b64736f6c63430008140033",
  "linkReferences": {},
  "deployedLinkReferences": {}
}