{
  "_format": "hh-sol-artifact-1",
  "contractName": "RewardReader",
  "sourceName": "contracts/peripherals/RewardReader.sol",
  "abi": [
    {
      "inputs": [
        {
          "internalType": "address",
          "name": "_account",
          "type": "address"
        },
        {
          "internalType": "address[]",
          "name": "_depositTokens",
          "type": "address[]"
        },
        {
          "internalType": "address[]",
          "name": "_rewardTrackers",
          "type": "address[]"
        }
      ],
      "name": "getDepositBalances",
      "outputs": [
        {
          "internalType": "uint256[]",
          "name": "",
          "type": "uint256[]"
        }
      ],
      "stateMutability": "view",
      "type": "function"
    },
    {
      "inputs": [
        {
          "internalType": "address",
          "name": "_account",
          "type": "address"
        },
        {
          "internalType": "address[]",
          "name": "_rewardTrackers",
          "type": "address[]"
        }
      ],
      "name": "getStakingInfo",
      "outputs": [
        {
          "internalType": "uint256[]",
          "name": "",
          "type": "uint256[]"
        }
      ],
      "stateMutability": "view",
      "type": "function"
    },
    {
      "inputs": [
        {
          "internalType": "address",
          "name": "_account",
          "type": "address"
        },
        {
          "internalType": "address[]",
          "name": "_vesters",
          "type": "address[]"
        }
      ],
      "name": "getVestingInfoV2",
      "outputs": [
        {
          "internalType": "uint256[]",
          "name": "",
          "type": "uint256[]"
        }
      ],
      "stateMutability": "view",
      "type": "function"
    }
  ],
  "bytecode": "0x608060405234801561001057600080fd5b506113c5806100206000396000f3fe608060405234801561001057600080fd5b50600436106100415760003560e01c8063575157e414610046578063937a0be81461006f578063e1fc2a3814610082575b600080fd5b610059610054366004611188565b610095565b60405161006691906111fe565b60405180910390f35b61005961007d366004611242565b6101f9565b610059610090366004611242565b610634565b60606000825167ffffffffffffffff8111156100b3576100b3611099565b6040519080825280602002602001820160405280156100dc578160200160208202803683370190505b50905060005b83518110156101f05760008482815181106100ff576100ff611292565b602002602001015190508073ffffffffffffffffffffffffffffffffffffffff1663f5d9d63e8888858151811061013857610138611292565b60200260200101516040518363ffffffff1660e01b815260040161017f92919073ffffffffffffffffffffffffffffffffffffffff92831681529116602082015260400190565b602060405180830381865afa15801561019c573d6000803e3d6000fd5b505050506040513d601f19601f820116820180604052508101906101c091906112c1565b8383815181106101d2576101d2611292565b602090810291909101015250806101e881611309565b9150506100e2565b50949350505050565b606060006005905060008184516102109190611341565b67ffffffffffffffff81111561022857610228611099565b604051908082528060200260200182016040528015610251578160200160208202803683370190505b50905060005b845181101561062957600085828151811061027457610274611292565b60209081029190910101516040517f402914f500000000000000000000000000000000000000000000000000000000815273ffffffffffffffffffffffffffffffffffffffff89811660048301529192509082169063402914f590602401602060405180830381865afa1580156102ef573d6000803e3d6000fd5b505050506040513d601f19601f8201168201806040525081019061031391906112c1565b8361031e8685611341565b8151811061032e5761032e611292565b6020026020010181815250508073ffffffffffffffffffffffffffffffffffffffff1663a8d936276040518163ffffffff1660e01b8152600401602060405180830381865afa158015610385573d6000803e3d6000fd5b505050506040513d601f19601f820116820180604052508101906103a991906112c1565b836103b48685611341565b6103bf906001611358565b815181106103cf576103cf611292565b60209081029190910101526040517fa318021700000000000000000000000000000000000000000000000000000000815273ffffffffffffffffffffffffffffffffffffffff888116600483015282169063a318021790602401602060405180830381865afa158015610446573d6000803e3d6000fd5b505050506040513d601f19601f8201168201806040525081019061046a91906112c1565b836104758685611341565b610480906002611358565b8151811061049057610490611292565b60209081029190910101526040517f3792def300000000000000000000000000000000000000000000000000000000815273ffffffffffffffffffffffffffffffffffffffff8881166004830152821690633792def390602401602060405180830381865afa158015610507573d6000803e3d6000fd5b505050506040513d601f19601f8201168201806040525081019061052b91906112c1565b836105368685611341565b610541906003611358565b8151811061055157610551611292565b60200260200101818152505085828151811061056f5761056f611292565b602002602001015173ffffffffffffffffffffffffffffffffffffffff166318160ddd6040518163ffffffff1660e01b8152600401602060405180830381865afa1580156105c1573d6000803e3d6000fd5b505050506040513d601f19601f820116820180604052508101906105e591906112c1565b836105f08685611341565b6105fb906004611358565b8151811061060b5761060b611292565b6020908102919091010152508061062181611309565b915050610257565b509150505b92915050565b60606000600c9050600081845161064b9190611341565b67ffffffffffffffff81111561066357610663611099565b60405190808252806020026020018201604052801561068c578160200160208202803683370190505b50905060005b84518110156106295760008582815181106106af576106af611292565b6020026020010151905060008173ffffffffffffffffffffffffffffffffffffffff16636bcb411a6040518163ffffffff1660e01b8152600401602060405180830381865afa158015610706573d6000803e3d6000fd5b505050506040513d601f19601f8201168201806040525081019061072a919061136b565b6040517f5d50e72900000000000000000000000000000000000000000000000000000000815273ffffffffffffffffffffffffffffffffffffffff8a8116600483015291925090831690635d50e72990602401602060405180830381865afa15801561079a573d6000803e3d6000fd5b505050506040513d601f19601f820116820180604052508101906107be91906112c1565b846107c98786611341565b815181106107d9576107d9611292565b60209081029190910101526040517fd5a73fdd00000000000000000000000000000000000000000000000000000000815273ffffffffffffffffffffffffffffffffffffffff898116600483015283169063d5a73fdd90602401602060405180830381865afa158015610850573d6000803e3d6000fd5b505050506040513d601f19601f8201168201806040525081019061087491906112c1565b8461087f8786611341565b61088a906001611358565b8151811061089a5761089a611292565b6020026020010181815250508683815181106108b8576108b8611292565b60209081029190910101516040517f70a0823100000000000000000000000000000000000000000000000000000000815273ffffffffffffffffffffffffffffffffffffffff8a81166004830152909116906370a0823190602401602060405180830381865afa158015610930573d6000803e3d6000fd5b505050506040513d601f19601f8201168201806040525081019061095491906112c1565b8461095f8786611341565b61096a906002611358565b8151811061097a5761097a611292565b60209081029190910101526040517f71417b3200000000000000000000000000000000000000000000000000000000815273ffffffffffffffffffffffffffffffffffffffff89811660048301528316906371417b3290602401602060405180830381865afa1580156109f1573d6000803e3d6000fd5b505050506040513d601f19601f82011682018060405250810190610a1591906112c1565b84610a208786611341565b610a2b906003611358565b81518110610a3b57610a3b611292565b60209081029190910101526040517f402914f500000000000000000000000000000000000000000000000000000000815273ffffffffffffffffffffffffffffffffffffffff898116600483015283169063402914f590602401602060405180830381865afa158015610ab2573d6000803e3d6000fd5b505050506040513d601f19601f82011682018060405250810190610ad691906112c1565b84610ae18786611341565b610aec906004611358565b81518110610afc57610afc611292565b60209081029190910101526040517f08f26c7600000000000000000000000000000000000000000000000000000000815273ffffffffffffffffffffffffffffffffffffffff89811660048301528316906308f26c7690602401602060405180830381865afa158015610b73573d6000803e3d6000fd5b505050506040513d601f19601f82011682018060405250810190610b9791906112c1565b84610ba28786611341565b610bad906005611358565b81518110610bbd57610bbd611292565b60209081029190910101526040517f45f01ee600000000000000000000000000000000000000000000000000000000815273ffffffffffffffffffffffffffffffffffffffff89811660048301528316906345f01ee690602401602060405180830381865afa158015610c34573d6000803e3d6000fd5b505050506040513d601f19601f82011682018060405250810190610c5891906112c1565b84610c638786611341565b610c6e906006611358565b81518110610c7e57610c7e611292565b60209081029190910101526040517f3792def300000000000000000000000000000000000000000000000000000000815273ffffffffffffffffffffffffffffffffffffffff8981166004830152821690633792def390602401602060405180830381865afa158015610cf5573d6000803e3d6000fd5b505050506040513d601f19601f82011682018060405250810190610d1991906112c1565b84610d248786611341565b610d2f906007611358565b81518110610d3f57610d3f611292565b60209081029190910101526040517fb71bce2a00000000000000000000000000000000000000000000000000000000815273ffffffffffffffffffffffffffffffffffffffff898116600483015283169063b71bce2a90602401602060405180830381865afa158015610db6573d6000803e3d6000fd5b505050506040513d601f19601f82011682018060405250810190610dda91906112c1565b84610de58786611341565b610df0906008611358565b81518110610e0057610e00611292565b60209081029190910101526040517fa2545fa500000000000000000000000000000000000000000000000000000000815273ffffffffffffffffffffffffffffffffffffffff898116600483015283169063a2545fa590602401602060405180830381865afa158015610e77573d6000803e3d6000fd5b505050506040513d601f19601f82011682018060405250810190610e9b91906112c1565b84610ea68786611341565b610eb1906009611358565b81518110610ec157610ec1611292565b60209081029190910101526040517fa318021700000000000000000000000000000000000000000000000000000000815273ffffffffffffffffffffffffffffffffffffffff898116600483015282169063a318021790602401602060405180830381865afa158015610f38573d6000803e3d6000fd5b505050506040513d601f19601f82011682018060405250810190610f5c91906112c1565b84610f678786611341565b610f7290600a611358565b81518110610f8257610f82611292565b60209081029190910101526040517f7337035c00000000000000000000000000000000000000000000000000000000815273ffffffffffffffffffffffffffffffffffffffff8981166004830152831690637337035c90602401602060405180830381865afa158015610ff9573d6000803e3d6000fd5b505050506040513d601f19601f8201168201806040525081019061101d91906112c1565b846110288786611341565b61103390600b611358565b8151811061104357611043611292565b6020026020010181815250505050808061105c90611309565b915050610692565b73ffffffffffffffffffffffffffffffffffffffff8116811461108657600080fd5b50565b803561109481611064565b919050565b7f4e487b7100000000000000000000000000000000000000000000000000000000600052604160045260246000fd5b600082601f8301126110d957600080fd5b8135602067ffffffffffffffff808311156110f6576110f6611099565b8260051b6040517fffffffffffffffffffffffffffffffffffffffffffffffffffffffffffffffe0603f8301168101818110848211171561113957611139611099565b60405293845285810183019383810192508785111561115757600080fd5b83870191505b8482101561117d5761116e82611089565b8352918301919083019061115d565b979650505050505050565b60008060006060848603121561119d57600080fd5b83356111a881611064565b9250602084013567ffffffffffffffff808211156111c557600080fd5b6111d1878388016110c8565b935060408601359150808211156111e757600080fd5b506111f4868287016110c8565b9150509250925092565b6020808252825182820181905260009190848201906040850190845b818110156112365783518352928401929184019160010161121a565b50909695505050505050565b6000806040838503121561125557600080fd5b823561126081611064565b9150602083013567ffffffffffffffff81111561127c57600080fd5b611288858286016110c8565b9150509250929050565b7f4e487b7100000000000000000000000000000000000000000000000000000000600052603260045260246000fd5b6000602082840312156112d357600080fd5b5051919050565b7f4e487b7100000000000000000000000000000000000000000000000000000000600052601160045260246000fd5b60007fffffffffffffffffffffffffffffffffffffffffffffffffffffffffffffffff820361133a5761133a6112da565b5060010190565b808202811582820484141761062e5761062e6112da565b8082018082111561062e5761062e6112da565b60006020828403121561137d57600080fd5b815161138881611064565b939250505056fea26469706673582212208d781aa00afd6f66ad2a380b038fc610ec640ba4ebfeeea3da1e66309afc0d4964736f6c63430008140033",
  "linkReferences": {},
  "deployedLinkReferences": {}
}