{
  "_format": "hh-sol-artifact-1",
  "contractName": "RewardTracker",
  "sourceName": "contracts/staking/RewardTracker.sol",
  "abi": [
    {
      "inputs": [
        {
          "internalType": "string",
          "name": "_name",
          "type": "string"
        },
        {
          "internalType": "string",
          "name": "_symbol",
          "type": "string"
        }
      ],
      "stateMutability": "nonpayable",
      "type": "constructor"
    },
    {
      "inputs": [
        {
          "internalType": "address",
          "name": "violator",
          "type": "address"
        },
        {
          "internalType": "string",
          "name": "check",
          "type": "string"
        }
      ],
      "name": "PermissionDenied",
      "type": "error"
    },
    {
      "inputs": [],
      "name": "ReentrantCall",
      "type": "error"
    },
    {
      "anonymous": false,
      "inputs": [
        {
          "indexed": true,
          "internalType": "address",
          "name": "owner",
          "type": "address"
        },
        {
          "indexed": true,
          "internalType": "address",
          "name": "spender",
          "type": "address"
        },
        {
          "indexed": false,
          "internalType": "uint256",
          "name": "value",
          "type": "uint256"
        }
      ],
      "name": "Approval",
      "type": "event"
    },
    {
      "anonymous": false,
      "inputs": [
        {
          "indexed": false,
          "internalType": "address",
          "name": "receiver",
          "type": "address"
        },
        {
          "indexed": false,
          "internalType": "uint256",
          "name": "amount",
          "type": "uint256"
        }
      ],
      "name": "Claim",
      "type": "event"
    },
    {
      "anonymous": false,
      "inputs": [
        {
          "indexed": true,
          "internalType": "address",
          "name": "from",
          "type": "address"
        },
        {
          "indexed": true,
          "internalType": "address",
          "name": "to",
          "type": "address"
        },
        {
          "indexed": false,
          "internalType": "uint256",
          "name": "value",
          "type": "uint256"
        }
      ],
      "name": "Transfer",
      "type": "event"
    },
    {
      "inputs": [],
      "name": "BASIS_POINTS_DIVISOR",
      "outputs": [
        {
          "internalType": "uint256",
          "name": "",
          "type": "uint256"
        }
      ],
      "stateMutability": "view",
      "type": "function"
    },
    {
      "inputs": [],
      "name": "PRECISION",
      "outputs": [
        {
          "internalType": "uint256",
          "name": "",
          "type": "uint256"
        }
      ],
      "stateMutability": "view",
      "type": "function"
    },
    {
      "inputs": [
        {
          "internalType": "address",
          "name": "_owner",
          "type": "address"
        },
        {
          "internalType": "address",
          "name": "_spender",
          "type": "address"
        }
      ],
      "name": "allowance",
      "outputs": [
        {
          "internalType": "uint256",
          "name": "",
          "type": "uint256"
        }
      ],
      "stateMutability": "view",
      "type": "function"
    },
    {
      "inputs": [
        {
          "internalType": "address",
          "name": "",
          "type": "address"
        },
        {
          "internalType": "address",
          "name": "",
          "type": "address"
        }
      ],
      "name": "allowances",
      "outputs": [
        {
          "internalType": "uint256",
          "name": "",
          "type": "uint256"
        }
      ],
      "stateMutability": "view",
      "type": "function"
    },
    {
      "inputs": [
        {
          "internalType": "address",
          "name": "_spender",
          "type": "address"
        },
        {
          "internalType": "uint256",
          "name": "_amount",
          "type": "uint256"
        }
      ],
      "name": "approve",
      "outputs": [
        {
          "internalType": "bool",
          "name": "",
          "type": "bool"
        }
      ],
      "stateMutability": "nonpayable",
      "type": "function"
    },
    {
      "inputs": [
        {
          "internalType": "address",
          "name": "",
          "type": "address"
        }
      ],
      "name": "averageStakedAmounts",
      "outputs": [
        {
          "internalType": "uint256",
          "name": "",
          "type": "uint256"
        }
      ],
      "stateMutability": "view",
      "type": "function"
    },
    {
      "inputs": [
        {
          "internalType": "address",
          "name": "_account",
          "type": "address"
        }
      ],
      "name": "balanceOf",
      "outputs": [
        {
          "internalType": "uint256",
          "name": "",
          "type": "uint256"
        }
      ],
      "stateMutability": "view",
      "type": "function"
    },
    {
      "inputs": [
        {
          "internalType": "address",
          "name": "",
          "type": "address"
        }
      ],
      "name": "balances",
      "outputs": [
        {
          "internalType": "uint256",
          "name": "",
          "type": "uint256"
        }
      ],
      "stateMutability": "view",
      "type": "function"
    },
    {
      "inputs": [
        {
          "internalType": "address",
          "name": "_receiver",
          "type": "address"
        }
      ],
      "name": "claim",
      "outputs": [
        {
          "internalType": "uint256",
          "name": "",
          "type": "uint256"
        }
      ],
      "stateMutability": "nonpayable",
      "type": "function"
    },
    {
      "inputs": [
        {
          "internalType": "address",
          "name": "_account",
          "type": "address"
        },
        {
          "internalType": "address",
          "name": "_receiver",
          "type": "address"
        }
      ],
      "name": "claimForAccount",
      "outputs": [
        {
          "internalType": "uint256",
          "name": "",
          "type": "uint256"
        }
      ],
      "stateMutability": "nonpayable",
      "type": "function"
    },
    {
      "inputs": [
        {
          "internalType": "address",
          "name": "_account",
          "type": "address"
        }
      ],
      "name": "claimable",
      "outputs": [
        {
          "internalType": "uint256",
          "name": "",
          "type": "uint256"
        }
      ],
      "stateMutability": "view",
      "type": "function"
    },
    {
      "inputs": [
        {
          "internalType": "address",
          "name": "",
          "type": "address"
        }
      ],
      "name": "claimableReward",
      "outputs": [
        {
          "internalType": "uint256",
          "name": "",
          "type": "uint256"
        }
      ],
      "stateMutability": "view",
      "type": "function"
    },
    {
      "inputs": [],
      "name": "cumulativeRewardPerToken",
      "outputs": [
        {
          "internalType": "uint256",
          "name": "",
          "type": "uint256"
        }
      ],
      "stateMutability": "view",
      "type": "function"
    },
    {
      "inputs": [
        {
          "internalType": "address",
          "name": "",
          "type": "address"
        }
      ],
      "name": "cumulativeRewards",
      "outputs": [
        {
          "internalType": "uint256",
          "name": "",
          "type": "uint256"
        }
      ],
      "stateMutability": "view",
      "type": "function"
    },
    {
      "inputs": [],
      "name": "decimals",
      "outputs": [
        {
          "internalType": "uint8",
          "name": "",
          "type": "uint8"
        }
      ],
      "stateMutability": "view",
      "type": "function"
    },
    {
      "inputs": [
        {
          "internalType": "address",
          "name": "",
          "type": "address"
        },
        {
          "internalType": "address",
          "name": "",
          "type": "address"
        }
      ],
      "name": "depositBalances",
      "outputs": [
        {
          "internalType": "uint256",
          "name": "",
          "type": "uint256"
        }
      ],
      "stateMutability": "view",
      "type": "function"
    },
    {
      "inputs": [],
      "name": "distributor",
      "outputs": [
        {
          "internalType": "address",
          "name": "",
          "type": "address"
        }
      ],
      "stateMutability": "view",
      "type": "function"
    },
    {
      "inputs": [],
      "name": "gov",
      "outputs": [
        {
          "internalType": "address",
          "name": "",
          "type": "address"
        }
      ],
      "stateMutability": "view",
      "type": "function"
    },
    {
      "inputs": [],
      "name": "inPrivateClaimingMode",
      "outputs": [
        {
          "internalType": "bool",
          "name": "",
          "type": "bool"
        }
      ],
      "stateMutability": "view",
      "type": "function"
    },
    {
      "inputs": [],
      "name": "inPrivateStakingMode",
      "outputs": [
        {
          "internalType": "bool",
          "name": "",
          "type": "bool"
        }
      ],
      "stateMutability": "view",
      "type": "function"
    },
    {
      "inputs": [],
      "name": "inPrivateTransferMode",
      "outputs": [
        {
          "internalType": "bool",
          "name": "",
          "type": "bool"
        }
      ],
      "stateMutability": "view",
      "type": "function"
    },
    {
      "inputs": [
        {
          "internalType": "address[]",
          "name": "_depositTokens",
          "type": "address[]"
        },
        {
          "internalType": "address",
          "name": "_distributor",
          "type": "address"
        }
      ],
      "name": "initialize",
      "outputs": [],
      "stateMutability": "nonpayable",
      "type": "function"
    },
    {
      "inputs": [
        {
          "internalType": "address",
          "name": "",
          "type": "address"
        }
      ],
      "name": "isDepositToken",
      "outputs": [
        {
          "internalType": "bool",
          "name": "",
          "type": "bool"
        }
      ],
      "stateMutability": "view",
      "type": "function"
    },
    {
      "inputs": [
        {
          "internalType": "address",
          "name": "",
          "type": "address"
        }
      ],
      "name": "isHandler",
      "outputs": [
        {
          "internalType": "bool",
          "name": "",
          "type": "bool"
        }
      ],
      "stateMutability": "view",
      "type": "function"
    },
    {
      "inputs": [],
      "name": "isInitialized",
      "outputs": [
        {
          "internalType": "bool",
          "name": "",
          "type": "bool"
        }
      ],
      "stateMutability": "view",
      "type": "function"
    },
    {
      "inputs": [],
      "name": "name",
      "outputs": [
        {
          "internalType": "string",
          "name": "",
          "type": "string"
        }
      ],
      "stateMutability": "view",
      "type": "function"
    },
    {
      "inputs": [
        {
          "internalType": "address",
          "name": "",
          "type": "address"
        }
      ],
      "name": "previousCumulatedRewardPerToken",
      "outputs": [
        {
          "internalType": "uint256",
          "name": "",
          "type": "uint256"
        }
      ],
      "stateMutability": "view",
      "type": "function"
    },
    {
      "inputs": [],
      "name": "rewardToken",
      "outputs": [
        {
          "internalType": "address",
          "name": "",
          "type": "address"
        }
      ],
      "stateMutability": "view",
      "type": "function"
    },
    {
      "inputs": [
        {
          "internalType": "address",
          "name": "_depositToken",
          "type": "address"
        },
        {
          "internalType": "bool",
          "name": "_isDepositToken",
          "type": "bool"
        }
      ],
      "name": "setDepositToken",
      "outputs": [],
      "stateMutability": "nonpayable",
      "type": "function"
    },
    {
      "inputs": [
        {
          "internalType": "address",
          "name": "_gov",
          "type": "address"
        }
      ],
      "name": "setGov",
      "outputs": [],
      "stateMutability": "nonpayable",
      "type": "function"
    },
    {
      "inputs": [
        {
          "internalType": "address",
          "name": "_handler",
          "type": "address"
        },
        {
          "internalType": "bool",
          "name": "_isActive",
          "type": "bool"
        }
      ],
      "name": "setHandler",
      "outputs": [],
      "stateMutability": "nonpayable",
      "type": "function"
    },
    {
      "inputs": [
        {
          "internalType": "bool",
          "name": "_inPrivateClaimingMode",
          "type": "bool"
        }
      ],
      "name": "setInPrivateClaimingMode",
      "outputs": [],
      "stateMutability": "nonpayable",
      "type": "function"
    },
    {
      "inputs": [
        {
          "internalType": "bool",
          "name": "_inPrivateStakingMode",
          "type": "bool"
        }
      ],
      "name": "setInPrivateStakingMode",
      "outputs": [],
      "stateMutability": "nonpayable",
      "type": "function"
    },
    {
      "inputs": [
        {
          "internalType": "bool",
          "name": "_inPrivateTransferMode",
          "type": "bool"
        }
      ],
      "name": "setInPrivateTransferMode",
      "outputs": [],
      "stateMutability": "nonpayable",
      "type": "function"
    },
    {
      "inputs": [
        {
          "internalType": "address",
          "name": "_depositToken",
          "type": "address"
        },
        {
          "internalType": "uint256",
          "name": "_amount",
          "type": "uint256"
        }
      ],
      "name": "stake",
      "outputs": [],
      "stateMutability": "nonpayable",
      "type": "function"
    },
    {
      "inputs": [
        {
          "internalType": "address",
          "name": "_fundingAccount",
          "type": "address"
        },
        {
          "internalType": "address",
          "name": "_account",
          "type": "address"
        },
        {
          "internalType": "address",
          "name": "_depositToken",
          "type": "address"
        },
        {
          "internalType": "uint256",
          "name": "_amount",
          "type": "uint256"
        }
      ],
      "name": "stakeForAccount",
      "outputs": [],
      "stateMutability": "nonpayable",
      "type": "function"
    },
    {
      "inputs": [
        {
          "internalType": "address",
          "name": "",
          "type": "address"
        }
      ],
      "name": "stakedAmounts",
      "outputs": [
        {
          "internalType": "uint256",
          "name": "",
          "type": "uint256"
        }
      ],
      "stateMutability": "view",
      "type": "function"
    },
    {
      "inputs": [],
      "name": "symbol",
      "outputs": [
        {
          "internalType": "string",
          "name": "",
          "type": "string"
        }
      ],
      "stateMutability": "view",
      "type": "function"
    },
    {
      "inputs": [],
      "name": "tokensPerInterval",
      "outputs": [
        {
          "internalType": "uint256",
          "name": "",
          "type": "uint256"
        }
      ],
      "stateMutability": "view",
      "type": "function"
    },
    {
      "inputs": [
        {
          "internalType": "address",
          "name": "",
          "type": "address"
        }
      ],
      "name": "totalDepositSupply",
      "outputs": [
        {
          "internalType": "uint256",
          "name": "",
          "type": "uint256"
        }
      ],
      "stateMutability": "view",
      "type": "function"
    },
    {
      "inputs": [],
      "name": "totalSupply",
      "outputs": [
        {
          "internalType": "uint256",
          "name": "",
          "type": "uint256"
        }
      ],
      "stateMutability": "view",
      "type": "function"
    },
    {
      "inputs": [
        {
          "internalType": "address",
          "name": "_recipient",
          "type": "address"
        },
        {
          "internalType": "uint256",
          "name": "_amount",
          "type": "uint256"
        }
      ],
      "name": "transfer",
      "outputs": [
        {
          "internalType": "bool",
          "name": "",
          "type": "bool"
        }
      ],
      "stateMutability": "nonpayable",
      "type": "function"
    },
    {
      "inputs": [
        {
          "internalType": "address",
          "name": "_sender",
          "type": "address"
        },
        {
          "internalType": "address",
          "name": "_recipient",
          "type": "address"
        },
        {
          "internalType": "uint256",
          "name": "_amount",
          "type": "uint256"
        }
      ],
      "name": "transferFrom",
      "outputs": [
        {
          "internalType": "bool",
          "name": "",
          "type": "bool"
        }
      ],
      "stateMutability": "nonpayable",
      "type": "function"
    },
    {
      "inputs": [
        {
          "internalType": "address",
          "name": "_depositToken",
          "type": "address"
        },
        {
          "internalType": "uint256",
          "name": "_amount",
          "type": "uint256"
        }
      ],
      "name": "unstake",
      "outputs": [],
      "stateMutability": "nonpayable",
      "type": "function"
    },
    {
      "inputs": [
        {
          "internalType": "address",
          "name": "_account",
          "type": "address"
        },
        {
          "internalType": "address",
          "name": "_depositToken",
          "type": "address"
        },
        {
          "internalType": "uint256",
          "name": "_amount",
          "type": "uint256"
        },
        {
          "internalType": "address",
          "name": "_receiver",
          "type": "address"
        }
      ],
      "name": "unstakeForAccount",
      "outputs": [],
      "stateMutability": "nonpayable",
      "type": "function"
    },
    {
      "inputs": [],
      "name": "updateRewards",
      "outputs": [],
      "stateMutability": "nonpayable",
      "type": "function"
    },
    {
      "inputs": [
        {
          "internalType": "address",
          "name": "_token",
          "type": "address"
        },
        {
          "internalType": "address",
          "name": "_account",
          "type": "address"
        },
        {
          "internalType": "uint256",
          "name": "_amount",
          "type": "uint256"
        }
      ],
      "name": "withdrawToken",
      "outputs": [],
      "stateMutability": "nonpayable",
      "type": "function"
    }
  ],
  "bytecode": "0x60806040523480156200001157600080fd5b50604051620034ec380380620034ec833981016040819052620000349162000136565b6001600081905580546001600160a01b0319163317905560026200005983826200022f565b5060036200006882826200022f565b505050620002fb565b634e487b7160e01b600052604160045260246000fd5b600082601f8301126200009957600080fd5b81516001600160401b0380821115620000b657620000b662000071565b604051601f8301601f19908116603f01168101908282118183101715620000e157620000e162000071565b81604052838152602092508683858801011115620000fe57600080fd5b600091505b8382101562000122578582018301518183018401529082019062000103565b600093810190920192909252949350505050565b600080604083850312156200014a57600080fd5b82516001600160401b03808211156200016257600080fd5b620001708683870162000087565b935060208501519150808211156200018757600080fd5b50620001968582860162000087565b9150509250929050565b600181811c90821680620001b557607f821691505b602082108103620001d657634e487b7160e01b600052602260045260246000fd5b50919050565b601f8211156200022a57600081815260208120601f850160051c81016020861015620002055750805b601f850160051c820191505b81811015620002265782815560010162000211565b5050505b505050565b81516001600160401b038111156200024b576200024b62000071565b62000263816200025c8454620001a0565b84620001dc565b602080601f8311600181146200029b5760008415620002825750858301515b600019600386901b1c1916600185901b17855562000226565b600085815260208120601f198616915b82811015620002cc57888601518255948401946001909101908401620002ab565b5085821015620002eb5787850151600019600388901b60f8161c191681555b5050505050600190811b01905550565b6131e1806200030b6000396000f3fe608060405234801561001057600080fd5b50600436106103155760003560e01c806355b6ed5c116101a7578063bfe10928116100ee578063e44b755811610097578063f5fc507611610071578063f5fc5076146107a7578063f76033d3146107b0578063f7c618c1146107c357600080fd5b8063e44b755814610749578063e95034251461075c578063f5d9d63e1461077c57600080fd5b8063cfad57a2116100c8578063cfad57a2146106e3578063dd62ed3e146106f6578063dfbaefb11461073c57600080fd5b8063bfe109281461069e578063c2a672e0146106be578063c5fa2730146106d157600080fd5b8063a318021711610150578063aaf5eb681161012a578063aaf5eb6814610654578063adc9772e14610668578063b89e45b31461067b57600080fd5b8063a318021714610619578063a8d9362714610639578063a9059cbb1461064157600080fd5b8063790b5a6c11610181578063790b5a6c146105eb57806395d89b41146105fe5780639cb7de4b1461060657600080fd5b806355b6ed5c146105775780635a47a1a7146105a257806370a08231146105b557600080fd5b806323b872dd1161026b5780633e158b0c11610214578063462d0b2e116101ee578063462d0b2e1461052157806346ea87af14610534578063552ce1dc1461055757600080fd5b80633e158b0c146104e6578063402914f5146104ee57806344a084111461050157600080fd5b80633792def3116102455780633792def31461048e578063392e53cd146104ae5780633cd7f700146104d357600080fd5b806323b872dd1461044157806327e235e314610454578063313ce5671461047457600080fd5b8063126082cf116102cd57806318160ddd116102a757806318160ddd146104125780631d30d5bc1461041b5780631e83409a1461042e57600080fd5b8063126082cf146103b157806312d43a51146103ba57806313e82e7a146103ff57600080fd5b8063095ea7b3116102fe578063095ea7b31461034d578063098bf59d1461037057806310c1c1031461038357600080fd5b806301e336671461031a57806306fdde031461032f575b600080fd5b61032d610328366004612c82565b6107cb565b005b61033761087f565b6040516103449190612ce7565b60405180910390f35b61036061035b366004612d38565b61090d565b6040519015158152602001610344565b61032d61037e366004612d64565b610924565b6103a3610391366004612db7565b600c6020526000908152604090205481565b604051908152602001610344565b6103a361271081565b6001546103da9073ffffffffffffffffffffffffffffffffffffffff1681565b60405173ffffffffffffffffffffffffffffffffffffffff9091168152602001610344565b6103a361040d366004612dd4565b610984565b6103a360085481565b61032d610429366004612e1b565b6109e5565b6103a361043c366004612db7565b610aa5565b61036061044f366004612c82565b610b96565b6103a3610462366004612db7565b60096020526000908152604090205481565b61047c601281565b60405160ff9091168152602001610344565b6103a361049c366004612db7565b600f6020526000908152604090205481565b6001546103609074010000000000000000000000000000000000000000900460ff1681565b61032d6104e1366004612e1b565b610c22565b61032d610ce3565b6103a36104fc366004612db7565b610d36565b6103a361050f366004612db7565b600e6020526000908152604090205481565b61032d61052f366004612e67565b610ee5565b610360610542366004612db7565b60126020526000908152604090205460ff1681565b6103a3610565366004612db7565b60076020526000908152604090205481565b6103a3610585366004612dd4565b600a60209081526000928352604080842090915290825290205481565b61032d6105b0366004612e1b565b61112d565b6103a36105c3366004612db7565b73ffffffffffffffffffffffffffffffffffffffff1660009081526009602052604090205490565b61032d6105f9366004612f5c565b6111e7565b61033761123c565b61032d610614366004612fad565b611249565b6103a3610627366004612db7565b60106020526000908152604090205481565b6103a3611328565b61036061064f366004612d38565b6113c0565b6103a36c0c9f2c9cd04674edea4000000081565b61032d610676366004612d38565b6113cd565b610360610689366004612db7565b60056020526000908152604090205460ff1681565b6004546103da9073ffffffffffffffffffffffffffffffffffffffff1681565b61032d6106cc366004612d38565b6114bb565b60115461036090610100900460ff1681565b61032d6106f1366004612db7565b6115a0565b6103a3610704366004612dd4565b73ffffffffffffffffffffffffffffffffffffffff9182166000908152600a6020908152604080832093909416825291909152205490565b6011546103609060ff1681565b61032d610757366004612fad565b611670565b6103a361076a366004612db7565b600d6020526000908152604090205481565b6103a361078a366004612dd4565b600660209081526000928352604080842090915290825290205481565b6103a3600b5481565b6011546103609062010000900460ff1681565b6103da61174f565b60015473ffffffffffffffffffffffffffffffffffffffff16331461085957604080517f2a89d6bc0000000000000000000000000000000000000000000000000000000081523360048201526024810191909152600760448201527f6f6e6c79476f760000000000000000000000000000000000000000000000000060648201526084015b60405180910390fd5b61087a73ffffffffffffffffffffffffffffffffffffffff841683836117e2565b505050565b6002805461088c90612fdb565b80601f01602080910402602001604051908101604052809291908181526020018280546108b890612fdb565b80156109055780601f106108da57610100808354040283529160200191610905565b820191906000526020600020905b8154815290600101906020018083116108e857829003601f168201915b505050505081565b600061091a3384846118b6565b5060015b92915050565b600260005403610960576040517f37ed32e800000000000000000000000000000000000000000000000000000000815260040160405180910390fd5b600260005561096d611a6b565b61097984848484611ae6565b505060016000555050565b60006002600054036109c2576040517f37ed32e800000000000000000000000000000000000000000000000000000000815260040160405180910390fd5b60026000556109cf611a6b565b6109d98383611e4a565b60016000559392505050565b60015473ffffffffffffffffffffffffffffffffffffffff163314610a6e57604080517f2a89d6bc0000000000000000000000000000000000000000000000000000000081523360048201526024810191909152600760448201527f6f6e6c79476f76000000000000000000000000000000000000000000000000006064820152608401610850565b60118054911515610100027fffffffffffffffffffffffffffffffffffffffffffffffffffffffffffff00ff909216919091179055565b6000600260005403610ae3576040517f37ed32e800000000000000000000000000000000000000000000000000000000815260040160405180910390fd5b600260005560115462010000900460ff1615610b81576040517f08c379a000000000000000000000000000000000000000000000000000000000815260206004820152602160248201527f526577617264547261636b65723a20616374696f6e206e6f7420656e61626c6560448201527f64000000000000000000000000000000000000000000000000000000000000006064820152608401610850565b610b8b3383611e4a565b600160005592915050565b3360009081526012602052604081205460ff1615610bc157610bb9848484611f05565b506001610c1b565b73ffffffffffffffffffffffffffffffffffffffff84166000908152600a60209081526040808320338452909152812054610bfd90849061305d565b9050610c0a8533836118b6565b610c15858585611f05565b60019150505b9392505050565b60015473ffffffffffffffffffffffffffffffffffffffff163314610cab57604080517f2a89d6bc0000000000000000000000000000000000000000000000000000000081523360048201526024810191909152600760448201527f6f6e6c79476f76000000000000000000000000000000000000000000000000006064820152608401610850565b6011805491151562010000027fffffffffffffffffffffffffffffffffffffffffffffffffffffffffff00ffff909216919091179055565b600260005403610d1f576040517f37ed32e800000000000000000000000000000000000000000000000000000000815260040160405180910390fd5b60026000908155610d2f9061212d565b6001600055565b73ffffffffffffffffffffffffffffffffffffffff81166000908152600c6020526040812054808203610d8d57505073ffffffffffffffffffffffffffffffffffffffff166000908152600d602052604090205490565b60085460048054604080517feded3fda00000000000000000000000000000000000000000000000000000000815290516000936c0c9f2c9cd04674edea400000009373ffffffffffffffffffffffffffffffffffffffff169263eded3fda92818301926020928290030181865afa158015610e0c573d6000803e3d6000fd5b505050506040513d601f19601f82011682018060405250810190610e309190613070565b610e3a9190613089565b90506000610e4883836130a0565b600b54610e5591906130db565b73ffffffffffffffffffffffffffffffffffffffff87166000908152600e60205260409020549091506c0c9f2c9cd04674edea4000000090610e97908361305d565b610ea19086613089565b610eab91906130a0565b73ffffffffffffffffffffffffffffffffffffffff87166000908152600d6020526040902054610edb91906130db565b9695505050505050565b60015473ffffffffffffffffffffffffffffffffffffffff163314610f6e57604080517f2a89d6bc0000000000000000000000000000000000000000000000000000000081523360048201526024810191909152600760448201527f6f6e6c79476f76000000000000000000000000000000000000000000000000006064820152608401610850565b60015474010000000000000000000000000000000000000000900460ff1615611019576040517f08c379a000000000000000000000000000000000000000000000000000000000815260206004820152602260248201527f526577617264547261636b65723a20616c726561647920696e697469616c697a60448201527f65640000000000000000000000000000000000000000000000000000000000006064820152608401610850565b600180547fffffffffffffffffffffff00ffffffffffffffffffffffffffffffffffffffff167401000000000000000000000000000000000000000017905560005b82518110156110e4576000838281518110611078576110786130ee565b60209081029190910181015173ffffffffffffffffffffffffffffffffffffffff16600090815260059091526040902080547fffffffffffffffffffffffffffffffffffffffffffffffffffffffffffffff0016600117905550806110dc8161311d565b91505061105b565b50600480547fffffffffffffffffffffffff00000000000000000000000000000000000000001673ffffffffffffffffffffffffffffffffffffffff9290921691909117905550565b60015473ffffffffffffffffffffffffffffffffffffffff1633146111b657604080517f2a89d6bc0000000000000000000000000000000000000000000000000000000081523360048201526024810191909152600760448201527f6f6e6c79476f76000000000000000000000000000000000000000000000000006064820152608401610850565b601180547fffffffffffffffffffffffffffffffffffffffffffffffffffffffffffffff0016911515919091179055565b600260005403611223576040517f37ed32e800000000000000000000000000000000000000000000000000000000815260040160405180910390fd5b6002600055611230611a6b565b61097984848484612419565b6003805461088c90612fdb565b60015473ffffffffffffffffffffffffffffffffffffffff1633146112d257604080517f2a89d6bc0000000000000000000000000000000000000000000000000000000081523360048201526024810191909152600760448201527f6f6e6c79476f76000000000000000000000000000000000000000000000000006064820152608401610850565b73ffffffffffffffffffffffffffffffffffffffff91909116600090815260126020526040902080547fffffffffffffffffffffffffffffffffffffffffffffffffffffffffffffff0016911515919091179055565b6000600460009054906101000a900473ffffffffffffffffffffffffffffffffffffffff1673ffffffffffffffffffffffffffffffffffffffff1663a8d936276040518163ffffffff1660e01b8152600401602060405180830381865afa158015611397573d6000803e3d6000fd5b505050506040513d601f19601f820116820180604052508101906113bb9190613070565b905090565b600061091a338484611f05565b600260005403611409576040517f37ed32e800000000000000000000000000000000000000000000000000000000815260040160405180910390fd5b6002600055601154610100900460ff16156114a6576040517f08c379a000000000000000000000000000000000000000000000000000000000815260206004820152602160248201527f526577617264547261636b65723a20616374696f6e206e6f7420656e61626c6560448201527f64000000000000000000000000000000000000000000000000000000000000006064820152608401610850565b6114b233338484612419565b50506001600055565b6002600054036114f7576040517f37ed32e800000000000000000000000000000000000000000000000000000000815260040160405180910390fd5b6002600055601154610100900460ff1615611594576040517f08c379a000000000000000000000000000000000000000000000000000000000815260206004820152602160248201527f526577617264547261636b65723a20616374696f6e206e6f7420656e61626c6560448201527f64000000000000000000000000000000000000000000000000000000000000006064820152608401610850565b6114b233838333611ae6565b60015473ffffffffffffffffffffffffffffffffffffffff16331461162957604080517f2a89d6bc0000000000000000000000000000000000000000000000000000000081523360048201526024810191909152600760448201527f6f6e6c79476f76000000000000000000000000000000000000000000000000006064820152608401610850565b600180547fffffffffffffffffffffffff00000000000000000000000000000000000000001673ffffffffffffffffffffffffffffffffffffffff92909216919091179055565b60015473ffffffffffffffffffffffffffffffffffffffff1633146116f957604080517f2a89d6bc0000000000000000000000000000000000000000000000000000000081523360048201526024810191909152600760448201527f6f6e6c79476f76000000000000000000000000000000000000000000000000006064820152608401610850565b73ffffffffffffffffffffffffffffffffffffffff91909116600090815260056020526040902080547fffffffffffffffffffffffffffffffffffffffffffffffffffffffffffffff0016911515919091179055565b6000600460009054906101000a900473ffffffffffffffffffffffffffffffffffffffff1673ffffffffffffffffffffffffffffffffffffffff1663f7c618c16040518163ffffffff1660e01b8152600401602060405180830381865afa1580156117be573d6000803e3d6000fd5b505050506040513d601f19601f820116820180604052508101906113bb9190613155565b60405173ffffffffffffffffffffffffffffffffffffffff831660248201526044810182905261087a9084907fa9059cbb00000000000000000000000000000000000000000000000000000000906064015b604080517fffffffffffffffffffffffffffffffffffffffffffffffffffffffffffffffe08184030181529190526020810180517bffffffffffffffffffffffffffffffffffffffffffffffffffffffff167fffffffff0000000000000000000000000000000000000000000000000000000090931692909217909152612658565b73ffffffffffffffffffffffffffffffffffffffff8316611959576040517f08c379a000000000000000000000000000000000000000000000000000000000815260206004820152602c60248201527f526577617264547261636b65723a20617070726f76652066726f6d207468652060448201527f7a65726f206164647265737300000000000000000000000000000000000000006064820152608401610850565b73ffffffffffffffffffffffffffffffffffffffff82166119fc576040517f08c379a000000000000000000000000000000000000000000000000000000000815260206004820152602a60248201527f526577617264547261636b65723a20617070726f766520746f20746865207a6560448201527f726f2061646472657373000000000000000000000000000000000000000000006064820152608401610850565b73ffffffffffffffffffffffffffffffffffffffff8381166000818152600a602090815260408083209487168084529482529182902085905590518481527f8c5be1e5ebec7d5bd14f71427d1e84f3dd0314c0f7b2291e5b200ac8c7c3b92591015b60405180910390a3505050565b3360009081526012602052604090205460ff16611ae4576040517f08c379a000000000000000000000000000000000000000000000000000000000815260206004820152601860248201527f526577617264547261636b65723a20666f7262696464656e00000000000000006044820152606401610850565b565b60008211611b50576040517f08c379a000000000000000000000000000000000000000000000000000000000815260206004820152601e60248201527f526577617264547261636b65723a20696e76616c6964205f616d6f756e7400006044820152606401610850565b73ffffffffffffffffffffffffffffffffffffffff831660009081526005602052604090205460ff16611c04576040517f08c379a0000000000000000000000000000000000000000000000000000000008152602060048201526024808201527f526577617264547261636b65723a20696e76616c6964205f6465706f7369745460448201527f6f6b656e000000000000000000000000000000000000000000000000000000006064820152608401610850565b611c0d8461212d565b73ffffffffffffffffffffffffffffffffffffffff84166000908152600c602052604090205482811015611cc3576040517f08c379a000000000000000000000000000000000000000000000000000000000815260206004820152602b60248201527f526577617264547261636b65723a205f616d6f756e742065786365656473207360448201527f74616b6564416d6f756e740000000000000000000000000000000000000000006064820152608401610850565b611ccd838261305d565b73ffffffffffffffffffffffffffffffffffffffff8087166000908152600c602090815260408083209490945560068152838220928816825291909152205483811015611d9c576040517f08c379a000000000000000000000000000000000000000000000000000000000815260206004820152602d60248201527f526577617264547261636b65723a205f616d6f756e742065786365656473206460448201527f65706f73697442616c616e6365000000000000000000000000000000000000006064820152608401610850565b611da6848261305d565b73ffffffffffffffffffffffffffffffffffffffff8088166000908152600660209081526040808320938a168352928152828220939093556007909252902054611df190859061305d565b73ffffffffffffffffffffffffffffffffffffffff8616600090815260076020526040902055611e218685612764565b611e4273ffffffffffffffffffffffffffffffffffffffff861684866117e2565b505050505050565b6000611e558361212d565b73ffffffffffffffffffffffffffffffffffffffff83166000908152600d6020526040812080549190558015610c1b57611eaf8382611e9261174f565b73ffffffffffffffffffffffffffffffffffffffff1691906117e2565b6040805173ffffffffffffffffffffffffffffffffffffffff86168152602081018390527f47cee97cb7acd717b3c0aa1435d004cd5b3c8c57d70dbceb4e4458bbd60e39d4910160405180910390a19392505050565b73ffffffffffffffffffffffffffffffffffffffff8316611fa8576040517f08c379a000000000000000000000000000000000000000000000000000000000815260206004820152602d60248201527f526577617264547261636b65723a207472616e736665722066726f6d2074686560448201527f207a65726f2061646472657373000000000000000000000000000000000000006064820152608401610850565b73ffffffffffffffffffffffffffffffffffffffff821661204b576040517f08c379a000000000000000000000000000000000000000000000000000000000815260206004820152602b60248201527f526577617264547261636b65723a207472616e7366657220746f20746865207a60448201527f65726f20616464726573730000000000000000000000000000000000000000006064820152608401610850565b60115460ff161561205e5761205e611a6b565b73ffffffffffffffffffffffffffffffffffffffff831660009081526009602052604090205461208f90829061305d565b73ffffffffffffffffffffffffffffffffffffffff80851660009081526009602052604080822093909355908416815220546120cc9082906130db565b73ffffffffffffffffffffffffffffffffffffffff80841660008181526009602052604090819020939093559151908516907fddf252ad1be2c89b69c2b068fc378daa952ba7f163c4a11628f55a4df523b3ef90611a5e9085815260200190565b6000600460009054906101000a900473ffffffffffffffffffffffffffffffffffffffff1673ffffffffffffffffffffffffffffffffffffffff1663e4fc6b6d6040518163ffffffff1660e01b81526004016020604051808303816000875af115801561219e573d6000803e3d6000fd5b505050506040513d601f19601f820116820180604052508101906121c29190613070565b600854600b549192509081158015906121db5750600083115b1561221457816121f86c0c9f2c9cd04674edea4000000085613089565b61220291906130a0565b61220c90826130db565b600b81905590505b806000036122225750505050565b73ffffffffffffffffffffffffffffffffffffffff8416156124135773ffffffffffffffffffffffffffffffffffffffff84166000908152600c6020908152604080832054600e9092528220549091906c0c9f2c9cd04674edea400000009061228b908561305d565b6122959084613089565b61229f91906130a0565b73ffffffffffffffffffffffffffffffffffffffff87166000908152600d6020526040812054919250906122d49083906130db565b73ffffffffffffffffffffffffffffffffffffffff88166000908152600d60209081526040808320849055600e90915290208590559050801580159061233e575073ffffffffffffffffffffffffffffffffffffffff87166000908152600c602052604090205415155b1561240f5773ffffffffffffffffffffffffffffffffffffffff87166000908152600f60205260408120546123749084906130db565b9050806123818486613089565b61238b91906130a0565b73ffffffffffffffffffffffffffffffffffffffff89166000908152600f602090815260408083205460109092529091205483916123c891613089565b6123d291906130a0565b6123dc91906130db565b73ffffffffffffffffffffffffffffffffffffffff8916600090815260106020908152604080832093909355600f905220555b5050505b50505050565b60008111612483576040517f08c379a000000000000000000000000000000000000000000000000000000000815260206004820152601e60248201527f526577617264547261636b65723a20696e76616c6964205f616d6f756e7400006044820152606401610850565b73ffffffffffffffffffffffffffffffffffffffff821660009081526005602052604090205460ff16612537576040517f08c379a0000000000000000000000000000000000000000000000000000000008152602060048201526024808201527f526577617264547261636b65723a20696e76616c6964205f6465706f7369745460448201527f6f6b656e000000000000000000000000000000000000000000000000000000006064820152608401610850565b61255973ffffffffffffffffffffffffffffffffffffffff83168530846128c2565b6125628361212d565b73ffffffffffffffffffffffffffffffffffffffff83166000908152600c60205260409020546125939082906130db565b73ffffffffffffffffffffffffffffffffffffffff8085166000908152600c60209081526040808320949094556006815283822092861682529190915220546125dd9082906130db565b73ffffffffffffffffffffffffffffffffffffffff808516600090815260066020908152604080832093871683529281528282209390935560079092529020546126289082906130db565b73ffffffffffffffffffffffffffffffffffffffff83166000908152600760205260409020556124138382612920565b60006126ba826040518060400160405280602081526020017f5361666545524332303a206c6f772d6c6576656c2063616c6c206661696c65648152508573ffffffffffffffffffffffffffffffffffffffff16612a639092919063ffffffff16565b80519091501561087a57808060200190518101906126d89190613172565b61087a576040517f08c379a000000000000000000000000000000000000000000000000000000000815260206004820152602a60248201527f5361666545524332303a204552433230206f7065726174696f6e20646964206e60448201527f6f742073756363656564000000000000000000000000000000000000000000006064820152608401610850565b73ffffffffffffffffffffffffffffffffffffffff8216612807576040517f08c379a000000000000000000000000000000000000000000000000000000000815260206004820152602960248201527f526577617264547261636b65723a206275726e2066726f6d20746865207a657260448201527f6f206164647265737300000000000000000000000000000000000000000000006064820152608401610850565b73ffffffffffffffffffffffffffffffffffffffff821660009081526009602052604090205461283890829061305d565b73ffffffffffffffffffffffffffffffffffffffff831660009081526009602052604090205560085461286c90829061305d565b60085560405181815260009073ffffffffffffffffffffffffffffffffffffffff8416907fddf252ad1be2c89b69c2b068fc378daa952ba7f163c4a11628f55a4df523b3ef906020015b60405180910390a35050565b60405173ffffffffffffffffffffffffffffffffffffffff808516602483015283166044820152606481018290526124139085907f23b872dd0000000000000000000000000000000000000000000000000000000090608401611834565b73ffffffffffffffffffffffffffffffffffffffff82166129c3576040517f08c379a000000000000000000000000000000000000000000000000000000000815260206004820152602760248201527f526577617264547261636b65723a206d696e7420746f20746865207a65726f2060448201527f61646472657373000000000000000000000000000000000000000000000000006064820152608401610850565b806008546129d191906130db565b60085573ffffffffffffffffffffffffffffffffffffffff8216600090815260096020526040902054612a059082906130db565b73ffffffffffffffffffffffffffffffffffffffff83166000818152600960205260408082209390935591519091907fddf252ad1be2c89b69c2b068fc378daa952ba7f163c4a11628f55a4df523b3ef906128b69085815260200190565b6060612a728484600085612a7a565b949350505050565b606082471015612b0c576040517f08c379a000000000000000000000000000000000000000000000000000000000815260206004820152602660248201527f416464726573733a20696e73756666696369656e742062616c616e636520666f60448201527f722063616c6c00000000000000000000000000000000000000000000000000006064820152608401610850565b843b612b74576040517f08c379a000000000000000000000000000000000000000000000000000000000815260206004820152601d60248201527f416464726573733a2063616c6c20746f206e6f6e2d636f6e74726163740000006044820152606401610850565b6000808673ffffffffffffffffffffffffffffffffffffffff168587604051612b9d919061318f565b60006040518083038185875af1925050503d8060008114612bda576040519150601f19603f3d011682016040523d82523d6000602084013e612bdf565b606091505b5091509150612bef828286612bfa565b979650505050505050565b60608315612c09575081610c1b565b825115612c195782518084602001fd5b816040517f08c379a00000000000000000000000000000000000000000000000000000000081526004016108509190612ce7565b73ffffffffffffffffffffffffffffffffffffffff81168114612c6f57600080fd5b50565b8035612c7d81612c4d565b919050565b600080600060608486031215612c9757600080fd5b8335612ca281612c4d565b92506020840135612cb281612c4d565b929592945050506040919091013590565b60005b83811015612cde578181015183820152602001612cc6565b50506000910152565b6020815260008251806020840152612d06816040850160208701612cc3565b601f017fffffffffffffffffffffffffffffffffffffffffffffffffffffffffffffffe0169190910160400192915050565b60008060408385031215612d4b57600080fd5b8235612d5681612c4d565b946020939093013593505050565b60008060008060808587031215612d7a57600080fd5b8435612d8581612c4d565b93506020850135612d9581612c4d565b9250604085013591506060850135612dac81612c4d565b939692955090935050565b600060208284031215612dc957600080fd5b8135610c1b81612c4d565b60008060408385031215612de757600080fd5b8235612df281612c4d565b91506020830135612e0281612c4d565b809150509250929050565b8015158114612c6f57600080fd5b600060208284031215612e2d57600080fd5b8135610c1b81612e0d565b7f4e487b7100000000000000000000000000000000000000000000000000000000600052604160045260246000fd5b60008060408385031215612e7a57600080fd5b823567ffffffffffffffff80821115612e9257600080fd5b818501915085601f830112612ea657600080fd5b8135602082821115612eba57612eba612e38565b8160051b6040517fffffffffffffffffffffffffffffffffffffffffffffffffffffffffffffffe0603f83011681018181108682111715612efd57612efd612e38565b604052928352818301935084810182019289841115612f1b57600080fd5b948201945b83861015612f4057612f3186612c72565b85529482019493820193612f20565b9650612f4f9050878201612c72565b9450505050509250929050565b60008060008060808587031215612f7257600080fd5b8435612f7d81612c4d565b93506020850135612f8d81612c4d565b92506040850135612f9d81612c4d565b9396929550929360600135925050565b60008060408385031215612fc057600080fd5b8235612fcb81612c4d565b91506020830135612e0281612e0d565b600181811c90821680612fef57607f821691505b602082108103613028577f4e487b7100000000000000000000000000000000000000000000000000000000600052602260045260246000fd5b50919050565b7f4e487b7100000000000000000000000000000000000000000000000000000000600052601160045260246000fd5b8181038181111561091e5761091e61302e565b60006020828403121561308257600080fd5b5051919050565b808202811582820484141761091e5761091e61302e565b6000826130d6577f4e487b7100000000000000000000000000000000000000000000000000000000600052601260045260246000fd5b500490565b8082018082111561091e5761091e61302e565b7f4e487b7100000000000000000000000000000000000000000000000000000000600052603260045260246000fd5b60007fffffffffffffffffffffffffffffffffffffffffffffffffffffffffffffffff820361314e5761314e61302e565b5060010190565b60006020828403121561316757600080fd5b8151610c1b81612c4d565b60006020828403121561318457600080fd5b8151610c1b81612e0d565b600082516131a1818460208701612cc3565b919091019291505056fea26469706673582212200e69bc4f2d7b5e6867dcd4a6d0b9ecccabbb17ff4da2857c7f7daba2be6c279764736f6c63430008140033",
  "linkReferences": {},
  "deployedLinkReferences": {}
}