{
  "_format": "hh-sol-artifact-1",
  "contractName": "Router",
  "sourceName": "contracts/core/Router.sol",
  "abi": [
    {
      "inputs": [
        {
          "internalType": "address",
          "name": "_vault",
          "type": "address"
        },
        {
          "internalType": "address",
          "name": "_usdg",
          "type": "address"
        },
        {
          "internalType": "address",
          "name": "_weth",
          "type": "address"
        }
      ],
      "stateMutability": "nonpayable",
      "type": "constructor"
    },
    {
      "anonymous": false,
      "inputs": [
        {
          "indexed": false,
          "internalType": "address",
          "name": "account",
          "type": "address"
        },
        {
          "indexed": false,
          "internalType": "address",
          "name": "tokenIn",
          "type": "address"
        },
        {
          "indexed": false,
          "internalType": "address",
          "name": "tokenOut",
          "type": "address"
        },
        {
          "indexed": false,
          "internalType": "uint256",
          "name": "amountIn",
          "type": "uint256"
        },
        {
          "indexed": false,
          "internalType": "uint256",
          "name": "amountOut",
          "type": "uint256"
        }
      ],
      "name": "Swap",
      "type": "event"
    },
    {
      "inputs": [
        {
          "internalType": "address",
          "name": "_plugin",
          "type": "address"
        }
      ],
      "name": "addPlugin",
      "outputs": [],
      "stateMutability": "nonpayable",
      "type": "function"
    },
    {
      "inputs": [
        {
          "internalType": "address",
          "name": "_plugin",
          "type": "address"
        }
      ],
      "name": "approvePlugin",
      "outputs": [],
      "stateMutability": "nonpayable",
      "type": "function"
    },
    {
      "inputs": [
        {
          "internalType": "address",
          "name": "",
          "type": "address"
        },
        {
          "internalType": "address",
          "name": "",
          "type": "address"
        }
      ],
      "name": "approvedPlugins",
      "outputs": [
        {
          "internalType": "bool",
          "name": "",
          "type": "bool"
        }
      ],
      "stateMutability": "view",
      "type": "function"
    },
    {
      "inputs": [
        {
          "internalType": "address",
          "name": "_collateralToken",
          "type": "address"
        },
        {
          "internalType": "address",
          "name": "_indexToken",
          "type": "address"
        },
        {
          "internalType": "uint256",
          "name": "_collateralDelta",
          "type": "uint256"
        },
        {
          "internalType": "uint256",
          "name": "_sizeDelta",
          "type": "uint256"
        },
        {
          "internalType": "bool",
          "name": "_isLong",
          "type": "bool"
        },
        {
          "internalType": "address",
          "name": "_receiver",
          "type": "address"
        },
        {
          "internalType": "uint256",
          "name": "_price",
          "type": "uint256"
        }
      ],
      "name": "decreasePosition",
      "outputs": [],
      "stateMutability": "nonpayable",
      "type": "function"
    },
    {
      "inputs": [
        {
          "internalType": "address[]",
          "name": "_path",
          "type": "address[]"
        },
        {
          "internalType": "address",
          "name": "_indexToken",
          "type": "address"
        },
        {
          "internalType": "uint256",
          "name": "_collateralDelta",
          "type": "uint256"
        },
        {
          "internalType": "uint256",
          "name": "_sizeDelta",
          "type": "uint256"
        },
        {
          "internalType": "bool",
          "name": "_isLong",
          "type": "bool"
        },
        {
          "internalType": "address",
          "name": "_receiver",
          "type": "address"
        },
        {
          "internalType": "uint256",
          "name": "_price",
          "type": "uint256"
        },
        {
          "internalType": "uint256",
          "name": "_minOut",
          "type": "uint256"
        }
      ],
      "name": "decreasePositionAndSwap",
      "outputs": [],
      "stateMutability": "nonpayable",
      "type": "function"
    },
    {
      "inputs": [
        {
          "internalType": "address[]",
          "name": "_path",
          "type": "address[]"
        },
        {
          "internalType": "address",
          "name": "_indexToken",
          "type": "address"
        },
        {
          "internalType": "uint256",
          "name": "_collateralDelta",
          "type": "uint256"
        },
        {
          "internalType": "uint256",
          "name": "_sizeDelta",
          "type": "uint256"
        },
        {
          "internalType": "bool",
          "name": "_isLong",
          "type": "bool"
        },
        {
          "internalType": "address payable",
          "name": "_receiver",
          "type": "address"
        },
        {
          "internalType": "uint256",
          "name": "_price",
          "type": "uint256"
        },
        {
          "internalType": "uint256",
          "name": "_minOut",
          "type": "uint256"
        }
      ],
      "name": "decreasePositionAndSwapETH",
      "outputs": [],
      "stateMutability": "nonpayable",
      "type": "function"
    },
    {
      "inputs": [
        {
          "internalType": "address",
          "name": "_collateralToken",
          "type": "address"
        },
        {
          "internalType": "address",
          "name": "_indexToken",
          "type": "address"
        },
        {
          "internalType": "uint256",
          "name": "_collateralDelta",
          "type": "uint256"
        },
        {
          "internalType": "uint256",
          "name": "_sizeDelta",
          "type": "uint256"
        },
        {
          "internalType": "bool",
          "name": "_isLong",
          "type": "bool"
        },
        {
          "internalType": "address payable",
          "name": "_receiver",
          "type": "address"
        },
        {
          "internalType": "uint256",
          "name": "_price",
          "type": "uint256"
        }
      ],
      "name": "decreasePositionETH",
      "outputs": [],
      "stateMutability": "nonpayable",
      "type": "function"
    },
    {
      "inputs": [
        {
          "internalType": "address",
          "name": "_plugin",
          "type": "address"
        }
      ],
      "name": "denyPlugin",
      "outputs": [],
      "stateMutability": "nonpayable",
      "type": "function"
    },
    {
      "inputs": [
        {
          "internalType": "address",
          "name": "_token",
          "type": "address"
        },
        {
          "internalType": "uint256",
          "name": "_amount",
          "type": "uint256"
        }
      ],
      "name": "directPoolDeposit",
      "outputs": [],
      "stateMutability": "nonpayable",
      "type": "function"
    },
    {
      "inputs": [],
      "name": "gov",
      "outputs": [
        {
          "internalType": "address",
          "name": "",
          "type": "address"
        }
      ],
      "stateMutability": "view",
      "type": "function"
    },
    {
      "inputs": [
        {
          "internalType": "address[]",
          "name": "_path",
          "type": "address[]"
        },
        {
          "internalType": "address",
          "name": "_indexToken",
          "type": "address"
        },
        {
          "internalType": "uint256",
          "name": "_amountIn",
          "type": "uint256"
        },
        {
          "internalType": "uint256",
          "name": "_minOut",
          "type": "uint256"
        },
        {
          "internalType": "uint256",
          "name": "_sizeDelta",
          "type": "uint256"
        },
        {
          "internalType": "bool",
          "name": "_isLong",
          "type": "bool"
        },
        {
          "internalType": "uint256",
          "name": "_price",
          "type": "uint256"
        }
      ],
      "name": "increasePosition",
      "outputs": [],
      "stateMutability": "nonpayable",
      "type": "function"
    },
    {
      "inputs": [
        {
          "internalType": "address[]",
          "name": "_path",
          "type": "address[]"
        },
        {
          "internalType": "address",
          "name": "_indexToken",
          "type": "address"
        },
        {
          "internalType": "uint256",
          "name": "_minOut",
          "type": "uint256"
        },
        {
          "internalType": "uint256",
          "name": "_sizeDelta",
          "type": "uint256"
        },
        {
          "internalType": "bool",
          "name": "_isLong",
          "type": "bool"
        },
        {
          "internalType": "uint256",
          "name": "_price",
          "type": "uint256"
        }
      ],
      "name": "increasePositionETH",
      "outputs": [],
      "stateMutability": "payable",
      "type": "function"
    },
    {
      "inputs": [
        {
          "internalType": "address",
          "name": "_account",
          "type": "address"
        },
        {
          "internalType": "address",
          "name": "_collateralToken",
          "type": "address"
        },
        {
          "internalType": "address",
          "name": "_indexToken",
          "type": "address"
        },
        {
          "internalType": "uint256",
          "name": "_collateralDelta",
          "type": "uint256"
        },
        {
          "internalType": "uint256",
          "name": "_sizeDelta",
          "type": "uint256"
        },
        {
          "internalType": "bool",
          "name": "_isLong",
          "type": "bool"
        },
        {
          "internalType": "address",
          "name": "_receiver",
          "type": "address"
        }
      ],
      "name": "pluginDecreasePosition",
      "outputs": [
        {
          "internalType": "uint256",
          "name": "",
          "type": "uint256"
        }
      ],
      "stateMutability": "nonpayable",
      "type": "function"
    },
    {
      "inputs": [
        {
          "internalType": "address",
          "name": "_account",
          "type": "address"
        },
        {
          "internalType": "address",
          "name": "_collateralToken",
          "type": "address"
        },
        {
          "internalType": "address",
          "name": "_indexToken",
          "type": "address"
        },
        {
          "internalType": "uint256",
          "name": "_sizeDelta",
          "type": "uint256"
        },
        {
          "internalType": "bool",
          "name": "_isLong",
          "type": "bool"
        }
      ],
      "name": "pluginIncreasePosition",
      "outputs": [],
      "stateMutability": "nonpayable",
      "type": "function"
    },
    {
      "inputs": [
        {
          "internalType": "address",
          "name": "_token",
          "type": "address"
        },
        {
          "internalType": "address",
          "name": "_account",
          "type": "address"
        },
        {
          "internalType": "address",
          "name": "_receiver",
          "type": "address"
        },
        {
          "internalType": "uint256",
          "name": "_amount",
          "type": "uint256"
        }
      ],
      "name": "pluginTransfer",
      "outputs": [],
      "stateMutability": "nonpayable",
      "type": "function"
    },
    {
      "inputs": [
        {
          "internalType": "address",
          "name": "",
          "type": "address"
        }
      ],
      "name": "plugins",
      "outputs": [
        {
          "internalType": "bool",
          "name": "",
          "type": "bool"
        }
      ],
      "stateMutability": "view",
      "type": "function"
    },
    {
      "inputs": [
        {
          "internalType": "address",
          "name": "_plugin",
          "type": "address"
        }
      ],
      "name": "removePlugin",
      "outputs": [],
      "stateMutability": "nonpayable",
      "type": "function"
    },
    {
      "inputs": [
        {
          "internalType": "address",
          "name": "_gov",
          "type": "address"
        }
      ],
      "name": "setGov",
      "outputs": [],
      "stateMutability": "nonpayable",
      "type": "function"
    },
    {
      "inputs": [
        {
          "internalType": "address[]",
          "name": "_path",
          "type": "address[]"
        },
        {
          "internalType": "uint256",
          "name": "_amountIn",
          "type": "uint256"
        },
        {
          "internalType": "uint256",
          "name": "_minOut",
          "type": "uint256"
        },
        {
          "internalType": "address",
          "name": "_receiver",
          "type": "address"
        }
      ],
      "name": "swap",
      "outputs": [],
      "stateMutability": "nonpayable",
      "type": "function"
    },
    {
      "inputs": [
        {
          "internalType": "address[]",
          "name": "_path",
          "type": "address[]"
        },
        {
          "internalType": "uint256",
          "name": "_minOut",
          "type": "uint256"
        },
        {
          "internalType": "address",
          "name": "_receiver",
          "type": "address"
        }
      ],
      "name": "swapETHToTokens",
      "outputs": [],
      "stateMutability": "payable",
      "type": "function"
    },
    {
      "inputs": [
        {
          "internalType": "address[]",
          "name": "_path",
          "type": "address[]"
        },
        {
          "internalType": "uint256",
          "name": "_amountIn",
          "type": "uint256"
        },
        {
          "internalType": "uint256",
          "name": "_minOut",
          "type": "uint256"
        },
        {
          "internalType": "address payable",
          "name": "_receiver",
          "type": "address"
        }
      ],
      "name": "swapTokensToETH",
      "outputs": [],
      "stateMutability": "nonpayable",
      "type": "function"
    },
    {
      "inputs": [],
      "name": "usdg",
      "outputs": [
        {
          "internalType": "address",
          "name": "",
          "type": "address"
        }
      ],
      "stateMutability": "view",
      "type": "function"
    },
    {
      "inputs": [],
      "name": "vault",
      "outputs": [
        {
          "internalType": "address",
          "name": "",
          "type": "address"
        }
      ],
      "stateMutability": "view",
      "type": "function"
    },
    {
      "inputs": [],
      "name": "weth",
      "outputs": [
        {
          "internalType": "address",
          "name": "",
          "type": "address"
        }
      ],
      "stateMutability": "view",
      "type": "function"
    },
    {
      "stateMutability": "payable",
      "type": "receive"
    }
  ],
  "bytecode": "0x60806040523480156200001157600080fd5b5060405162002ce538038062002ce58339810160408190526200003491620000a1565b600380546001600160a01b039485166001600160a01b03199182161790915560028054938516938216939093179092556001805491909316908216179091556000805490911633179055620000eb565b80516001600160a01b03811681146200009c57600080fd5b919050565b600080600060608486031215620000b757600080fd5b620000c28462000084565b9250620000d26020850162000084565b9150620000e26040850162000084565b90509250925092565b612bea80620000fb6000396000f3fe60806040526004361061018f5760003560e01c806390205d8c116100d6578063b7ddc9921161007f578063d8867fc811610059578063d8867fc8146105df578063f5b91b7b146105ff578063fbfa77cf1461062c57600080fd5b8063b7ddc9921461052b578063cedd43751461054b578063cfad57a2146105bf57600080fd5b8063a4d95b64116100b0578063a4d95b64146104e5578063abe68eaa14610505578063b32755de1461051857600080fd5b806390205d8c1461046a57806390b64ad31461048a578063956f285e146104aa57600080fd5b806338c74dd9116101385780634b12e643116101125780634b12e643146103ea5780635fc8500e1461042a5780636023e9661461044a57600080fd5b806338c74dd9146103265780633fc8cef31461039d578063430ed37c146103ca57600080fd5b80632662166b116101695780632662166b146102b85780632d4ba6a7146102e65780633039e37f1461030657600080fd5b806312d43a51146102215780631b827878146102785780631f1dd1761461029857600080fd5b3661021c5760015473ffffffffffffffffffffffffffffffffffffffff16331461021a576040517f08c379a000000000000000000000000000000000000000000000000000000000815260206004820152601660248201527f526f757465723a20696e76616c69642073656e6465720000000000000000000060448201526064015b60405180910390fd5b005b600080fd5b34801561022d57600080fd5b5060005461024e9073ffffffffffffffffffffffffffffffffffffffff1681565b60405173ffffffffffffffffffffffffffffffffffffffff90911681526020015b60405180910390f35b34801561028457600080fd5b5061021a610293366004612504565b610659565b3480156102a457600080fd5b5061021a6102b3366004612563565b61068a565b3480156102c457600080fd5b506102d86102d33660046125cb565b61073f565b60405190815260200161026f565b3480156102f257600080fd5b5061021a610301366004612733565b61081b565b34801561031257600080fd5b5061021a610321366004612796565b610a1a565b34801561033257600080fd5b5061021a610341366004612832565b33600090815260056020908152604080832073ffffffffffffffffffffffffffffffffffffffff9490941683529290522080547fffffffffffffffffffffffffffffffffffffffffffffffffffffffffffffff00166001179055565b3480156103a957600080fd5b5060015461024e9073ffffffffffffffffffffffffffffffffffffffff1681565b3480156103d657600080fd5b5061021a6103e536600461284f565b610b93565b3480156103f657600080fd5b5061041a610405366004612832565b60046020526000908152604090205460ff1681565b604051901515815260200161026f565b34801561043657600080fd5b5061021a610445366004612796565b610bba565b34801561045657600080fd5b5061021a610465366004612733565b610c19565b34801561047657600080fd5b5061021a61048536600461284f565b610c66565b34801561049657600080fd5b5061021a6104a53660046128ca565b610c75565b3480156104b657600080fd5b5061041a6104c53660046128f6565b600560209081526000928352604080842090915290825290205460ff1681565b3480156104f157600080fd5b5061021a610500366004612832565b610d26565b61021a61051336600461292f565b610df3565b61021a61052636600461298a565b610f7f565b34801561053757600080fd5b5061021a610546366004612a0a565b6110e1565b34801561055757600080fd5b5061021a610566366004612832565b33600090815260056020908152604080832073ffffffffffffffffffffffffffffffffffffffff9490941683529290522080547fffffffffffffffffffffffffffffffffffffffffffffffffffffffffffffff00169055565b3480156105cb57600080fd5b5061021a6105da366004612832565b6111b5565b3480156105eb57600080fd5b5061021a6105fa366004612832565b61127d565b34801561060b57600080fd5b5060025461024e9073ffffffffffffffffffffffffffffffffffffffff1681565b34801561063857600080fd5b5060035461024e9073ffffffffffffffffffffffffffffffffffffffff1681565b6106628361134d565b61068473ffffffffffffffffffffffffffffffffffffffff8516848484611463565b50505050565b6106938561134d565b6003546040517f48d91abf00000000000000000000000000000000000000000000000000000000815273ffffffffffffffffffffffffffffffffffffffff878116600483015286811660248301528581166044830152606482018590528315156084830152909116906348d91abf9060a4015b600060405180830381600087803b15801561072057600080fd5b505af1158015610734573d6000803e3d6000fd5b505050505050505050565b600061074a8861134d565b6003546040517f82a0849000000000000000000000000000000000000000000000000000000000815273ffffffffffffffffffffffffffffffffffffffff8a8116600483015289811660248301528881166044830152606482018890526084820187905285151560a483015284811660c4830152909116906382a084909060e4015b6020604051808303816000875af11580156107eb573d6000803e3d6000fd5b505050506040513d601f19601f8201168201806040525081019061080f9190612a7e565b98975050505050505050565b60018054855173ffffffffffffffffffffffffffffffffffffffff9091169186916108469190612a97565b8151811061085657610856612ad7565b602002602001015173ffffffffffffffffffffffffffffffffffffffff16146108db576040517f08c379a000000000000000000000000000000000000000000000000000000000815260206004820152601560248201527f526f757465723a20696e76616c6964205f7061746800000000000000000000006044820152606401610211565b61093f335b600354865173ffffffffffffffffffffffffffffffffffffffff909116908690889060009061091157610911612ad7565b602002602001015173ffffffffffffffffffffffffffffffffffffffff16611463909392919063ffffffff16565b600061094c85843061153f565b905061095881836116ca565b7fcd3829a3813dc3cdd188fd3d01dcf3268c16be2fdd2dd21d0665418816e46062338660008151811061098d5761098d612ad7565b602002602001015187600189516109a49190612a97565b815181106109b4576109b4612ad7565b60200260200101518785604051610a0b95949392919073ffffffffffffffffffffffffffffffffffffffff958616815293851660208501529190931660408301526060820192909252608081019190915260a00190565b60405180910390a15050505050565b60018054895173ffffffffffffffffffffffffffffffffffffffff909116918a91610a459190612a97565b81518110610a5557610a55612ad7565b602002602001015173ffffffffffffffffffffffffffffffffffffffff1614610ada576040517f08c379a000000000000000000000000000000000000000000000000000000000815260206004820152601560248201527f526f757465723a20696e76616c6964205f7061746800000000000000000000006044820152606401610211565b6000610b0589600081518110610af257610af2612ad7565b6020026020010151898989893089611773565b9050610b6e600360009054906101000a900473ffffffffffffffffffffffffffffffffffffffff16828b600081518110610b4157610b41612ad7565b602002602001015173ffffffffffffffffffffffffffffffffffffffff16611a479092919063ffffffff16565b6000610b7b8a843061153f565b9050610b8781866116ca565b50505050505050505050565b6000610ba488888888883088611773565b9050610bb081846116ca565b5050505050505050565b6000610bd289600081518110610af257610af2612ad7565b9050610c0e600360009054906101000a900473ffffffffffffffffffffffffffffffffffffffff16828b600081518110610b4157610b41612ad7565b610b8789838661153f565b610c22336108e0565b6000610c2f85848461153f565b90507fcd3829a3813dc3cdd188fd3d01dcf3268c16be2fdd2dd21d0665418816e46062338660008151811061098d5761098d612ad7565b610bb087878787878787611773565b610c9d3360035473ffffffffffffffffffffffffffffffffffffffff85811692911684611463565b6003546040517f5f7bc11900000000000000000000000000000000000000000000000000000000815273ffffffffffffffffffffffffffffffffffffffff848116600483015290911690635f7bc11990602401600060405180830381600087803b158015610d0a57600080fd5b505af1158015610d1e573d6000803e3d6000fd5b505050505050565b60005473ffffffffffffffffffffffffffffffffffffffff163314610da7576040517f08c379a000000000000000000000000000000000000000000000000000000000815260206004820152601160248201527f526f757465723a20666f7262696464656e0000000000000000000000000000006044820152606401610211565b73ffffffffffffffffffffffffffffffffffffffff16600090815260046020526040902080547fffffffffffffffffffffffffffffffffffffffffffffffffffffffffffffff00169055565b600154835173ffffffffffffffffffffffffffffffffffffffff909116908490600090610e2257610e22612ad7565b602002602001015173ffffffffffffffffffffffffffffffffffffffff1614610ea7576040517f08c379a000000000000000000000000000000000000000000000000000000000815260206004820152601560248201527f526f757465723a20696e76616c6964205f7061746800000000000000000000006044820152606401610211565b610eaf611aa2565b6000610ebc84848461153f565b90507fcd3829a3813dc3cdd188fd3d01dcf3268c16be2fdd2dd21d0665418816e460623385600081518110610ef357610ef3612ad7565b60200260200101518660018851610f0a9190612a97565b81518110610f1a57610f1a612ad7565b60200260200101513485604051610f7195949392919073ffffffffffffffffffffffffffffffffffffffff958616815293851660208501529190931660408301526060820192909252608081019190915260a00190565b60405180910390a150505050565b600154865173ffffffffffffffffffffffffffffffffffffffff909116908790600090610fae57610fae612ad7565b602002602001015173ffffffffffffffffffffffffffffffffffffffff1614611033576040517f08c379a000000000000000000000000000000000000000000000000000000000815260206004820152601560248201527f526f757465723a20696e76616c6964205f7061746800000000000000000000006044820152606401610211565b341561104157611041611aa2565b600186511180156110525750600034115b156110ae57600061106487863061153f565b90506110ac600360009054906101000a900473ffffffffffffffffffffffffffffffffffffffff16828960018b5161109c9190612a97565b81518110610b4157610b41612ad7565b505b610d1e86600188516110c09190612a97565b815181106110d0576110d0612ad7565b602002602001015186858585611b52565b841561111c5761111c33600354895173ffffffffffffffffffffffffffffffffffffffff9091169088908b9060009061091157610911612ad7565b6001875111801561112d5750600085115b1561117957600061113f88863061153f565b9050611177600360009054906101000a900473ffffffffffffffffffffffffffffffffffffffff16828a60018c5161109c9190612a97565b505b6111ac876001895161118b9190612a97565b8151811061119b5761119b612ad7565b602002602001015187858585611b52565b50505050505050565b60005473ffffffffffffffffffffffffffffffffffffffff163314611236576040517f08c379a000000000000000000000000000000000000000000000000000000000815260206004820152601160248201527f526f757465723a20666f7262696464656e0000000000000000000000000000006044820152606401610211565b600080547fffffffffffffffffffffffff00000000000000000000000000000000000000001673ffffffffffffffffffffffffffffffffffffffff92909216919091179055565b60005473ffffffffffffffffffffffffffffffffffffffff1633146112fe576040517f08c379a000000000000000000000000000000000000000000000000000000000815260206004820152601160248201527f526f757465723a20666f7262696464656e0000000000000000000000000000006044820152606401610211565b73ffffffffffffffffffffffffffffffffffffffff16600090815260046020526040902080547fffffffffffffffffffffffffffffffffffffffffffffffffffffffffffffff00166001179055565b3360009081526004602052604090205460ff166113c6576040517f08c379a000000000000000000000000000000000000000000000000000000000815260206004820152601660248201527f526f757465723a20696e76616c696420706c7567696e000000000000000000006044820152606401610211565b73ffffffffffffffffffffffffffffffffffffffff8116600090815260056020908152604080832033845290915290205460ff16611460576040517f08c379a000000000000000000000000000000000000000000000000000000000815260206004820152601b60248201527f526f757465723a20706c7567696e206e6f7420617070726f76656400000000006044820152606401610211565b50565b60405173ffffffffffffffffffffffffffffffffffffffff808516602483015283166044820152606481018290526106849085907f23b872dd00000000000000000000000000000000000000000000000000000000906084015b604080517fffffffffffffffffffffffffffffffffffffffffffffffffffffffffffffffe08184030181529190526020810180517bffffffffffffffffffffffffffffffffffffffffffffffffffffffff167fffffffff0000000000000000000000000000000000000000000000000000000090931692909217909152611e15565b600083516002036115915761158a8460008151811061156057611560612ad7565b60200260200101518560018151811061157b5761157b612ad7565b60200260200101518585611f21565b90506116c3565b83516003036116615760006115dd856000815181106115b2576115b2612ad7565b6020026020010151866001815181106115cd576115cd612ad7565b6020026020010151600030611f21565b9050611619600360009054906101000a900473ffffffffffffffffffffffffffffffffffffffff168287600181518110610b4157610b41612ad7565b6116598560018151811061162f5761162f612ad7565b60200260200101518660028151811061164a5761164a612ad7565b60200260200101518686611f21565b9150506116c3565b6040517f08c379a000000000000000000000000000000000000000000000000000000000815260206004820152601c60248201527f526f757465723a20696e76616c6964205f706174682e6c656e677468000000006044820152606401610211565b9392505050565b6001546040517f2e1a7d4d0000000000000000000000000000000000000000000000000000000081526004810184905273ffffffffffffffffffffffffffffffffffffffff90911690632e1a7d4d90602401600060405180830381600087803b15801561173657600080fd5b505af115801561174a573d6000803e3d6000fd5b5061176f9250505073ffffffffffffffffffffffffffffffffffffffff82168361218e565b5050565b600083156118a2576003546040517f81a612d600000000000000000000000000000000000000000000000000000000815273ffffffffffffffffffffffffffffffffffffffff8981166004830152849216906381a612d690602401602060405180830381865afa1580156117eb573d6000803e3d6000fd5b505050506040513d601f19601f8201168201806040525081019061180f9190612a7e565b101561189d576040517f08c379a000000000000000000000000000000000000000000000000000000000815260206004820152602360248201527f526f757465723a206d61726b207072696365206c6f776572207468616e206c6960448201527f6d697400000000000000000000000000000000000000000000000000000000006064820152608401610211565b6119c3565b6003546040517fe124e6d200000000000000000000000000000000000000000000000000000000815273ffffffffffffffffffffffffffffffffffffffff89811660048301528492169063e124e6d290602401602060405180830381865afa158015611912573d6000803e3d6000fd5b505050506040513d601f19601f820116820180604052508101906119369190612a7e565b11156119c3576040517f08c379a0000000000000000000000000000000000000000000000000000000008152602060048201526024808201527f526f757465723a206d61726b20707269636520686967686572207468616e206c60448201527f696d6974000000000000000000000000000000000000000000000000000000006064820152608401610211565b6003546040517f82a0849000000000000000000000000000000000000000000000000000000000815233600482015273ffffffffffffffffffffffffffffffffffffffff8a811660248301528981166044830152606482018990526084820188905286151560a483015285811660c4830152909116906382a084909060e4016107cc565b60405173ffffffffffffffffffffffffffffffffffffffff8316602482015260448101829052611a9d9084907fa9059cbb00000000000000000000000000000000000000000000000000000000906064016114bd565b505050565b600160009054906101000a900473ffffffffffffffffffffffffffffffffffffffff1673ffffffffffffffffffffffffffffffffffffffff1663d0e30db0346040518263ffffffff1660e01b81526004016000604051808303818588803b158015611b0c57600080fd5b505af1158015611b20573d6000803e3d6000fd5b5050600354600154611b50945073ffffffffffffffffffffffffffffffffffffffff908116935016905034611a47565b565b8115611c7e576003546040517fe124e6d200000000000000000000000000000000000000000000000000000000815273ffffffffffffffffffffffffffffffffffffffff86811660048301528392169063e124e6d290602401602060405180830381865afa158015611bc8573d6000803e3d6000fd5b505050506040513d601f19601f82011682018060405250810190611bec9190612a7e565b1115611c79576040517f08c379a0000000000000000000000000000000000000000000000000000000008152602060048201526024808201527f526f757465723a206d61726b20707269636520686967686572207468616e206c60448201527f696d6974000000000000000000000000000000000000000000000000000000006064820152608401610211565b611da0565b6003546040517f81a612d600000000000000000000000000000000000000000000000000000000815273ffffffffffffffffffffffffffffffffffffffff8681166004830152839216906381a612d690602401602060405180830381865afa158015611cee573d6000803e3d6000fd5b505050506040513d601f19601f82011682018060405250810190611d129190612a7e565b1015611da0576040517f08c379a000000000000000000000000000000000000000000000000000000000815260206004820152602360248201527f526f757465723a206d61726b207072696365206c6f776572207468616e206c6960448201527f6d697400000000000000000000000000000000000000000000000000000000006064820152608401610211565b6003546040517f48d91abf00000000000000000000000000000000000000000000000000000000815233600482015273ffffffffffffffffffffffffffffffffffffffff87811660248301528681166044830152606482018690528415156084830152909116906348d91abf9060a401610706565b6000611e77826040518060400160405280602081526020017f5361666545524332303a206c6f772d6c6576656c2063616c6c206661696c65648152508573ffffffffffffffffffffffffffffffffffffffff166122e89092919063ffffffff16565b805190915015611a9d5780806020019051810190611e959190612b06565b611a9d576040517f08c379a000000000000000000000000000000000000000000000000000000000815260206004820152602a60248201527f5361666545524332303a204552433230206f7065726174696f6e20646964206e60448201527f6f742073756363656564000000000000000000000000000000000000000000006064820152608401610211565b600254600090819073ffffffffffffffffffffffffffffffffffffffff90811690861603611fef576003546040517f817bb85700000000000000000000000000000000000000000000000000000000815273ffffffffffffffffffffffffffffffffffffffff888116600483015285811660248301529091169063817bb857906044015b6020604051808303816000875af1158015611fc4573d6000803e3d6000fd5b505050506040513d601f19601f82011682018060405250810190611fe89190612a7e565b905061211b565b60025473ffffffffffffffffffffffffffffffffffffffff90811690871603612072576003546040517f711e619000000000000000000000000000000000000000000000000000000000815273ffffffffffffffffffffffffffffffffffffffff878116600483015285811660248301529091169063711e619090604401611fa5565b6003546040517f9331621200000000000000000000000000000000000000000000000000000000815273ffffffffffffffffffffffffffffffffffffffff888116600483015287811660248301528581166044830152909116906393316212906064016020604051808303816000875af11580156120f4573d6000803e3d6000fd5b505050506040513d601f19601f820116820180604052508101906121189190612a7e565b90505b83811015612185576040517f08c379a000000000000000000000000000000000000000000000000000000000815260206004820152601e60248201527f526f757465723a20696e73756666696369656e7420616d6f756e744f757400006044820152606401610211565b95945050505050565b804710156121f8576040517f08c379a000000000000000000000000000000000000000000000000000000000815260206004820152601d60248201527f416464726573733a20696e73756666696369656e742062616c616e63650000006044820152606401610211565b60008273ffffffffffffffffffffffffffffffffffffffff168260405160006040518083038185875af1925050503d8060008114612252576040519150601f19603f3d011682016040523d82523d6000602084013e612257565b606091505b5050905080611a9d576040517f08c379a000000000000000000000000000000000000000000000000000000000815260206004820152603a60248201527f416464726573733a20756e61626c6520746f2073656e642076616c75652c207260448201527f6563697069656e74206d617920686176652072657665727465640000000000006064820152608401610211565b60606122f784846000856122ff565b949350505050565b606082471015612391576040517f08c379a000000000000000000000000000000000000000000000000000000000815260206004820152602660248201527f416464726573733a20696e73756666696369656e742062616c616e636520666f60448201527f722063616c6c00000000000000000000000000000000000000000000000000006064820152608401610211565b843b6123f9576040517f08c379a000000000000000000000000000000000000000000000000000000000815260206004820152601d60248201527f416464726573733a2063616c6c20746f206e6f6e2d636f6e74726163740000006044820152606401610211565b6000808673ffffffffffffffffffffffffffffffffffffffff1685876040516124229190612b47565b60006040518083038185875af1925050503d806000811461245f576040519150601f19603f3d011682016040523d82523d6000602084013e612464565b606091505b509150915061247482828661247f565b979650505050505050565b6060831561248e5750816116c3565b82511561249e5782518084602001fd5b816040517f08c379a00000000000000000000000000000000000000000000000000000000081526004016102119190612b63565b73ffffffffffffffffffffffffffffffffffffffff8116811461146057600080fd5b80356124ff816124d2565b919050565b6000806000806080858703121561251a57600080fd5b8435612525816124d2565b93506020850135612535816124d2565b92506040850135612545816124d2565b9396929550929360600135925050565b801515811461146057600080fd5b600080600080600060a0868803121561257b57600080fd5b8535612586816124d2565b94506020860135612596816124d2565b935060408601356125a6816124d2565b92506060860135915060808601356125bd81612555565b809150509295509295909350565b600080600080600080600060e0888a0312156125e657600080fd5b87356125f1816124d2565b96506020880135612601816124d2565b95506040880135612611816124d2565b9450606088013593506080880135925060a088013561262f81612555565b915060c088013561263f816124d2565b8091505092959891949750929550565b7f4e487b7100000000000000000000000000000000000000000000000000000000600052604160045260246000fd5b600082601f83011261268f57600080fd5b8135602067ffffffffffffffff808311156126ac576126ac61264f565b8260051b6040517fffffffffffffffffffffffffffffffffffffffffffffffffffffffffffffffe0603f830116810181811084821117156126ef576126ef61264f565b60405293845285810183019383810192508785111561270d57600080fd5b83870191505b8482101561247457612724826124f4565b83529183019190830190612713565b6000806000806080858703121561274957600080fd5b843567ffffffffffffffff81111561276057600080fd5b61276c8782880161267e565b9450506020850135925060408501359150606085013561278b816124d2565b939692955090935050565b600080600080600080600080610100898b0312156127b357600080fd5b883567ffffffffffffffff8111156127ca57600080fd5b6127d68b828c0161267e565b98505060208901356127e7816124d2565b96506040890135955060608901359450608089013561280581612555565b935060a0890135612815816124d2565b979a969950949793969295929450505060c08201359160e0013590565b60006020828403121561284457600080fd5b81356116c3816124d2565b600080600080600080600060e0888a03121561286a57600080fd5b8735612875816124d2565b96506020880135612885816124d2565b9550604088013594506060880135935060808801356128a381612555565b925060a08801356128b3816124d2565b8092505060c0880135905092959891949750929550565b600080604083850312156128dd57600080fd5b82356128e8816124d2565b946020939093013593505050565b6000806040838503121561290957600080fd5b8235612914816124d2565b91506020830135612924816124d2565b809150509250929050565b60008060006060848603121561294457600080fd5b833567ffffffffffffffff81111561295b57600080fd5b6129678682870161267e565b93505060208401359150604084013561297f816124d2565b809150509250925092565b60008060008060008060c087890312156129a357600080fd5b863567ffffffffffffffff8111156129ba57600080fd5b6129c689828a0161267e565b96505060208701356129d7816124d2565b9450604087013593506060870135925060808701356129f581612555565b8092505060a087013590509295509295509295565b600080600080600080600060e0888a031215612a2557600080fd5b873567ffffffffffffffff811115612a3c57600080fd5b612a488a828b0161267e565b9750506020880135612a59816124d2565b955060408801359450606088013593506080880135925060a08801356128b381612555565b600060208284031215612a9057600080fd5b5051919050565b81810381811115612ad1577f4e487b7100000000000000000000000000000000000000000000000000000000600052601160045260246000fd5b92915050565b7f4e487b7100000000000000000000000000000000000000000000000000000000600052603260045260246000fd5b600060208284031215612b1857600080fd5b81516116c381612555565b60005b83811015612b3e578181015183820152602001612b26565b50506000910152565b60008251612b59818460208701612b23565b9190910192915050565b6020815260008251806020840152612b82816040850160208701612b23565b601f017fffffffffffffffffffffffffffffffffffffffffffffffffffffffffffffffe016919091016040019291505056fea264697066735822122086aa6159462ba4e5165d4d95182151841184ea65452469d93ba5f216496d4dd464736f6c63430008140033",
  "linkReferences": {},
  "deployedLinkReferences": {}
}