{
  "_format": "hh-sol-artifact-1",
  "contractName": "Timelock",
  "sourceName": "contracts/peripherals/Timelock.sol",
  "abi": [
    {
      "inputs": [
        {
          "internalType": "address",
          "name": "_admin",
          "type": "address"
        },
        {
          "internalType": "uint256",
          "name": "_buffer",
          "type": "uint256"
        },
        {
          "internalType": "address",
          "name": "_tokenManager",
          "type": "address"
        },
        {
          "internalType": "address",
          "name": "_mintReceiver",
          "type": "address"
        },
        {
          "internalType": "address",
          "name": "_dlpManager",
          "type": "address"
        },
        {
          "internalType": "address",
          "name": "_rewardRouter",
          "type": "address"
        },
        {
          "internalType": "uint256",
          "name": "_maxTokenSupply",
          "type": "uint256"
        },
        {
          "internalType": "uint256",
          "name": "_marginFeeBasisPoints",
          "type": "uint256"
        },
        {
          "internalType": "uint256",
          "name": "_maxMarginFeeBasisPoints",
          "type": "uint256"
        }
      ],
      "stateMutability": "nonpayable",
      "type": "constructor"
    },
    {
      "anonymous": false,
      "inputs": [
        {
          "indexed": false,
          "internalType": "bytes32",
          "name": "action",
          "type": "bytes32"
        }
      ],
      "name": "ClearAction",
      "type": "event"
    },
    {
      "anonymous": false,
      "inputs": [
        {
          "indexed": false,
          "internalType": "address",
          "name": "token",
          "type": "address"
        },
        {
          "indexed": false,
          "internalType": "address",
          "name": "spender",
          "type": "address"
        },
        {
          "indexed": false,
          "internalType": "uint256",
          "name": "amount",
          "type": "uint256"
        },
        {
          "indexed": false,
          "internalType": "bytes32",
          "name": "action",
          "type": "bytes32"
        }
      ],
      "name": "SignalApprove",
      "type": "event"
    },
    {
      "anonymous": false,
      "inputs": [
        {
          "indexed": false,
          "internalType": "address",
          "name": "token",
          "type": "address"
        },
        {
          "indexed": false,
          "internalType": "address",
          "name": "receiver",
          "type": "address"
        },
        {
          "indexed": false,
          "internalType": "uint256",
          "name": "amount",
          "type": "uint256"
        },
        {
          "indexed": false,
          "internalType": "bytes32",
          "name": "action",
          "type": "bytes32"
        }
      ],
      "name": "SignalMint",
      "type": "event"
    },
    {
      "anonymous": false,
      "inputs": [
        {
          "indexed": false,
          "internalType": "bytes32",
          "name": "action",
          "type": "bytes32"
        }
      ],
      "name": "SignalPendingAction",
      "type": "event"
    },
    {
      "anonymous": false,
      "inputs": [
        {
          "indexed": false,
          "internalType": "address",
          "name": "vault",
          "type": "address"
        },
        {
          "indexed": false,
          "internalType": "address",
          "name": "token",
          "type": "address"
        },
        {
          "indexed": false,
          "internalType": "uint256",
          "name": "amount",
          "type": "uint256"
        }
      ],
      "name": "SignalRedeemUsdg",
      "type": "event"
    },
    {
      "anonymous": false,
      "inputs": [
        {
          "indexed": false,
          "internalType": "address",
          "name": "target",
          "type": "address"
        },
        {
          "indexed": false,
          "internalType": "address",
          "name": "gov",
          "type": "address"
        },
        {
          "indexed": false,
          "internalType": "bytes32",
          "name": "action",
          "type": "bytes32"
        }
      ],
      "name": "SignalSetGov",
      "type": "event"
    },
    {
      "anonymous": false,
      "inputs": [
        {
          "indexed": false,
          "internalType": "address",
          "name": "target",
          "type": "address"
        },
        {
          "indexed": false,
          "internalType": "address",
          "name": "handler",
          "type": "address"
        },
        {
          "indexed": false,
          "internalType": "bool",
          "name": "isActive",
          "type": "bool"
        },
        {
          "indexed": false,
          "internalType": "bytes32",
          "name": "action",
          "type": "bytes32"
        }
      ],
      "name": "SignalSetHandler",
      "type": "event"
    },
    {
      "anonymous": false,
      "inputs": [
        {
          "indexed": false,
          "internalType": "address",
          "name": "vault",
          "type": "address"
        },
        {
          "indexed": false,
          "internalType": "address",
          "name": "priceFeed",
          "type": "address"
        },
        {
          "indexed": false,
          "internalType": "bytes32",
          "name": "action",
          "type": "bytes32"
        }
      ],
      "name": "SignalSetPriceFeed",
      "type": "event"
    },
    {
      "anonymous": false,
      "inputs": [
        {
          "indexed": false,
          "internalType": "address",
          "name": "vault",
          "type": "address"
        },
        {
          "indexed": false,
          "internalType": "address",
          "name": "token",
          "type": "address"
        },
        {
          "indexed": false,
          "internalType": "uint256",
          "name": "tokenDecimals",
          "type": "uint256"
        },
        {
          "indexed": false,
          "internalType": "uint256",
          "name": "tokenWeight",
          "type": "uint256"
        },
        {
          "indexed": false,
          "internalType": "uint256",
          "name": "minProfitBps",
          "type": "uint256"
        },
        {
          "indexed": false,
          "internalType": "uint256",
          "name": "maxUsdgAmount",
          "type": "uint256"
        },
        {
          "indexed": false,
          "internalType": "bool",
          "name": "isStable",
          "type": "bool"
        },
        {
          "indexed": false,
          "internalType": "bool",
          "name": "isShortable",
          "type": "bool"
        }
      ],
      "name": "SignalVaultSetTokenConfig",
      "type": "event"
    },
    {
      "anonymous": false,
      "inputs": [
        {
          "indexed": false,
          "internalType": "address",
          "name": "target",
          "type": "address"
        },
        {
          "indexed": false,
          "internalType": "address",
          "name": "token",
          "type": "address"
        },
        {
          "indexed": false,
          "internalType": "address",
          "name": "receiver",
          "type": "address"
        },
        {
          "indexed": false,
          "internalType": "uint256",
          "name": "amount",
          "type": "uint256"
        },
        {
          "indexed": false,
          "internalType": "bytes32",
          "name": "action",
          "type": "bytes32"
        }
      ],
      "name": "SignalwithdrawToken",
      "type": "event"
    },
    {
      "inputs": [],
      "name": "MAX_BUFFER",
      "outputs": [
        {
          "internalType": "uint256",
          "name": "",
          "type": "uint256"
        }
      ],
      "stateMutability": "view",
      "type": "function"
    },
    {
      "inputs": [],
      "name": "MAX_FUNDING_RATE_FACTOR",
      "outputs": [
        {
          "internalType": "uint256",
          "name": "",
          "type": "uint256"
        }
      ],
      "stateMutability": "view",
      "type": "function"
    },
    {
      "inputs": [],
      "name": "MAX_LEVERAGE_VALIDATION",
      "outputs": [
        {
          "internalType": "uint256",
          "name": "",
          "type": "uint256"
        }
      ],
      "stateMutability": "view",
      "type": "function"
    },
    {
      "inputs": [],
      "name": "PRICE_PRECISION",
      "outputs": [
        {
          "internalType": "uint256",
          "name": "",
          "type": "uint256"
        }
      ],
      "stateMutability": "view",
      "type": "function"
    },
    {
      "inputs": [],
      "name": "admin",
      "outputs": [
        {
          "internalType": "address",
          "name": "",
          "type": "address"
        }
      ],
      "stateMutability": "view",
      "type": "function"
    },
    {
      "inputs": [
        {
          "internalType": "address",
          "name": "_token",
          "type": "address"
        },
        {
          "internalType": "address",
          "name": "_spender",
          "type": "address"
        },
        {
          "internalType": "uint256",
          "name": "_amount",
          "type": "uint256"
        }
      ],
      "name": "approve",
      "outputs": [],
      "stateMutability": "nonpayable",
      "type": "function"
    },
    {
      "inputs": [
        {
          "internalType": "address",
          "name": "_vester",
          "type": "address"
        },
        {
          "internalType": "address[]",
          "name": "_accounts",
          "type": "address[]"
        },
        {
          "internalType": "uint256[]",
          "name": "_amounts",
          "type": "uint256[]"
        }
      ],
      "name": "batchSetBonusRewards",
      "outputs": [],
      "stateMutability": "nonpayable",
      "type": "function"
    },
    {
      "inputs": [
        {
          "internalType": "address",
          "name": "_vault",
          "type": "address"
        },
        {
          "internalType": "address[]",
          "name": "_tokens",
          "type": "address[]"
        }
      ],
      "name": "batchWithdrawFees",
      "outputs": [],
      "stateMutability": "nonpayable",
      "type": "function"
    },
    {
      "inputs": [],
      "name": "buffer",
      "outputs": [
        {
          "internalType": "uint256",
          "name": "",
          "type": "uint256"
        }
      ],
      "stateMutability": "view",
      "type": "function"
    },
    {
      "inputs": [
        {
          "internalType": "bytes32",
          "name": "_action",
          "type": "bytes32"
        }
      ],
      "name": "cancelAction",
      "outputs": [],
      "stateMutability": "nonpayable",
      "type": "function"
    },
    {
      "inputs": [
        {
          "internalType": "address",
          "name": "_vault",
          "type": "address"
        }
      ],
      "name": "disableLeverage",
      "outputs": [],
      "stateMutability": "nonpayable",
      "type": "function"
    },
    {
      "inputs": [],
      "name": "dlpManager",
      "outputs": [
        {
          "internalType": "address",
          "name": "",
          "type": "address"
        }
      ],
      "stateMutability": "view",
      "type": "function"
    },
    {
      "inputs": [
        {
          "internalType": "address",
          "name": "_vault",
          "type": "address"
        }
      ],
      "name": "enableLeverage",
      "outputs": [],
      "stateMutability": "nonpayable",
      "type": "function"
    },
    {
      "inputs": [
        {
          "internalType": "address",
          "name": "_referralStorage",
          "type": "address"
        },
        {
          "internalType": "bytes32",
          "name": "_code",
          "type": "bytes32"
        },
        {
          "internalType": "address",
          "name": "_newAccount",
          "type": "address"
        }
      ],
      "name": "govSetCodeOwner",
      "outputs": [],
      "stateMutability": "nonpayable",
      "type": "function"
    },
    {
      "inputs": [],
      "name": "initDlpManager",
      "outputs": [],
      "stateMutability": "nonpayable",
      "type": "function"
    },
    {
      "inputs": [],
      "name": "initRewardRouter",
      "outputs": [],
      "stateMutability": "nonpayable",
      "type": "function"
    },
    {
      "inputs": [
        {
          "internalType": "address",
          "name": "",
          "type": "address"
        }
      ],
      "name": "isHandler",
      "outputs": [
        {
          "internalType": "bool",
          "name": "",
          "type": "bool"
        }
      ],
      "stateMutability": "view",
      "type": "function"
    },
    {
      "inputs": [
        {
          "internalType": "address",
          "name": "",
          "type": "address"
        }
      ],
      "name": "isKeeper",
      "outputs": [
        {
          "internalType": "bool",
          "name": "",
          "type": "bool"
        }
      ],
      "stateMutability": "view",
      "type": "function"
    },
    {
      "inputs": [],
      "name": "marginFeeBasisPoints",
      "outputs": [
        {
          "internalType": "uint256",
          "name": "",
          "type": "uint256"
        }
      ],
      "stateMutability": "view",
      "type": "function"
    },
    {
      "inputs": [],
      "name": "maxMarginFeeBasisPoints",
      "outputs": [
        {
          "internalType": "uint256",
          "name": "",
          "type": "uint256"
        }
      ],
      "stateMutability": "view",
      "type": "function"
    },
    {
      "inputs": [],
      "name": "maxTokenSupply",
      "outputs": [
        {
          "internalType": "uint256",
          "name": "",
          "type": "uint256"
        }
      ],
      "stateMutability": "view",
      "type": "function"
    },
    {
      "inputs": [],
      "name": "mintReceiver",
      "outputs": [
        {
          "internalType": "address",
          "name": "",
          "type": "address"
        }
      ],
      "stateMutability": "view",
      "type": "function"
    },
    {
      "inputs": [
        {
          "internalType": "bytes32",
          "name": "",
          "type": "bytes32"
        }
      ],
      "name": "pendingActions",
      "outputs": [
        {
          "internalType": "uint256",
          "name": "",
          "type": "uint256"
        }
      ],
      "stateMutability": "view",
      "type": "function"
    },
    {
      "inputs": [
        {
          "internalType": "address",
          "name": "_token",
          "type": "address"
        },
        {
          "internalType": "address",
          "name": "_receiver",
          "type": "address"
        },
        {
          "internalType": "uint256",
          "name": "_amount",
          "type": "uint256"
        }
      ],
      "name": "processMint",
      "outputs": [],
      "stateMutability": "nonpayable",
      "type": "function"
    },
    {
      "inputs": [
        {
          "internalType": "address",
          "name": "_vault",
          "type": "address"
        },
        {
          "internalType": "address",
          "name": "_token",
          "type": "address"
        },
        {
          "internalType": "uint256",
          "name": "_amount",
          "type": "uint256"
        }
      ],
      "name": "redeemUsdg",
      "outputs": [],
      "stateMutability": "nonpayable",
      "type": "function"
    },
    {
      "inputs": [
        {
          "internalType": "address",
          "name": "_token",
          "type": "address"
        },
        {
          "internalType": "address",
          "name": "_account",
          "type": "address"
        }
      ],
      "name": "removeAdmin",
      "outputs": [],
      "stateMutability": "nonpayable",
      "type": "function"
    },
    {
      "inputs": [],
      "name": "rewardRouter",
      "outputs": [
        {
          "internalType": "address",
          "name": "",
          "type": "address"
        }
      ],
      "stateMutability": "view",
      "type": "function"
    },
    {
      "inputs": [
        {
          "internalType": "address",
          "name": "_admin",
          "type": "address"
        }
      ],
      "name": "setAdmin",
      "outputs": [],
      "stateMutability": "nonpayable",
      "type": "function"
    },
    {
      "inputs": [
        {
          "internalType": "uint256",
          "name": "_buffer",
          "type": "uint256"
        }
      ],
      "name": "setBuffer",
      "outputs": [],
      "stateMutability": "nonpayable",
      "type": "function"
    },
    {
      "inputs": [
        {
          "internalType": "address",
          "name": "_handler",
          "type": "address"
        },
        {
          "internalType": "bool",
          "name": "_isActive",
          "type": "bool"
        }
      ],
      "name": "setContractHandler",
      "outputs": [],
      "stateMutability": "nonpayable",
      "type": "function"
    },
    {
      "inputs": [
        {
          "internalType": "uint256",
          "name": "_cooldownDuration",
          "type": "uint256"
        }
      ],
      "name": "setDlpCooldownDuration",
      "outputs": [],
      "stateMutability": "nonpayable",
      "type": "function"
    },
    {
      "inputs": [
        {
          "internalType": "address",
          "name": "_target",
          "type": "address"
        },
        {
          "internalType": "address",
          "name": "_admin",
          "type": "address"
        }
      ],
      "name": "setExternalAdmin",
      "outputs": [],
      "stateMutability": "nonpayable",
      "type": "function"
    },
    {
      "inputs": [
        {
          "internalType": "address",
          "name": "_vault",
          "type": "address"
        },
        {
          "internalType": "uint256",
          "name": "_taxBasisPoints",
          "type": "uint256"
        },
        {
          "internalType": "uint256",
          "name": "_stableTaxBasisPoints",
          "type": "uint256"
        },
        {
          "internalType": "uint256",
          "name": "_mintBurnFeeBasisPoints",
          "type": "uint256"
        },
        {
          "internalType": "uint256",
          "name": "_swapFeeBasisPoints",
          "type": "uint256"
        },
        {
          "internalType": "uint256",
          "name": "_stableSwapFeeBasisPoints",
          "type": "uint256"
        },
        {
          "internalType": "uint256",
          "name": "_marginFeeBasisPoints",
          "type": "uint256"
        },
        {
          "internalType": "uint256",
          "name": "_liquidationFeeUsd",
          "type": "uint256"
        },
        {
          "internalType": "uint256",
          "name": "_minProfitTime",
          "type": "uint256"
        },
        {
          "internalType": "bool",
          "name": "_hasDynamicFees",
          "type": "bool"
        }
      ],
      "name": "setFees",
      "outputs": [],
      "stateMutability": "nonpayable",
      "type": "function"
    },
    {
      "inputs": [
        {
          "internalType": "address",
          "name": "_vault",
          "type": "address"
        },
        {
          "internalType": "uint256",
          "name": "_fundingInterval",
          "type": "uint256"
        },
        {
          "internalType": "uint256",
          "name": "_fundingRateFactor",
          "type": "uint256"
        },
        {
          "internalType": "uint256",
          "name": "_stableFundingRateFactor",
          "type": "uint256"
        }
      ],
      "name": "setFundingRate",
      "outputs": [],
      "stateMutability": "nonpayable",
      "type": "function"
    },
    {
      "inputs": [
        {
          "internalType": "address",
          "name": "_target",
          "type": "address"
        },
        {
          "internalType": "address",
          "name": "_gov",
          "type": "address"
        }
      ],
      "name": "setGov",
      "outputs": [],
      "stateMutability": "nonpayable",
      "type": "function"
    },
    {
      "inputs": [
        {
          "internalType": "address",
          "name": "_target",
          "type": "address"
        },
        {
          "internalType": "address",
          "name": "_handler",
          "type": "address"
        },
        {
          "internalType": "bool",
          "name": "_isActive",
          "type": "bool"
        }
      ],
      "name": "setHandler",
      "outputs": [],
      "stateMutability": "nonpayable",
      "type": "function"
    },
    {
      "inputs": [
        {
          "internalType": "address",
          "name": "_vault",
          "type": "address"
        },
        {
          "internalType": "bool",
          "name": "_inPrivateLiquidationMode",
          "type": "bool"
        }
      ],
      "name": "setInPrivateLiquidationMode",
      "outputs": [],
      "stateMutability": "nonpayable",
      "type": "function"
    },
    {
      "inputs": [
        {
          "internalType": "address",
          "name": "_token",
          "type": "address"
        },
        {
          "internalType": "bool",
          "name": "_inPrivateTransferMode",
          "type": "bool"
        }
      ],
      "name": "setInPrivateTransferMode",
      "outputs": [],
      "stateMutability": "nonpayable",
      "type": "function"
    },
    {
      "inputs": [
        {
          "internalType": "address",
          "name": "_vault",
          "type": "address"
        },
        {
          "internalType": "bool",
          "name": "_isLeverageEnabled",
          "type": "bool"
        }
      ],
      "name": "setIsLeverageEnabled",
      "outputs": [],
      "stateMutability": "nonpayable",
      "type": "function"
    },
    {
      "inputs": [
        {
          "internalType": "address",
          "name": "_vault",
          "type": "address"
        },
        {
          "internalType": "bool",
          "name": "_isSwapEnabled",
          "type": "bool"
        }
      ],
      "name": "setIsSwapEnabled",
      "outputs": [],
      "stateMutability": "nonpayable",
      "type": "function"
    },
    {
      "inputs": [
        {
          "internalType": "address",
          "name": "_keeper",
          "type": "address"
        },
        {
          "internalType": "bool",
          "name": "_isActive",
          "type": "bool"
        }
      ],
      "name": "setKeeper",
      "outputs": [],
      "stateMutability": "nonpayable",
      "type": "function"
    },
    {
      "inputs": [
        {
          "internalType": "address",
          "name": "_vault",
          "type": "address"
        },
        {
          "internalType": "address",
          "name": "_liquidator",
          "type": "address"
        },
        {
          "internalType": "bool",
          "name": "_isActive",
          "type": "bool"
        }
      ],
      "name": "setLiquidator",
      "outputs": [],
      "stateMutability": "nonpayable",
      "type": "function"
    },
    {
      "inputs": [
        {
          "internalType": "uint256",
          "name": "_marginFeeBasisPoints",
          "type": "uint256"
        },
        {
          "internalType": "uint256",
          "name": "_maxMarginFeeBasisPoints",
          "type": "uint256"
        }
      ],
      "name": "setMarginFeeBasisPoints",
      "outputs": [],
      "stateMutability": "nonpayable",
      "type": "function"
    },
    {
      "inputs": [
        {
          "internalType": "address",
          "name": "_vault",
          "type": "address"
        },
        {
          "internalType": "uint256",
          "name": "_maxGasPrice",
          "type": "uint256"
        }
      ],
      "name": "setMaxGasPrice",
      "outputs": [],
      "stateMutability": "nonpayable",
      "type": "function"
    },
    {
      "inputs": [
        {
          "internalType": "address",
          "name": "_vault",
          "type": "address"
        },
        {
          "internalType": "address",
          "name": "_token",
          "type": "address"
        },
        {
          "internalType": "uint256",
          "name": "_amount",
          "type": "uint256"
        }
      ],
      "name": "setMaxGlobalShortSize",
      "outputs": [],
      "stateMutability": "nonpayable",
      "type": "function"
    },
    {
      "inputs": [
        {
          "internalType": "address",
          "name": "_vault",
          "type": "address"
        },
        {
          "internalType": "uint256",
          "name": "_maxLeverage",
          "type": "uint256"
        }
      ],
      "name": "setMaxLeverage",
      "outputs": [],
      "stateMutability": "nonpayable",
      "type": "function"
    },
    {
      "inputs": [
        {
          "internalType": "address",
          "name": "_vault",
          "type": "address"
        },
        {
          "internalType": "address",
          "name": "_priceFeed",
          "type": "address"
        }
      ],
      "name": "setPriceFeed",
      "outputs": [],
      "stateMutability": "nonpayable",
      "type": "function"
    },
    {
      "inputs": [
        {
          "internalType": "address",
          "name": "_referralStorage",
          "type": "address"
        },
        {
          "internalType": "address",
          "name": "_referrer",
          "type": "address"
        },
        {
          "internalType": "uint256",
          "name": "_tierId",
          "type": "uint256"
        }
      ],
      "name": "setReferrerTier",
      "outputs": [],
      "stateMutability": "nonpayable",
      "type": "function"
    },
    {
      "inputs": [
        {
          "internalType": "uint256",
          "name": "_shortsTrackerAveragePriceWeight",
          "type": "uint256"
        }
      ],
      "name": "setShortsTrackerAveragePriceWeight",
      "outputs": [],
      "stateMutability": "nonpayable",
      "type": "function"
    },
    {
      "inputs": [
        {
          "internalType": "bool",
          "name": "_shouldToggleIsLeverageEnabled",
          "type": "bool"
        }
      ],
      "name": "setShouldToggleIsLeverageEnabled",
      "outputs": [],
      "stateMutability": "nonpayable",
      "type": "function"
    },
    {
      "inputs": [
        {
          "internalType": "address",
          "name": "_vault",
          "type": "address"
        },
        {
          "internalType": "uint256",
          "name": "_taxBasisPoints",
          "type": "uint256"
        },
        {
          "internalType": "uint256",
          "name": "_stableTaxBasisPoints",
          "type": "uint256"
        },
        {
          "internalType": "uint256",
          "name": "_mintBurnFeeBasisPoints",
          "type": "uint256"
        },
        {
          "internalType": "uint256",
          "name": "_swapFeeBasisPoints",
          "type": "uint256"
        },
        {
          "internalType": "uint256",
          "name": "_stableSwapFeeBasisPoints",
          "type": "uint256"
        }
      ],
      "name": "setSwapFees",
      "outputs": [],
      "stateMutability": "nonpayable",
      "type": "function"
    },
    {
      "inputs": [
        {
          "internalType": "address",
          "name": "_referralStorage",
          "type": "address"
        },
        {
          "internalType": "uint256",
          "name": "_tierId",
          "type": "uint256"
        },
        {
          "internalType": "uint256",
          "name": "_totalRebate",
          "type": "uint256"
        },
        {
          "internalType": "uint256",
          "name": "_discountShare",
          "type": "uint256"
        }
      ],
      "name": "setTier",
      "outputs": [],
      "stateMutability": "nonpayable",
      "type": "function"
    },
    {
      "inputs": [
        {
          "internalType": "address",
          "name": "_vault",
          "type": "address"
        },
        {
          "internalType": "address",
          "name": "_token",
          "type": "address"
        },
        {
          "internalType": "uint256",
          "name": "_tokenWeight",
          "type": "uint256"
        },
        {
          "internalType": "uint256",
          "name": "_minProfitBps",
          "type": "uint256"
        },
        {
          "internalType": "uint256",
          "name": "_maxUsdgAmount",
          "type": "uint256"
        },
        {
          "internalType": "uint256",
          "name": "_bufferAmount",
          "type": "uint256"
        },
        {
          "internalType": "uint256",
          "name": "_usdgAmount",
          "type": "uint256"
        }
      ],
      "name": "setTokenConfig",
      "outputs": [],
      "stateMutability": "nonpayable",
      "type": "function"
    },
    {
      "inputs": [
        {
          "internalType": "address",
          "name": "_vault",
          "type": "address"
        },
        {
          "internalType": "address[]",
          "name": "_tokens",
          "type": "address[]"
        },
        {
          "internalType": "uint256[]",
          "name": "_usdgAmounts",
          "type": "uint256[]"
        }
      ],
      "name": "setUsdgAmounts",
      "outputs": [],
      "stateMutability": "nonpayable",
      "type": "function"
    },
    {
      "inputs": [
        {
          "internalType": "address",
          "name": "_vault",
          "type": "address"
        },
        {
          "internalType": "contract IVaultUtils",
          "name": "_vaultUtils",
          "type": "address"
        }
      ],
      "name": "setVaultUtils",
      "outputs": [],
      "stateMutability": "nonpayable",
      "type": "function"
    },
    {
      "inputs": [],
      "name": "shouldToggleIsLeverageEnabled",
      "outputs": [
        {
          "internalType": "bool",
          "name": "",
          "type": "bool"
        }
      ],
      "stateMutability": "view",
      "type": "function"
    },
    {
      "inputs": [
        {
          "internalType": "address",
          "name": "_token",
          "type": "address"
        },
        {
          "internalType": "address",
          "name": "_spender",
          "type": "address"
        },
        {
          "internalType": "uint256",
          "name": "_amount",
          "type": "uint256"
        }
      ],
      "name": "signalApprove",
      "outputs": [],
      "stateMutability": "nonpayable",
      "type": "function"
    },
    {
      "inputs": [
        {
          "internalType": "address",
          "name": "_token",
          "type": "address"
        },
        {
          "internalType": "address",
          "name": "_receiver",
          "type": "address"
        },
        {
          "internalType": "uint256",
          "name": "_amount",
          "type": "uint256"
        }
      ],
      "name": "signalMint",
      "outputs": [],
      "stateMutability": "nonpayable",
      "type": "function"
    },
    {
      "inputs": [
        {
          "internalType": "address",
          "name": "_vault",
          "type": "address"
        },
        {
          "internalType": "address",
          "name": "_token",
          "type": "address"
        },
        {
          "internalType": "uint256",
          "name": "_amount",
          "type": "uint256"
        }
      ],
      "name": "signalRedeemUsdg",
      "outputs": [],
      "stateMutability": "nonpayable",
      "type": "function"
    },
    {
      "inputs": [
        {
          "internalType": "address",
          "name": "_target",
          "type": "address"
        },
        {
          "internalType": "address",
          "name": "_gov",
          "type": "address"
        }
      ],
      "name": "signalSetGov",
      "outputs": [],
      "stateMutability": "nonpayable",
      "type": "function"
    },
    {
      "inputs": [
        {
          "internalType": "address",
          "name": "_target",
          "type": "address"
        },
        {
          "internalType": "address",
          "name": "_handler",
          "type": "address"
        },
        {
          "internalType": "bool",
          "name": "_isActive",
          "type": "bool"
        }
      ],
      "name": "signalSetHandler",
      "outputs": [],
      "stateMutability": "nonpayable",
      "type": "function"
    },
    {
      "inputs": [
        {
          "internalType": "address",
          "name": "_vault",
          "type": "address"
        },
        {
          "internalType": "address",
          "name": "_priceFeed",
          "type": "address"
        }
      ],
      "name": "signalSetPriceFeed",
      "outputs": [],
      "stateMutability": "nonpayable",
      "type": "function"
    },
    {
      "inputs": [
        {
          "internalType": "address",
          "name": "_vault",
          "type": "address"
        },
        {
          "internalType": "address",
          "name": "_token",
          "type": "address"
        },
        {
          "internalType": "uint256",
          "name": "_tokenDecimals",
          "type": "uint256"
        },
        {
          "internalType": "uint256",
          "name": "_tokenWeight",
          "type": "uint256"
        },
        {
          "internalType": "uint256",
          "name": "_minProfitBps",
          "type": "uint256"
        },
        {
          "internalType": "uint256",
          "name": "_maxUsdgAmount",
          "type": "uint256"
        },
        {
          "internalType": "bool",
          "name": "_isStable",
          "type": "bool"
        },
        {
          "internalType": "bool",
          "name": "_isShortable",
          "type": "bool"
        }
      ],
      "name": "signalVaultSetTokenConfig",
      "outputs": [],
      "stateMutability": "nonpayable",
      "type": "function"
    },
    {
      "inputs": [
        {
          "internalType": "address",
          "name": "_target",
          "type": "address"
        },
        {
          "internalType": "address",
          "name": "_token",
          "type": "address"
        },
        {
          "internalType": "address",
          "name": "_receiver",
          "type": "address"
        },
        {
          "internalType": "uint256",
          "name": "_amount",
          "type": "uint256"
        }
      ],
      "name": "signalwithdrawToken",
      "outputs": [],
      "stateMutability": "nonpayable",
      "type": "function"
    },
    {
      "inputs": [],
      "name": "tokenManager",
      "outputs": [
        {
          "internalType": "address",
          "name": "",
          "type": "address"
        }
      ],
      "stateMutability": "view",
      "type": "function"
    },
    {
      "inputs": [
        {
          "internalType": "address",
          "name": "_sender",
          "type": "address"
        },
        {
          "internalType": "address",
          "name": "_token",
          "type": "address"
        },
        {
          "internalType": "uint256",
          "name": "_amount",
          "type": "uint256"
        }
      ],
      "name": "transferIn",
      "outputs": [],
      "stateMutability": "nonpayable",
      "type": "function"
    },
    {
      "inputs": [
        {
          "internalType": "uint256",
          "name": "usdgAmount",
          "type": "uint256"
        }
      ],
      "name": "updateUsdgSupply",
      "outputs": [],
      "stateMutability": "nonpayable",
      "type": "function"
    },
    {
      "inputs": [
        {
          "internalType": "address",
          "name": "_vault",
          "type": "address"
        },
        {
          "internalType": "address",
          "name": "_token",
          "type": "address"
        },
        {
          "internalType": "uint256",
          "name": "_tokenDecimals",
          "type": "uint256"
        },
        {
          "internalType": "uint256",
          "name": "_tokenWeight",
          "type": "uint256"
        },
        {
          "internalType": "uint256",
          "name": "_minProfitBps",
          "type": "uint256"
        },
        {
          "internalType": "uint256",
          "name": "_maxUsdgAmount",
          "type": "uint256"
        },
        {
          "internalType": "bool",
          "name": "_isStable",
          "type": "bool"
        },
        {
          "internalType": "bool",
          "name": "_isShortable",
          "type": "bool"
        }
      ],
      "name": "vaultSetTokenConfig",
      "outputs": [],
      "stateMutability": "nonpayable",
      "type": "function"
    },
    {
      "inputs": [
        {
          "internalType": "address",
          "name": "_vault",
          "type": "address"
        },
        {
          "internalType": "address",
          "name": "_token",
          "type": "address"
        },
        {
          "internalType": "address",
          "name": "_receiver",
          "type": "address"
        }
      ],
      "name": "withdrawFees",
      "outputs": [],
      "stateMutability": "nonpayable",
      "type": "function"
    },
    {
      "inputs": [
        {
          "internalType": "address",
          "name": "_target",
          "type": "address"
        },
        {
          "internalType": "address",
          "name": "_token",
          "type": "address"
        },
        {
          "internalType": "address",
          "name": "_receiver",
          "type": "address"
        },
        {
          "internalType": "uint256",
          "name": "_amount",
          "type": "uint256"
        }
      ],
      "name": "withdrawToken",
      "outputs": [],
      "stateMutability": "nonpayable",
      "type": "function"
    }
  ],
  "bytecode": "0x60806040523480156200001157600080fd5b5060405162005b1338038062005b13833981016040819052620000349162000120565b620697808811156200008c5760405162461bcd60e51b815260206004820152601960248201527f54696d656c6f636b3a20696e76616c6964205f62756666657200000000000000604482015260640160405180910390fd5b600180546001600160a01b03199081166001600160a01b039b8c1617909155600098909855600280548916978a1697909717909655600380548816958916959095179094556004805487169388169390931790925560058054909516951694909417909255600692909255600755600855620001b7565b80516001600160a01b03811681146200011b57600080fd5b919050565b60008060008060008060008060006101208a8c0312156200014057600080fd5b6200014b8a62000103565b985060208a015197506200016260408b0162000103565b96506200017260608b0162000103565b95506200018260808b0162000103565b94506200019260a08b0162000103565b935060c08a0151925060e08a015191506101008a015190509295985092959850929598565b61594c80620001c76000396000f3fe608060405234801561001057600080fd5b50600436106104715760003560e01c80637b6f775a11610250578063c7bb26a011610150578063e1f21c67116100c8578063e4652f4911610097578063edaafe201161007c578063edaafe2014610983578063f1992b8f1461098c578063f851a4401461099f57600080fd5b8063e4652f491461095d578063e8ae22711461097057600080fd5b8063e1f21c6714610904578063e21b459114610917578063e30569e51461092a578063e3cbeb0f1461094a57600080fd5b8063da7623161161011f578063dce6e18d11610104578063dce6e18d146108cb578063df3a66d9146108de578063e06c7c57146108f157600080fd5b8063da762316146108a5578063db1c8441146108b857600080fd5b8063c7bb26a014610859578063cd2b12301461086c578063d1b9e8531461087f578063d3c87bbb1461089257600080fd5b8063996a7a1e116101e3578063afd14deb116101b2578063bc8a8ab911610197578063bc8a8ab914610820578063c078996b14610833578063c142940a1461084657600080fd5b8063afd14deb14610805578063bc476dfd1461080d57600080fd5b8063996a7a1e146107c3578063996e2bc9146107d65780639b53ad22146107df578063adc7ea37146107f257600080fd5b80638a39735a1161021f5780638a39735a146107815780638bf22c46146107895780638e34c98f1461079c57806395082d25146107af57600080fd5b80637b6f775a1461073557806380894d621461074857806381774b3d1461075b57806386803c721461076e57600080fd5b8063318bc689116103765780635a3bb989116102ee5780636e5227d4116102bd57806370ac0a93116102a257806370ac0a93146106fc57806376e112861461070f578063781cc3d31461072257600080fd5b80636e5227d4146106d6578063704b6c02146106e957600080fd5b80635a3bb9891461068357806361d07569146106965780636ba42aaa146106a05780636d63c1d0146106c357600080fd5b806350f7c20411610345578063558182941161032a578063558182941461065557806355ef139514610668578063561150031461067b57600080fd5b806350f7c2041461063957806351a6de0d1461064257600080fd5b8063318bc689146105e757806346ea87af146105f057806347de43e2146106135780634f5f6b5e1461062657600080fd5b8063204bbc541161040957806323aaad12116103d8578063268959e5116103bd578063268959e5146105915780632a709b14146105a45780632ba3725a146105cf57600080fd5b806323aaad121461055c57806324ccbe301461057e57600080fd5b8063204bbc541461051057806321754d9e1461052357806321bd059214610536578063227f03eb1461054957600080fd5b80630e9587f3116104455780630e9587f3146104c45780631154e808146104d7578063117cf204146104ea578063185051c1146104fd57600080fd5b80629a698e146104765780630191c2371461048b57806309cc9a081461049e5780630e0dc426146104b1575b600080fd5b6104896104843660046152af565b6109b2565b005b61048961049936600461537b565b610c28565b6104896104ac36600461537b565b610d24565b6104896104bf3660046153bc565b610e17565b6104896104d236600461541e565b611304565b6104896104e5366004615477565b6113df565b6104896104f83660046154b7565b611500565b61048961050b3660046154b7565b6115f5565b61048961051e3660046154f0565b611668565b610489610531366004615527565b611732565b6104896105443660046154b7565b61187d565b610489610557366004615578565b61190c565b6009546105699060ff1681565b60405190151581526020015b60405180910390f35b61048961058c366004615477565b611ac7565b61048961059f3660046155b3565b611bc8565b6002546105b7906001600160a01b031681565b6040516001600160a01b039091168152602001610575565b6105d96207a12081565b604051908152602001610575565b6105d960075481565b6105696105fe3660046155e1565b600b6020526000908152604090205460ff1681565b610489610621366004615477565b611c57565b610489610634366004615605565b611cee565b6105d960065481565b6104896106503660046155b3565b611daf565b610489610663366004615578565b611e9e565b6104896106763660046155b3565b611f6e565b610489612055565b6005546105b7906001600160a01b031681565b6105d96206978081565b6105696106ae3660046155e1565b600c6020526000908152604090205460ff1681565b6104896106d13660046155e1565b612300565b6104896106e436600461561e565b612760565b6104896106f73660046155e1565b61289f565b61048961070a36600461537b565b612921565b61048961071d3660046155b3565b612cff565b610489610730366004615605565b612df7565b6104896107433660046156a6565b612e4b565b6104896107563660046155b3565b612f2b565b610489610769366004615605565b613024565b61048961077c3660046154b7565b613349565b6105d960c881565b6104896107973660046156a6565b6133d8565b6104896107aa3660046156d2565b6134ba565b6105d96c0c9f2c9cd04674edea4000000081565b6104896107d13660046155b3565b61352f565b6105d960085481565b6104896107ed3660046152af565b613616565b610489610800366004615605565b613757565b61048961386d565b61048961081b3660046155b3565b613aa6565b61048961082e36600461537b565b613b35565b610489610841366004615605565b613bed565b61048961085436600461537b565b613cf4565b6003546105b7906001600160a01b031681565b61048961087a3660046154b7565b613dbe565b61048961088d3660046154b7565b613e4e565b6104896108a03660046155e1565b613ec1565b6104896108b33660046156ef565b6141c5565b6104896108c636600461573b565b61442d565b6104896108d936600461537b565b614592565b6104896108ec36600461537b565b614688565b6104896108ff366004615527565b61471e565b61048961091236600461537b565b614835565b6104896109253660046157c0565b614971565b6105d9610938366004615605565b600a6020526000908152604090205481565b61048961095836600461573b565b6149de565b61048961096b36600461537b565b614b62565b61048961097e3660046157e2565b614c3c565b6105d960005481565b6004546105b7906001600160a01b031681565b6001546105b7906001600160a01b031681565b6001546001600160a01b03163314806109da5750336000908152600b602052604090205460ff165b806109f45750336000908152600c602052604090205460ff165b610a335760405162461bcd60e51b815260206004820152601360248201526000805160206158f783398151915260448201526064015b60405180910390fd5b8051825114610a845760405162461bcd60e51b815260206004820152601960248201527f54696d656c6f636b3a20696e76616c6964206c656e67746873000000000000006044820152606401610a2a565b604051639cb7de4b60e01b8152306004820152600160248201526001600160a01b03841690639cb7de4b90604401600060405180830381600087803b158015610acc57600080fd5b505af1158015610ae0573d6000803e3d6000fd5b5050505060005b8251811015610bc1576000838281518110610b0457610b04615832565b602002602001015190506000838381518110610b2257610b22615832565b60209081029190910101516040517f41f227240000000000000000000000000000000000000000000000000000000081526001600160a01b03848116600483015260248201839052919250908716906341f2272490604401600060405180830381600087803b158015610b9457600080fd5b505af1158015610ba8573d6000803e3d6000fd5b5050505050508080610bb99061585e565b915050610ae7565b50604051639cb7de4b60e01b8152306004820152600060248201526001600160a01b03841690639cb7de4b906044015b600060405180830381600087803b158015610c0b57600080fd5b505af1158015610c1f573d6000803e3d6000fd5b50505050505050565b6001546001600160a01b03163314610c705760405162461bcd60e51b815260206004820152601360248201526000805160206158f78339815191526044820152606401610a2a565b6040516972656465656d5573646760b01b60208201526001600160601b0319606085811b8216602a84015284901b16603e82015260528101829052600090607201604051602081830303815290604052805190602001209050610cd281614d94565b604080516001600160a01b038087168252851660208201529081018390527fe6bd553b6ef21f3a22ebc877b3aaedc30fe15826b8156d4e8c8b373ebf11d78b906060015b60405180910390a150505050565b6001546001600160a01b03163314610d6c5760405162461bcd60e51b815260206004820152601360248201526000805160206158f78339815191526044820152606401610a2a565b604051631b5a5b9d60e21b60208201526001600160601b0319606085811b8216602484015284901b166038820152604c8101829052600090606c01604051602081830303815290604052805190602001209050610dc881614d94565b604080516001600160a01b03808716825285166020820152908101839052606081018290527f23d37bec99db82564427c9bbfe48ad7434bccf413a40fd357fb838c90a0d682890608001610d16565b6001546001600160a01b0316331480610e3f5750336000908152600b602052604090205460ff165b80610e595750336000908152600c602052604090205460ff165b610e935760405162461bcd60e51b815260206004820152601360248201526000805160206158f78339815191526044820152606401610a2a565b6101f4841115610ee55760405162461bcd60e51b815260206004820152601f60248201527f54696d656c6f636b3a20696e76616c6964205f6d696e50726f666974427073006044820152606401610a2a565b6040517fdaf9c2100000000000000000000000000000000000000000000000000000000081526001600160a01b03878116600483015288919082169063daf9c21090602401602060405180830381865afa158015610f47573d6000803e3d6000fd5b505050506040513d601f19601f82011682018060405250810190610f6b9190615877565b610fdd5760405162461bcd60e51b815260206004820152602360248201527f54696d656c6f636b3a20746f6b656e206e6f74207965742077686974656c697360448201527f74656400000000000000000000000000000000000000000000000000000000006064820152608401610a2a565b6040517f8ee573ac0000000000000000000000000000000000000000000000000000000081526001600160a01b03888116600483015260009190831690638ee573ac90602401602060405180830381865afa158015611040573d6000803e3d6000fd5b505050506040513d601f19601f820116820180604052508101906110649190615894565b6040517f42b60b030000000000000000000000000000000000000000000000000000000081526001600160a01b038a811660048301529192506000918416906342b60b0390602401602060405180830381865afa1580156110c9573d6000803e3d6000fd5b505050506040513d601f19601f820116820180604052508101906110ed9190615877565b6040517fdb3555fb0000000000000000000000000000000000000000000000000000000081526001600160a01b038b8116600483015291925060009185169063db3555fb90602401602060405180830381865afa158015611152573d6000803e3d6000fd5b505050506040513d601f19601f820116820180604052508101906111769190615877565b604051633c5a6e3560e01b81526001600160a01b038c8116600483015260248201869052604482018c9052606482018b9052608482018a905284151560a483015282151560c4830152919250908c1690633c5a6e359060e401600060405180830381600087803b1580156111e957600080fd5b505af11580156111fd573d6000803e3d6000fd5b50506040517f8585f4d20000000000000000000000000000000000000000000000000000000081526001600160a01b038d81166004830152602482018a90528e169250638585f4d29150604401600060405180830381600087803b15801561126457600080fd5b505af1158015611278573d6000803e3d6000fd5b50506040517fd66b000d0000000000000000000000000000000000000000000000000000000081526001600160a01b038d81166004830152602482018990528e16925063d66b000d9150604401600060405180830381600087803b1580156112df57600080fd5b505af11580156112f3573d6000803e3d6000fd5b505050505050505050505050505050565b6001546001600160a01b0316331461134c5760405162461bcd60e51b815260206004820152601360248201526000805160206158f78339815191526044820152606401610a2a565b6040517ff25552780000000000000000000000000000000000000000000000000000000081526001600160a01b038381166004830152828116602483015284169063f2555278906044016020604051808303816000875af11580156113b5573d6000803e3d6000fd5b505050506040513d601f19601f820116820180604052508101906113d99190615894565b50505050565b6001546001600160a01b031633146114275760405162461bcd60e51b815260206004820152601360248201526000805160206158f78339815191526044820152606401610a2a565b6040516939b2ba2430b7323632b960b11b60208201526001600160601b0319606085811b8216602a84015284901b16603e82015281151560f81b605282015260009060530160405160208183030381529060405280519060200120905061148d81614e6c565b61149681614f4b565b604051639cb7de4b60e01b81526001600160a01b0384811660048301528315156024830152851690639cb7de4b906044015b600060405180830381600087803b1580156114e257600080fd5b505af11580156114f6573d6000803e3d6000fd5b5050505050505050565b6001546001600160a01b03163314806115285750336000908152600b602052604090205460ff165b806115425750336000908152600c602052604090205460ff165b61157c5760405162461bcd60e51b815260206004820152601360248201526000805160206158f78339815191526044820152606401610a2a565b6040517f30455ede00000000000000000000000000000000000000000000000000000000815281151560048201526001600160a01b038316906330455ede906024015b600060405180830381600087803b1580156115d957600080fd5b505af11580156115ed573d6000803e3d6000fd5b505050505050565b6001546001600160a01b0316331461163d5760405162461bcd60e51b815260206004820152601360248201526000805160206158f78339815191526044820152606401610a2a565b6001600160a01b03919091166000908152600b60205260409020805460ff1916911515919091179055565b6001546001600160a01b03163314806116905750336000908152600b602052604090205460ff165b806116aa5750336000908152600c602052604090205460ff165b6116e45760405162461bcd60e51b815260206004820152601360248201526000805160206158f78339815191526044820152606401610a2a565b6040517fdfcfa250000000000000000000000000000000000000000000000000000000008152600481018390526001600160a01b03828116602483015284169063dfcfa25090604401610bf1565b6001546001600160a01b0316331461177a5760405162461bcd60e51b815260206004820152601360248201526000805160206158f78339815191526044820152606401610a2a565b6040516c3bb4ba34323930bbaa37b5b2b760991b60208201526001600160601b0319606086811b8216602d84015285811b8216604184015284901b166055820152606981018290526000906089016040516020818303038152906040528051906020012090506117e981614e6c565b6117f281614f4b565b6040517f01e336670000000000000000000000000000000000000000000000000000000081526001600160a01b0385811660048301528481166024830152604482018490528616906301e33667906064015b600060405180830381600087803b15801561185e57600080fd5b505af1158015611872573d6000803e3d6000fd5b505050505050505050565b6001546001600160a01b031633146118c55760405162461bcd60e51b815260206004820152601360248201526000805160206158f78339815191526044820152606401610a2a565b6040517ff07bbf7700000000000000000000000000000000000000000000000000000000815281151560048201526001600160a01b0383169063f07bbf77906024016115bf565b6001546001600160a01b03163314806119345750336000908152600b602052604090205460ff165b8061194e5750336000908152600c602052604090205460ff165b6119885760405162461bcd60e51b815260206004820152601360248201526000805160206158f78339815191526044820152606401610a2a565b60c882106119fd5760405162461bcd60e51b8152602060048201526024808201527f54696d656c6f636b3a20696e76616c6964205f66756e64696e6752617465466160448201527f63746f72000000000000000000000000000000000000000000000000000000006064820152608401610a2a565b60c88110611a735760405162461bcd60e51b815260206004820152602a60248201527f54696d656c6f636b3a20696e76616c6964205f737461626c6546756e64696e6760448201527f52617465466163746f72000000000000000000000000000000000000000000006064820152608401610a2a565b6040517f8a27d4680000000000000000000000000000000000000000000000000000000081526004810184905260248101839052604481018290526001600160a01b03851690638a27d468906064016114c8565b6001546001600160a01b03163314611b0f5760405162461bcd60e51b815260206004820152601360248201526000805160206158f78339815191526044820152606401610a2a565b6040516939b2ba2430b7323632b960b11b60208201526001600160601b0319606085811b8216602a84015284901b16603e82015281151560f81b6052820152600090605301604051602081830303815290604052805190602001209050611b7581614d94565b604080516001600160a01b0380871682528516602082015283151591810191909152606081018290527f1929c4e13b0dbbad7856b9ce1fc9dca98c7bf7cedd56e22c04dd60ad1d34fe4b90608001610d16565b6001546001600160a01b03163314611c105760405162461bcd60e51b815260206004820152601360248201526000805160206158f78339815191526044820152606401610a2a565b6040517f1785f53c0000000000000000000000000000000000000000000000000000000081526001600160a01b038281166004830152831690631785f53c906024016115bf565b6001546001600160a01b03163314611c9f5760405162461bcd60e51b815260206004820152601360248201526000805160206158f78339815191526044820152606401610a2a565b6040517f4453a3740000000000000000000000000000000000000000000000000000000081526001600160a01b0383811660048301528215156024830152841690634453a37490604401610bf1565b6001546001600160a01b03163314611d365760405162461bcd60e51b815260206004820152601360248201526000805160206158f78339815191526044820152606401610a2a565b600480546040517f4f5f6b5e0000000000000000000000000000000000000000000000000000000081529182018390526001600160a01b031690634f5f6b5e906024015b600060405180830381600087803b158015611d9457600080fd5b505af1158015611da8573d6000803e3d6000fd5b5050505050565b6001546001600160a01b03163314611df75760405162461bcd60e51b815260206004820152601360248201526000805160206158f78339815191526044820152606401610a2a565b6040516539b2ba23b7bb60d11b60208201526001600160601b0319606084811b8216602684015283901b16603a820152600090604e01604051602081830303815290604052805190602001209050611e4e81614e6c565b611e5781614f4b565b6040517fcfad57a20000000000000000000000000000000000000000000000000000000081526001600160a01b03838116600483015284169063cfad57a290602401610bf1565b6001546001600160a01b0316331480611ec65750336000908152600b602052604090205460ff165b80611ee05750336000908152600c602052604090205460ff165b611f1a5760405162461bcd60e51b815260206004820152601360248201526000805160206158f78339815191526044820152606401610a2a565b6040517f836a01870000000000000000000000000000000000000000000000000000000081526004810184905260248101839052604481018290526001600160a01b0385169063836a0187906064016114c8565b6001546001600160a01b03163314611fb65760405162461bcd60e51b815260206004820152601360248201526000805160206158f78339815191526044820152606401610a2a565b306001600160a01b0383160361200e5760405162461bcd60e51b815260206004820152601960248201527f54696d656c6f636b3a20696e76616c6964205f746172676574000000000000006044820152606401610a2a565b6040517f704b6c020000000000000000000000000000000000000000000000000000000081526001600160a01b03828116600483015283169063704b6c02906024016115bf565b6001546001600160a01b0316331461209d5760405162461bcd60e51b815260206004820152601360248201526000805160206158f78339815191526044820152606401610a2a565b60048054604080517f6fd8fab600000000000000000000000000000000000000000000000000000000815290516001600160a01b03909216926000928492636fd8fab692818101926020929091908290030181865afa158015612104573d6000803e3d6000fd5b505050506040513d601f19601f8201168201806040525081019061212891906158ad565b6004805460405163cf456ae760e01b81526001600160a01b0391821692810192909252600160248301529192509082169063cf456ae790604401600060405180830381600087803b15801561217c57600080fd5b505af1158015612190573d6000803e3d6000fd5b505050506000826001600160a01b031663f5b91b7b6040518163ffffffff1660e01b8152600401602060405180830381865afa1580156121d4573d6000803e3d6000fd5b505050506040513d601f19601f820116820180604052508101906121f891906158ad565b600480546040516312b5ad0160e11b81526001600160a01b03918216928101929092529192509082169063256b5a0290602401600060405180830381600087803b15801561224557600080fd5b505af1158015612259573d6000803e3d6000fd5b505050506000836001600160a01b031663fbfa77cf6040518163ffffffff1660e01b8152600401602060405180830381865afa15801561229d573d6000803e3d6000fd5b505050506040513d601f19601f820116820180604052508101906122c191906158ad565b600480546040516352f4877760e11b81526001600160a01b0391821692810192909252600160248301529192509082169063a5e90eee906044016114c8565b6001546001600160a01b03163314806123285750336000908152600b602052604090205460ff165b6123625760405162461bcd60e51b815260206004820152601360248201526000805160206158f78339815191526044820152606401610a2a565b600954819060ff16156123ca57604051637c2eb9f760e01b8152600160048201526001600160a01b03821690637c2eb9f790602401600060405180830381600087803b1580156123b157600080fd5b505af11580156123c5573d6000803e3d6000fd5b505050505b806001600160a01b03166340eb3802826001600160a01b0316637a210a2b6040518163ffffffff1660e01b8152600401602060405180830381865afa158015612417573d6000803e3d6000fd5b505050506040513d601f19601f8201168201806040525081019061243b9190615894565b836001600160a01b03166310eb56c26040518163ffffffff1660e01b8152600401602060405180830381865afa158015612479573d6000803e3d6000fd5b505050506040513d601f19601f8201168201806040525081019061249d9190615894565b846001600160a01b0316634d47b3046040518163ffffffff1660e01b8152600401602060405180830381865afa1580156124db573d6000803e3d6000fd5b505050506040513d601f19601f820116820180604052508101906124ff9190615894565b856001600160a01b031663a22f23926040518163ffffffff1660e01b8152600401602060405180830381865afa15801561253d573d6000803e3d6000fd5b505050506040513d601f19601f820116820180604052508101906125619190615894565b866001600160a01b031663df73a2676040518163ffffffff1660e01b8152600401602060405180830381865afa15801561259f573d6000803e3d6000fd5b505050506040513d601f19601f820116820180604052508101906125c39190615894565b600754886001600160a01b031663174d26946040518163ffffffff1660e01b8152600401602060405180830381865afa158015612604573d6000803e3d6000fd5b505050506040513d601f19601f820116820180604052508101906126289190615894565b896001600160a01b031663d9ac42256040518163ffffffff1660e01b8152600401602060405180830381865afa158015612666573d6000803e3d6000fd5b505050506040513d601f19601f8201168201806040525081019061268a9190615894565b8a6001600160a01b0316639f392eb36040518163ffffffff1660e01b8152600401602060405180830381865afa1580156126c8573d6000803e3d6000fd5b505050506040513d601f19601f820116820180604052508101906126ec9190615877565b6040517fffffffff0000000000000000000000000000000000000000000000000000000060e08c901b1681526004810199909952602489019790975260448801959095526064870193909352608486019190915260a485015260c484015260e48301521515610104820152610124016115bf565b6001546001600160a01b03163314806127885750336000908152600b602052604090205460ff165b806127a25750336000908152600c602052604090205460ff165b6127dc5760405162461bcd60e51b815260206004820152601360248201526000805160206158f78339815191526044820152606401610a2a565b60078490556008546040517f40eb3802000000000000000000000000000000000000000000000000000000008152600481018b9052602481018a905260448101899052606481018890526084810187905260a481019190915260c4810184905260e481018390528115156101048201526001600160a01b038b16906340eb38029061012401600060405180830381600087803b15801561287b57600080fd5b505af115801561288f573d6000803e3d6000fd5b5050505050505050505050505050565b6002546001600160a01b031633146128e75760405162461bcd60e51b815260206004820152601360248201526000805160206158f78339815191526044820152606401610a2a565b600180547fffffffffffffffffffffffff0000000000000000000000000000000000000000166001600160a01b0392909216919091179055565b6001546001600160a01b031633146129695760405162461bcd60e51b815260206004820152601360248201526000805160206158f78339815191526044820152606401610a2a565b6040516972656465656d5573646760b01b60208201526001600160601b0319606085811b8216602a84015284901b16603e820152605281018290526000906072016040516020818303038152906040528051906020012090506129cb81614e6c565b6129d481614f4b565b6000846001600160a01b031663f5b91b7b6040518163ffffffff1660e01b8152600401602060405180830381865afa158015612a14573d6000803e3d6000fd5b505050506040513d601f19601f82011682018060405250810190612a3891906158ad565b6040516352f4877760e11b8152306004820152600160248201529091506001600160a01b0386169063a5e90eee90604401600060405180830381600087803b158015612a8357600080fd5b505af1158015612a97573d6000803e3d6000fd5b50506040516312b5ad0160e11b81523060048201526001600160a01b038416925063256b5a029150602401600060405180830381600087803b158015612adc57600080fd5b505af1158015612af0573d6000803e3d6000fd5b50506040516340c10f1960e01b8152306004820152602481018690526001600160a01b03841692506340c10f199150604401600060405180830381600087803b158015612b3c57600080fd5b505af1158015612b50573d6000803e3d6000fd5b50506040517fa9059cbb0000000000000000000000000000000000000000000000000000000081526001600160a01b038881166004830152602482018790528416925063a9059cbb91506044016020604051808303816000875af1158015612bbc573d6000803e3d6000fd5b505050506040513d601f19601f82011682018060405250810190612be09190615877565b506003546040517f711e61900000000000000000000000000000000000000000000000000000000081526001600160a01b03868116600483015291821660248201529086169063711e6190906044016020604051808303816000875af1158015612c4e573d6000803e3d6000fd5b505050506040513d601f19601f82011682018060405250810190612c729190615894565b506040516352f4877760e11b8152306004820152600060248201526001600160a01b0386169063a5e90eee90604401600060405180830381600087803b158015612cbb57600080fd5b505af1158015612ccf573d6000803e3d6000fd5b505060405163ceb68c2360e01b81523060048201526001600160a01b038416925063ceb68c239150602401611844565b6001546001600160a01b03163314612d475760405162461bcd60e51b815260206004820152601360248201526000805160206158f78339815191526044820152606401610a2a565b604080516b1cd95d141c9a58d95199595960a21b60208201526001600160601b0319606085811b8216602c84015284901b1691810191909152600090605401604051602081830303815290604052805190602001209050612da781614e6c565b612db081614f4b565b6040517f724e78da0000000000000000000000000000000000000000000000000000000081526001600160a01b03838116600483015284169063724e78da90602401610bf1565b6001546001600160a01b03163314612e3f5760405162461bcd60e51b815260206004820152601360248201526000805160206158f78339815191526044820152606401610a2a565b612e4881614f4b565b50565b6001546001600160a01b03163314612e935760405162461bcd60e51b815260206004820152601360248201526000805160206158f78339815191526044820152606401610a2a565b6207a1208111612ee55760405162461bcd60e51b815260206004820152601e60248201527f54696d656c6f636b3a20696e76616c6964205f6d61784c6576657261676500006044820152606401610a2a565b6040517fd3127e63000000000000000000000000000000000000000000000000000000008152600481018290526001600160a01b0383169063d3127e63906024016115bf565b6001546001600160a01b03163314612f735760405162461bcd60e51b815260206004820152601360248201526000805160206158f78339815191526044820152606401610a2a565b604080516b1cd95d141c9a58d95199595960a21b60208201526001600160601b0319606085811b8216602c84015284901b1691810191909152600090605401604051602081830303815290604052805190602001209050612fd381614d94565b604080516001600160a01b038086168252841660208201529081018290527fb878dd4b5762f4118ad54995be907dd2bcd915d942e4ac75580fba9b4ee4727f906060015b60405180910390a1505050565b6001546001600160a01b031633148061304c5750336000908152600b602052604090205460ff165b806130665750336000908152600c602052604090205460ff165b6130a05760405162461bcd60e51b815260206004820152601360248201526000805160206158f78339815191526044820152606401610a2a565b6000600460009054906101000a90046001600160a01b03166001600160a01b031663f5b91b7b6040518163ffffffff1660e01b8152600401602060405180830381865afa1580156130f5573d6000803e3d6000fd5b505050506040513d601f19601f8201168201806040525081019061311991906158ad565b600480546040517f70a082310000000000000000000000000000000000000000000000000000000081526001600160a01b03918216928101929092529192506000918316906370a0823190602401602060405180830381865afa158015613184573d6000803e3d6000fd5b505050506040513d601f19601f820116820180604052508101906131a89190615894565b6040516312b5ad0160e11b81523060048201529091506001600160a01b0383169063256b5a0290602401600060405180830381600087803b1580156131ec57600080fd5b505af1158015613200573d6000803e3d6000fd5b505050508083111561328a57600061321882856158ca565b600480546040516340c10f1960e01b81526001600160a01b039182169281019290925260248201839052919250908416906340c10f1990604401600060405180830381600087803b15801561326c57600080fd5b505af1158015613280573d6000803e3d6000fd5b505050505061331d565b600061329684836158ca565b600480546040517f9dc29fac0000000000000000000000000000000000000000000000000000000081526001600160a01b03918216928101929092526024820183905291925090841690639dc29fac90604401600060405180830381600087803b15801561330357600080fd5b505af1158015613317573d6000803e3d6000fd5b50505050505b60405163ceb68c2360e01b81523060048201526001600160a01b0383169063ceb68c2390602401610bf1565b6001546001600160a01b031633146133915760405162461bcd60e51b815260206004820152601360248201526000805160206158f78339815191526044820152606401610a2a565b6040517f5a47a1a700000000000000000000000000000000000000000000000000000000815281151560048201526001600160a01b03831690635a47a1a7906024016115bf565b6001546001600160a01b031633146134205760405162461bcd60e51b815260206004820152601360248201526000805160206158f78339815191526044820152606401610a2a565b64012a05f20081116134745760405162461bcd60e51b815260206004820152601460248201527f496e76616c6964205f6d617847617350726963650000000000000000000000006044820152606401610a2a565b6040517fd2fa635e000000000000000000000000000000000000000000000000000000008152600481018290526001600160a01b0383169063d2fa635e906024016115bf565b6001546001600160a01b03163314806134e25750336000908152600b602052604090205460ff165b61351c5760405162461bcd60e51b815260206004820152601360248201526000805160206158f78339815191526044820152606401610a2a565b6009805460ff1916911515919091179055565b6001546001600160a01b031633146135775760405162461bcd60e51b815260206004820152601360248201526000805160206158f78339815191526044820152606401610a2a565b6040516539b2ba23b7bb60d11b60208201526001600160601b0319606084811b8216602684015283901b16603a820152600090604e016040516020818303038152906040528051906020012090506135ce81614d94565b604080516001600160a01b038086168252841660208201529081018290527f2701a94fd55a560e291f3c54d36580040670d6fde558a77a75d619e38139f71390606001613017565b6001546001600160a01b031633148061363e5750336000908152600b602052604090205460ff165b806136585750336000908152600c602052604090205460ff165b6136925760405162461bcd60e51b815260206004820152601360248201526000805160206158f78339815191526044820152606401610a2a565b60005b82518110156113d957836001600160a01b031663d66b000d8483815181106136bf576136bf615832565b60200260200101518484815181106136d9576136d9615832565b60200260200101516040518363ffffffff1660e01b81526004016137129291906001600160a01b03929092168252602082015260400190565b600060405180830381600087803b15801561372c57600080fd5b505af1158015613740573d6000803e3d6000fd5b50505050808061374f9061585e565b915050613695565b6001546001600160a01b0316331461379f5760405162461bcd60e51b815260206004820152601360248201526000805160206158f78339815191526044820152606401610a2a565b620697808111156137f25760405162461bcd60e51b815260206004820152601960248201527f54696d656c6f636b3a20696e76616c6964205f627566666572000000000000006044820152606401610a2a565b60005481116138685760405162461bcd60e51b8152602060048201526024808201527f54696d656c6f636b3a206275666665722063616e6e6f7420626520646563726560448201527f61736564000000000000000000000000000000000000000000000000000000006064820152608401610a2a565b600055565b6001546001600160a01b031633146138b55760405162461bcd60e51b815260206004820152601360248201526000805160206158f78339815191526044820152606401610a2a565b600554604080517f74937a4300000000000000000000000000000000000000000000000000000000815290516001600160a01b039092169182916374937a439160048083019260209291908290030181865afa158015613919573d6000803e3d6000fd5b505050506040513d601f19601f8201168201806040525081019061393d91906158ad565b600554604051639cb7de4b60e01b81526001600160a01b03918216600482015260016024820152911690639cb7de4b90604401600060405180830381600087803b15801561398a57600080fd5b505af115801561399e573d6000803e3d6000fd5b50505050806001600160a01b0316634d7d6dd96040518163ffffffff1660e01b8152600401602060405180830381865afa1580156139e0573d6000803e3d6000fd5b505050506040513d601f19601f82011682018060405250810190613a0491906158ad565b600554604051639cb7de4b60e01b81526001600160a01b03918216600482015260016024820152911690639cb7de4b90604401600060405180830381600087803b158015613a5157600080fd5b505af1158015613a65573d6000803e3d6000fd5b505060048054600554604051639cb7de4b60e01b81526001600160a01b039182169381019390935260016024840152169250639cb7de4b9150604401611d7a565b6001546001600160a01b03163314613aee5760405162461bcd60e51b815260206004820152601360248201526000805160206158f78339815191526044820152606401610a2a565b6040517f71089f4d0000000000000000000000000000000000000000000000000000000081526001600160a01b0382811660048301528316906371089f4d906024016115bf565b6001546001600160a01b03163314613b7d5760405162461bcd60e51b815260206004820152601360248201526000805160206158f78339815191526044820152606401610a2a565b604051631b5a5b9d60e21b60208201526001600160601b0319606085811b8216602484015284901b166038820152604c8101829052600090606c01604051602081830303815290604052805190602001209050613bd981614e6c565b613be281614f4b565b6113d9848484614feb565b6001546001600160a01b03163314613c355760405162461bcd60e51b815260206004820152601360248201526000805160206158f78339815191526044820152606401610a2a565b611c208110613cac5760405162461bcd60e51b815260206004820152602360248201527f54696d656c6f636b3a20696e76616c6964205f636f6f6c646f776e447572617460448201527f696f6e00000000000000000000000000000000000000000000000000000000006064820152608401610a2a565b600480546040517f966be0750000000000000000000000000000000000000000000000000000000081529182018390526001600160a01b03169063966be07590602401611d7a565b6001546001600160a01b0316331480613d1c5750336000908152600b602052604090205460ff165b80613d365750336000908152600c602052604090205460ff165b613d705760405162461bcd60e51b815260206004820152601360248201526000805160206158f78339815191526044820152606401610a2a565b6040517f3fb8b3230000000000000000000000000000000000000000000000000000000081526001600160a01b03838116600483015260248201839052841690633fb8b32390604401610bf1565b6001546001600160a01b0316331480613de65750336000908152600b602052604090205460ff165b613e205760405162461bcd60e51b815260206004820152601360248201526000805160206158f78339815191526044820152606401610a2a565b604051637c2eb9f760e01b815281151560048201526001600160a01b03831690637c2eb9f7906024016115bf565b6001546001600160a01b03163314613e965760405162461bcd60e51b815260206004820152601360248201526000805160206158f78339815191526044820152606401610a2a565b6001600160a01b03919091166000908152600c60205260409020805460ff1916911515919091179055565b6001546001600160a01b0316331480613ee95750336000908152600b602052604090205460ff165b613f235760405162461bcd60e51b815260206004820152601360248201526000805160206158f78339815191526044820152606401610a2a565b600954819060ff1615613f8b57604051637c2eb9f760e01b8152600060048201526001600160a01b03821690637c2eb9f790602401600060405180830381600087803b158015613f7257600080fd5b505af1158015613f86573d6000803e3d6000fd5b505050505b806001600160a01b03166340eb3802826001600160a01b0316637a210a2b6040518163ffffffff1660e01b8152600401602060405180830381865afa158015613fd8573d6000803e3d6000fd5b505050506040513d601f19601f82011682018060405250810190613ffc9190615894565b836001600160a01b03166310eb56c26040518163ffffffff1660e01b8152600401602060405180830381865afa15801561403a573d6000803e3d6000fd5b505050506040513d601f19601f8201168201806040525081019061405e9190615894565b846001600160a01b0316634d47b3046040518163ffffffff1660e01b8152600401602060405180830381865afa15801561409c573d6000803e3d6000fd5b505050506040513d601f19601f820116820180604052508101906140c09190615894565b856001600160a01b031663a22f23926040518163ffffffff1660e01b8152600401602060405180830381865afa1580156140fe573d6000803e3d6000fd5b505050506040513d601f19601f820116820180604052508101906141229190615894565b866001600160a01b031663df73a2676040518163ffffffff1660e01b8152600401602060405180830381865afa158015614160573d6000803e3d6000fd5b505050506040513d601f19601f820116820180604052508101906141849190615894565b600854886001600160a01b031663174d26946040518163ffffffff1660e01b8152600401602060405180830381865afa158015612604573d6000803e3d6000fd5b6001546001600160a01b03163314806141ed5750336000908152600b602052604090205460ff165b806142075750336000908152600c602052604090205460ff165b6142415760405162461bcd60e51b815260206004820152601360248201526000805160206158f78339815191526044820152606401610a2a565b6000869050806001600160a01b03166340eb38028787878787600854886001600160a01b031663174d26946040518163ffffffff1660e01b8152600401602060405180830381865afa15801561429b573d6000803e3d6000fd5b505050506040513d601f19601f820116820180604052508101906142bf9190615894565b896001600160a01b031663d9ac42256040518163ffffffff1660e01b8152600401602060405180830381865afa1580156142fd573d6000803e3d6000fd5b505050506040513d601f19601f820116820180604052508101906143219190615894565b8a6001600160a01b0316639f392eb36040518163ffffffff1660e01b8152600401602060405180830381865afa15801561435f573d6000803e3d6000fd5b505050506040513d601f19601f820116820180604052508101906143839190615877565b6040517fffffffff0000000000000000000000000000000000000000000000000000000060e08c901b1681526004810199909952602489019790975260448801959095526064870193909352608486019190915260a485015260c484015260e4830152151561010482015261012401600060405180830381600087803b15801561440c57600080fd5b505af1158015614420573d6000803e3d6000fd5b5050505050505050505050565b6001546001600160a01b031633146144755760405162461bcd60e51b815260206004820152601360248201526000805160206158f78339815191526044820152606401610a2a565b6040517f7661756c74536574546f6b656e436f6e6669670000000000000000000000000060208201526001600160601b031960608a811b8216603384015289901b166047820152605b8101879052607b8101869052609b810185905260bb810184905282151560f890811b60db830152821515901b60dc82015260009060dd0160405160208183030381529060405280519060200120905061451681614d94565b604080516001600160a01b03808c1682528a166020820152908101889052606081018790526080810186905260a0810185905283151560c082015282151560e08201527f3510e9d8245371c6c1061c33781ce16bd0eafa03cd3d0781865036520af4c743906101000160405180910390a1505050505050505050565b6001546001600160a01b031633146145da5760405162461bcd60e51b815260206004820152601360248201526000805160206158f78339815191526044820152606401610a2a565b60405166617070726f766560c81b60208201526001600160601b0319606085811b8216602784015284901b16603b820152604f8101829052600090606f0160405160208183030381529060405280519060200120905061463981614d94565b604080516001600160a01b03808716825285166020820152908101839052606081018290527f6af9d86ba7407a934e941ed8ae5f779369a88fe8ba2cd1c204185d6f8a8287fd90608001610d16565b6001546001600160a01b031633146146d05760405162461bcd60e51b815260206004820152601360248201526000805160206158f78339815191526044820152606401610a2a565b6040517fefa10a6e0000000000000000000000000000000000000000000000000000000081526001600160a01b0383811660048301526024820183905284169063efa10a6e90604401610bf1565b6001546001600160a01b031633146147665760405162461bcd60e51b815260206004820152601360248201526000805160206158f78339815191526044820152606401610a2a565b6040516c3bb4ba34323930bbaa37b5b2b760991b60208201526001600160601b0319606086811b8216602d84015285811b8216604184015284901b166055820152606981018290526000906089016040516020818303038152906040528051906020012090506147d581614d94565b604080516001600160a01b0387811682528681166020830152851681830152606081018490526080810183905290517fa87a3bb60417148f20dde8b71d7dfcaa4c8515dd8dda71ba1150b5a76c5710b79181900360a00190a15050505050565b6001546001600160a01b0316331461487d5760405162461bcd60e51b815260206004820152601360248201526000805160206158f78339815191526044820152606401610a2a565b60405166617070726f766560c81b60208201526001600160601b0319606085811b8216602784015284901b16603b820152604f8101829052600090606f016040516020818303038152906040528051906020012090506148dc81614e6c565b6148e581614f4b565b6040517f095ea7b30000000000000000000000000000000000000000000000000000000081526001600160a01b0384811660048301526024820184905285169063095ea7b3906044016020604051808303816000875af115801561494d573d6000803e3d6000fd5b505050506040513d601f19601f82011682018060405250810190611da89190615877565b6001546001600160a01b03163314806149995750336000908152600b602052604090205460ff165b6149d35760405162461bcd60e51b815260206004820152601360248201526000805160206158f78339815191526044820152606401610a2a565b600791909155600855565b6001546001600160a01b03163314614a265760405162461bcd60e51b815260206004820152601360248201526000805160206158f78339815191526044820152606401610a2a565b6040517f7661756c74536574546f6b656e436f6e6669670000000000000000000000000060208201526001600160601b031960608a811b8216603384015289901b166047820152605b8101879052607b8101869052609b810185905260bb810184905282151560f890811b60db830152821515901b60dc82015260009060dd01604051602081830303815290604052805190602001209050614ac781614e6c565b614ad081614f4b565b604051633c5a6e3560e01b81526001600160a01b0389811660048301526024820189905260448201889052606482018790526084820186905284151560a483015283151560c48301528a1690633c5a6e359060e401600060405180830381600087803b158015614b3f57600080fd5b505af1158015614b53573d6000803e3d6000fd5b50505050505050505050505050565b6001546001600160a01b03163314614baa5760405162461bcd60e51b815260206004820152601360248201526000805160206158f78339815191526044820152606401610a2a565b6040517f23b872dd0000000000000000000000000000000000000000000000000000000081526001600160a01b038481166004830152306024830152604482018390528316906323b872dd906064016020604051808303816000875af1158015614c18573d6000803e3d6000fd5b505050506040513d601f19601f820116820180604052508101906113d99190615877565b6001546001600160a01b0316331480614c645750336000908152600b602052604090205460ff165b80614c7e5750336000908152600c602052604090205460ff165b614cb85760405162461bcd60e51b815260206004820152601360248201526000805160206158f78339815191526044820152606401610a2a565b60005b8151811015614d8f57826001600160a01b031663f2555278838381518110614ce557614ce5615832565b602090810291909101015160015460405160e084901b7fffffffff000000000000000000000000000000000000000000000000000000001681526001600160a01b039283166004820152911660248201526044016020604051808303816000875af1158015614d58573d6000803e3d6000fd5b505050506040513d601f19601f82011682018060405250810190614d7c9190615894565b5080614d878161585e565b915050614cbb565b505050565b6000818152600a602052604090205415614e165760405162461bcd60e51b815260206004820152602260248201527f54696d656c6f636b3a20616374696f6e20616c7265616479207369676e616c6c60448201527f65640000000000000000000000000000000000000000000000000000000000006064820152608401610a2a565b600054614e2390426158e3565b6000828152600a602090815260409182902092909255518281527f5fb9c0ecf7b4a28c4c480212e868f9da7f373a2ed4d23498b0be6aadf35242fb91015b60405180910390a150565b6000818152600a60205260408120549003614ec95760405162461bcd60e51b815260206004820152601e60248201527f54696d656c6f636b3a20616374696f6e206e6f74207369676e616c6c656400006044820152606401610a2a565b6000818152600a60205260409020544211612e485760405162461bcd60e51b8152602060048201526024808201527f54696d656c6f636b3a20616374696f6e2074696d65206e6f742079657420706160448201527f73736564000000000000000000000000000000000000000000000000000000006064820152608401610a2a565b6000818152600a60205260408120549003614fa85760405162461bcd60e51b815260206004820152601960248201527f54696d656c6f636b3a20696e76616c6964205f616374696f6e000000000000006044820152606401610a2a565b6000818152600a602052604080822091909155517f194ed6dd5e37e2acc44a19455c3f208c4831ee695fe362d9c4ef2d316bc53aec90614e619083815260200190565b60405163cf456ae760e01b81523060048201526001602482015283906001600160a01b0382169063cf456ae790604401600060405180830381600087803b15801561503557600080fd5b505af1158015615049573d6000803e3d6000fd5b50506040516340c10f1960e01b81526001600160a01b03868116600483015260248201869052841692506340c10f199150604401600060405180830381600087803b15801561509757600080fd5b505af11580156150ab573d6000803e3d6000fd5b50505050600654846001600160a01b03166318160ddd6040518163ffffffff1660e01b8152600401602060405180830381865afa1580156150f0573d6000803e3d6000fd5b505050506040513d601f19601f820116820180604052508101906151149190615894565b11156151885760405162461bcd60e51b815260206004820152602160248201527f54696d656c6f636b3a206d6178546f6b656e537570706c79206578636565646560448201527f64000000000000000000000000000000000000000000000000000000000000006064820152608401610a2a565b60405163cf456ae760e01b8152306004820152600060248201526001600160a01b0382169063cf456ae7906044016114c8565b6001600160a01b0381168114612e4857600080fd5b634e487b7160e01b600052604160045260246000fd5b604051601f8201601f1916810167ffffffffffffffff8111828210171561520f5761520f6151d0565b604052919050565b600067ffffffffffffffff821115615231576152316151d0565b5060051b60200190565b600082601f83011261524c57600080fd5b8135602061526161525c83615217565b6151e6565b82815260059290921b8401810191818101908684111561528057600080fd5b8286015b848110156152a4578035615297816151bb565b8352918301918301615284565b509695505050505050565b6000806000606084860312156152c457600080fd5b83356152cf816151bb565b925060208481013567ffffffffffffffff808211156152ed57600080fd5b6152f98883890161523b565b9450604087013591508082111561530f57600080fd5b508501601f8101871361532157600080fd5b803561532f61525c82615217565b81815260059190911b8201830190838101908983111561534e57600080fd5b928401925b8284101561536c57833582529284019290840190615353565b80955050505050509250925092565b60008060006060848603121561539057600080fd5b833561539b816151bb565b925060208401356153ab816151bb565b929592945050506040919091013590565b600080600080600080600060e0888a0312156153d757600080fd5b87356153e2816151bb565b965060208801356153f2816151bb565b96999698505050506040850135946060810135946080820135945060a0820135935060c0909101359150565b60008060006060848603121561543357600080fd5b833561543e816151bb565b9250602084013561544e816151bb565b9150604084013561545e816151bb565b809150509250925092565b8015158114612e4857600080fd5b60008060006060848603121561548c57600080fd5b8335615497816151bb565b925060208401356154a7816151bb565b9150604084013561545e81615469565b600080604083850312156154ca57600080fd5b82356154d5816151bb565b915060208301356154e581615469565b809150509250929050565b60008060006060848603121561550557600080fd5b8335615510816151bb565b925060208401359150604084013561545e816151bb565b6000806000806080858703121561553d57600080fd5b8435615548816151bb565b93506020850135615558816151bb565b92506040850135615568816151bb565b9396929550929360600135925050565b6000806000806080858703121561558e57600080fd5b8435615599816151bb565b966020860135965060408601359560600135945092505050565b600080604083850312156155c657600080fd5b82356155d1816151bb565b915060208301356154e5816151bb565b6000602082840312156155f357600080fd5b81356155fe816151bb565b9392505050565b60006020828403121561561757600080fd5b5035919050565b6000806000806000806000806000806101408b8d03121561563e57600080fd5b8a35615649816151bb565b995060208b0135985060408b0135975060608b0135965060808b0135955060a08b0135945060c08b0135935060e08b013592506101008b013591506101208b013561569381615469565b809150509295989b9194979a5092959850565b600080604083850312156156b957600080fd5b82356156c4816151bb565b946020939093013593505050565b6000602082840312156156e457600080fd5b81356155fe81615469565b60008060008060008060c0878903121561570857600080fd5b8635615713816151bb565b9860208801359850604088013597606081013597506080810135965060a00135945092505050565b600080600080600080600080610100898b03121561575857600080fd5b8835615763816151bb565b97506020890135615773816151bb565b965060408901359550606089013594506080890135935060a0890135925060c089013561579f81615469565b915060e08901356157af81615469565b809150509295985092959890939650565b600080604083850312156157d357600080fd5b50508035926020909101359150565b600080604083850312156157f557600080fd5b8235615800816151bb565b9150602083013567ffffffffffffffff81111561581c57600080fd5b6158288582860161523b565b9150509250929050565b634e487b7160e01b600052603260045260246000fd5b634e487b7160e01b600052601160045260246000fd5b60006001820161587057615870615848565b5060010190565b60006020828403121561588957600080fd5b81516155fe81615469565b6000602082840312156158a657600080fd5b5051919050565b6000602082840312156158bf57600080fd5b81516155fe816151bb565b818103818111156158dd576158dd615848565b92915050565b808201808211156158dd576158dd61584856fe54696d656c6f636b3a20666f7262696464656e00000000000000000000000000a2646970667358221220e0c96602e5ae322c793d5fb63ab26e5fd66ee6c2d249a7ffbbf4462d23bc599964736f6c63430008140033",
  "linkReferences": {},
  "deployedLinkReferences": {}
}