{
  "_format": "hh-sol-artifact-1",
  "contractName": "VaultReader",
  "sourceName": "contracts/peripherals/VaultReader.sol",
  "abi": [
    {
      "inputs": [
        {
          "internalType": "address",
          "name": "_vault",
          "type": "address"
        },
        {
          "internalType": "address",
          "name": "_positionManager",
          "type": "address"
        },
        {
          "internalType": "address",
          "name": "_weth",
          "type": "address"
        },
        {
          "internalType": "uint256",
          "name": "_usdgAmount",
          "type": "uint256"
        },
        {
          "internalType": "address[]",
          "name": "_tokens",
          "type": "address[]"
        }
      ],
      "name": "getVaultTokenInfoV3",
      "outputs": [
        {
          "internalType": "uint256[]",
          "name": "",
          "type": "uint256[]"
        }
      ],
      "stateMutability": "view",
      "type": "function"
    },
    {
      "inputs": [
        {
          "internalType": "address",
          "name": "_vault",
          "type": "address"
        },
        {
          "internalType": "address",
          "name": "_positionManager",
          "type": "address"
        },
        {
          "internalType": "address",
          "name": "_weth",
          "type": "address"
        },
        {
          "internalType": "uint256",
          "name": "_usdgAmount",
          "type": "uint256"
        },
        {
          "internalType": "address[]",
          "name": "_tokens",
          "type": "address[]"
        }
      ],
      "name": "getVaultTokenInfoV4",
      "outputs": [
        {
          "internalType": "uint256[]",
          "name": "",
          "type": "uint256[]"
        }
      ],
      "stateMutability": "view",
      "type": "function"
    }
  ],
  "bytecode": "0x608060405234801561001057600080fd5b50611c4f806100206000396000f3fe608060405234801561001057600080fd5b50600436106100365760003560e01c8063d3f3265c1461003b578063f75e810114610064575b600080fd5b61004e6100493660046119ab565b610077565b60405161005b9190611ad2565b60405180910390f35b61004e6100723660046119ab565b610d47565b60606000600f9050600087905060008173ffffffffffffffffffffffffffffffffffffffff1663741bef1a6040518163ffffffff1660e01b8152600401602060405180830381865afa1580156100d1573d6000803e3d6000fd5b505050506040513d601f19601f820116820180604052508101906100f59190611b16565b90506000889050600084875161010b9190611b69565b67ffffffffffffffff8111156101235761012361197c565b60405190808252806020026020018201604052801561014c578160200160208202803683370190505b50905060005b8751811015610d3857600088828151811061016f5761016f611b86565b60200260200101519050600073ffffffffffffffffffffffffffffffffffffffff168173ffffffffffffffffffffffffffffffffffffffff16036101b05750895b6040517f52f55eed00000000000000000000000000000000000000000000000000000000815273ffffffffffffffffffffffffffffffffffffffff82811660048301528716906352f55eed90602401602060405180830381865afa15801561021c573d6000803e3d6000fd5b505050506040513d601f19601f820116820180604052508101906102409190611bb5565b8361024b8985611b69565b8151811061025b5761025b611b86565b60209081029190910101526040517fc3c7b9e900000000000000000000000000000000000000000000000000000000815273ffffffffffffffffffffffffffffffffffffffff828116600483015287169063c3c7b9e990602401602060405180830381865afa1580156102d2573d6000803e3d6000fd5b505050506040513d601f19601f820116820180604052508101906102f69190611bb5565b836103018985611b69565b61030c906001611bce565b8151811061031c5761031c611b86565b60209081029190910101526040517f1aa4ace500000000000000000000000000000000000000000000000000000000815273ffffffffffffffffffffffffffffffffffffffff8281166004830152871690631aa4ace590602401602060405180830381865afa158015610393573d6000803e3d6000fd5b505050506040513d601f19601f820116820180604052508101906103b79190611bb5565b836103c28985611b69565b6103cd906002611bce565b815181106103dd576103dd611b86565b60209081029190910101526040517f2c668ec100000000000000000000000000000000000000000000000000000000815273ffffffffffffffffffffffffffffffffffffffff8281166004830152602482018c9052871690632c668ec190604401602060405180830381865afa15801561045b573d6000803e3d6000fd5b505050506040513d601f19601f8201168201806040525081019061047f9190611bb5565b8361048a8985611b69565b610495906003611bce565b815181106104a5576104a5611b86565b60209081029190910101526040517fab2f3ad400000000000000000000000000000000000000000000000000000000815273ffffffffffffffffffffffffffffffffffffffff828116600483015287169063ab2f3ad490602401602060405180830381865afa15801561051c573d6000803e3d6000fd5b505050506040513d601f19601f820116820180604052508101906105409190611bb5565b8361054b8985611b69565b610556906004611bce565b8151811061056657610566611b86565b60209081029190910101526040517f4a993ee900000000000000000000000000000000000000000000000000000000815273ffffffffffffffffffffffffffffffffffffffff8281166004830152871690634a993ee990602401602060405180830381865afa1580156105dd573d6000803e3d6000fd5b505050506040513d601f19601f820116820180604052508101906106019190611bb5565b8361060c8985611b69565b610617906005611bce565b8151811061062757610627611b86565b60209081029190910101526040517fad1e4f8d00000000000000000000000000000000000000000000000000000000815273ffffffffffffffffffffffffffffffffffffffff828116600483015287169063ad1e4f8d90602401602060405180830381865afa15801561069e573d6000803e3d6000fd5b505050506040513d601f19601f820116820180604052508101906106c29190611bb5565b836106cd8985611b69565b6106d8906006611bce565b815181106106e8576106e8611b86565b60209081029190910101526040517f8a78daa800000000000000000000000000000000000000000000000000000000815273ffffffffffffffffffffffffffffffffffffffff8281166004830152871690638a78daa890602401602060405180830381865afa15801561075f573d6000803e3d6000fd5b505050506040513d601f19601f820116820180604052508101906107839190611bb5565b8361078e8985611b69565b610799906007611bce565b815181106107a9576107a9611b86565b60209081029190910101526040517f9698d25a00000000000000000000000000000000000000000000000000000000815273ffffffffffffffffffffffffffffffffffffffff8281166004830152851690639698d25a90602401602060405180830381865afa158015610820573d6000803e3d6000fd5b505050506040513d601f19601f820116820180604052508101906108449190611bb5565b8361084f8985611b69565b61085a906008611bce565b8151811061086a5761086a611b86565b60209081029190910101526040517f1045c74e00000000000000000000000000000000000000000000000000000000815273ffffffffffffffffffffffffffffffffffffffff8281166004830152851690631045c74e90602401602060405180830381865afa1580156108e1573d6000803e3d6000fd5b505050506040513d601f19601f820116820180604052508101906109059190611bb5565b836109108985611b69565b61091b906009611bce565b8151811061092b5761092b611b86565b60209081029190910101526040517f81a612d600000000000000000000000000000000000000000000000000000000815273ffffffffffffffffffffffffffffffffffffffff82811660048301528716906381a612d690602401602060405180830381865afa1580156109a2573d6000803e3d6000fd5b505050506040513d601f19601f820116820180604052508101906109c69190611bb5565b836109d18985611b69565b6109dc90600a611bce565b815181106109ec576109ec611b86565b60209081029190910101526040517fe124e6d200000000000000000000000000000000000000000000000000000000815273ffffffffffffffffffffffffffffffffffffffff828116600483015287169063e124e6d290602401602060405180830381865afa158015610a63573d6000803e3d6000fd5b505050506040513d601f19601f82011682018060405250810190610a879190611bb5565b83610a928985611b69565b610a9d90600b611bce565b81518110610aad57610aad611b86565b60209081029190910101526040517ff07456ce00000000000000000000000000000000000000000000000000000000815273ffffffffffffffffffffffffffffffffffffffff828116600483015287169063f07456ce90602401602060405180830381865afa158015610b24573d6000803e3d6000fd5b505050506040513d601f19601f82011682018060405250810190610b489190611bb5565b83610b538985611b69565b610b5e90600c611bce565b81518110610b6e57610b6e611b86565b60209081029190910101526040517f2fc3a70a00000000000000000000000000000000000000000000000000000000815273ffffffffffffffffffffffffffffffffffffffff8281166004830152600060248301819052600160448401526064830152861690632fc3a70a90608401602060405180830381865afa158015610bfa573d6000803e3d6000fd5b505050506040513d601f19601f82011682018060405250810190610c1e9190611bb5565b83610c298985611b69565b610c3490600d611bce565b81518110610c4457610c44611b86565b60209081029190910101526040517f2fc3a70a00000000000000000000000000000000000000000000000000000000815273ffffffffffffffffffffffffffffffffffffffff8281166004830152600160248301819052604483015260006064830152861690632fc3a70a90608401602060405180830381865afa158015610cd0573d6000803e3d6000fd5b505050506040513d601f19601f82011682018060405250810190610cf49190611bb5565b83610cff8985611b69565b610d0a90600e611bce565b81518110610d1a57610d1a611b86565b60209081029190910101525080610d3081611be1565b915050610152565b509a9950505050505050505050565b60606000600e9050600087905060008173ffffffffffffffffffffffffffffffffffffffff1663741bef1a6040518163ffffffff1660e01b8152600401602060405180830381865afa158015610da1573d6000803e3d6000fd5b505050506040513d601f19601f82011682018060405250810190610dc59190611b16565b905060008890506000848751610ddb9190611b69565b67ffffffffffffffff811115610df357610df361197c565b604051908082528060200260200182016040528015610e1c578160200160208202803683370190505b50905060005b8751811015610d38576000888281518110610e3f57610e3f611b86565b60200260200101519050600073ffffffffffffffffffffffffffffffffffffffff168173ffffffffffffffffffffffffffffffffffffffff1603610e805750895b6040517f52f55eed00000000000000000000000000000000000000000000000000000000815273ffffffffffffffffffffffffffffffffffffffff82811660048301528716906352f55eed90602401602060405180830381865afa158015610eec573d6000803e3d6000fd5b505050506040513d601f19601f82011682018060405250810190610f109190611bb5565b83610f1b8985611b69565b81518110610f2b57610f2b611b86565b60209081029190910101526040517fc3c7b9e900000000000000000000000000000000000000000000000000000000815273ffffffffffffffffffffffffffffffffffffffff828116600483015287169063c3c7b9e990602401602060405180830381865afa158015610fa2573d6000803e3d6000fd5b505050506040513d601f19601f82011682018060405250810190610fc69190611bb5565b83610fd18985611b69565b610fdc906001611bce565b81518110610fec57610fec611b86565b60209081029190910101526040517f1aa4ace500000000000000000000000000000000000000000000000000000000815273ffffffffffffffffffffffffffffffffffffffff8281166004830152871690631aa4ace590602401602060405180830381865afa158015611063573d6000803e3d6000fd5b505050506040513d601f19601f820116820180604052508101906110879190611bb5565b836110928985611b69565b61109d906002611bce565b815181106110ad576110ad611b86565b60209081029190910101526040517f2c668ec100000000000000000000000000000000000000000000000000000000815273ffffffffffffffffffffffffffffffffffffffff8281166004830152602482018c9052871690632c668ec190604401602060405180830381865afa15801561112b573d6000803e3d6000fd5b505050506040513d601f19601f8201168201806040525081019061114f9190611bb5565b8361115a8985611b69565b611165906003611bce565b8151811061117557611175611b86565b60209081029190910101526040517fab2f3ad400000000000000000000000000000000000000000000000000000000815273ffffffffffffffffffffffffffffffffffffffff828116600483015287169063ab2f3ad490602401602060405180830381865afa1580156111ec573d6000803e3d6000fd5b505050506040513d601f19601f820116820180604052508101906112109190611bb5565b8361121b8985611b69565b611226906004611bce565b8151811061123657611236611b86565b60209081029190910101526040517f4a993ee900000000000000000000000000000000000000000000000000000000815273ffffffffffffffffffffffffffffffffffffffff8281166004830152871690634a993ee990602401602060405180830381865afa1580156112ad573d6000803e3d6000fd5b505050506040513d601f19601f820116820180604052508101906112d19190611bb5565b836112dc8985611b69565b6112e7906005611bce565b815181106112f7576112f7611b86565b60209081029190910101526040517fad1e4f8d00000000000000000000000000000000000000000000000000000000815273ffffffffffffffffffffffffffffffffffffffff828116600483015287169063ad1e4f8d90602401602060405180830381865afa15801561136e573d6000803e3d6000fd5b505050506040513d601f19601f820116820180604052508101906113929190611bb5565b8361139d8985611b69565b6113a8906006611bce565b815181106113b8576113b8611b86565b60209081029190910101526040517f8a78daa800000000000000000000000000000000000000000000000000000000815273ffffffffffffffffffffffffffffffffffffffff8281166004830152871690638a78daa890602401602060405180830381865afa15801561142f573d6000803e3d6000fd5b505050506040513d601f19601f820116820180604052508101906114539190611bb5565b8361145e8985611b69565b611469906007611bce565b8151811061147957611479611b86565b60209081029190910101526040517f9698d25a00000000000000000000000000000000000000000000000000000000815273ffffffffffffffffffffffffffffffffffffffff8281166004830152851690639698d25a90602401602060405180830381865afa1580156114f0573d6000803e3d6000fd5b505050506040513d601f19601f820116820180604052508101906115149190611bb5565b8361151f8985611b69565b61152a906008611bce565b8151811061153a5761153a611b86565b60209081029190910101526040517f81a612d600000000000000000000000000000000000000000000000000000000815273ffffffffffffffffffffffffffffffffffffffff82811660048301528716906381a612d690602401602060405180830381865afa1580156115b1573d6000803e3d6000fd5b505050506040513d601f19601f820116820180604052508101906115d59190611bb5565b836115e08985611b69565b6115eb906009611bce565b815181106115fb576115fb611b86565b60209081029190910101526040517fe124e6d200000000000000000000000000000000000000000000000000000000815273ffffffffffffffffffffffffffffffffffffffff828116600483015287169063e124e6d290602401602060405180830381865afa158015611672573d6000803e3d6000fd5b505050506040513d601f19601f820116820180604052508101906116969190611bb5565b836116a18985611b69565b6116ac90600a611bce565b815181106116bc576116bc611b86565b60209081029190910101526040517ff07456ce00000000000000000000000000000000000000000000000000000000815273ffffffffffffffffffffffffffffffffffffffff828116600483015287169063f07456ce90602401602060405180830381865afa158015611733573d6000803e3d6000fd5b505050506040513d601f19601f820116820180604052508101906117579190611bb5565b836117628985611b69565b61176d90600b611bce565b8151811061177d5761177d611b86565b60209081029190910101526040517f2fc3a70a00000000000000000000000000000000000000000000000000000000815273ffffffffffffffffffffffffffffffffffffffff8281166004830152600060248301819052600160448401526064830152861690632fc3a70a90608401602060405180830381865afa158015611809573d6000803e3d6000fd5b505050506040513d601f19601f8201168201806040525081019061182d9190611bb5565b836118388985611b69565b61184390600d611bce565b8151811061185357611853611b86565b60209081029190910101526040517f2fc3a70a00000000000000000000000000000000000000000000000000000000815273ffffffffffffffffffffffffffffffffffffffff8281166004830152600160248301819052604483015260006064830152861690632fc3a70a90608401602060405180830381865afa1580156118df573d6000803e3d6000fd5b505050506040513d601f19601f820116820180604052508101906119039190611bb5565b8361190e8985611b69565b61191990600e611bce565b8151811061192957611929611b86565b6020908102919091010152508061193f81611be1565b915050610e22565b73ffffffffffffffffffffffffffffffffffffffff8116811461196957600080fd5b50565b803561197781611947565b919050565b7f4e487b7100000000000000000000000000000000000000000000000000000000600052604160045260246000fd5b600080600080600060a086880312156119c357600080fd5b85356119ce81611947565b94506020868101356119df81611947565b945060408701356119ef81611947565b935060608701359250608087013567ffffffffffffffff80821115611a1357600080fd5b818901915089601f830112611a2757600080fd5b813581811115611a3957611a3961197c565b8060051b6040517fffffffffffffffffffffffffffffffffffffffffffffffffffffffffffffffe0603f83011681018181108582111715611a7c57611a7c61197c565b60405291825284820192508381018501918c831115611a9a57600080fd5b938501935b82851015611abf57611ab08561196c565b84529385019392850192611a9f565b8096505050505050509295509295909350565b6020808252825182820181905260009190848201906040850190845b81811015611b0a57835183529284019291840191600101611aee565b50909695505050505050565b600060208284031215611b2857600080fd5b8151611b3381611947565b9392505050565b7f4e487b7100000000000000000000000000000000000000000000000000000000600052601160045260246000fd5b8082028115828204841417611b8057611b80611b3a565b92915050565b7f4e487b7100000000000000000000000000000000000000000000000000000000600052603260045260246000fd5b600060208284031215611bc757600080fd5b5051919050565b80820180821115611b8057611b80611b3a565b60007fffffffffffffffffffffffffffffffffffffffffffffffffffffffffffffffff8203611c1257611c12611b3a565b506001019056fea2646970667358221220115c731e39a052a354d6ac07891688347e7f9a71c5f46497f16199ce0966c8ac64736f6c63430008140033",
  "linkReferences": {},
  "deployedLinkReferences": {}
}