{
  "_format": "hh-sol-artifact-1",
  "contractName": "Vault",
  "sourceName": "contracts/core/Vault.sol",
  "abi": [
    {
      "inputs": [],
      "stateMutability": "nonpayable",
      "type": "constructor"
    },
    {
      "inputs": [],
      "name": "ReentrantCall",
      "type": "error"
    },
    {
      "anonymous": false,
      "inputs": [
        {
          "indexed": false,
          "internalType": "address",
          "name": "account",
          "type": "address"
        },
        {
          "indexed": false,
          "internalType": "address",
          "name": "token",
          "type": "address"
        },
        {
          "indexed": false,
          "internalType": "uint256",
          "name": "tokenAmount",
          "type": "uint256"
        },
        {
          "indexed": false,
          "internalType": "uint256",
          "name": "usdgAmount",
          "type": "uint256"
        },
        {
          "indexed": false,
          "internalType": "uint256",
          "name": "feeBasisPoints",
          "type": "uint256"
        }
      ],
      "name": "BuyUSDG",
      "type": "event"
    },
    {
      "anonymous": false,
      "inputs": [
        {
          "indexed": false,
          "internalType": "bytes32",
          "name": "key",
          "type": "bytes32"
        },
        {
          "indexed": false,
          "internalType": "uint256",
          "name": "size",
          "type": "uint256"
        },
        {
          "indexed": false,
          "internalType": "uint256",
          "name": "collateral",
          "type": "uint256"
        },
        {
          "indexed": false,
          "internalType": "uint256",
          "name": "averagePrice",
          "type": "uint256"
        },
        {
          "indexed": false,
          "internalType": "uint256",
          "name": "entryFundingRate",
          "type": "uint256"
        },
        {
          "indexed": false,
          "internalType": "uint256",
          "name": "reserveAmount",
          "type": "uint256"
        },
        {
          "indexed": false,
          "internalType": "int256",
          "name": "realisedPnl",
          "type": "int256"
        }
      ],
      "name": "ClosePosition",
      "type": "event"
    },
    {
      "anonymous": false,
      "inputs": [
        {
          "indexed": false,
          "internalType": "address",
          "name": "token",
          "type": "address"
        },
        {
          "indexed": false,
          "internalType": "uint256",
          "name": "feeUsd",
          "type": "uint256"
        },
        {
          "indexed": false,
          "internalType": "uint256",
          "name": "feeTokens",
          "type": "uint256"
        }
      ],
      "name": "CollectMarginFees",
      "type": "event"
    },
    {
      "anonymous": false,
      "inputs": [
        {
          "indexed": false,
          "internalType": "address",
          "name": "token",
          "type": "address"
        },
        {
          "indexed": false,
          "internalType": "uint256",
          "name": "feeUsd",
          "type": "uint256"
        },
        {
          "indexed": false,
          "internalType": "uint256",
          "name": "feeTokens",
          "type": "uint256"
        }
      ],
      "name": "CollectSwapFees",
      "type": "event"
    },
    {
      "anonymous": false,
      "inputs": [
        {
          "indexed": false,
          "internalType": "address",
          "name": "token",
          "type": "address"
        },
        {
          "indexed": false,
          "internalType": "uint256",
          "name": "amount",
          "type": "uint256"
        }
      ],
      "name": "DecreaseGuaranteedUsd",
      "type": "event"
    },
    {
      "anonymous": false,
      "inputs": [
        {
          "indexed": false,
          "internalType": "address",
          "name": "token",
          "type": "address"
        },
        {
          "indexed": false,
          "internalType": "uint256",
          "name": "amount",
          "type": "uint256"
        }
      ],
      "name": "DecreasePoolAmount",
      "type": "event"
    },
    {
      "anonymous": false,
      "inputs": [
        {
          "indexed": false,
          "internalType": "bytes32",
          "name": "key",
          "type": "bytes32"
        },
        {
          "indexed": false,
          "internalType": "address",
          "name": "account",
          "type": "address"
        },
        {
          "indexed": false,
          "internalType": "address",
          "name": "collateralToken",
          "type": "address"
        },
        {
          "indexed": false,
          "internalType": "address",
          "name": "indexToken",
          "type": "address"
        },
        {
          "indexed": false,
          "internalType": "uint256",
          "name": "collateralDelta",
          "type": "uint256"
        },
        {
          "indexed": false,
          "internalType": "uint256",
          "name": "sizeDelta",
          "type": "uint256"
        },
        {
          "indexed": false,
          "internalType": "bool",
          "name": "isLong",
          "type": "bool"
        },
        {
          "indexed": false,
          "internalType": "uint256",
          "name": "price",
          "type": "uint256"
        },
        {
          "indexed": false,
          "internalType": "uint256",
          "name": "fee",
          "type": "uint256"
        }
      ],
      "name": "DecreasePosition",
      "type": "event"
    },
    {
      "anonymous": false,
      "inputs": [
        {
          "indexed": false,
          "internalType": "address",
          "name": "token",
          "type": "address"
        },
        {
          "indexed": false,
          "internalType": "uint256",
          "name": "amount",
          "type": "uint256"
        }
      ],
      "name": "DecreaseReservedAmount",
      "type": "event"
    },
    {
      "anonymous": false,
      "inputs": [
        {
          "indexed": false,
          "internalType": "address",
          "name": "token",
          "type": "address"
        },
        {
          "indexed": false,
          "internalType": "uint256",
          "name": "amount",
          "type": "uint256"
        }
      ],
      "name": "DecreaseUsdgAmount",
      "type": "event"
    },
    {
      "anonymous": false,
      "inputs": [
        {
          "indexed": false,
          "internalType": "address",
          "name": "token",
          "type": "address"
        },
        {
          "indexed": false,
          "internalType": "uint256",
          "name": "amount",
          "type": "uint256"
        }
      ],
      "name": "DirectPoolDeposit",
      "type": "event"
    },
    {
      "anonymous": false,
      "inputs": [
        {
          "indexed": false,
          "internalType": "address",
          "name": "token",
          "type": "address"
        },
        {
          "indexed": false,
          "internalType": "uint256",
          "name": "amount",
          "type": "uint256"
        }
      ],
      "name": "IncreaseGuaranteedUsd",
      "type": "event"
    },
    {
      "anonymous": false,
      "inputs": [
        {
          "indexed": false,
          "internalType": "address",
          "name": "token",
          "type": "address"
        },
        {
          "indexed": false,
          "internalType": "uint256",
          "name": "amount",
          "type": "uint256"
        }
      ],
      "name": "IncreasePoolAmount",
      "type": "event"
    },
    {
      "anonymous": false,
      "inputs": [
        {
          "indexed": false,
          "internalType": "bytes32",
          "name": "key",
          "type": "bytes32"
        },
        {
          "indexed": false,
          "internalType": "address",
          "name": "account",
          "type": "address"
        },
        {
          "indexed": false,
          "internalType": "address",
          "name": "collateralToken",
          "type": "address"
        },
        {
          "indexed": false,
          "internalType": "address",
          "name": "indexToken",
          "type": "address"
        },
        {
          "indexed": false,
          "internalType": "uint256",
          "name": "collateralDelta",
          "type": "uint256"
        },
        {
          "indexed": false,
          "internalType": "uint256",
          "name": "sizeDelta",
          "type": "uint256"
        },
        {
          "indexed": false,
          "internalType": "bool",
          "name": "isLong",
          "type": "bool"
        },
        {
          "indexed": false,
          "internalType": "uint256",
          "name": "price",
          "type": "uint256"
        },
        {
          "indexed": false,
          "internalType": "uint256",
          "name": "fee",
          "type": "uint256"
        }
      ],
      "name": "IncreasePosition",
      "type": "event"
    },
    {
      "anonymous": false,
      "inputs": [
        {
          "indexed": false,
          "internalType": "address",
          "name": "token",
          "type": "address"
        },
        {
          "indexed": false,
          "internalType": "uint256",
          "name": "amount",
          "type": "uint256"
        }
      ],
      "name": "IncreaseReservedAmount",
      "type": "event"
    },
    {
      "anonymous": false,
      "inputs": [
        {
          "indexed": false,
          "internalType": "address",
          "name": "token",
          "type": "address"
        },
        {
          "indexed": false,
          "internalType": "uint256",
          "name": "amount",
          "type": "uint256"
        }
      ],
      "name": "IncreaseUsdgAmount",
      "type": "event"
    },
    {
      "anonymous": false,
      "inputs": [
        {
          "indexed": false,
          "internalType": "bytes32",
          "name": "key",
          "type": "bytes32"
        },
        {
          "indexed": false,
          "internalType": "address",
          "name": "account",
          "type": "address"
        },
        {
          "indexed": false,
          "internalType": "address",
          "name": "collateralToken",
          "type": "address"
        },
        {
          "indexed": false,
          "internalType": "address",
          "name": "indexToken",
          "type": "address"
        },
        {
          "indexed": false,
          "internalType": "bool",
          "name": "isLong",
          "type": "bool"
        },
        {
          "indexed": false,
          "internalType": "uint256",
          "name": "size",
          "type": "uint256"
        },
        {
          "indexed": false,
          "internalType": "uint256",
          "name": "collateral",
          "type": "uint256"
        },
        {
          "indexed": false,
          "internalType": "uint256",
          "name": "reserveAmount",
          "type": "uint256"
        },
        {
          "indexed": false,
          "internalType": "int256",
          "name": "realisedPnl",
          "type": "int256"
        },
        {
          "indexed": false,
          "internalType": "uint256",
          "name": "markPrice",
          "type": "uint256"
        }
      ],
      "name": "LiquidatePosition",
      "type": "event"
    },
    {
      "anonymous": false,
      "inputs": [
        {
          "indexed": false,
          "internalType": "int256",
          "name": "responseCode",
          "type": "int256"
        }
      ],
      "name": "ResponseCode",
      "type": "event"
    },
    {
      "anonymous": false,
      "inputs": [
        {
          "indexed": false,
          "internalType": "address",
          "name": "account",
          "type": "address"
        },
        {
          "indexed": false,
          "internalType": "address",
          "name": "token",
          "type": "address"
        },
        {
          "indexed": false,
          "internalType": "uint256",
          "name": "usdgAmount",
          "type": "uint256"
        },
        {
          "indexed": false,
          "internalType": "uint256",
          "name": "tokenAmount",
          "type": "uint256"
        },
        {
          "indexed": false,
          "internalType": "uint256",
          "name": "feeBasisPoints",
          "type": "uint256"
        }
      ],
      "name": "SellUSDG",
      "type": "event"
    },
    {
      "anonymous": false,
      "inputs": [
        {
          "indexed": false,
          "internalType": "address",
          "name": "account",
          "type": "address"
        },
        {
          "indexed": false,
          "internalType": "address",
          "name": "tokenIn",
          "type": "address"
        },
        {
          "indexed": false,
          "internalType": "address",
          "name": "tokenOut",
          "type": "address"
        },
        {
          "indexed": false,
          "internalType": "uint256",
          "name": "amountIn",
          "type": "uint256"
        },
        {
          "indexed": false,
          "internalType": "uint256",
          "name": "amountOut",
          "type": "uint256"
        },
        {
          "indexed": false,
          "internalType": "uint256",
          "name": "amountOutAfterFees",
          "type": "uint256"
        },
        {
          "indexed": false,
          "internalType": "uint256",
          "name": "feeBasisPoints",
          "type": "uint256"
        }
      ],
      "name": "Swap",
      "type": "event"
    },
    {
      "anonymous": false,
      "inputs": [
        {
          "indexed": false,
          "internalType": "address",
          "name": "token",
          "type": "address"
        },
        {
          "indexed": false,
          "internalType": "uint256",
          "name": "fundingRate",
          "type": "uint256"
        }
      ],
      "name": "UpdateFundingRate",
      "type": "event"
    },
    {
      "anonymous": false,
      "inputs": [
        {
          "indexed": false,
          "internalType": "bytes32",
          "name": "key",
          "type": "bytes32"
        },
        {
          "indexed": false,
          "internalType": "bool",
          "name": "hasProfit",
          "type": "bool"
        },
        {
          "indexed": false,
          "internalType": "uint256",
          "name": "delta",
          "type": "uint256"
        }
      ],
      "name": "UpdatePnl",
      "type": "event"
    },
    {
      "anonymous": false,
      "inputs": [
        {
          "indexed": false,
          "internalType": "bytes32",
          "name": "key",
          "type": "bytes32"
        },
        {
          "indexed": false,
          "internalType": "uint256",
          "name": "size",
          "type": "uint256"
        },
        {
          "indexed": false,
          "internalType": "uint256",
          "name": "collateral",
          "type": "uint256"
        },
        {
          "indexed": false,
          "internalType": "uint256",
          "name": "averagePrice",
          "type": "uint256"
        },
        {
          "indexed": false,
          "internalType": "uint256",
          "name": "entryFundingRate",
          "type": "uint256"
        },
        {
          "indexed": false,
          "internalType": "uint256",
          "name": "reserveAmount",
          "type": "uint256"
        },
        {
          "indexed": false,
          "internalType": "int256",
          "name": "realisedPnl",
          "type": "int256"
        },
        {
          "indexed": false,
          "internalType": "uint256",
          "name": "markPrice",
          "type": "uint256"
        }
      ],
      "name": "UpdatePosition",
      "type": "event"
    },
    {
      "inputs": [],
      "name": "BASIS_POINTS_DIVISOR",
      "outputs": [
        {
          "internalType": "uint256",
          "name": "",
          "type": "uint256"
        }
      ],
      "stateMutability": "view",
      "type": "function"
    },
    {
      "inputs": [],
      "name": "FUNDING_RATE_PRECISION",
      "outputs": [
        {
          "internalType": "uint256",
          "name": "",
          "type": "uint256"
        }
      ],
      "stateMutability": "view",
      "type": "function"
    },
    {
      "inputs": [],
      "name": "MAX_FEE_BASIS_POINTS",
      "outputs": [
        {
          "internalType": "uint256",
          "name": "",
          "type": "uint256"
        }
      ],
      "stateMutability": "view",
      "type": "function"
    },
    {
      "inputs": [],
      "name": "MAX_FUNDING_RATE_FACTOR",
      "outputs": [
        {
          "internalType": "uint256",
          "name": "",
          "type": "uint256"
        }
      ],
      "stateMutability": "view",
      "type": "function"
    },
    {
      "inputs": [],
      "name": "MAX_LIQUIDATION_FEE_USD",
      "outputs": [
        {
          "internalType": "uint256",
          "name": "",
          "type": "uint256"
        }
      ],
      "stateMutability": "view",
      "type": "function"
    },
    {
      "inputs": [],
      "name": "MIN_FUNDING_RATE_INTERVAL",
      "outputs": [
        {
          "internalType": "uint256",
          "name": "",
          "type": "uint256"
        }
      ],
      "stateMutability": "view",
      "type": "function"
    },
    {
      "inputs": [],
      "name": "MIN_LEVERAGE",
      "outputs": [
        {
          "internalType": "uint256",
          "name": "",
          "type": "uint256"
        }
      ],
      "stateMutability": "view",
      "type": "function"
    },
    {
      "inputs": [],
      "name": "PRICE_PRECISION",
      "outputs": [
        {
          "internalType": "uint256",
          "name": "",
          "type": "uint256"
        }
      ],
      "stateMutability": "view",
      "type": "function"
    },
    {
      "inputs": [],
      "name": "USDG_DECIMALS",
      "outputs": [
        {
          "internalType": "uint256",
          "name": "",
          "type": "uint256"
        }
      ],
      "stateMutability": "view",
      "type": "function"
    },
    {
      "inputs": [
        {
          "internalType": "address",
          "name": "_router",
          "type": "address"
        }
      ],
      "name": "addRouter",
      "outputs": [],
      "stateMutability": "nonpayable",
      "type": "function"
    },
    {
      "inputs": [
        {
          "internalType": "uint256",
          "name": "_amount",
          "type": "uint256"
        },
        {
          "internalType": "address",
          "name": "_tokenDiv",
          "type": "address"
        },
        {
          "internalType": "address",
          "name": "_tokenMul",
          "type": "address"
        }
      ],
      "name": "adjustForDecimals",
      "outputs": [
        {
          "internalType": "uint256",
          "name": "",
          "type": "uint256"
        }
      ],
      "stateMutability": "view",
      "type": "function"
    },
    {
      "inputs": [
        {
          "internalType": "uint256",
          "name": "",
          "type": "uint256"
        }
      ],
      "name": "allWhitelistedTokens",
      "outputs": [
        {
          "internalType": "address",
          "name": "",
          "type": "address"
        }
      ],
      "stateMutability": "view",
      "type": "function"
    },
    {
      "inputs": [],
      "name": "allWhitelistedTokensLength",
      "outputs": [
        {
          "internalType": "uint256",
          "name": "",
          "type": "uint256"
        }
      ],
      "stateMutability": "view",
      "type": "function"
    },
    {
      "inputs": [
        {
          "internalType": "address",
          "name": "",
          "type": "address"
        },
        {
          "internalType": "address",
          "name": "",
          "type": "address"
        }
      ],
      "name": "approvedRouters",
      "outputs": [
        {
          "internalType": "bool",
          "name": "",
          "type": "bool"
        }
      ],
      "stateMutability": "view",
      "type": "function"
    },
    {
      "inputs": [
        {
          "internalType": "address",
          "name": "",
          "type": "address"
        }
      ],
      "name": "bufferAmounts",
      "outputs": [
        {
          "internalType": "uint256",
          "name": "",
          "type": "uint256"
        }
      ],
      "stateMutability": "view",
      "type": "function"
    },
    {
      "inputs": [
        {
          "internalType": "address",
          "name": "_token",
          "type": "address"
        },
        {
          "internalType": "address",
          "name": "_receiver",
          "type": "address"
        }
      ],
      "name": "buyUSDG",
      "outputs": [
        {
          "internalType": "uint256",
          "name": "",
          "type": "uint256"
        }
      ],
      "stateMutability": "nonpayable",
      "type": "function"
    },
    {
      "inputs": [
        {
          "internalType": "address",
          "name": "_token",
          "type": "address"
        }
      ],
      "name": "clearTokenConfig",
      "outputs": [],
      "stateMutability": "nonpayable",
      "type": "function"
    },
    {
      "inputs": [
        {
          "internalType": "address",
          "name": "",
          "type": "address"
        }
      ],
      "name": "cumulativeFundingRates",
      "outputs": [
        {
          "internalType": "uint256",
          "name": "",
          "type": "uint256"
        }
      ],
      "stateMutability": "view",
      "type": "function"
    },
    {
      "inputs": [
        {
          "internalType": "address",
          "name": "_account",
          "type": "address"
        },
        {
          "internalType": "address",
          "name": "_collateralToken",
          "type": "address"
        },
        {
          "internalType": "address",
          "name": "_indexToken",
          "type": "address"
        },
        {
          "internalType": "uint256",
          "name": "_collateralDelta",
          "type": "uint256"
        },
        {
          "internalType": "uint256",
          "name": "_sizeDelta",
          "type": "uint256"
        },
        {
          "internalType": "bool",
          "name": "_isLong",
          "type": "bool"
        },
        {
          "internalType": "address",
          "name": "_receiver",
          "type": "address"
        }
      ],
      "name": "decreasePosition",
      "outputs": [
        {
          "internalType": "uint256",
          "name": "",
          "type": "uint256"
        }
      ],
      "stateMutability": "nonpayable",
      "type": "function"
    },
    {
      "inputs": [
        {
          "internalType": "address",
          "name": "_token",
          "type": "address"
        }
      ],
      "name": "directPoolDeposit",
      "outputs": [],
      "stateMutability": "nonpayable",
      "type": "function"
    },
    {
      "inputs": [],
      "name": "errorController",
      "outputs": [
        {
          "internalType": "address",
          "name": "",
          "type": "address"
        }
      ],
      "stateMutability": "view",
      "type": "function"
    },
    {
      "inputs": [
        {
          "internalType": "uint256",
          "name": "",
          "type": "uint256"
        }
      ],
      "name": "errors",
      "outputs": [
        {
          "internalType": "string",
          "name": "",
          "type": "string"
        }
      ],
      "stateMutability": "view",
      "type": "function"
    },
    {
      "inputs": [
        {
          "internalType": "address",
          "name": "",
          "type": "address"
        }
      ],
      "name": "feeReserves",
      "outputs": [
        {
          "internalType": "uint256",
          "name": "",
          "type": "uint256"
        }
      ],
      "stateMutability": "view",
      "type": "function"
    },
    {
      "inputs": [],
      "name": "fundingInterval",
      "outputs": [
        {
          "internalType": "uint256",
          "name": "",
          "type": "uint256"
        }
      ],
      "stateMutability": "view",
      "type": "function"
    },
    {
      "inputs": [],
      "name": "fundingRateFactor",
      "outputs": [
        {
          "internalType": "uint256",
          "name": "",
          "type": "uint256"
        }
      ],
      "stateMutability": "view",
      "type": "function"
    },
    {
      "inputs": [
        {
          "internalType": "address",
          "name": "_indexToken",
          "type": "address"
        },
        {
          "internalType": "uint256",
          "name": "_size",
          "type": "uint256"
        },
        {
          "internalType": "uint256",
          "name": "_averagePrice",
          "type": "uint256"
        },
        {
          "internalType": "bool",
          "name": "_isLong",
          "type": "bool"
        },
        {
          "internalType": "uint256",
          "name": "_lastIncreasedTime",
          "type": "uint256"
        }
      ],
      "name": "getDelta",
      "outputs": [
        {
          "internalType": "bool",
          "name": "",
          "type": "bool"
        },
        {
          "internalType": "uint256",
          "name": "",
          "type": "uint256"
        }
      ],
      "stateMutability": "view",
      "type": "function"
    },
    {
      "inputs": [
        {
          "internalType": "address",
          "name": "_collateralToken",
          "type": "address"
        },
        {
          "internalType": "address",
          "name": "_indexToken",
          "type": "address"
        },
        {
          "internalType": "bool",
          "name": "_isLong",
          "type": "bool"
        }
      ],
      "name": "getEntryFundingRate",
      "outputs": [
        {
          "internalType": "uint256",
          "name": "",
          "type": "uint256"
        }
      ],
      "stateMutability": "view",
      "type": "function"
    },
    {
      "inputs": [
        {
          "internalType": "address",
          "name": "_token",
          "type": "address"
        },
        {
          "internalType": "uint256",
          "name": "_usdgDelta",
          "type": "uint256"
        },
        {
          "internalType": "uint256",
          "name": "_feeBasisPoints",
          "type": "uint256"
        },
        {
          "internalType": "uint256",
          "name": "_taxBasisPoints",
          "type": "uint256"
        },
        {
          "internalType": "bool",
          "name": "_increment",
          "type": "bool"
        }
      ],
      "name": "getFeeBasisPoints",
      "outputs": [
        {
          "internalType": "uint256",
          "name": "",
          "type": "uint256"
        }
      ],
      "stateMutability": "view",
      "type": "function"
    },
    {
      "inputs": [
        {
          "internalType": "address",
          "name": "_account",
          "type": "address"
        },
        {
          "internalType": "address",
          "name": "_collateralToken",
          "type": "address"
        },
        {
          "internalType": "address",
          "name": "_indexToken",
          "type": "address"
        },
        {
          "internalType": "bool",
          "name": "_isLong",
          "type": "bool"
        },
        {
          "internalType": "uint256",
          "name": "_size",
          "type": "uint256"
        },
        {
          "internalType": "uint256",
          "name": "_entryFundingRate",
          "type": "uint256"
        }
      ],
      "name": "getFundingFee",
      "outputs": [
        {
          "internalType": "uint256",
          "name": "",
          "type": "uint256"
        }
      ],
      "stateMutability": "view",
      "type": "function"
    },
    {
      "inputs": [
        {
          "internalType": "address",
          "name": "_token",
          "type": "address"
        }
      ],
      "name": "getGlobalShortDelta",
      "outputs": [
        {
          "internalType": "bool",
          "name": "",
          "type": "bool"
        },
        {
          "internalType": "uint256",
          "name": "",
          "type": "uint256"
        }
      ],
      "stateMutability": "view",
      "type": "function"
    },
    {
      "inputs": [
        {
          "internalType": "address",
          "name": "_token",
          "type": "address"
        }
      ],
      "name": "getMaxPrice",
      "outputs": [
        {
          "internalType": "uint256",
          "name": "",
          "type": "uint256"
        }
      ],
      "stateMutability": "view",
      "type": "function"
    },
    {
      "inputs": [
        {
          "internalType": "address",
          "name": "_token",
          "type": "address"
        }
      ],
      "name": "getMinPrice",
      "outputs": [
        {
          "internalType": "uint256",
          "name": "",
          "type": "uint256"
        }
      ],
      "stateMutability": "view",
      "type": "function"
    },
    {
      "inputs": [
        {
          "internalType": "address",
          "name": "_indexToken",
          "type": "address"
        },
        {
          "internalType": "uint256",
          "name": "_size",
          "type": "uint256"
        },
        {
          "internalType": "uint256",
          "name": "_averagePrice",
          "type": "uint256"
        },
        {
          "internalType": "bool",
          "name": "_isLong",
          "type": "bool"
        },
        {
          "internalType": "uint256",
          "name": "_nextPrice",
          "type": "uint256"
        },
        {
          "internalType": "uint256",
          "name": "_sizeDelta",
          "type": "uint256"
        },
        {
          "internalType": "uint256",
          "name": "_lastIncreasedTime",
          "type": "uint256"
        }
      ],
      "name": "getNextAveragePrice",
      "outputs": [
        {
          "internalType": "uint256",
          "name": "",
          "type": "uint256"
        }
      ],
      "stateMutability": "view",
      "type": "function"
    },
    {
      "inputs": [
        {
          "internalType": "address",
          "name": "_token",
          "type": "address"
        }
      ],
      "name": "getNextFundingRate",
      "outputs": [
        {
          "internalType": "uint256",
          "name": "",
          "type": "uint256"
        }
      ],
      "stateMutability": "view",
      "type": "function"
    },
    {
      "inputs": [
        {
          "internalType": "address",
          "name": "_indexToken",
          "type": "address"
        },
        {
          "internalType": "uint256",
          "name": "_nextPrice",
          "type": "uint256"
        },
        {
          "internalType": "uint256",
          "name": "_sizeDelta",
          "type": "uint256"
        }
      ],
      "name": "getNextGlobalShortAveragePrice",
      "outputs": [
        {
          "internalType": "uint256",
          "name": "",
          "type": "uint256"
        }
      ],
      "stateMutability": "view",
      "type": "function"
    },
    {
      "inputs": [
        {
          "internalType": "address",
          "name": "_account",
          "type": "address"
        },
        {
          "internalType": "address",
          "name": "_collateralToken",
          "type": "address"
        },
        {
          "internalType": "address",
          "name": "_indexToken",
          "type": "address"
        },
        {
          "internalType": "bool",
          "name": "_isLong",
          "type": "bool"
        }
      ],
      "name": "getPosition",
      "outputs": [
        {
          "internalType": "uint256",
          "name": "",
          "type": "uint256"
        },
        {
          "internalType": "uint256",
          "name": "",
          "type": "uint256"
        },
        {
          "internalType": "uint256",
          "name": "",
          "type": "uint256"
        },
        {
          "internalType": "uint256",
          "name": "",
          "type": "uint256"
        },
        {
          "internalType": "uint256",
          "name": "",
          "type": "uint256"
        },
        {
          "internalType": "uint256",
          "name": "",
          "type": "uint256"
        },
        {
          "internalType": "bool",
          "name": "",
          "type": "bool"
        },
        {
          "internalType": "uint256",
          "name": "",
          "type": "uint256"
        }
      ],
      "stateMutability": "view",
      "type": "function"
    },
    {
      "inputs": [
        {
          "internalType": "address",
          "name": "_account",
          "type": "address"
        },
        {
          "internalType": "address",
          "name": "_collateralToken",
          "type": "address"
        },
        {
          "internalType": "address",
          "name": "_indexToken",
          "type": "address"
        },
        {
          "internalType": "bool",
          "name": "_isLong",
          "type": "bool"
        }
      ],
      "name": "getPositionDelta",
      "outputs": [
        {
          "internalType": "bool",
          "name": "",
          "type": "bool"
        },
        {
          "internalType": "uint256",
          "name": "",
          "type": "uint256"
        }
      ],
      "stateMutability": "view",
      "type": "function"
    },
    {
      "inputs": [
        {
          "internalType": "address",
          "name": "_account",
          "type": "address"
        },
        {
          "internalType": "address",
          "name": "_collateralToken",
          "type": "address"
        },
        {
          "internalType": "address",
          "name": "_indexToken",
          "type": "address"
        },
        {
          "internalType": "bool",
          "name": "_isLong",
          "type": "bool"
        },
        {
          "internalType": "uint256",
          "name": "_sizeDelta",
          "type": "uint256"
        }
      ],
      "name": "getPositionFee",
      "outputs": [
        {
          "internalType": "uint256",
          "name": "",
          "type": "uint256"
        }
      ],
      "stateMutability": "view",
      "type": "function"
    },
    {
      "inputs": [
        {
          "internalType": "address",
          "name": "_account",
          "type": "address"
        },
        {
          "internalType": "address",
          "name": "_collateralToken",
          "type": "address"
        },
        {
          "internalType": "address",
          "name": "_indexToken",
          "type": "address"
        },
        {
          "internalType": "bool",
          "name": "_isLong",
          "type": "bool"
        }
      ],
      "name": "getPositionKey",
      "outputs": [
        {
          "internalType": "bytes32",
          "name": "",
          "type": "bytes32"
        }
      ],
      "stateMutability": "pure",
      "type": "function"
    },
    {
      "inputs": [
        {
          "internalType": "address",
          "name": "_account",
          "type": "address"
        },
        {
          "internalType": "address",
          "name": "_collateralToken",
          "type": "address"
        },
        {
          "internalType": "address",
          "name": "_indexToken",
          "type": "address"
        },
        {
          "internalType": "bool",
          "name": "_isLong",
          "type": "bool"
        }
      ],
      "name": "getPositionLeverage",
      "outputs": [
        {
          "internalType": "uint256",
          "name": "",
          "type": "uint256"
        }
      ],
      "stateMutability": "view",
      "type": "function"
    },
    {
      "inputs": [
        {
          "internalType": "address",
          "name": "_token",
          "type": "address"
        },
        {
          "internalType": "uint256",
          "name": "_usdgAmount",
          "type": "uint256"
        }
      ],
      "name": "getRedemptionAmount",
      "outputs": [
        {
          "internalType": "uint256",
          "name": "",
          "type": "uint256"
        }
      ],
      "stateMutability": "view",
      "type": "function"
    },
    {
      "inputs": [
        {
          "internalType": "address",
          "name": "_token",
          "type": "address"
        }
      ],
      "name": "getRedemptionCollateral",
      "outputs": [
        {
          "internalType": "uint256",
          "name": "",
          "type": "uint256"
        }
      ],
      "stateMutability": "view",
      "type": "function"
    },
    {
      "inputs": [
        {
          "internalType": "address",
          "name": "_token",
          "type": "address"
        }
      ],
      "name": "getRedemptionCollateralUsd",
      "outputs": [
        {
          "internalType": "uint256",
          "name": "",
          "type": "uint256"
        }
      ],
      "stateMutability": "view",
      "type": "function"
    },
    {
      "inputs": [
        {
          "internalType": "address",
          "name": "_token",
          "type": "address"
        }
      ],
      "name": "getTargetUsdgAmount",
      "outputs": [
        {
          "internalType": "uint256",
          "name": "",
          "type": "uint256"
        }
      ],
      "stateMutability": "view",
      "type": "function"
    },
    {
      "inputs": [
        {
          "internalType": "address",
          "name": "_token",
          "type": "address"
        }
      ],
      "name": "getUtilisation",
      "outputs": [
        {
          "internalType": "uint256",
          "name": "",
          "type": "uint256"
        }
      ],
      "stateMutability": "view",
      "type": "function"
    },
    {
      "inputs": [
        {
          "internalType": "address",
          "name": "",
          "type": "address"
        }
      ],
      "name": "globalShortAveragePrices",
      "outputs": [
        {
          "internalType": "uint256",
          "name": "",
          "type": "uint256"
        }
      ],
      "stateMutability": "view",
      "type": "function"
    },
    {
      "inputs": [
        {
          "internalType": "address",
          "name": "",
          "type": "address"
        }
      ],
      "name": "globalShortSizes",
      "outputs": [
        {
          "internalType": "uint256",
          "name": "",
          "type": "uint256"
        }
      ],
      "stateMutability": "view",
      "type": "function"
    },
    {
      "inputs": [],
      "name": "gov",
      "outputs": [
        {
          "internalType": "address",
          "name": "",
          "type": "address"
        }
      ],
      "stateMutability": "view",
      "type": "function"
    },
    {
      "inputs": [
        {
          "internalType": "address",
          "name": "",
          "type": "address"
        }
      ],
      "name": "guaranteedUsd",
      "outputs": [
        {
          "internalType": "uint256",
          "name": "",
          "type": "uint256"
        }
      ],
      "stateMutability": "view",
      "type": "function"
    },
    {
      "inputs": [],
      "name": "hasDynamicFees",
      "outputs": [
        {
          "internalType": "bool",
          "name": "",
          "type": "bool"
        }
      ],
      "stateMutability": "view",
      "type": "function"
    },
    {
      "inputs": [],
      "name": "inManagerMode",
      "outputs": [
        {
          "internalType": "bool",
          "name": "",
          "type": "bool"
        }
      ],
      "stateMutability": "view",
      "type": "function"
    },
    {
      "inputs": [],
      "name": "inPrivateLiquidationMode",
      "outputs": [
        {
          "internalType": "bool",
          "name": "",
          "type": "bool"
        }
      ],
      "stateMutability": "view",
      "type": "function"
    },
    {
      "inputs": [],
      "name": "includeAmmPrice",
      "outputs": [
        {
          "internalType": "bool",
          "name": "",
          "type": "bool"
        }
      ],
      "stateMutability": "view",
      "type": "function"
    },
    {
      "inputs": [
        {
          "internalType": "address",
          "name": "_account",
          "type": "address"
        },
        {
          "internalType": "address",
          "name": "_collateralToken",
          "type": "address"
        },
        {
          "internalType": "address",
          "name": "_indexToken",
          "type": "address"
        },
        {
          "internalType": "uint256",
          "name": "_sizeDelta",
          "type": "uint256"
        },
        {
          "internalType": "bool",
          "name": "_isLong",
          "type": "bool"
        }
      ],
      "name": "increasePosition",
      "outputs": [],
      "stateMutability": "nonpayable",
      "type": "function"
    },
    {
      "inputs": [
        {
          "internalType": "address",
          "name": "router_",
          "type": "address"
        },
        {
          "internalType": "address",
          "name": "usdg_",
          "type": "address"
        },
        {
          "internalType": "address",
          "name": "priceFeed_",
          "type": "address"
        },
        {
          "internalType": "uint256",
          "name": "liquidationFeeUsd_",
          "type": "uint256"
        },
        {
          "internalType": "uint256",
          "name": "fundingRateFactor_",
          "type": "uint256"
        },
        {
          "internalType": "uint256",
          "name": "_stableFundingRateFactor",
          "type": "uint256"
        }
      ],
      "name": "initialize",
      "outputs": [],
      "stateMutability": "nonpayable",
      "type": "function"
    },
    {
      "inputs": [],
      "name": "isInitialized",
      "outputs": [
        {
          "internalType": "bool",
          "name": "",
          "type": "bool"
        }
      ],
      "stateMutability": "view",
      "type": "function"
    },
    {
      "inputs": [],
      "name": "isLeverageEnabled",
      "outputs": [
        {
          "internalType": "bool",
          "name": "",
          "type": "bool"
        }
      ],
      "stateMutability": "view",
      "type": "function"
    },
    {
      "inputs": [
        {
          "internalType": "address",
          "name": "",
          "type": "address"
        }
      ],
      "name": "isLiquidator",
      "outputs": [
        {
          "internalType": "bool",
          "name": "",
          "type": "bool"
        }
      ],
      "stateMutability": "view",
      "type": "function"
    },
    {
      "inputs": [
        {
          "internalType": "address",
          "name": "",
          "type": "address"
        }
      ],
      "name": "isManager",
      "outputs": [
        {
          "internalType": "bool",
          "name": "",
          "type": "bool"
        }
      ],
      "stateMutability": "view",
      "type": "function"
    },
    {
      "inputs": [],
      "name": "isSwapEnabled",
      "outputs": [
        {
          "internalType": "bool",
          "name": "",
          "type": "bool"
        }
      ],
      "stateMutability": "view",
      "type": "function"
    },
    {
      "inputs": [
        {
          "internalType": "address",
          "name": "",
          "type": "address"
        }
      ],
      "name": "lastFundingTimes",
      "outputs": [
        {
          "internalType": "uint256",
          "name": "",
          "type": "uint256"
        }
      ],
      "stateMutability": "view",
      "type": "function"
    },
    {
      "inputs": [
        {
          "internalType": "address",
          "name": "_account",
          "type": "address"
        },
        {
          "internalType": "address",
          "name": "_collateralToken",
          "type": "address"
        },
        {
          "internalType": "address",
          "name": "_indexToken",
          "type": "address"
        },
        {
          "internalType": "bool",
          "name": "_isLong",
          "type": "bool"
        },
        {
          "internalType": "address",
          "name": "_feeReceiver",
          "type": "address"
        }
      ],
      "name": "liquidatePosition",
      "outputs": [],
      "stateMutability": "nonpayable",
      "type": "function"
    },
    {
      "inputs": [],
      "name": "liquidationFeeUsd",
      "outputs": [
        {
          "internalType": "uint256",
          "name": "",
          "type": "uint256"
        }
      ],
      "stateMutability": "view",
      "type": "function"
    },
    {
      "inputs": [],
      "name": "marginFeeBasisPoints",
      "outputs": [
        {
          "internalType": "uint256",
          "name": "",
          "type": "uint256"
        }
      ],
      "stateMutability": "view",
      "type": "function"
    },
    {
      "inputs": [],
      "name": "maxGasPrice",
      "outputs": [
        {
          "internalType": "uint256",
          "name": "",
          "type": "uint256"
        }
      ],
      "stateMutability": "view",
      "type": "function"
    },
    {
      "inputs": [
        {
          "internalType": "address",
          "name": "",
          "type": "address"
        }
      ],
      "name": "maxGlobalShortSizes",
      "outputs": [
        {
          "internalType": "uint256",
          "name": "",
          "type": "uint256"
        }
      ],
      "stateMutability": "view",
      "type": "function"
    },
    {
      "inputs": [],
      "name": "maxLeverage",
      "outputs": [
        {
          "internalType": "uint256",
          "name": "",
          "type": "uint256"
        }
      ],
      "stateMutability": "view",
      "type": "function"
    },
    {
      "inputs": [
        {
          "internalType": "address",
          "name": "",
          "type": "address"
        }
      ],
      "name": "maxUsdgAmounts",
      "outputs": [
        {
          "internalType": "uint256",
          "name": "",
          "type": "uint256"
        }
      ],
      "stateMutability": "view",
      "type": "function"
    },
    {
      "inputs": [
        {
          "internalType": "address",
          "name": "",
          "type": "address"
        }
      ],
      "name": "minProfitBasisPoints",
      "outputs": [
        {
          "internalType": "uint256",
          "name": "",
          "type": "uint256"
        }
      ],
      "stateMutability": "view",
      "type": "function"
    },
    {
      "inputs": [],
      "name": "minProfitTime",
      "outputs": [
        {
          "internalType": "uint256",
          "name": "",
          "type": "uint256"
        }
      ],
      "stateMutability": "view",
      "type": "function"
    },
    {
      "inputs": [],
      "name": "mintBurnFeeBasisPoints",
      "outputs": [
        {
          "internalType": "uint256",
          "name": "",
          "type": "uint256"
        }
      ],
      "stateMutability": "view",
      "type": "function"
    },
    {
      "inputs": [
        {
          "internalType": "address",
          "name": "",
          "type": "address"
        }
      ],
      "name": "poolAmounts",
      "outputs": [
        {
          "internalType": "uint256",
          "name": "",
          "type": "uint256"
        }
      ],
      "stateMutability": "view",
      "type": "function"
    },
    {
      "inputs": [
        {
          "internalType": "bytes32",
          "name": "",
          "type": "bytes32"
        }
      ],
      "name": "positions",
      "outputs": [
        {
          "internalType": "uint256",
          "name": "size",
          "type": "uint256"
        },
        {
          "internalType": "uint256",
          "name": "collateral",
          "type": "uint256"
        },
        {
          "internalType": "uint256",
          "name": "averagePrice",
          "type": "uint256"
        },
        {
          "internalType": "uint256",
          "name": "entryFundingRate",
          "type": "uint256"
        },
        {
          "internalType": "uint256",
          "name": "reserveAmount",
          "type": "uint256"
        },
        {
          "internalType": "int256",
          "name": "realisedPnl",
          "type": "int256"
        },
        {
          "internalType": "uint256",
          "name": "lastIncreasedTime",
          "type": "uint256"
        }
      ],
      "stateMutability": "view",
      "type": "function"
    },
    {
      "inputs": [],
      "name": "priceFeed",
      "outputs": [
        {
          "internalType": "address",
          "name": "",
          "type": "address"
        }
      ],
      "stateMutability": "view",
      "type": "function"
    },
    {
      "inputs": [
        {
          "internalType": "address",
          "name": "_router",
          "type": "address"
        }
      ],
      "name": "removeRouter",
      "outputs": [],
      "stateMutability": "nonpayable",
      "type": "function"
    },
    {
      "inputs": [
        {
          "internalType": "address",
          "name": "",
          "type": "address"
        }
      ],
      "name": "reservedAmounts",
      "outputs": [
        {
          "internalType": "uint256",
          "name": "",
          "type": "uint256"
        }
      ],
      "stateMutability": "view",
      "type": "function"
    },
    {
      "inputs": [],
      "name": "router",
      "outputs": [
        {
          "internalType": "address",
          "name": "",
          "type": "address"
        }
      ],
      "stateMutability": "view",
      "type": "function"
    },
    {
      "inputs": [
        {
          "internalType": "address",
          "name": "_token",
          "type": "address"
        },
        {
          "internalType": "address",
          "name": "_receiver",
          "type": "address"
        }
      ],
      "name": "sellUSDG",
      "outputs": [
        {
          "internalType": "uint256",
          "name": "",
          "type": "uint256"
        }
      ],
      "stateMutability": "nonpayable",
      "type": "function"
    },
    {
      "inputs": [
        {
          "internalType": "address",
          "name": "_token",
          "type": "address"
        },
        {
          "internalType": "uint256",
          "name": "_amount",
          "type": "uint256"
        }
      ],
      "name": "setBufferAmount",
      "outputs": [],
      "stateMutability": "nonpayable",
      "type": "function"
    },
    {
      "inputs": [
        {
          "internalType": "uint256",
          "name": "_errorCode",
          "type": "uint256"
        },
        {
          "internalType": "string",
          "name": "_error",
          "type": "string"
        }
      ],
      "name": "setError",
      "outputs": [],
      "stateMutability": "nonpayable",
      "type": "function"
    },
    {
      "inputs": [
        {
          "internalType": "address",
          "name": "_errorController",
          "type": "address"
        }
      ],
      "name": "setErrorController",
      "outputs": [],
      "stateMutability": "nonpayable",
      "type": "function"
    },
    {
      "inputs": [
        {
          "internalType": "uint256",
          "name": "_taxBasisPoints",
          "type": "uint256"
        },
        {
          "internalType": "uint256",
          "name": "_stableTaxBasisPoints",
          "type": "uint256"
        },
        {
          "internalType": "uint256",
          "name": "_mintBurnFeeBasisPoints",
          "type": "uint256"
        },
        {
          "internalType": "uint256",
          "name": "_swapFeeBasisPoints",
          "type": "uint256"
        },
        {
          "internalType": "uint256",
          "name": "_stableSwapFeeBasisPoints",
          "type": "uint256"
        },
        {
          "internalType": "uint256",
          "name": "_marginFeeBasisPoints",
          "type": "uint256"
        },
        {
          "internalType": "uint256",
          "name": "_liquidationFeeUsd",
          "type": "uint256"
        },
        {
          "internalType": "uint256",
          "name": "_minProfitTime",
          "type": "uint256"
        },
        {
          "internalType": "bool",
          "name": "_hasDynamicFees",
          "type": "bool"
        }
      ],
      "name": "setFees",
      "outputs": [],
      "stateMutability": "nonpayable",
      "type": "function"
    },
    {
      "inputs": [
        {
          "internalType": "uint256",
          "name": "_fundingInterval",
          "type": "uint256"
        },
        {
          "internalType": "uint256",
          "name": "_fundingRateFactor",
          "type": "uint256"
        },
        {
          "internalType": "uint256",
          "name": "_stableFundingRateFactor",
          "type": "uint256"
        }
      ],
      "name": "setFundingRate",
      "outputs": [],
      "stateMutability": "nonpayable",
      "type": "function"
    },
    {
      "inputs": [
        {
          "internalType": "address",
          "name": "_gov",
          "type": "address"
        }
      ],
      "name": "setGov",
      "outputs": [],
      "stateMutability": "nonpayable",
      "type": "function"
    },
    {
      "inputs": [
        {
          "internalType": "bool",
          "name": "_inManagerMode",
          "type": "bool"
        }
      ],
      "name": "setInManagerMode",
      "outputs": [],
      "stateMutability": "nonpayable",
      "type": "function"
    },
    {
      "inputs": [
        {
          "internalType": "bool",
          "name": "_inPrivateLiquidationMode",
          "type": "bool"
        }
      ],
      "name": "setInPrivateLiquidationMode",
      "outputs": [],
      "stateMutability": "nonpayable",
      "type": "function"
    },
    {
      "inputs": [
        {
          "internalType": "bool",
          "name": "_isLeverageEnabled",
          "type": "bool"
        }
      ],
      "name": "setIsLeverageEnabled",
      "outputs": [],
      "stateMutability": "nonpayable",
      "type": "function"
    },
    {
      "inputs": [
        {
          "internalType": "bool",
          "name": "_isSwapEnabled",
          "type": "bool"
        }
      ],
      "name": "setIsSwapEnabled",
      "outputs": [],
      "stateMutability": "nonpayable",
      "type": "function"
    },
    {
      "inputs": [
        {
          "internalType": "address",
          "name": "_liquidator",
          "type": "address"
        },
        {
          "internalType": "bool",
          "name": "_isActive",
          "type": "bool"
        }
      ],
      "name": "setLiquidator",
      "outputs": [],
      "stateMutability": "nonpayable",
      "type": "function"
    },
    {
      "inputs": [
        {
          "internalType": "address",
          "name": "_manager",
          "type": "address"
        },
        {
          "internalType": "bool",
          "name": "_isManager",
          "type": "bool"
        }
      ],
      "name": "setManager",
      "outputs": [],
      "stateMutability": "nonpayable",
      "type": "function"
    },
    {
      "inputs": [
        {
          "internalType": "uint256",
          "name": "_maxGasPrice",
          "type": "uint256"
        }
      ],
      "name": "setMaxGasPrice",
      "outputs": [],
      "stateMutability": "nonpayable",
      "type": "function"
    },
    {
      "inputs": [
        {
          "internalType": "address",
          "name": "_token",
          "type": "address"
        },
        {
          "internalType": "uint256",
          "name": "_amount",
          "type": "uint256"
        }
      ],
      "name": "setMaxGlobalShortSize",
      "outputs": [],
      "stateMutability": "nonpayable",
      "type": "function"
    },
    {
      "inputs": [
        {
          "internalType": "uint256",
          "name": "_maxLeverage",
          "type": "uint256"
        }
      ],
      "name": "setMaxLeverage",
      "outputs": [],
      "stateMutability": "nonpayable",
      "type": "function"
    },
    {
      "inputs": [
        {
          "internalType": "address",
          "name": "_priceFeed",
          "type": "address"
        }
      ],
      "name": "setPriceFeed",
      "outputs": [],
      "stateMutability": "nonpayable",
      "type": "function"
    },
    {
      "inputs": [
        {
          "internalType": "address",
          "name": "_token",
          "type": "address"
        },
        {
          "internalType": "uint256",
          "name": "_tokenDecimals",
          "type": "uint256"
        },
        {
          "internalType": "uint256",
          "name": "_tokenWeight",
          "type": "uint256"
        },
        {
          "internalType": "uint256",
          "name": "_minProfitBps",
          "type": "uint256"
        },
        {
          "internalType": "uint256",
          "name": "_maxUsdgAmount",
          "type": "uint256"
        },
        {
          "internalType": "bool",
          "name": "_isStable",
          "type": "bool"
        },
        {
          "internalType": "bool",
          "name": "_isShortable",
          "type": "bool"
        }
      ],
      "name": "setTokenConfig",
      "outputs": [],
      "stateMutability": "nonpayable",
      "type": "function"
    },
    {
      "inputs": [
        {
          "internalType": "address",
          "name": "_token",
          "type": "address"
        },
        {
          "internalType": "uint256",
          "name": "_amount",
          "type": "uint256"
        }
      ],
      "name": "setUsdgAmount",
      "outputs": [],
      "stateMutability": "nonpayable",
      "type": "function"
    },
    {
      "inputs": [
        {
          "internalType": "contract IVaultUtils",
          "name": "_vaultUtils",
          "type": "address"
        }
      ],
      "name": "setVaultUtils",
      "outputs": [],
      "stateMutability": "nonpayable",
      "type": "function"
    },
    {
      "inputs": [
        {
          "internalType": "address",
          "name": "",
          "type": "address"
        }
      ],
      "name": "shortableTokens",
      "outputs": [
        {
          "internalType": "bool",
          "name": "",
          "type": "bool"
        }
      ],
      "stateMutability": "view",
      "type": "function"
    },
    {
      "inputs": [],
      "name": "stableFundingRateFactor",
      "outputs": [
        {
          "internalType": "uint256",
          "name": "",
          "type": "uint256"
        }
      ],
      "stateMutability": "view",
      "type": "function"
    },
    {
      "inputs": [],
      "name": "stableSwapFeeBasisPoints",
      "outputs": [
        {
          "internalType": "uint256",
          "name": "",
          "type": "uint256"
        }
      ],
      "stateMutability": "view",
      "type": "function"
    },
    {
      "inputs": [],
      "name": "stableTaxBasisPoints",
      "outputs": [
        {
          "internalType": "uint256",
          "name": "",
          "type": "uint256"
        }
      ],
      "stateMutability": "view",
      "type": "function"
    },
    {
      "inputs": [
        {
          "internalType": "address",
          "name": "",
          "type": "address"
        }
      ],
      "name": "stableTokens",
      "outputs": [
        {
          "internalType": "bool",
          "name": "",
          "type": "bool"
        }
      ],
      "stateMutability": "view",
      "type": "function"
    },
    {
      "inputs": [
        {
          "internalType": "address",
          "name": "_tokenIn",
          "type": "address"
        },
        {
          "internalType": "address",
          "name": "_tokenOut",
          "type": "address"
        },
        {
          "internalType": "address",
          "name": "_receiver",
          "type": "address"
        }
      ],
      "name": "swap",
      "outputs": [
        {
          "internalType": "uint256",
          "name": "",
          "type": "uint256"
        }
      ],
      "stateMutability": "nonpayable",
      "type": "function"
    },
    {
      "inputs": [],
      "name": "swapFeeBasisPoints",
      "outputs": [
        {
          "internalType": "uint256",
          "name": "",
          "type": "uint256"
        }
      ],
      "stateMutability": "view",
      "type": "function"
    },
    {
      "inputs": [],
      "name": "taxBasisPoints",
      "outputs": [
        {
          "internalType": "uint256",
          "name": "",
          "type": "uint256"
        }
      ],
      "stateMutability": "view",
      "type": "function"
    },
    {
      "inputs": [
        {
          "internalType": "address",
          "name": "",
          "type": "address"
        }
      ],
      "name": "tokenBalances",
      "outputs": [
        {
          "internalType": "uint256",
          "name": "",
          "type": "uint256"
        }
      ],
      "stateMutability": "view",
      "type": "function"
    },
    {
      "inputs": [
        {
          "internalType": "address",
          "name": "",
          "type": "address"
        }
      ],
      "name": "tokenDecimals",
      "outputs": [
        {
          "internalType": "uint256",
          "name": "",
          "type": "uint256"
        }
      ],
      "stateMutability": "view",
      "type": "function"
    },
    {
      "inputs": [
        {
          "internalType": "address",
          "name": "_token",
          "type": "address"
        },
        {
          "internalType": "uint256",
          "name": "_tokenAmount",
          "type": "uint256"
        }
      ],
      "name": "tokenToUsdMin",
      "outputs": [
        {
          "internalType": "uint256",
          "name": "",
          "type": "uint256"
        }
      ],
      "stateMutability": "view",
      "type": "function"
    },
    {
      "inputs": [
        {
          "internalType": "address",
          "name": "",
          "type": "address"
        }
      ],
      "name": "tokenWeights",
      "outputs": [
        {
          "internalType": "uint256",
          "name": "",
          "type": "uint256"
        }
      ],
      "stateMutability": "view",
      "type": "function"
    },
    {
      "inputs": [],
      "name": "totalTokenWeights",
      "outputs": [
        {
          "internalType": "uint256",
          "name": "",
          "type": "uint256"
        }
      ],
      "stateMutability": "view",
      "type": "function"
    },
    {
      "inputs": [
        {
          "internalType": "address",
          "name": "_collateralToken",
          "type": "address"
        },
        {
          "internalType": "address",
          "name": "_indexToken",
          "type": "address"
        }
      ],
      "name": "updateCumulativeFundingRate",
      "outputs": [],
      "stateMutability": "nonpayable",
      "type": "function"
    },
    {
      "inputs": [
        {
          "internalType": "address",
          "name": "_newVault",
          "type": "address"
        },
        {
          "internalType": "address",
          "name": "_token",
          "type": "address"
        },
        {
          "internalType": "uint256",
          "name": "_amount",
          "type": "uint256"
        }
      ],
      "name": "upgradeVault",
      "outputs": [],
      "stateMutability": "nonpayable",
      "type": "function"
    },
    {
      "inputs": [
        {
          "internalType": "address",
          "name": "_token",
          "type": "address"
        },
        {
          "internalType": "uint256",
          "name": "_usdAmount",
          "type": "uint256"
        },
        {
          "internalType": "uint256",
          "name": "_price",
          "type": "uint256"
        }
      ],
      "name": "usdToToken",
      "outputs": [
        {
          "internalType": "uint256",
          "name": "",
          "type": "uint256"
        }
      ],
      "stateMutability": "view",
      "type": "function"
    },
    {
      "inputs": [
        {
          "internalType": "address",
          "name": "_token",
          "type": "address"
        },
        {
          "internalType": "uint256",
          "name": "_usdAmount",
          "type": "uint256"
        }
      ],
      "name": "usdToTokenMax",
      "outputs": [
        {
          "internalType": "uint256",
          "name": "",
          "type": "uint256"
        }
      ],
      "stateMutability": "view",
      "type": "function"
    },
    {
      "inputs": [
        {
          "internalType": "address",
          "name": "_token",
          "type": "address"
        },
        {
          "internalType": "uint256",
          "name": "_usdAmount",
          "type": "uint256"
        }
      ],
      "name": "usdToTokenMin",
      "outputs": [
        {
          "internalType": "uint256",
          "name": "",
          "type": "uint256"
        }
      ],
      "stateMutability": "view",
      "type": "function"
    },
    {
      "inputs": [],
      "name": "usdg",
      "outputs": [
        {
          "internalType": "address",
          "name": "",
          "type": "address"
        }
      ],
      "stateMutability": "view",
      "type": "function"
    },
    {
      "inputs": [
        {
          "internalType": "address",
          "name": "",
          "type": "address"
        }
      ],
      "name": "usdgAmounts",
      "outputs": [
        {
          "internalType": "uint256",
          "name": "",
          "type": "uint256"
        }
      ],
      "stateMutability": "view",
      "type": "function"
    },
    {
      "inputs": [],
      "name": "useSwapPricing",
      "outputs": [
        {
          "internalType": "bool",
          "name": "",
          "type": "bool"
        }
      ],
      "stateMutability": "view",
      "type": "function"
    },
    {
      "inputs": [
        {
          "internalType": "address",
          "name": "_account",
          "type": "address"
        },
        {
          "internalType": "address",
          "name": "_collateralToken",
          "type": "address"
        },
        {
          "internalType": "address",
          "name": "_indexToken",
          "type": "address"
        },
        {
          "internalType": "bool",
          "name": "_isLong",
          "type": "bool"
        },
        {
          "internalType": "bool",
          "name": "_raise",
          "type": "bool"
        }
      ],
      "name": "validateLiquidation",
      "outputs": [
        {
          "internalType": "uint256",
          "name": "",
          "type": "uint256"
        },
        {
          "internalType": "uint256",
          "name": "",
          "type": "uint256"
        }
      ],
      "stateMutability": "view",
      "type": "function"
    },
    {
      "inputs": [],
      "name": "vaultUtils",
      "outputs": [
        {
          "internalType": "contract IVaultUtils",
          "name": "",
          "type": "address"
        }
      ],
      "stateMutability": "view",
      "type": "function"
    },
    {
      "inputs": [],
      "name": "whitelistedTokenCount",
      "outputs": [
        {
          "internalType": "uint256",
          "name": "",
          "type": "uint256"
        }
      ],
      "stateMutability": "view",
      "type": "function"
    },
    {
      "inputs": [
        {
          "internalType": "address",
          "name": "",
          "type": "address"
        }
      ],
      "name": "whitelistedTokens",
      "outputs": [
        {
          "internalType": "bool",
          "name": "",
          "type": "bool"
        }
      ],
      "stateMutability": "view",
      "type": "function"
    },
    {
      "inputs": [
        {
          "internalType": "address",
          "name": "_token",
          "type": "address"
        },
        {
          "internalType": "address",
          "name": "_receiver",
          "type": "address"
        }
      ],
      "name": "withdrawFees",
      "outputs": [
        {
          "internalType": "uint256",
          "name": "",
          "type": "uint256"
        }
      ],
      "stateMutability": "nonpayable",
      "type": "function"
    }
  ],
  "bytecode": "0x60806040526001805462ffff001916620101001781556207a1206008556032600a9081556014600b55601e600c819055600d556004600e55600f556011805460ff191690556170806012556016805463ffffffff1916909117905534801561006657600080fd5b506001600055600680546001600160a01b03191633179055615b7d806200008e6000396000f3fe608060405234801561001057600080fd5b50600436106107595760003560e01c80638585f4d2116103c9578063c7e074c3116101ff578063df73a26711610125578063f3ae2415116100b8578063fbfded6d11610087578063fbfded6d146111cf578063fce28c10146111e2578063fdaf6ac3146111eb578063fed1a606146111fe57600080fd5b8063f3ae241514611173578063f5b91b7b14611196578063f887ea40146111a9578063fa12dbc0146111bc57600080fd5b8063efa10a6e116100f4578063efa10a6e1461111a578063f07456ce1461112d578063f07bbf771461114d578063f25552781461116057600080fd5b8063df73a267146110d8578063e124e6d2146110e1578063e468baf0146110f4578063e67f59a71461110757600080fd5b8063d8f897c31161019d578063db3555fb1161016c578063db3555fb14611087578063db97495f146110a9578063dc8f5fac146110bc578063de2ea948146110c557600080fd5b8063d8f897c314611028578063d9ac422514611048578063da76524c14611051578063daf9c2101461106457600080fd5b8063d2fa635e116101d9578063d2fa635e14610fc7578063d3127e6314610fda578063d54d5a9f14610fed578063d66b000d1461101557600080fd5b8063c7e074c314610f8e578063cea0c32814610fa1578063cfad57a214610fb457600080fd5b80639f392eb3116102ef578063ae3302c211610282578063b364accb11610251578063b364accb14610f32578063c3c7b9e914610f45578063c4f718bf14610f65578063c65bc7b114610f6e57600080fd5b8063ae3302c214610ef1578063b06423f314610efa578063b136ca4914610f0c578063b1cc53ab14610f1f57600080fd5b8063a93acac2116102be578063a93acac214610e91578063ab08c1c614610ea4578063ab2f3ad414610eb1578063ad1e4f8d14610ed157600080fd5b80639f392eb314610e55578063a22f239214610e62578063a42ab3d214610e6b578063a5e90eee14610e7e57600080fd5b80638f7b8404116103675780639698d25a116103365780639698d25a14610e065780639849e41214610e265780639899cd0214610e2f5780639d7432ca14610e4257600080fd5b80638f7b840414610dba5780639060b1ca14610dcd5780639331621214610de057806395082d2514610df357600080fd5b80638a27d468116103a35780638a27d46814610d675780638a39735a146107b05780638a78daa814610d7a5780638ee573ac14610d9a57600080fd5b80638585f4d214610d2c578063870d917c14610d3f57806388b1fbdf14610d4757600080fd5b80634453a3741161059e57806360922199116104c4578063724e78da116104575780637c2eb9f7116104265780637c2eb9f714610ce0578063817bb85714610cf357806381a612d614610d0657806382a0849014610d1957600080fd5b8063724e78da14610c9e578063728cdbca14610cb1578063741bef1a14610cc45780637a210a2b14610cd757600080fd5b80636ae0b154116104935780636ae0b15414610c325780636be6026b14610c6e57806371089f4d14610c78578063711e619014610c8b57600080fd5b80636092219914610bc157806362287a3214610bef5780636274980314610bf85780636abbe0c814610c1857600080fd5b80634d47b3041161053c578063529a356f1161050b578063529a356f14610b5857806352f55eed14610b7b5780635c07eaab14610b9b5780635f7bc11914610bae57600080fd5b80634d47b30414610a9c578063514ea4bf14610aa557806351723e8214610b25578063523fba7f14610b3857600080fd5b806348f35cbb1161057857806348f35cbb14610a105780634a3f088d14610a235780634a993ee914610a735780634befe2ca14610a9357600080fd5b80634453a374146109c057806345a6f370146109d357806348d91abf146109fd57600080fd5b806329ff961511610683578063392e53cd116106215780633e72a262116105f05780633e72a2621461096457806340eb380214610977578063421528731461098a57806342b60b031461099d57600080fd5b8063392e53cd146109285780633a05dcc1146109355780633c5a6e35146109485780633de39c111461095b57600080fd5b806330455ede1161065d57806330455ede146108fa578063318bc6891461090d57806334c1557d146107b0578063351a964d1461091657600080fd5b806329ff9615146108c15780632c668ec1146108d45780632d4b0576146108e757600080fd5b8063134ca63b116106fb5780631ce9cb8f116106ca5780631ce9cb8f1461083a57806324b0c04d1461085a57806324ca984e1461086f57806328e67be5146108ae57600080fd5b8063134ca63b146107e4578063174d2694146107ed578063181e210e146107f65780631aa4ace51461081a57600080fd5b80630a48d5a9116107375780630a48d5a91461079457806310eb56c2146107a7578063126082cf146107b057806312d43a51146107b957600080fd5b806304fef1db1461075e57806307c58752146107845780630842b0761461078c575b600080fd5b61077161076c366004614e8c565b61121e565b6040519081526020015b60405180910390f35b610771611281565b601b54610771565b6107716107a2366004614ea9565b61129b565b610771600b5481565b61077161271081565b6006546107cc906001600160a01b031681565b6040516001600160a01b03909116815260200161077b565b61077160145481565b61077160095481565b60165461080a906301000000900460ff1681565b604051901515815260200161077b565b610771610828366004614e8c565b60236020526000908152604090205481565b610771610848366004614e8c565b602c6020526000908152604090205481565b61086d610868366004614ee3565b6112fe565b005b61086d61087d366004614e8c565b3360009081526018602090815260408083206001600160a01b0394909416835292905220805460ff19166001179055565b61086d6108bc366004614f00565b611322565b6107716108cf366004614e8c565b6113a0565b6107716108e2366004614ea9565b6113af565b6107716108f5366004614f7c565b6113fb565b61086d610908366004614ee3565b611456565b610771600f5481565b60015461080a90610100900460ff1681565b60015461080a9060ff1681565b610771610943366004614e8c565b611478565b61086d610956366004614fd8565b61153d565b61077160175481565b60015461080a9062010000900460ff1681565b61086d61098536600461504a565b61167e565b6107716109983660046150be565b611741565b61080a6109ab366004614e8c565b601f6020526000908152604090205460ff1681565b61086d6109ce366004615100565b6117ee565b6109e66109e1366004614f7c565b611821565b60408051921515835260208301919091520161077b565b61086d610a0b366004615139565b6118b4565b6002546107cc906001600160a01b031681565b610a36610a31366004614f7c565b611c9d565b604080519889526020890197909752958701949094526060860192909252608085015260a0840152151560c083015260e08201526101000161077b565b610771610a81366004614e8c565b60276020526000908152604090205481565b6107716101f481565b610771600c5481565b610af0610ab33660046151a1565b602b602052600090815260409020805460018201546002830154600384015460048501546005860154600690960154949593949293919290919087565b604080519788526020880196909652948601939093526060850191909152608084015260a083015260c082015260e00161077b565b610771610b33366004614f7c565b611d86565b610771610b46366004614e8c565b60216020526000908152604090205481565b61080a610b66366004614e8c565b60196020526000908152604090205460ff1681565b610771610b89366004614e8c565b60256020526000908152604090205481565b6109e6610ba93660046151ba565b611e2b565b61086d610bbc366004614e8c565b611f23565b61080a610bcf36600461520c565b601860209081526000928352604080842090915290825290205460ff1681565b61077160075481565b610771610c06366004614e8c565b602e6020526000908152604090205481565b6001546107cc90630100000090046001600160a01b031681565b61086d610c40366004614e8c565b3360009081526018602090815260408083206001600160a01b0394909416835292905220805460ff19169055565b610771620f424081565b61086d610c86366004614e8c565b611fd8565b610771610c9936600461520c565b61200c565b61086d610cac366004614e8c565b612268565b61086d610cbf36600461523a565b612292565b6004546107cc906001600160a01b031681565b610771600a5481565b61086d610cee366004614ee3565b612309565b610771610d0136600461520c565b61232d565b610771610d14366004614e8c565b6125b5565b610771610d2736600461529f565b612651565b61086d610d3a366004614ea9565b6126ac565b610771601281565b610771610d55366004614e8c565b601e6020526000908152604090205481565b61086d610d75366004615313565b6126d0565b610771610d88366004614e8c565b602d6020526000908152604090205481565b610771610da8366004614e8c565b601d6020526000908152604090205481565b61086d610dc8366004614e8c565b612716565b60165461080a9062010000900460ff1681565b610771610dee36600461533f565b612740565b61077168327cb2734119d3b7a9601e1b81565b610771610e14366004614e8c565b602f6020526000908152604090205481565b61077160125481565b610771610e3d366004614ea9565b612a08565b610771610e5036600461536f565b612a28565b60115461080a9060ff1681565b610771600d5481565b610771610e79366004614ea9565b612adf565b61086d610e8c366004615100565b612aff565b610771610e9f366004614e8c565b612b32565b60165461080a9060ff1681565b610771610ebf366004614e8c565b60226020526000908152604090205481565b610771610edf366004614e8c565b60246020526000908152604090205481565b61077160085481565b60165461080a90610100900460ff1681565b610771610f1a366004614e8c565b612c3d565b610771610f2d3660046153a4565b612cdb565b6109e6610f40366004614e8c565b612d61565b610771610f53366004614e8c565b60266020526000908152604090205481565b61077160135481565b610771610f7c366004614e8c565b60296020526000908152604090205481565b610771610f9c3660046153e4565b612e00565b61086d610faf36600461542c565b612e94565b61086d610fc2366004614e8c565b612eb5565b61086d610fd53660046151a1565b612edf565b61086d610fe83660046151a1565b612eec565b611000610ffb36600461546d565b612f08565b6040805192835260208301919091520161077b565b61086d611023366004614ea9565b612fb0565b610771611036366004614e8c565b602a6020526000908152604090205481565b61077160105481565b61077161105f3660046154d0565b612fff565b61080a611072366004614e8c565b601c6020526000908152604090205460ff1681565b61080a611095366004614e8c565b602080526000908152604090205460ff1681565b6107716110b736600461553e565b61309b565b61077160155481565b61086d6110d33660046155a3565b613133565b610771600e5481565b6107716110ef366004614e8c565b6134e0565b6107cc6111023660046151a1565b61353e565b61086d611115366004614e8c565b613568565b61086d611128366004614ea9565b61363d565b61077161113b366004614e8c565b60286020526000908152604090205481565b61086d61115b366004614ee3565b613661565b61077161116e36600461520c565b613687565b61080a611181366004614e8c565b601a6020526000908152604090205460ff1681565b6005546107cc906001600160a01b031681565b6003546107cc906001600160a01b031681565b6107716111ca36600461536f565b6136e0565b61086d6111dd36600461520c565b613721565b610771610e1081565b6107716111f9366004615606565b6138fd565b61121161120c3660046151a1565b613956565b60405161077b919061567d565b6001600160a01b0381166000908152602560205260408120548082036112475750600092915050565b6001600160a01b038316600090815260266020526040902054819061127090620f4240906156c6565b61127a91906156dd565b9392505050565b61129868327cb2734119d3b7a9601e1b60646156c6565b81565b6000816000036112ad575060006112f8565b60006112b8846125b5565b6001600160a01b0385166000908152601d60205260409020549091506112df81600a6157e3565b6112e983866156c6565b6112f391906156dd565b925050505b92915050565b6113066139f0565b60168054911515620100000262ff000019909216919091179055565b6002546001600160a01b031633146113815760405162461bcd60e51b815260206004820152601e60248201527f5661756c743a20696e76616c6964206572726f72436f6e74726f6c6c6572000060448201526064015b60405180910390fd5b600083815260306020526040902061139a82848361588d565b50505050565b60006112f8826107a284612c3d565b6000806113bb846134e0565b90506000816113d668327cb2734119d3b7a9601e1b866156c6565b6113e091906156dd565b6005549091506112f39082906001600160a01b031687611741565b604080516bffffffffffffffffffffffff19606096871b811660208084019190915295871b811660348301529390951b9092166048850152151560f81b605c8401528051808403603d018152605d9093019052815191012090565b61145e6139f0565b600180549115156101000261ff0019909216919091179055565b600080600560009054906101000a90046001600160a01b03166001600160a01b03166318160ddd6040518163ffffffff1660e01b8152600401602060405180830381865afa1580156114ce573d6000803e3d6000fd5b505050506040513d601f19601f820116820180604052508101906114f2919061594e565b9050806000036115055750600092915050565b6001600160a01b03831660009081526022602052604090205460155461152b83836156c6565b61153591906156dd565b949350505050565b6115456139f0565b6001600160a01b0387166000908152601c602052604090205460ff166115c257600754611573906001615967565b600755601b80546001810182556000919091527f3ad8aa4f87544323a9d1e5dd902f40c356527a7955687113db5f9a85ad579dc10180546001600160a01b0319166001600160a01b0389161790555b6015546001600160a01b0388166000908152602260205260409020546115e8908261597a565b6001600160a01b0389166000908152601c602090815260408083208054600160ff1991821617909155601d83528184208c9055602283528184208b9055601e83528184208a905560248352818420899055601f835281842080548216891515179055918052909120805490911684151517905590506116678682615967565b601555611673886134e0565b505050505050505050565b6116866139f0565b6116966101f48a11156003613a0b565b6116a66101f48911156004613a0b565b6116b66101f48811156005613a0b565b6116c66101f48711156006613a0b565b6116d66101f48611156007613a0b565b6116e66101f48511156008613a0b565b61170a61170068327cb2734119d3b7a9601e1b60646156c6565b8411156009613a0b565b600a98909855600b96909655600c94909455600d92909255600e55600f556009556010556011805460ff1916911515919091179055565b60055460009081906001600160a01b03858116911614611779576001600160a01b0384166000908152601d602052604090205461177c565b60125b6005549091506000906001600160a01b038581169116146117b5576001600160a01b0384166000908152601d60205260409020546117b8565b60125b90506117c582600a6157e3565b6117d082600a6157e3565b6117da90886156c6565b6117e491906156dd565b9695505050505050565b6117f66139f0565b6001600160a01b03919091166000908152601960205260409020805460ff1916911515919091179055565b6000806000611832878787876113fb565b6000818152602b6020908152604091829020825160e081018452815480825260018301549382019390935260028201549381018490526003820154606082015260048201546080820152600582015460a082015260069091015460c08201819052939450926118a5928992918990611e2b565b93509350505094509492505050565b6002600054036118d7576040516306fda65d60e31b815260040160405180910390fd5b60026000556001546118f39062010000900460ff16601c613a0b565b6118fb613a37565b61190485613a53565b61190f848483613ab0565b600154604051634eae147d60e11b81526001600160a01b03878116600483015286811660248301528581166044830152606482018590528315156084830152630100000090920490911690639d5c28fa9060a40160006040518083038186803b15801561197b57600080fd5b505afa15801561198f573d6000803e3d6000fd5b5050505061199d8484613721565b60006119ab868686856113fb565b6000818152602b60205260408120919250836119cf576119ca866125b5565b6119d8565b6119d8866134e0565b82549091506000036119ec57600282018190555b8154158015906119fc5750600085115b15611a2257611a1c868360000154846002015487858a886006015461309b565b60028301555b6000611a3b898989888a88600001548960030154613bc0565b90506000611a4889613c90565b90506000611a568a8361129b565b9050808560010154611a689190615967565b60018601819055611a7d90841115601d613a0b565b828560010154611a8d919061597a565b6001860155611a9d8a8a89612cdb565b60038601558454611aaf908990615967565b808655426006870155611ac5901515601e613a0b565b611ad785600001548660010154613d34565b611ae58b8b8b8a6001612f08565b50506000611af38b8a612adf565b9050808660040154611b059190615967565b6004870155611b148b82613d5a565b8715611b5957611b2d8b611b28868c615967565b613df0565b611b378b83613e62565b611b418b84613ed4565b611b548b611b4f8d87612a08565b613fd9565b611bc7565b6001600160a01b038a166000908152602d60205260408120549003611b98576001600160a01b038a166000908152602e60205260409020859055611bbd565b611ba38a868b612a28565b6001600160a01b038b166000908152602e60205260409020555b611bc78a8a614061565b7f2fe68525253654c21998f35787a8d0f361905ef647c854092430ab65f2f15022878d8d8d868e8e8c8c604051611c069998979695949392919061598d565b60405180910390a1855460018701546002880154600389015460048a015460058b0154604080518e815260208101979097528601949094526060850192909252608084015260a083015260c082015260e081018690527f20853733b590dce729d9f4628682ebd9a34d2354e72679e66f43a008fc03b773906101000160405180910390a15050600160005550505050505050505050565b6000806000806000806000806000611cb78d8d8d8d6113fb565b6000818152602b60209081526040808320815160e081018352815481526001820154938101939093526002810154918301919091526003810154606083015260048101546080830152600581015460a0830181905260069091015460c0830152929350918112611d34578160a00151611d2f906159db565b611d3a565b8160a001515b9050816000015182602001518360400151846060015185608001518560008860a0015112158860c001519a509a509a509a509a509a509a509a5050505094995094995094999196509450565b600080611d95868686866113fb565b6000818152602b6020908152604091829020825160e0810184528154815260018201549281018390526002820154938101939093526003810154606084015260048101546080840152600581015460a08401526006015460c083015291925090611e029015156025613a0b565b60208101518151611e1690612710906156c6565b611e2091906156dd565b979650505050505050565b600080611e3c600086116026613a0b565b600084611e5157611e4c886134e0565b611e5a565b611e5a886125b5565b90506000818711611e7457611e6f878361597a565b611e7e565b611e7e828861597a565b9050600087611e8d838b6156c6565b611e9791906156dd565b905060008715611eaa5750878311611eaf565b508288115b600060105488611ebf9190615967565b4211611ee3576001600160a01b038c166000908152601e6020526040902054611ee6565b60005b9050818015611f095750611efa818c6156c6565b611f06612710856156c6565b11155b15611f1357600092505b509a909950975050505050505050565b600260005403611f46576040516306fda65d60e31b815260040160405180910390fd5b600260009081556001600160a01b0382168152601c6020526040902054611f719060ff16600e613a0b565b6000611f7c82613c90565b9050611f8c60008211600f613a0b565b611f968282613ed4565b7fa5a389190ebf6170a133bda5c769b77f4d6715b8aa172ec0ddf8473d0b4944bd8282604051611fc79291906159f7565b60405180910390a150506001600055565b611fe06139f0565b600180546001600160a01b039092166301000000026301000000600160b81b0319909216919091179055565b6000600260005403612031576040516306fda65d60e31b815260040160405180910390fd5b600260005561203e614118565b6001600160a01b0383166000908152601c60205260409020546120659060ff166013613a0b565b6016805461ff00191661010017905560055460009061208c906001600160a01b0316613c90565b905061209c600082116014613a0b565b6120a68485613721565b60006120b285836113af565b90506120c2600082116015613a0b565b6120cc8583614147565b6120d68582613fd9565b600554604051632770a7eb60e21b81526001600160a01b0390911690639dc29fac9061210890309086906004016159f7565b600060405180830381600087803b15801561212257600080fd5b505af1158015612136573d6000803e3d6000fd5b505060055461215092506001600160a01b0316905061420c565b60015460405163eb0835bf60e01b8152600091630100000090046001600160a01b03169063eb0835bf9061218a90899087906004016159f7565b602060405180830381865afa1580156121a7573d6000803e3d6000fd5b505050506040513d601f19601f820116820180604052508101906121cb919061594e565b905060006121da878484614297565b90506121ea600082116016613a0b565b6121f5878288614367565b604080516001600160a01b0380891682528916602082015290810185905260608101829052608081018390527fd732b7828fa6cee72c285eac756fc66a7477e3dc22e22e7c432f1c265d40b4839060a00160405180910390a16016805461ff001916905560016000559695505050505050565b6122706139f0565b600480546001600160a01b0319166001600160a01b0392909216919091179055565b61229a6139f0565b600180546122ae9160ff9091161590613a0b565b6001805460ff191681179055600380546001600160a01b03199081166001600160a01b039889161790915560058054821696881696909617909555600480549095169390951692909217909255600991909155601355601455565b6123116139f0565b60018054911515620100000262ff000019909216919091179055565b6000600260005403612352576040516306fda65d60e31b815260040160405180910390fd5b600260005561235f614118565b6001600160a01b0383166000908152601c60205260409020546123869060ff166010613a0b565b6016805461ff00191661010017905560006123a084613c90565b90506123b0600082116011613a0b565b6123ba8485613721565b60006123c5856125b5565b9050600068327cb2734119d3b7a9601e1b6123e083856156c6565b6123ea91906156dd565b60055490915061240690829088906001600160a01b0316611741565b9050612416600082116012613a0b565b60015460405163256f6ee360e11b8152600091630100000090046001600160a01b031690634adeddc690612450908a9086906004016159f7565b602060405180830381865afa15801561246d573d6000803e3d6000fd5b505050506040513d601f19601f82011682018060405250810190612491919061594e565b905060006124a0888684614297565b9050600068327cb2734119d3b7a9601e1b6124bb86846156c6565b6124c591906156dd565b90506124d18982614404565b6124db8983613ed4565b6005546040516340c10f1960e01b81526001600160a01b03909116906340c10f199061250d908b9085906004016159f7565b600060405180830381600087803b15801561252757600080fd5b505af115801561253b573d6000803e3d6000fd5b5050604080516001600160a01b03808d1682528d16602082015290810189905260608101849052608081018690527fab4c77c74cd32c85f35416cf03e7ce9e2d4387f7b7f2c1f4bf53daaecf8ea72d925060a001905060405180910390a16016805461ff0019169055600160005598975050505050505050565b600480546016546040516317e1d38560e11b81526001600160a01b038581169482019490945260006024820181905260ff8084161515604484015261010090930490921615156064820152909290911690632fc3a70a906084015b602060405180830381865afa15801561262d573d6000803e3d6000fd5b505050506040513d601f19601f820116820180604052508101906112f8919061594e565b6000600260005403612676576040516306fda65d60e31b815260040160405180910390fd5b6002600055612683613a37565b61268c88613a53565b61269b888888888888886144ab565b600160005598975050505050505050565b6126b46139f0565b6001600160a01b03909116600090815260276020526040902055565b6126d86139f0565b6126e8610e10841015600a613a0b565b6126f8612710831115600b613a0b565b612708612710821115600c613a0b565b601292909255601355601455565b61271e6139f0565b600280546001600160a01b0319166001600160a01b0392909216919091179055565b6000600260005403612765576040516306fda65d60e31b815260040160405180910390fd5b600260005560015461278090610100900460ff166017613a0b565b6001600160a01b0384166000908152601c60205260409020546127a79060ff166018613a0b565b6001600160a01b0383166000908152601c60205260409020546127ce9060ff166019613a0b565b6127ee836001600160a01b0316856001600160a01b03161415601a613a0b565b6016805461ff0019166101001790556128078480613721565b6128118384613721565b600061281c85613c90565b905061282c60008211601b613a0b565b6000612837866125b5565b90506000612844866134e0565b905060008161285384866156c6565b61285d91906156dd565b905061286a818989611741565b9050600068327cb2734119d3b7a9601e1b61288585876156c6565b61288f91906156dd565b6005549091506128ab9082908b906001600160a01b0316611741565b600154604051636d099c0b60e11b81526001600160a01b038c811660048301528b811660248301526044820184905292935060009263010000009092049091169063da13381690606401602060405180830381865afa158015612912573d6000803e3d6000fd5b505050506040513d601f19601f82011682018060405250810190612936919061594e565b905060006129458a8584614297565b90506129518b84614404565b61295b8a84614147565b6129658b88613ed4565b61296f8a85613fd9565b6129788a6148ef565b6129838a828b614367565b604080516001600160a01b038b811682528d811660208301528c1681830152606081018990526080810186905260a0810183905260c0810184905290517f0874b2d545cb271cdbda4e093020c452328b24af12382ed62c4d00f5c26709db9181900360e00190a16016805461ff001916905560016000559a9950505050505050505050565b600081600003612a1a575060006112f8565b61127a83836111ca866134e0565b6001600160a01b0383166000908152602d6020908152604080832054602e90925282205482858211612a6357612a5e828761597a565b612a6d565b612a6d868361597a565b9050600082612a7c83866156c6565b612a8691906156dd565b90508683116000612a978887615967565b9050600082612aaf57612aaa8483615967565b612ab9565b612ab9848361597a565b905080612ac6838c6156c6565b612ad091906156dd565b9b9a5050505050505050505050565b600081600003612af1575060006112f8565b61127a83836111ca866125b5565b612b076139f0565b6001600160a01b03919091166000908152601a60205260409020805460ff1916911515919091179055565b6012546001600160a01b0382166000908152602a602052604081205490914291612b5c9190615967565b1115612b6a57506000919050565b6012546001600160a01b0383166000908152602a6020526040812054909190612b93904261597a565b612b9d91906156dd565b6001600160a01b038416600090815260256020526040812054919250819003612bca575060009392505050565b6001600160a01b0384166000908152601f602052604081205460ff16612bf257601354612bf6565b6014545b6001600160a01b03861660009081526026602052604090205490915082908490612c2090846156c6565b612c2a91906156c6565b612c3491906156dd565b95945050505050565b6001600160a01b0381166000908152601f602052604081205460ff1615612c7a57506001600160a01b031660009081526025602052604090205490565b6001600160a01b038216600090815260286020526040812054612c9e908490612a08565b6001600160a01b03841660009081526026602090815260408083205460259092529091205491925090612cd19083615967565b61127a919061597a565b60015460405163b1cc53ab60e01b81526001600160a01b0385811660048301528481166024830152831515604483015260009263010000009004169063b1cc53ab90606401602060405180830381865afa158015612d3d573d6000803e3d6000fd5b505050506040513d601f19601f82011682018060405250810190611535919061594e565b6001600160a01b0381166000908152602d60205260408120548190808203612d8f5750600093849350915050565b6000612d9a856134e0565b6001600160a01b0386166000908152602e6020526040812054919250828211612dcc57612dc7828461597a565b612dd6565b612dd6838361597a565b9050600082612de583876156c6565b612def91906156dd565b939092119792965091945050505050565b60015460405163c7e074c360e01b81526001600160a01b038781166004830152602482018790526044820186905260648201859052831515608483015260009263010000009004169063c7e074c39060a4015b602060405180830381865afa158015612e70573d6000803e3d6000fd5b505050506040513d601f19601f820116820180604052508101906117e4919061594e565b612e9c6139f0565b612eb06001600160a01b0383168483614962565b505050565b612ebd6139f0565b600680546001600160a01b0319166001600160a01b0392909216919091179055565b612ee76139f0565b601755565b612ef46139f0565b612f0361271082116002613a0b565b600855565b60015460405163d54d5a9f60e01b81526001600160a01b0387811660048301528681166024830152858116604483015284151560648301528315156084830152600092839263010000009091049091169063d54d5a9f9060a4016040805180830381865afa158015612f7e573d6000803e3d6000fd5b505050506040513d601f19601f82011682018060405250810190612fa29190615a10565b915091509550959350505050565b612fb86139f0565b6001600160a01b03821660009081526023602052604090205480821115612fec57612eb083612fe7838561597a565b614404565b612eb083612ffa848461597a565b614147565b60015460405163369d949360e21b81526001600160a01b0388811660048301528781166024830152868116604483015285151560648301526084820185905260a4820184905260009263010000009004169063da76524c9060c401602060405180830381865afa158015613077573d6000803e3d6000fd5b505050506040513d601f19601f82011682018060405250810190611e20919061594e565b60008060006130ad8a8a8a8a88611e2b565b909250905060006130be868b615967565b9050600088156130ed57836130dc576130d7838361597a565b6130e6565b6130e68383615967565b905061310e565b83613101576130fc8383615967565b61310b565b61310b838361597a565b90505b80613119838a6156c6565b61312391906156dd565b9c9b505050505050505050505050565b600260005403613156576040516306fda65d60e31b815260040160405180910390fd5b60026000556016546301000000900460ff161561318b573360009081526019602052604090205461318b9060ff166022613a0b565b6016805460ff1916905561319f8484613721565b60006131ad868686866113fb565b6000818152602b6020908152604091829020825160e08101845281548082526001830154938201939093526002820154938101939093526003810154606084015260048101546080840152600581015460a08401526006015460c08301529192509061321c9015156023613a0b565b60008061322d898989896000612f08565b9150915061324082600014156024613a0b565b816002036132745761325c898989600087600001518b8f6144ab565b50506016805460ff19166001179055506134d4915050565b60006132808983612a08565b6001600160a01b038a166000908152602c60205260409020549091506132a7908290615967565b6001600160a01b038a166000818152602c60209081526040918290209390935580519182529181018490529081018290527f5d0c0019d3d45fadeb74eff9d2c9924d146d000ac6bcf3c28bf0ac3c9baa011a9060600160405180910390a16133138985608001516149b8565b8615613344576133368985602001518660000151613331919061597a565b613e62565b61334489611b4f8b85612a08565b60008761335957613354896134e0565b613362565b613362896125b5565b90507f2e1f85a64a2f22cf2f0c42584e7c919ed4abe8d53675cff0f62bf1e95a1c676f868c8c8c8c8a600001518b602001518c608001518d60a001518a6040516134049a99989796959493929190998a526001600160a01b0398891660208b015296881660408a0152949096166060880152911515608087015260a086015260c085015260e08401929092526101008301919091526101208201526101400190565b60405180910390a18715801561341d5750846020015183105b1561344b576000838660200151613434919061597a565b90506134498b6134448d84612a08565b613ed4565b505b8761345e5761345e898660000151614a2a565b6000868152602b602052604081208181556001810182905560028101829055600381018290556004810182905560058101829055600601556009546134aa908b90611b4f908290612a08565b6134c08a6134ba8c600954612a08565b89614367565b50506016805460ff19166001179055505050505b50506001600055505050565b600480546016546040516317e1d38560e11b81526001600160a01b03858116948201949094526001602482015260ff808316151560448301526101009092049091161515606482015260009290911690632fc3a70a90608401612610565b601b818154811061354e57600080fd5b6000918252602090912001546001600160a01b0316905081565b6135706139f0565b6001600160a01b0381166000908152601c60205260409020546135979060ff16600d613a0b565b6001600160a01b0381166000908152602260205260409020546015546135bd919061597a565b6015556001600160a01b0381166000908152601c60209081526040808320805460ff19908116909155601d835281842084905560228352818420849055601e835281842084905560248352818420849055601f8352818420805482169055918052909120805490911690556007546136379060019061597a565b60075550565b6136456139f0565b6001600160a01b039091166000908152602f6020526040902055565b6136696139f0565b6016805491151563010000000263ff00000019909216919091179055565b60006136916139f0565b6001600160a01b0383166000908152602c6020526040812054908190036136bc5760009150506112f8565b6001600160a01b0384166000908152602c602052604081205561127a848285614367565b6000826000036136f25750600061127a565b6001600160a01b0384166000908152601d60205260409020548261371782600a6157e3565b612c2a90866156c6565b60015460405163fbfded6d60e01b81526001600160a01b038481166004830152838116602483015260009263010000009004169063fbfded6d906044016020604051808303816000875af115801561377d573d6000803e3d6000fd5b505050506040513d601f19601f820116820180604052508101906137a19190615a34565b9050806137ad57505050565b6001600160a01b0383166000908152602a60205260408120549003613804576012546137d981426156dd565b6137e391906156c6565b6001600160a01b039093166000908152602a60205260409020929092555050565b6012546001600160a01b0384166000908152602a6020526040902054429161382b91615967565b111561383657505050565b600061384184612b32565b6001600160a01b038516600090815260296020526040902054909150613868908290615967565b6001600160a01b03851660009081526029602052604090205560125461388e81426156dd565b61389891906156c6565b6001600160a01b0385166000908152602a6020908152604080832093909355602990528190205490517fa146fc154e1913322e9817d49f0d5c37466c24326e15de10e739a948be815eab916138ef918791906159f7565b60405180910390a150505050565b60015460405163fdaf6ac360e01b81526001600160a01b0387811660048301528681166024830152858116604483015284151560648301526084820184905260009263010000009004169063fdaf6ac39060a401612e53565b6030602052600090815260409020805461396f90615805565b80601f016020809104026020016040519081016040528092919081815260200182805461399b90615805565b80156139e85780601f106139bd576101008083540402835291602001916139e8565b820191906000526020600020905b8154815290600101906020018083116139cb57829003601f168201915b505050505081565b600654613a09906001600160a01b031633146035613a0b565b565b600081815260306020526040902082612eb05760405162461bcd60e51b81526004016113789190615a51565b601754600003613a4357565b613a096017543a11156037613a0b565b6001600160a01b0381163303613a665750565b6003546001600160a01b03163303613a7b5750565b6001600160a01b0381166000908152601860209081526040808320338452909152902054613aad9060ff166029613a0b565b50565b8015613b2457613ad5826001600160a01b0316846001600160a01b031614602a613a0b565b6001600160a01b0383166000908152601c6020526040902054613afc9060ff16602b613a0b565b6001600160a01b0383166000908152601f6020526040902054612eb09060ff1615602c613a0b565b6001600160a01b0383166000908152601c6020526040902054613b4b9060ff16602d613a0b565b6001600160a01b0383166000908152601f6020526040902054613b729060ff16602e613a0b565b6001600160a01b0382166000908152601f6020526040902054613b9a9060ff1615602f613a0b565b6001600160a01b0382166000908152602080526040902054612eb09060ff166030613a0b565b600080613bd089898989896138fd565b90506000613be28a8a8a8a8989612fff565b9050613bee8183615967565b91506000613bfc8a84612a08565b6001600160a01b038b166000908152602c6020526040902054909150613c23908290615967565b6001600160a01b038b166000818152602c60209081526040918290209390935580519182529181018590529081018290527f5d0c0019d3d45fadeb74eff9d2c9924d146d000ac6bcf3c28bf0ac3c9baa011a9060600160405180910390a150909998505050505050505050565b6001600160a01b0381166000818152602160205260408082205490516370a0823160e01b8152306004820152919290918391906370a0823190602401602060405180830381865afa158015613ce9573d6000803e3d6000fd5b505050506040513d601f19601f82011682018060405250810190613d0d919061594e565b6001600160a01b03851660009081526021602052604090208190559050611535828261597a565b81600003613d4c57613d4881156027613a0b565b5050565b613d48818310156028613a0b565b6001600160a01b038216600090815260266020526040902054613d7e908290615967565b6001600160a01b038316600090815260266020818152604080842085905560258252909220549152613db39111156034613a0b565b7faa5649d82f5462be9d19b0f2b31a59b2259950a6076550bac9f3a1c07db9f66d8282604051613de49291906159f7565b60405180910390a15050565b6001600160a01b038216600090815260286020526040902054613e14908290615967565b6001600160a01b0383166000908152602860205260409081902091909155517fd9d4761f75e0d0103b5cbeab941eeb443d7a56a35b5baf2a0787c03f03f4e47490613de490849084906159f7565b6001600160a01b038216600090815260286020526040902054613e8690829061597a565b6001600160a01b0383166000908152602860205260409081902091909155517f34e07158b9db50df5613e591c44ea2ebc82834eff4a4dc3a46e000e608261d6890613de490849084906159f7565b6001600160a01b038216600090815260256020526040902054613ef8908290615967565b6001600160a01b0383166000818152602560205260408082209390935591516370a0823160e01b81523060048201526370a0823190602401602060405180830381865afa158015613f4d573d6000803e3d6000fd5b505050506040513d601f19601f82011682018060405250810190613f71919061594e565b6001600160a01b038416600090815260256020526040902054909150613f9b908210156031613a0b565b7f976177fbe09a15e5e43f848844963a42b41ef919ef17ff21a17a5421de8f47378383604051613fcc9291906159f7565b60405180910390a1505050565b6001600160a01b038216600090815260256020526040902054613ffd90829061597a565b6001600160a01b038316600090815260256020908152604080832084905560269091529020546140309110156032613a0b565b7f112726233fbeaeed0f5b1dba5cb0b2b81883dee49fb35ff99fd98ed9f6d31eb08282604051613de49291906159f7565b6001600160a01b0382166000908152602d6020526040902054614085908290615967565b6001600160a01b0383166000908152602d6020908152604080832093909355602f905220548015612eb0576001600160a01b0383166000908152602d6020526040902054811015612eb05760405162461bcd60e51b815260206004820152601a60248201527f5661756c743a206d61782073686f7274732065786365656465640000000000006044820152606401611378565b60165462010000900460ff1615613a0957336000908152601a6020526040902054613a099060ff166036613a0b565b6001600160a01b0382166000908152602360205260409020548181116141b4576001600160a01b03831660009081526023602052604080822091909155517fe1e812596aac93a06ecc4ca627014d18e30f5c33b825160cc9d5c0ba61e4522790613fcc90859084906159f7565b6141be828261597a565b6001600160a01b0384166000908152602360205260409081902091909155517fe1e812596aac93a06ecc4ca627014d18e30f5c33b825160cc9d5c0ba61e4522790613fcc90859085906159f7565b6040516370a0823160e01b81523060048201526000906001600160a01b038316906370a0823190602401602060405180830381865afa158015614253573d6000803e3d6000fd5b505050506040513d601f19601f82011682018060405250810190614277919061594e565b6001600160a01b0390921660009081526021602052604090209190915550565b6000806127106142a7848261597a565b6142b190866156c6565b6142bb91906156dd565b905060006142c9828661597a565b6001600160a01b0387166000908152602c60205260409020549091506142f0908290615967565b6001600160a01b0387166000908152602c60205260409020557f47cd9dda0e50ce30bcaaacd0488452b596221c07ac402a581cfae4d3933cac2b86614335818461129b565b604080516001600160a01b0390931683526020830191909152810183905260600160405180910390a150949350505050565b61437b6001600160a01b0384168284614962565b6040516370a0823160e01b81523060048201526001600160a01b038416906370a0823190602401602060405180830381865afa1580156143bf573d6000803e3d6000fd5b505050506040513d601f19601f820116820180604052508101906143e3919061594e565b6001600160a01b039093166000908152602160205260409020929092555050565b6001600160a01b038216600090815260236020526040902054614428908290615967565b6001600160a01b038316600090815260236020908152604080832093909355602490522054801561447a576001600160a01b03831660009081526023602052604090205461447a908210156033613a0b565b7f64243679a443432e2293343b77d411ff6144370404618f00ca0d2025d9ca98828383604051613fcc9291906159f7565b6001546040516381d11a2360e01b81526001600160a01b03898116600483015288811660248301528781166044830152606482018790526084820186905284151560a483015283811660c48301526000926301000000900416906381d11a239060e40160006040518083038186803b15801561452657600080fd5b505afa15801561453a573d6000803e3d6000fd5b505050506145488787613721565b6000614556898989876113fb565b6000818152602b60205260409020805491925090614577901515601f613a0b565b61458986826000015410156020613a0b565b61459b87826001015410156021613a0b565b600181015481546004830154600091906145b6908a906156c6565b6145c091906156dd565b90508083600401546145d2919061597a565b60048401556145e18b826149b8565b506000806145f38d8d8d8d8d8d614a92565b8554919350915089146147555761460b8c8c8a612cdb565b6003850155835461461d908a9061597a565b808555600185015461462f9190613d34565b61463d8d8d8d8b6001612f08565b50508715614663576146598c856001015485611b28919061597a565b6146638c8a613e62565b600088614678576146738c6134e0565b614681565b6146818c6125b5565b90507f93d75d64d1f84fc6f430a64fc578bdd4c1e090e90ea2d51773e626d19de56d30868f8f8f8f8f8f886146b68b8d61597a565b6040516146cb9998979695949392919061598d565b60405180910390a18454600186015460028701546003880154600489015460058a0154604080518d815260208101979097528601949094526060850192909252608084015260a083015260c082015260e081018290527f20853733b590dce729d9f4628682ebd9a34d2354e72679e66f43a008fc03b773906101000160405180910390a15061488d565b871561476f576147658c84613df0565b61476f8c8a613e62565b6000886147845761477f8c6134e0565b61478d565b61478d8c6125b5565b90507f93d75d64d1f84fc6f430a64fc578bdd4c1e090e90ea2d51773e626d19de56d30868f8f8f8f8f8f886147c28b8d61597a565b6040516147d79998979695949392919061598d565b60405180910390a18454600186015460028701546003880154600489015460058a0154604080518d815260208101979097528601949094526060850192909252608084015260a083015260c08201527f73af1d417d82c240fdb6d319b34ad884487c6bf2845d98980cc52ad9171cb4559060e00160405180910390a1506000858152602b602052604081208181556001810182905560028101829055600381018290556004810182905560058101829055600601555b8761489c5761489c8b8a614a2a565b81156148dc5787156148b6576148b68c611b4f8e85612a08565b60006148c28d83612a08565b90506148cf8d828a614367565b9550611e20945050505050565b5060009c9b505050505050505050505050565b6001600160a01b0381166000908152602760209081526040808320546025909252909120541015613aad5760405162461bcd60e51b815260206004820152601a60248201527f5661756c743a20706f6f6c416d6f756e74203c206275666665720000000000006044820152606401611378565b612eb08363a9059cbb60e01b84846040516024016149819291906159f7565b60408051601f198184030181529190526020810180516001600160e01b03166001600160e01b031990931692909217909152614caa565b6001600160a01b0382166000908152602660205260409020546149dc90829061597a565b6001600160a01b0383166000908152602660205260409081902091909155517f533cb5ed32be6a90284e96b5747a1bfc2d38fdb5768a6b5f67ff7d62144ed67b90613de490849084906159f7565b6001600160a01b0382166000908152602d602052604090205480821115614a675750506001600160a01b03166000908152602d6020526040812055565b614a71828261597a565b6001600160a01b039093166000908152602d60205260409020929092555050565b6000806000614aa3898989876113fb565b6000818152602b60205260408120805460038201549394509092614ad0918d918d918d918b918d91613bc0565b9050600080600080614af18d876000015488600201548d8a60060154611e2b565b87549195508593509150614b05828d6156c6565b614b0f91906156dd565b925050506000828015614b225750600082115b15614b5e57819050818560050154614b3a9190615adc565b600586015588614b5e576000614b508e84612a08565b9050614b5c8e82613fd9565b505b82158015614b6c5750600082115b15614bbb57818560010154614b81919061597a565b600186015588614ba5576000614b978e84612a08565b9050614ba38e82613ed4565b505b818560050154614bb59190615b04565b60058601555b8a15614be357614bcb8b82615967565b90508a8560010154614bdd919061597a565b60018601555b84548a9003614c05576001850154614bfb9082615967565b6000600187015590505b8084811115614c1f57614c18858361597a565b9050614c54565b848660010154614c2f919061597a565b60018701558915614c54576000614c468f87612a08565b9050614c528f82613fd9565b505b6040805188815285151560208201529081018490527f3ff41bdde87755b687ae83d0221a232b6be51a803330ed9661c1b5d0105e0d8a9060600160405180910390a1909e909d509b505050505050505050505050565b6000614cff826040518060400160405280602081526020017f5361666545524332303a206c6f772d6c6576656c2063616c6c206661696c6564815250856001600160a01b0316614d7c9092919063ffffffff16565b805190915015612eb05780806020019051810190614d1d9190615a34565b612eb05760405162461bcd60e51b815260206004820152602a60248201527f5361666545524332303a204552433230206f7065726174696f6e20646964206e6044820152691bdd081cdd58d8d9595960b21b6064820152608401611378565b6060611535848460008585843b614dd55760405162461bcd60e51b815260206004820152601d60248201527f416464726573733a2063616c6c20746f206e6f6e2d636f6e74726163740000006044820152606401611378565b600080866001600160a01b03168587604051614df19190615b2b565b60006040518083038185875af1925050503d8060008114614e2e576040519150601f19603f3d011682016040523d82523d6000602084013e614e33565b606091505b5091509150611e2082828660608315614e4d57508161127a565b825115614e5d5782518084602001fd5b8160405162461bcd60e51b8152600401611378919061567d565b6001600160a01b0381168114613aad57600080fd5b600060208284031215614e9e57600080fd5b813561127a81614e77565b60008060408385031215614ebc57600080fd5b8235614ec781614e77565b946020939093013593505050565b8015158114613aad57600080fd5b600060208284031215614ef557600080fd5b813561127a81614ed5565b600080600060408486031215614f1557600080fd5b83359250602084013567ffffffffffffffff80821115614f3457600080fd5b818601915086601f830112614f4857600080fd5b813581811115614f5757600080fd5b876020828501011115614f6957600080fd5b6020830194508093505050509250925092565b60008060008060808587031215614f9257600080fd5b8435614f9d81614e77565b93506020850135614fad81614e77565b92506040850135614fbd81614e77565b91506060850135614fcd81614ed5565b939692955090935050565b600080600080600080600060e0888a031215614ff357600080fd5b8735614ffe81614e77565b96506020880135955060408801359450606088013593506080880135925060a088013561502a81614ed5565b915060c088013561503a81614ed5565b8091505092959891949750929550565b60008060008060008060008060006101208a8c03121561506957600080fd5b8935985060208a0135975060408a0135965060608a0135955060808a0135945060a08a0135935060c08a0135925060e08a013591506101008a01356150ad81614ed5565b809150509295985092959850929598565b6000806000606084860312156150d357600080fd5b8335925060208401356150e581614e77565b915060408401356150f581614e77565b809150509250925092565b6000806040838503121561511357600080fd5b823561511e81614e77565b9150602083013561512e81614ed5565b809150509250929050565b600080600080600060a0868803121561515157600080fd5b853561515c81614e77565b9450602086013561516c81614e77565b9350604086013561517c81614e77565b925060608601359150608086013561519381614ed5565b809150509295509295909350565b6000602082840312156151b357600080fd5b5035919050565b600080600080600060a086880312156151d257600080fd5b85356151dd81614e77565b9450602086013593506040860135925060608601356151fb81614ed5565b949793965091946080013592915050565b6000806040838503121561521f57600080fd5b823561522a81614e77565b9150602083013561512e81614e77565b60008060008060008060c0878903121561525357600080fd5b863561525e81614e77565b9550602087013561526e81614e77565b9450604087013561527e81614e77565b959894975094956060810135955060808101359460a0909101359350915050565b600080600080600080600060e0888a0312156152ba57600080fd5b87356152c581614e77565b965060208801356152d581614e77565b955060408801356152e581614e77565b9450606088013593506080880135925060a088013561530381614ed5565b915060c088013561503a81614e77565b60008060006060848603121561532857600080fd5b505081359360208301359350604090920135919050565b60008060006060848603121561535457600080fd5b833561535f81614e77565b925060208401356150e581614e77565b60008060006060848603121561538457600080fd5b833561538f81614e77565b95602085013595506040909401359392505050565b6000806000606084860312156153b957600080fd5b83356153c481614e77565b925060208401356153d481614e77565b915060408401356150f581614ed5565b600080600080600060a086880312156153fc57600080fd5b853561540781614e77565b9450602086013593506040860135925060608601359150608086013561519381614ed5565b60008060006060848603121561544157600080fd5b833561544c81614e77565b9250602084013561545c81614e77565b929592945050506040919091013590565b600080600080600060a0868803121561548557600080fd5b853561549081614e77565b945060208601356154a081614e77565b935060408601356154b081614e77565b925060608601356154c081614ed5565b9150608086013561519381614ed5565b60008060008060008060c087890312156154e957600080fd5b86356154f481614e77565b9550602087013561550481614e77565b9450604087013561551481614e77565b9350606087013561552481614ed5565b9598949750929560808101359460a0909101359350915050565b600080600080600080600060e0888a03121561555957600080fd5b873561556481614e77565b96506020880135955060408801359450606088013561558281614ed5565b9699959850939660808101359560a0820135955060c0909101359350915050565b600080600080600060a086880312156155bb57600080fd5b85356155c681614e77565b945060208601356155d681614e77565b935060408601356155e681614e77565b925060608601356155f681614ed5565b9150608086013561519381614e77565b600080600080600060a0868803121561561e57600080fd5b853561562981614e77565b9450602086013561563981614e77565b9350604086013561564981614e77565b925060608601356151fb81614ed5565b60005b8381101561567457818101518382015260200161565c565b50506000910152565b602081526000825180602084015261569c816040850160208701615659565b601f01601f19169190910160400192915050565b634e487b7160e01b600052601160045260246000fd5b80820281158282048414176112f8576112f86156b0565b6000826156fa57634e487b7160e01b600052601260045260246000fd5b500490565b600181815b8085111561573a578160001904821115615720576157206156b0565b8085161561572d57918102915b93841c9390800290615704565b509250929050565b600082615751575060016112f8565b8161575e575060006112f8565b8160018114615774576002811461577e5761579a565b60019150506112f8565b60ff84111561578f5761578f6156b0565b50506001821b6112f8565b5060208310610133831016604e8410600b84101617156157bd575081810a6112f8565b6157c783836156ff565b80600019048211156157db576157db6156b0565b029392505050565b600061127a8383615742565b634e487b7160e01b600052604160045260246000fd5b600181811c9082168061581957607f821691505b60208210810361583957634e487b7160e01b600052602260045260246000fd5b50919050565b601f821115612eb057600081815260208120601f850160051c810160208610156158665750805b601f850160051c820191505b8181101561588557828155600101615872565b505050505050565b67ffffffffffffffff8311156158a5576158a56157ef565b6158b9836158b38354615805565b8361583f565b6000601f8411600181146158ed57600085156158d55750838201355b600019600387901b1c1916600186901b178355615947565b600083815260209020601f19861690835b8281101561591e57868501358255602094850194600190920191016158fe565b508682101561593b5760001960f88860031b161c19848701351681555b505060018560011b0183555b5050505050565b60006020828403121561596057600080fd5b5051919050565b808201808211156112f8576112f86156b0565b818103818111156112f8576112f86156b0565b9889526001600160a01b0397881660208a01529587166040890152939095166060870152608086019190915260a085015291151560c084015260e08301919091526101008201526101200190565b6000600160ff1b82016159f0576159f06156b0565b5060000390565b6001600160a01b03929092168252602082015260400190565b60008060408385031215615a2357600080fd5b505080516020909101519092909150565b600060208284031215615a4657600080fd5b815161127a81614ed5565b6000602080835260008454615a6581615805565b80848701526040600180841660008114615a865760018114615aa057615ace565b60ff1985168984015283151560051b890183019550615ace565b896000528660002060005b85811015615ac65781548b8201860152908301908801615aab565b8a0184019650505b509398975050505050505050565b8082018281126000831280158216821582161715615afc57615afc6156b0565b505092915050565b8181036000831280158383131683831282161715615b2457615b246156b0565b5092915050565b60008251615b3d818460208701615659565b919091019291505056fea26469706673582212202a9d400b19b39a771df450ec5da4a7cc2dff5bcd66558844da09c0a5ee8974f664736f6c63430008140033",
  "linkReferences": {},
  "deployedLinkReferences": {}
}