{
  "_format": "hh-sol-artifact-1",
  "contractName": "Vester",
  "sourceName": "contracts/staking/Vester.sol",
  "abi": [
    {
      "inputs": [
        {
          "internalType": "string",
          "name": "_name",
          "type": "string"
        },
        {
          "internalType": "string",
          "name": "_symbol",
          "type": "string"
        },
        {
          "internalType": "uint256",
          "name": "_vestingDuration",
          "type": "uint256"
        },
        {
          "internalType": "address",
          "name": "_esToken",
          "type": "address"
        },
        {
          "internalType": "address",
          "name": "_pairToken",
          "type": "address"
        },
        {
          "internalType": "address",
          "name": "_claimableToken",
          "type": "address"
        },
        {
          "internalType": "address",
          "name": "_rewardTracker",
          "type": "address"
        }
      ],
      "stateMutability": "nonpayable",
      "type": "constructor"
    },
    {
      "inputs": [
        {
          "internalType": "address",
          "name": "violator",
          "type": "address"
        },
        {
          "internalType": "string",
          "name": "check",
          "type": "string"
        }
      ],
      "name": "PermissionDenied",
      "type": "error"
    },
    {
      "inputs": [],
      "name": "ReentrantCall",
      "type": "error"
    },
    {
      "anonymous": false,
      "inputs": [
        {
          "indexed": true,
          "internalType": "address",
          "name": "owner",
          "type": "address"
        },
        {
          "indexed": true,
          "internalType": "address",
          "name": "spender",
          "type": "address"
        },
        {
          "indexed": false,
          "internalType": "uint256",
          "name": "value",
          "type": "uint256"
        }
      ],
      "name": "Approval",
      "type": "event"
    },
    {
      "anonymous": false,
      "inputs": [
        {
          "indexed": false,
          "internalType": "address",
          "name": "receiver",
          "type": "address"
        },
        {
          "indexed": false,
          "internalType": "uint256",
          "name": "amount",
          "type": "uint256"
        }
      ],
      "name": "Claim",
      "type": "event"
    },
    {
      "anonymous": false,
      "inputs": [
        {
          "indexed": false,
          "internalType": "address",
          "name": "account",
          "type": "address"
        },
        {
          "indexed": false,
          "internalType": "uint256",
          "name": "amount",
          "type": "uint256"
        }
      ],
      "name": "Deposit",
      "type": "event"
    },
    {
      "anonymous": false,
      "inputs": [
        {
          "indexed": true,
          "internalType": "address",
          "name": "from",
          "type": "address"
        },
        {
          "indexed": true,
          "internalType": "address",
          "name": "to",
          "type": "address"
        },
        {
          "indexed": false,
          "internalType": "uint256",
          "name": "value",
          "type": "uint256"
        }
      ],
      "name": "PairTransfer",
      "type": "event"
    },
    {
      "anonymous": false,
      "inputs": [
        {
          "indexed": true,
          "internalType": "address",
          "name": "from",
          "type": "address"
        },
        {
          "indexed": true,
          "internalType": "address",
          "name": "to",
          "type": "address"
        },
        {
          "indexed": false,
          "internalType": "uint256",
          "name": "value",
          "type": "uint256"
        }
      ],
      "name": "Transfer",
      "type": "event"
    },
    {
      "anonymous": false,
      "inputs": [
        {
          "indexed": false,
          "internalType": "address",
          "name": "account",
          "type": "address"
        },
        {
          "indexed": false,
          "internalType": "uint256",
          "name": "claimedAmount",
          "type": "uint256"
        },
        {
          "indexed": false,
          "internalType": "uint256",
          "name": "balance",
          "type": "uint256"
        }
      ],
      "name": "Withdraw",
      "type": "event"
    },
    {
      "inputs": [
        {
          "internalType": "address",
          "name": "",
          "type": "address"
        },
        {
          "internalType": "address",
          "name": "",
          "type": "address"
        }
      ],
      "name": "allowance",
      "outputs": [
        {
          "internalType": "uint256",
          "name": "",
          "type": "uint256"
        }
      ],
      "stateMutability": "view",
      "type": "function"
    },
    {
      "inputs": [
        {
          "internalType": "address",
          "name": "",
          "type": "address"
        },
        {
          "internalType": "uint256",
          "name": "",
          "type": "uint256"
        }
      ],
      "name": "approve",
      "outputs": [
        {
          "internalType": "bool",
          "name": "",
          "type": "bool"
        }
      ],
      "stateMutability": "nonpayable",
      "type": "function"
    },
    {
      "inputs": [
        {
          "internalType": "address",
          "name": "_account",
          "type": "address"
        }
      ],
      "name": "balanceOf",
      "outputs": [
        {
          "internalType": "uint256",
          "name": "",
          "type": "uint256"
        }
      ],
      "stateMutability": "view",
      "type": "function"
    },
    {
      "inputs": [
        {
          "internalType": "address",
          "name": "",
          "type": "address"
        }
      ],
      "name": "balances",
      "outputs": [
        {
          "internalType": "uint256",
          "name": "",
          "type": "uint256"
        }
      ],
      "stateMutability": "view",
      "type": "function"
    },
    {
      "inputs": [
        {
          "internalType": "address",
          "name": "",
          "type": "address"
        }
      ],
      "name": "bonusRewards",
      "outputs": [
        {
          "internalType": "uint256",
          "name": "",
          "type": "uint256"
        }
      ],
      "stateMutability": "view",
      "type": "function"
    },
    {
      "inputs": [],
      "name": "claim",
      "outputs": [
        {
          "internalType": "uint256",
          "name": "",
          "type": "uint256"
        }
      ],
      "stateMutability": "nonpayable",
      "type": "function"
    },
    {
      "inputs": [
        {
          "internalType": "address",
          "name": "_account",
          "type": "address"
        },
        {
          "internalType": "address",
          "name": "_receiver",
          "type": "address"
        }
      ],
      "name": "claimForAccount",
      "outputs": [
        {
          "internalType": "uint256",
          "name": "",
          "type": "uint256"
        }
      ],
      "stateMutability": "nonpayable",
      "type": "function"
    },
    {
      "inputs": [
        {
          "internalType": "address",
          "name": "_account",
          "type": "address"
        }
      ],
      "name": "claimable",
      "outputs": [
        {
          "internalType": "uint256",
          "name": "",
          "type": "uint256"
        }
      ],
      "stateMutability": "view",
      "type": "function"
    },
    {
      "inputs": [],
      "name": "claimableToken",
      "outputs": [
        {
          "internalType": "address",
          "name": "",
          "type": "address"
        }
      ],
      "stateMutability": "view",
      "type": "function"
    },
    {
      "inputs": [
        {
          "internalType": "address",
          "name": "",
          "type": "address"
        }
      ],
      "name": "claimedAmounts",
      "outputs": [
        {
          "internalType": "uint256",
          "name": "",
          "type": "uint256"
        }
      ],
      "stateMutability": "view",
      "type": "function"
    },
    {
      "inputs": [
        {
          "internalType": "address",
          "name": "",
          "type": "address"
        }
      ],
      "name": "cumulativeClaimAmounts",
      "outputs": [
        {
          "internalType": "uint256",
          "name": "",
          "type": "uint256"
        }
      ],
      "stateMutability": "view",
      "type": "function"
    },
    {
      "inputs": [
        {
          "internalType": "address",
          "name": "",
          "type": "address"
        }
      ],
      "name": "cumulativeRewardDeductions",
      "outputs": [
        {
          "internalType": "uint256",
          "name": "",
          "type": "uint256"
        }
      ],
      "stateMutability": "view",
      "type": "function"
    },
    {
      "inputs": [],
      "name": "decimals",
      "outputs": [
        {
          "internalType": "uint8",
          "name": "",
          "type": "uint8"
        }
      ],
      "stateMutability": "view",
      "type": "function"
    },
    {
      "inputs": [
        {
          "internalType": "uint256",
          "name": "_amount",
          "type": "uint256"
        }
      ],
      "name": "deposit",
      "outputs": [],
      "stateMutability": "nonpayable",
      "type": "function"
    },
    {
      "inputs": [
        {
          "internalType": "address",
          "name": "_account",
          "type": "address"
        },
        {
          "internalType": "uint256",
          "name": "_amount",
          "type": "uint256"
        }
      ],
      "name": "depositForAccount",
      "outputs": [],
      "stateMutability": "nonpayable",
      "type": "function"
    },
    {
      "inputs": [],
      "name": "esToken",
      "outputs": [
        {
          "internalType": "address",
          "name": "",
          "type": "address"
        }
      ],
      "stateMutability": "view",
      "type": "function"
    },
    {
      "inputs": [
        {
          "internalType": "address",
          "name": "_account",
          "type": "address"
        }
      ],
      "name": "getCombinedAverageStakedAmount",
      "outputs": [
        {
          "internalType": "uint256",
          "name": "",
          "type": "uint256"
        }
      ],
      "stateMutability": "view",
      "type": "function"
    },
    {
      "inputs": [
        {
          "internalType": "address",
          "name": "_account",
          "type": "address"
        }
      ],
      "name": "getMaxVestableAmount",
      "outputs": [
        {
          "internalType": "uint256",
          "name": "",
          "type": "uint256"
        }
      ],
      "stateMutability": "view",
      "type": "function"
    },
    {
      "inputs": [
        {
          "internalType": "address",
          "name": "_account",
          "type": "address"
        },
        {
          "internalType": "uint256",
          "name": "_esAmount",
          "type": "uint256"
        }
      ],
      "name": "getPairAmount",
      "outputs": [
        {
          "internalType": "uint256",
          "name": "",
          "type": "uint256"
        }
      ],
      "stateMutability": "view",
      "type": "function"
    },
    {
      "inputs": [
        {
          "internalType": "address",
          "name": "_account",
          "type": "address"
        }
      ],
      "name": "getTotalVested",
      "outputs": [
        {
          "internalType": "uint256",
          "name": "",
          "type": "uint256"
        }
      ],
      "stateMutability": "view",
      "type": "function"
    },
    {
      "inputs": [
        {
          "internalType": "address",
          "name": "_account",
          "type": "address"
        }
      ],
      "name": "getVestedAmount",
      "outputs": [
        {
          "internalType": "uint256",
          "name": "",
          "type": "uint256"
        }
      ],
      "stateMutability": "view",
      "type": "function"
    },
    {
      "inputs": [],
      "name": "gov",
      "outputs": [
        {
          "internalType": "address",
          "name": "",
          "type": "address"
        }
      ],
      "stateMutability": "view",
      "type": "function"
    },
    {
      "inputs": [],
      "name": "hasMaxVestableAmount",
      "outputs": [
        {
          "internalType": "bool",
          "name": "",
          "type": "bool"
        }
      ],
      "stateMutability": "view",
      "type": "function"
    },
    {
      "inputs": [],
      "name": "hasPairToken",
      "outputs": [
        {
          "internalType": "bool",
          "name": "",
          "type": "bool"
        }
      ],
      "stateMutability": "view",
      "type": "function"
    },
    {
      "inputs": [],
      "name": "hasRewardTracker",
      "outputs": [
        {
          "internalType": "bool",
          "name": "",
          "type": "bool"
        }
      ],
      "stateMutability": "view",
      "type": "function"
    },
    {
      "inputs": [
        {
          "internalType": "address",
          "name": "",
          "type": "address"
        }
      ],
      "name": "isHandler",
      "outputs": [
        {
          "internalType": "bool",
          "name": "",
          "type": "bool"
        }
      ],
      "stateMutability": "view",
      "type": "function"
    },
    {
      "inputs": [
        {
          "internalType": "address",
          "name": "",
          "type": "address"
        }
      ],
      "name": "lastVestingTimes",
      "outputs": [
        {
          "internalType": "uint256",
          "name": "",
          "type": "uint256"
        }
      ],
      "stateMutability": "view",
      "type": "function"
    },
    {
      "inputs": [],
      "name": "name",
      "outputs": [
        {
          "internalType": "string",
          "name": "",
          "type": "string"
        }
      ],
      "stateMutability": "view",
      "type": "function"
    },
    {
      "inputs": [
        {
          "internalType": "address",
          "name": "",
          "type": "address"
        }
      ],
      "name": "pairAmounts",
      "outputs": [
        {
          "internalType": "uint256",
          "name": "",
          "type": "uint256"
        }
      ],
      "stateMutability": "view",
      "type": "function"
    },
    {
      "inputs": [],
      "name": "pairSupply",
      "outputs": [
        {
          "internalType": "uint256",
          "name": "",
          "type": "uint256"
        }
      ],
      "stateMutability": "view",
      "type": "function"
    },
    {
      "inputs": [],
      "name": "pairToken",
      "outputs": [
        {
          "internalType": "address",
          "name": "",
          "type": "address"
        }
      ],
      "stateMutability": "view",
      "type": "function"
    },
    {
      "inputs": [],
      "name": "rewardTracker",
      "outputs": [
        {
          "internalType": "address",
          "name": "",
          "type": "address"
        }
      ],
      "stateMutability": "view",
      "type": "function"
    },
    {
      "inputs": [
        {
          "internalType": "address",
          "name": "_account",
          "type": "address"
        },
        {
          "internalType": "uint256",
          "name": "_amount",
          "type": "uint256"
        }
      ],
      "name": "setBonusRewards",
      "outputs": [],
      "stateMutability": "nonpayable",
      "type": "function"
    },
    {
      "inputs": [
        {
          "internalType": "address",
          "name": "_account",
          "type": "address"
        },
        {
          "internalType": "uint256",
          "name": "_amount",
          "type": "uint256"
        }
      ],
      "name": "setCumulativeRewardDeductions",
      "outputs": [],
      "stateMutability": "nonpayable",
      "type": "function"
    },
    {
      "inputs": [
        {
          "internalType": "address",
          "name": "_gov",
          "type": "address"
        }
      ],
      "name": "setGov",
      "outputs": [],
      "stateMutability": "nonpayable",
      "type": "function"
    },
    {
      "inputs": [
        {
          "internalType": "address",
          "name": "_handler",
          "type": "address"
        },
        {
          "internalType": "bool",
          "name": "_isActive",
          "type": "bool"
        }
      ],
      "name": "setHandler",
      "outputs": [],
      "stateMutability": "nonpayable",
      "type": "function"
    },
    {
      "inputs": [
        {
          "internalType": "bool",
          "name": "_hasMaxVestableAmount",
          "type": "bool"
        }
      ],
      "name": "setHasMaxVestableAmount",
      "outputs": [],
      "stateMutability": "nonpayable",
      "type": "function"
    },
    {
      "inputs": [
        {
          "internalType": "address",
          "name": "_account",
          "type": "address"
        },
        {
          "internalType": "uint256",
          "name": "_amount",
          "type": "uint256"
        }
      ],
      "name": "setTransferredAverageStakedAmounts",
      "outputs": [],
      "stateMutability": "nonpayable",
      "type": "function"
    },
    {
      "inputs": [
        {
          "internalType": "address",
          "name": "_account",
          "type": "address"
        },
        {
          "internalType": "uint256",
          "name": "_amount",
          "type": "uint256"
        }
      ],
      "name": "setTransferredCumulativeRewards",
      "outputs": [],
      "stateMutability": "nonpayable",
      "type": "function"
    },
    {
      "inputs": [],
      "name": "symbol",
      "outputs": [
        {
          "internalType": "string",
          "name": "",
          "type": "string"
        }
      ],
      "stateMutability": "view",
      "type": "function"
    },
    {
      "inputs": [],
      "name": "totalSupply",
      "outputs": [
        {
          "internalType": "uint256",
          "name": "",
          "type": "uint256"
        }
      ],
      "stateMutability": "view",
      "type": "function"
    },
    {
      "inputs": [
        {
          "internalType": "address",
          "name": "",
          "type": "address"
        },
        {
          "internalType": "uint256",
          "name": "",
          "type": "uint256"
        }
      ],
      "name": "transfer",
      "outputs": [
        {
          "internalType": "bool",
          "name": "",
          "type": "bool"
        }
      ],
      "stateMutability": "pure",
      "type": "function"
    },
    {
      "inputs": [
        {
          "internalType": "address",
          "name": "",
          "type": "address"
        },
        {
          "internalType": "address",
          "name": "",
          "type": "address"
        },
        {
          "internalType": "uint256",
          "name": "",
          "type": "uint256"
        }
      ],
      "name": "transferFrom",
      "outputs": [
        {
          "internalType": "bool",
          "name": "",
          "type": "bool"
        }
      ],
      "stateMutability": "nonpayable",
      "type": "function"
    },
    {
      "inputs": [
        {
          "internalType": "address",
          "name": "_sender",
          "type": "address"
        },
        {
          "internalType": "address",
          "name": "_receiver",
          "type": "address"
        }
      ],
      "name": "transferStakeValues",
      "outputs": [],
      "stateMutability": "nonpayable",
      "type": "function"
    },
    {
      "inputs": [
        {
          "internalType": "address",
          "name": "",
          "type": "address"
        }
      ],
      "name": "transferredAverageStakedAmounts",
      "outputs": [
        {
          "internalType": "uint256",
          "name": "",
          "type": "uint256"
        }
      ],
      "stateMutability": "view",
      "type": "function"
    },
    {
      "inputs": [
        {
          "internalType": "address",
          "name": "",
          "type": "address"
        }
      ],
      "name": "transferredCumulativeRewards",
      "outputs": [
        {
          "internalType": "uint256",
          "name": "",
          "type": "uint256"
        }
      ],
      "stateMutability": "view",
      "type": "function"
    },
    {
      "inputs": [],
      "name": "vestingDuration",
      "outputs": [
        {
          "internalType": "uint256",
          "name": "",
          "type": "uint256"
        }
      ],
      "stateMutability": "view",
      "type": "function"
    },
    {
      "inputs": [],
      "name": "withdraw",
      "outputs": [],
      "stateMutability": "nonpayable",
      "type": "function"
    },
    {
      "inputs": [
        {
          "internalType": "address",
          "name": "_token",
          "type": "address"
        },
        {
          "internalType": "address",
          "name": "_account",
          "type": "address"
        },
        {
          "internalType": "uint256",
          "name": "_amount",
          "type": "uint256"
        }
      ],
      "name": "withdrawToken",
      "outputs": [],
      "stateMutability": "nonpayable",
      "type": "function"
    }
  ],
  "bytecode": "0x60806040526004805460ff191660121790553480156200001e57600080fd5b5060405162002d3138038062002d318339810160408190526200004191620001c6565b6001600081905580546001600160a01b03191633179055600262000066888262000313565b50600362000075878262000313565b506005859055600680546001600160a01b038087166001600160a01b031992831617909255600780548684169083161790556008805485841690831617905560098054928416929091168217905515620000d757600c805460ff191660011790555b50505050505050620003df565b634e487b7160e01b600052604160045260246000fd5b600082601f8301126200010c57600080fd5b81516001600160401b0380821115620001295762000129620000e4565b604051601f8301601f19908116603f01168101908282118183101715620001545762000154620000e4565b816040528381526020925086838588010111156200017157600080fd5b600091505b8382101562000195578582018301518183018401529082019062000176565b600093810190920192909252949350505050565b80516001600160a01b0381168114620001c157600080fd5b919050565b600080600080600080600060e0888a031215620001e257600080fd5b87516001600160401b0380821115620001fa57600080fd5b620002088b838c01620000fa565b985060208a01519150808211156200021f57600080fd5b506200022e8a828b01620000fa565b965050604088015194506200024660608901620001a9565b93506200025660808901620001a9565b92506200026660a08901620001a9565b91506200027660c08901620001a9565b905092959891949750929550565b600181811c908216806200029957607f821691505b602082108103620002ba57634e487b7160e01b600052602260045260246000fd5b50919050565b601f8211156200030e57600081815260208120601f850160051c81016020861015620002e95750805b601f850160051c820191505b818110156200030a57828155600101620002f5565b5050505b505050565b81516001600160401b038111156200032f576200032f620000e4565b620003478162000340845462000284565b84620002c0565b602080601f8311600181146200037f5760008415620003665750858301515b600019600386901b1c1916600185901b1785556200030a565b600085815260208120601f198616915b82811015620003b0578886015182559484019460019091019084016200038f565b5085821015620003cf5787850151600019600388901b60f8161c191681555b5050505050600190811b01905550565b61294280620003ef6000396000f3fe608060405234801561001057600080fd5b506004361061032b5760003560e01c806369de9b93116101b2578063b5ff136d116100f9578063d75abb57116100a2578063e3ecc4b21161007c578063e3ecc4b214610772578063f421f62a14610785578063f6d6d5aa146107a5578063f713c230146107c557600080fd5b8063d75abb5714610729578063d89b700714610749578063dd62ed3e1461075c57600080fd5b8063cfad57a2116100d3578063cfad57a2146106f0578063d0b038b714610703578063d5a73fdd1461071657600080fd5b8063b5ff136d1461069d578063b6b55f25146106bd578063b71bce2a146106d057600080fd5b8063930354731161015b578063a2545fa511610135578063a2545fa514610670578063a9059cbb14610384578063acf077a51461069057600080fd5b8063930354731461064257806395d89b41146106555780639cb7de4b1461065d57600080fd5b806371417b321161018c57806371417b32146105ef5780637337035c1461060f5780637cf8f3b21461062f57600080fd5b806369de9b93146105865780636bcb411a1461059957806370a08231146105b957600080fd5b806327e235e311610276578063402914f51161021f57806346ea87af116101f957806346ea87af1461053b5780634e71d92d1461055e5780635d50e7291461056657600080fd5b8063402914f51461050257806341f227241461051557806345f01ee61461052857600080fd5b8063387a785d11610250578063387a785d146104ba5780633ccfd60b146104da5780633de35b79146104e257600080fd5b806327e235e314610468578063313ce56714610488578063342fcda9146104a757600080fd5b806313e82e7a116102d857806316ca05c5116102b257806316ca05c51461043157806318160ddd1461045157806323b872dd1461045a57600080fd5b806313e82e7a1461040c5780631514617e1461041f57806315e90a411461042857600080fd5b8063095ea7b311610309578063095ea7b3146103845780630db9ea4a146103a757806312d43a51146103c757600080fd5b806301e336671461033057806306fdde031461034557806308f26c7614610363575b600080fd5b61034361033e366004612619565b6107d8565b005b61034d61088c565b60405161035a9190612679565b60405180910390f35b6103766103713660046126ca565b61091a565b60405190815260200161035a565b6103976103923660046126e5565b610a69565b604051901515815260200161035a565b6103766103b53660046126ca565b60116020526000908152604090205481565b6001546103e79073ffffffffffffffffffffffffffffffffffffffff1681565b60405173ffffffffffffffffffffffffffffffffffffffff909116815260200161035a565b61037661041a36600461270f565b610ace565b61037660055481565b610376600b5481565b6006546103e79073ffffffffffffffffffffffffffffffffffffffff1681565b610376600a5481565b610397610392366004612619565b6103766104763660046126ca565b600d6020526000908152604090205481565b6004546104959060ff1681565b60405160ff909116815260200161035a565b6103436104b53660046126e5565b610b2f565b6103766104c83660046126ca565b60146020526000908152604090205481565b610343610b8b565b6007546103e79073ffffffffffffffffffffffffffffffffffffffff1681565b6103766105103660046126ca565b610dac565b6103436105233660046126e5565b610e09565b6103766105363660046126ca565b610e82565b6103976105493660046126ca565b60166020526000908152604090205460ff1681565b610376611054565b6103766105743660046126ca565b600e6020526000908152604090205481565b610343610594366004612753565b6110ab565b6009546103e79073ffffffffffffffffffffffffffffffffffffffff1681565b6103766105c73660046126ca565b73ffffffffffffffffffffffffffffffffffffffff166000908152600d602052604090205490565b6103766105fd3660046126ca565b60106020526000908152604090205481565b61037661061d3660046126ca565b60126020526000908152604090205481565b61037661063d3660046126e5565b611165565b6103766106503660046126ca565b6111f3565b61034d61122e565b61034361066b366004612770565b61123b565b61037661067e3660046126ca565b60156020526000908152604090205481565b600c546103979060ff1681565b6103766106ab3660046126ca565b600f6020526000908152604090205481565b6103436106cb3660046127a7565b61131a565b6103766106de3660046126ca565b60136020526000908152604090205481565b6103436106fe3660046126ca565b61136d565b6103436107113660046126e5565b61143d565b6103766107243660046126ca565b6114b6565b60075473ffffffffffffffffffffffffffffffffffffffff161515610397565b6103436107573660046126e5565b6114f1565b61037661076a36600461270f565b600092915050565b6103436107803660046126e5565b61156a565b60095473ffffffffffffffffffffffffffffffffffffffff161515610397565b6008546103e79073ffffffffffffffffffffffffffffffffffffffff1681565b6103436107d336600461270f565b6115e3565b60015473ffffffffffffffffffffffffffffffffffffffff16331461086657604080517f2a89d6bc0000000000000000000000000000000000000000000000000000000081523360048201526024810191909152600760448201527f6f6e6c79476f760000000000000000000000000000000000000000000000000060648201526084015b60405180910390fd5b61088773ffffffffffffffffffffffffffffffffffffffff8416838361176e565b505050565b60028054610899906127c0565b80601f01602080910402602001604051908101604052809291908181526020018280546108c5906127c0565b80156109125780601f106108e757610100808354040283529160200191610912565b820191906000526020600020905b8154815290600101906020018083116108f557829003601f168201915b505050505081565b600061093d60095473ffffffffffffffffffffffffffffffffffffffff16151590565b61094957506000919050565b73ffffffffffffffffffffffffffffffffffffffff82811660008181526013602090815260408083205460159092528083205460095491517f3792def3000000000000000000000000000000000000000000000000000000008152600481019590955291949193911690633792def390602401602060405180830381865afa1580156109d9573d6000803e3d6000fd5b505050506040513d601f19601f820116820180604052508101906109fd9190612813565b9050600082610a0c858461285b565b610a16919061285b565b73ffffffffffffffffffffffffffffffffffffffff871660009081526014602052604090205490915080821015610a54575060009695505050505050565b610a5e818361286e565b979650505050505050565b6040517f08c379a000000000000000000000000000000000000000000000000000000000815260206004820152601960248201527f5665737465723a206e6f6e2d7472616e736665727261626c6500000000000000604482015260009060640161085d565b6000600260005403610b0c576040517f37ed32e800000000000000000000000000000000000000000000000000000000815260040160405180910390fd5b6002600055610b19611842565b610b2383836118bd565b60016000559392505050565b600260005403610b6b576040517f37ed32e800000000000000000000000000000000000000000000000000000000815260040160405180910390fd5b6002600055610b78611842565b610b828282611996565b50506001600055565b600260005403610bc7576040517f37ed32e800000000000000000000000000000000000000000000000000000000815260040160405180910390fd5b60026000553380610bd881806118bd565b5073ffffffffffffffffffffffffffffffffffffffff82166000908152600f6020908152604080832054600d9092528220549091610c16838361285b565b905060008111610c82576040517f08c379a000000000000000000000000000000000000000000000000000000000815260206004820152601d60248201527f5665737465723a2076657374656420616d6f756e74206973207a65726f000000604482015260640161085d565b60075473ffffffffffffffffffffffffffffffffffffffff1615610cf65773ffffffffffffffffffffffffffffffffffffffff85166000908152600e6020526040902054610cd08682611be6565b600754610cf49073ffffffffffffffffffffffffffffffffffffffff16868361176e565b505b600654610d1a9073ffffffffffffffffffffffffffffffffffffffff16858461176e565b610d248583611d44565b73ffffffffffffffffffffffffffffffffffffffff85166000818152600f602090815260408083208390556010825280832083905560118252808320929092558151928352820185905281018390527ff279e6a1f5e320cca91135676d9cb6e44ca8a08c0b88342bcdb1144f6511b5689060600160405180910390a150506001600055505050565b73ffffffffffffffffffffffffffffffffffffffff8116600090815260106020908152604080832054600f9092528220548291610de89161286e565b90506000610df584611e9a565b9050610e01818361285b565b949350505050565b600260005403610e45576040517f37ed32e800000000000000000000000000000000000000000000000000000000815260040160405180910390fd5b6002600055610e52611842565b73ffffffffffffffffffffffffffffffffffffffff90911660009081526015602052604081209190915560019055565b6009546040517f3792def300000000000000000000000000000000000000000000000000000000815273ffffffffffffffffffffffffffffffffffffffff83811660048301526000928392911690633792def390602401602060405180830381865afa158015610ef6573d6000803e3d6000fd5b505050506040513d601f19601f82011682018060405250810190610f1a9190612813565b73ffffffffffffffffffffffffffffffffffffffff8416600090815260136020526040812054919250610f4d828461285b565b905080600003610f6257506000949350505050565b6009546040517fa318021700000000000000000000000000000000000000000000000000000000815273ffffffffffffffffffffffffffffffffffffffff8781166004830152600092169063a318021790602401602060405180830381865afa158015610fd3573d6000803e3d6000fd5b505050506040513d601f19601f82011682018060405250810190610ff79190612813565b73ffffffffffffffffffffffffffffffffffffffff87166000908152601260205260409020549091508261102b8583612881565b6110359190612898565b836110408785612881565b61104a9190612898565b610a5e919061285b565b6000600260005403611092576040517f37ed32e800000000000000000000000000000000000000000000000000000000815260040160405180910390fd5b60026000556110a133806118bd565b9050600160005590565b60015473ffffffffffffffffffffffffffffffffffffffff16331461113457604080517f2a89d6bc0000000000000000000000000000000000000000000000000000000081523360048201526024810191909152600760448201527f6f6e6c79476f7600000000000000000000000000000000000000000000000000606482015260840161085d565b600c80547fffffffffffffffffffffffffffffffffffffffffffffffffffffffffffffff0016911515919091179055565b600061118860095473ffffffffffffffffffffffffffffffffffffffff16151590565b611194575060006111ed565b600061119f84610e82565b9050806000036111b35760009150506111ed565b60006111be8561091a565b9050806000036111d3576000925050506111ed565b806111de8386612881565b6111e89190612898565b925050505b92915050565b73ffffffffffffffffffffffffffffffffffffffff81166000908152600f6020908152604080832054600d9092528220546111ed919061285b565b60038054610899906127c0565b60015473ffffffffffffffffffffffffffffffffffffffff1633146112c457604080517f2a89d6bc0000000000000000000000000000000000000000000000000000000081523360048201526024810191909152600760448201527f6f6e6c79476f7600000000000000000000000000000000000000000000000000606482015260840161085d565b73ffffffffffffffffffffffffffffffffffffffff91909116600090815260166020526040902080547fffffffffffffffffffffffffffffffffffffffffffffffffffffffffffffff0016911515919091179055565b600260005403611356576040517f37ed32e800000000000000000000000000000000000000000000000000000000815260040160405180910390fd5b60026000556113653382611996565b506001600055565b60015473ffffffffffffffffffffffffffffffffffffffff1633146113f657604080517f2a89d6bc0000000000000000000000000000000000000000000000000000000081523360048201526024810191909152600760448201527f6f6e6c79476f7600000000000000000000000000000000000000000000000000606482015260840161085d565b600180547fffffffffffffffffffffffff00000000000000000000000000000000000000001673ffffffffffffffffffffffffffffffffffffffff92909216919091179055565b600260005403611479576040517f37ed32e800000000000000000000000000000000000000000000000000000000815260040160405180910390fd5b6002600055611486611842565b73ffffffffffffffffffffffffffffffffffffffff90911660009081526013602052604081209190915560019055565b73ffffffffffffffffffffffffffffffffffffffff81166000908152600d6020908152604080832054600f909252822054610e01818361285b565b60026000540361152d576040517f37ed32e800000000000000000000000000000000000000000000000000000000815260040160405180910390fd5b600260005561153a611842565b73ffffffffffffffffffffffffffffffffffffffff90911660009081526014602052604081209190915560019055565b6002600054036115a6576040517f37ed32e800000000000000000000000000000000000000000000000000000000815260040160405180910390fd5b60026000556115b3611842565b73ffffffffffffffffffffffffffffffffffffffff90911660009081526012602052604081209190915560019055565b60026000540361161f576040517f37ed32e800000000000000000000000000000000000000000000000000000000815260040160405180910390fd5b600260005561162c611842565b61163582610e82565b73ffffffffffffffffffffffffffffffffffffffff82811660009081526012602090815260408083209490945585831680835284832083905560139091528382205460095494517f3792def300000000000000000000000000000000000000000000000000000000815260048101929092529391929190911690633792def390602401602060405180830381865afa1580156116d5573d6000803e3d6000fd5b505050506040513d601f19601f820116820180604052508101906116f99190612813565b9050611705818361285b565b73ffffffffffffffffffffffffffffffffffffffff93841660008181526013602081815260408084209590955597909616808252601488528382209490945594865281852085905560159095528084208054958552908420949094558252509081905560019055565b60405173ffffffffffffffffffffffffffffffffffffffff83166024820152604481018290526108879084907fa9059cbb00000000000000000000000000000000000000000000000000000000906064015b604080517fffffffffffffffffffffffffffffffffffffffffffffffffffffffffffffffe08184030181529190526020810180517bffffffffffffffffffffffffffffffffffffffffffffffffffffffff167fffffffff0000000000000000000000000000000000000000000000000000000090931692909217909152611f4b565b3360009081526016602052604090205460ff166118bb576040517f08c379a000000000000000000000000000000000000000000000000000000000815260206004820152601160248201527f5665737465723a20666f7262696464656e000000000000000000000000000000604482015260640161085d565b565b60006118c883612057565b60006118d384610dac565b73ffffffffffffffffffffffffffffffffffffffff851660009081526010602052604090205490915061190790829061285b565b73ffffffffffffffffffffffffffffffffffffffff8086166000908152601060205260409020919091556008546119409116848361176e565b6040805173ffffffffffffffffffffffffffffffffffffffff86168152602081018390527f47cee97cb7acd717b3c0aa1435d004cd5b3c8c57d70dbceb4e4458bbd60e39d4910160405180910390a19392505050565b60008111611a00576040517f08c379a000000000000000000000000000000000000000000000000000000000815260206004820152601760248201527f5665737465723a20696e76616c6964205f616d6f756e74000000000000000000604482015260640161085d565b611a0982612057565b600654611a2e9073ffffffffffffffffffffffffffffffffffffffff16833084612176565b611a3882826121da565b60075473ffffffffffffffffffffffffffffffffffffffff1615611ae25773ffffffffffffffffffffffffffffffffffffffff82166000908152600e6020908152604080832054600d909252822054909190611a95908590611165565b905081811115611adf576000611aab838361286e565b600754909150611ad39073ffffffffffffffffffffffffffffffffffffffff16863084612176565b611add85826122f7565b505b50505b600c5460ff1615611b93576000611af88361091a565b905080611b04846111f3565b1115611b91576040517f08c379a0000000000000000000000000000000000000000000000000000000008152602060048201526024808201527f5665737465723a206d6178207665737461626c6520616d6f756e74206578636560448201527f6564656400000000000000000000000000000000000000000000000000000000606482015260840161085d565b505b6040805173ffffffffffffffffffffffffffffffffffffffff84168152602081018390527fe1fffcc4923d04b559f4d29a8bfc6cda04eb5b0d3c460751c2402c5c5cc9109c910160405180910390a15050565b73ffffffffffffffffffffffffffffffffffffffff8216611c89576040517f08c379a000000000000000000000000000000000000000000000000000000000815260206004820152602260248201527f5665737465723a206275726e2066726f6d20746865207a65726f20616464726560448201527f7373000000000000000000000000000000000000000000000000000000000000606482015260840161085d565b73ffffffffffffffffffffffffffffffffffffffff82166000908152600e6020526040902054611cba90829061286e565b73ffffffffffffffffffffffffffffffffffffffff83166000908152600e6020526040902055600b54611cee90829061286e565b600b5560405181815260009073ffffffffffffffffffffffffffffffffffffffff8416907f659523c479d006050ebc0d0e48fea36d1b2c5d45b2f31402ac6f8671fc84cc04906020015b60405180910390a35050565b73ffffffffffffffffffffffffffffffffffffffff8216611de7576040517f08c379a000000000000000000000000000000000000000000000000000000000815260206004820152602260248201527f5665737465723a206275726e2066726f6d20746865207a65726f20616464726560448201527f7373000000000000000000000000000000000000000000000000000000000000606482015260840161085d565b73ffffffffffffffffffffffffffffffffffffffff82166000908152600d6020526040902054611e1890829061286e565b73ffffffffffffffffffffffffffffffffffffffff83166000908152600d6020526040902055600a54611e4c90829061286e565b600a5560405181815260009073ffffffffffffffffffffffffffffffffffffffff8416907fddf252ad1be2c89b69c2b068fc378daa952ba7f163c4a11628f55a4df523b3ef90602001611d38565b73ffffffffffffffffffffffffffffffffffffffff81166000908152601160205260408120548190611ecc904261286e565b73ffffffffffffffffffffffffffffffffffffffff84166000908152600d6020526040812054919250819003611f06575060009392505050565b6000611f11856114b6565b905060006005548483611f249190612881565b611f2e9190612898565b905082811015611f415795945050505050565b5090949350505050565b6000611fad826040518060400160405280602081526020017f5361666545524332303a206c6f772d6c6576656c2063616c6c206661696c65648152508573ffffffffffffffffffffffffffffffffffffffff166124149092919063ffffffff16565b8051909150156108875780806020019051810190611fcb91906128d3565b610887576040517f08c379a000000000000000000000000000000000000000000000000000000000815260206004820152602a60248201527f5361666545524332303a204552433230206f7065726174696f6e20646964206e60448201527f6f74207375636365656400000000000000000000000000000000000000000000606482015260840161085d565b600061206282611e9a565b73ffffffffffffffffffffffffffffffffffffffff83166000908152601160205260408120429055909150819003612098575050565b6120a28282611d44565b73ffffffffffffffffffffffffffffffffffffffff82166000908152600f60205260409020546120d390829061285b565b73ffffffffffffffffffffffffffffffffffffffff8381166000908152600f6020526040908190209290925560065491517f9dc29fac00000000000000000000000000000000000000000000000000000000815230600482015260248101849052911690639dc29fac90604401600060405180830381600087803b15801561215a57600080fd5b505af115801561216e573d6000803e3d6000fd5b505050505050565b60405173ffffffffffffffffffffffffffffffffffffffff808516602483015283166044820152606481018290526121d49085907f23b872dd00000000000000000000000000000000000000000000000000000000906084016117c0565b50505050565b73ffffffffffffffffffffffffffffffffffffffff8216612257576040517f08c379a000000000000000000000000000000000000000000000000000000000815260206004820181905260248201527f5665737465723a206d696e7420746f20746865207a65726f2061646472657373604482015260640161085d565b80600a54612265919061285b565b600a5573ffffffffffffffffffffffffffffffffffffffff82166000908152600d602052604090205461229990829061285b565b73ffffffffffffffffffffffffffffffffffffffff83166000818152600d60205260408082209390935591519091907fddf252ad1be2c89b69c2b068fc378daa952ba7f163c4a11628f55a4df523b3ef90611d389085815260200190565b73ffffffffffffffffffffffffffffffffffffffff8216612374576040517f08c379a000000000000000000000000000000000000000000000000000000000815260206004820181905260248201527f5665737465723a206d696e7420746f20746865207a65726f2061646472657373604482015260640161085d565b80600b54612382919061285b565b600b5573ffffffffffffffffffffffffffffffffffffffff82166000908152600e60205260409020546123b690829061285b565b73ffffffffffffffffffffffffffffffffffffffff83166000818152600e60205260408082209390935591519091907f659523c479d006050ebc0d0e48fea36d1b2c5d45b2f31402ac6f8671fc84cc0490611d389085815260200190565b6060612423848460008561242d565b90505b9392505050565b6060824710156124bf576040517f08c379a000000000000000000000000000000000000000000000000000000000815260206004820152602660248201527f416464726573733a20696e73756666696369656e742062616c616e636520666f60448201527f722063616c6c0000000000000000000000000000000000000000000000000000606482015260840161085d565b843b612527576040517f08c379a000000000000000000000000000000000000000000000000000000000815260206004820152601d60248201527f416464726573733a2063616c6c20746f206e6f6e2d636f6e7472616374000000604482015260640161085d565b6000808673ffffffffffffffffffffffffffffffffffffffff16858760405161255091906128f0565b60006040518083038185875af1925050503d806000811461258d576040519150601f19603f3d011682016040523d82523d6000602084013e612592565b606091505b5091509150610a5e828286606083156125ac575081612426565b8251156125bc5782518084602001fd5b816040517f08c379a000000000000000000000000000000000000000000000000000000000815260040161085d9190612679565b803573ffffffffffffffffffffffffffffffffffffffff8116811461261457600080fd5b919050565b60008060006060848603121561262e57600080fd5b612637846125f0565b9250612645602085016125f0565b9150604084013590509250925092565b60005b83811015612670578181015183820152602001612658565b50506000910152565b6020815260008251806020840152612698816040850160208701612655565b601f017fffffffffffffffffffffffffffffffffffffffffffffffffffffffffffffffe0169190910160400192915050565b6000602082840312156126dc57600080fd5b612426826125f0565b600080604083850312156126f857600080fd5b612701836125f0565b946020939093013593505050565b6000806040838503121561272257600080fd5b61272b836125f0565b9150612739602084016125f0565b90509250929050565b801515811461275057600080fd5b50565b60006020828403121561276557600080fd5b813561242681612742565b6000806040838503121561278357600080fd5b61278c836125f0565b9150602083013561279c81612742565b809150509250929050565b6000602082840312156127b957600080fd5b5035919050565b600181811c908216806127d457607f821691505b60208210810361280d577f4e487b7100000000000000000000000000000000000000000000000000000000600052602260045260246000fd5b50919050565b60006020828403121561282557600080fd5b5051919050565b7f4e487b7100000000000000000000000000000000000000000000000000000000600052601160045260246000fd5b808201808211156111ed576111ed61282c565b818103818111156111ed576111ed61282c565b80820281158282048414176111ed576111ed61282c565b6000826128ce577f4e487b7100000000000000000000000000000000000000000000000000000000600052601260045260246000fd5b500490565b6000602082840312156128e557600080fd5b815161242681612742565b60008251612902818460208701612655565b919091019291505056fea264697066735822122059d7d44de18cc7527716e19235e1661ac5f711f03c55d82f6b56eb926f0de3a364736f6c63430008140033",
  "linkReferences": {},
  "deployedLinkReferences": {}
}