{
  "_format": "hh-sol-artifact-1",
  "contractName": "YieldToken",
  "sourceName": "contracts/tokens/YieldToken.sol",
  "abi": [
    {
      "inputs": [
        {
          "internalType": "string",
          "name": "_name",
          "type": "string"
        },
        {
          "internalType": "string",
          "name": "_symbol",
          "type": "string"
        },
        {
          "internalType": "uint256",
          "name": "_initialSupply",
          "type": "uint256"
        }
      ],
      "stateMutability": "nonpayable",
      "type": "constructor"
    },
    {
      "anonymous": false,
      "inputs": [
        {
          "indexed": true,
          "internalType": "address",
          "name": "owner",
          "type": "address"
        },
        {
          "indexed": true,
          "internalType": "address",
          "name": "spender",
          "type": "address"
        },
        {
          "indexed": false,
          "internalType": "uint256",
          "name": "value",
          "type": "uint256"
        }
      ],
      "name": "Approval",
      "type": "event"
    },
    {
      "anonymous": false,
      "inputs": [
        {
          "indexed": true,
          "internalType": "address",
          "name": "from",
          "type": "address"
        },
        {
          "indexed": true,
          "internalType": "address",
          "name": "to",
          "type": "address"
        },
        {
          "indexed": false,
          "internalType": "uint256",
          "name": "value",
          "type": "uint256"
        }
      ],
      "name": "Transfer",
      "type": "event"
    },
    {
      "inputs": [
        {
          "internalType": "address",
          "name": "_account",
          "type": "address"
        }
      ],
      "name": "addAdmin",
      "outputs": [],
      "stateMutability": "nonpayable",
      "type": "function"
    },
    {
      "inputs": [
        {
          "internalType": "address",
          "name": "_account",
          "type": "address"
        }
      ],
      "name": "addNonStakingAccount",
      "outputs": [],
      "stateMutability": "nonpayable",
      "type": "function"
    },
    {
      "inputs": [
        {
          "internalType": "address",
          "name": "",
          "type": "address"
        }
      ],
      "name": "admins",
      "outputs": [
        {
          "internalType": "bool",
          "name": "",
          "type": "bool"
        }
      ],
      "stateMutability": "view",
      "type": "function"
    },
    {
      "inputs": [
        {
          "internalType": "address",
          "name": "_owner",
          "type": "address"
        },
        {
          "internalType": "address",
          "name": "_spender",
          "type": "address"
        }
      ],
      "name": "allowance",
      "outputs": [
        {
          "internalType": "uint256",
          "name": "",
          "type": "uint256"
        }
      ],
      "stateMutability": "view",
      "type": "function"
    },
    {
      "inputs": [
        {
          "internalType": "address",
          "name": "",
          "type": "address"
        },
        {
          "internalType": "address",
          "name": "",
          "type": "address"
        }
      ],
      "name": "allowances",
      "outputs": [
        {
          "internalType": "uint256",
          "name": "",
          "type": "uint256"
        }
      ],
      "stateMutability": "view",
      "type": "function"
    },
    {
      "inputs": [
        {
          "internalType": "address",
          "name": "_spender",
          "type": "address"
        },
        {
          "internalType": "uint256",
          "name": "_amount",
          "type": "uint256"
        }
      ],
      "name": "approve",
      "outputs": [
        {
          "internalType": "bool",
          "name": "",
          "type": "bool"
        }
      ],
      "stateMutability": "nonpayable",
      "type": "function"
    },
    {
      "inputs": [
        {
          "internalType": "address",
          "name": "_account",
          "type": "address"
        }
      ],
      "name": "balanceOf",
      "outputs": [
        {
          "internalType": "uint256",
          "name": "",
          "type": "uint256"
        }
      ],
      "stateMutability": "view",
      "type": "function"
    },
    {
      "inputs": [
        {
          "internalType": "address",
          "name": "",
          "type": "address"
        }
      ],
      "name": "balances",
      "outputs": [
        {
          "internalType": "uint256",
          "name": "",
          "type": "uint256"
        }
      ],
      "stateMutability": "view",
      "type": "function"
    },
    {
      "inputs": [
        {
          "internalType": "address",
          "name": "_receiver",
          "type": "address"
        }
      ],
      "name": "claim",
      "outputs": [],
      "stateMutability": "nonpayable",
      "type": "function"
    },
    {
      "inputs": [],
      "name": "decimals",
      "outputs": [
        {
          "internalType": "uint8",
          "name": "",
          "type": "uint8"
        }
      ],
      "stateMutability": "view",
      "type": "function"
    },
    {
      "inputs": [],
      "name": "gov",
      "outputs": [
        {
          "internalType": "address",
          "name": "",
          "type": "address"
        }
      ],
      "stateMutability": "view",
      "type": "function"
    },
    {
      "inputs": [],
      "name": "inWhitelistMode",
      "outputs": [
        {
          "internalType": "bool",
          "name": "",
          "type": "bool"
        }
      ],
      "stateMutability": "view",
      "type": "function"
    },
    {
      "inputs": [],
      "name": "name",
      "outputs": [
        {
          "internalType": "string",
          "name": "",
          "type": "string"
        }
      ],
      "stateMutability": "view",
      "type": "function"
    },
    {
      "inputs": [
        {
          "internalType": "address",
          "name": "",
          "type": "address"
        }
      ],
      "name": "nonStakingAccounts",
      "outputs": [
        {
          "internalType": "bool",
          "name": "",
          "type": "bool"
        }
      ],
      "stateMutability": "view",
      "type": "function"
    },
    {
      "inputs": [],
      "name": "nonStakingSupply",
      "outputs": [
        {
          "internalType": "uint256",
          "name": "",
          "type": "uint256"
        }
      ],
      "stateMutability": "view",
      "type": "function"
    },
    {
      "inputs": [
        {
          "internalType": "address",
          "name": "_account",
          "type": "address"
        },
        {
          "internalType": "address",
          "name": "_receiver",
          "type": "address"
        }
      ],
      "name": "recoverClaim",
      "outputs": [],
      "stateMutability": "nonpayable",
      "type": "function"
    },
    {
      "inputs": [
        {
          "internalType": "address",
          "name": "_account",
          "type": "address"
        }
      ],
      "name": "removeAdmin",
      "outputs": [],
      "stateMutability": "nonpayable",
      "type": "function"
    },
    {
      "inputs": [
        {
          "internalType": "address",
          "name": "_account",
          "type": "address"
        }
      ],
      "name": "removeNonStakingAccount",
      "outputs": [],
      "stateMutability": "nonpayable",
      "type": "function"
    },
    {
      "inputs": [
        {
          "internalType": "address",
          "name": "_gov",
          "type": "address"
        }
      ],
      "name": "setGov",
      "outputs": [],
      "stateMutability": "nonpayable",
      "type": "function"
    },
    {
      "inputs": [
        {
          "internalType": "bool",
          "name": "_inWhitelistMode",
          "type": "bool"
        }
      ],
      "name": "setInWhitelistMode",
      "outputs": [],
      "stateMutability": "nonpayable",
      "type": "function"
    },
    {
      "inputs": [
        {
          "internalType": "string",
          "name": "_name",
          "type": "string"
        },
        {
          "internalType": "string",
          "name": "_symbol",
          "type": "string"
        }
      ],
      "name": "setInfo",
      "outputs": [],
      "stateMutability": "nonpayable",
      "type": "function"
    },
    {
      "inputs": [
        {
          "internalType": "address",
          "name": "_handler",
          "type": "address"
        },
        {
          "internalType": "bool",
          "name": "_isWhitelisted",
          "type": "bool"
        }
      ],
      "name": "setWhitelistedHandler",
      "outputs": [],
      "stateMutability": "nonpayable",
      "type": "function"
    },
    {
      "inputs": [
        {
          "internalType": "address[]",
          "name": "_yieldTrackers",
          "type": "address[]"
        }
      ],
      "name": "setYieldTrackers",
      "outputs": [],
      "stateMutability": "nonpayable",
      "type": "function"
    },
    {
      "inputs": [
        {
          "internalType": "address",
          "name": "_account",
          "type": "address"
        }
      ],
      "name": "stakedBalance",
      "outputs": [
        {
          "internalType": "uint256",
          "name": "",
          "type": "uint256"
        }
      ],
      "stateMutability": "view",
      "type": "function"
    },
    {
      "inputs": [],
      "name": "symbol",
      "outputs": [
        {
          "internalType": "string",
          "name": "",
          "type": "string"
        }
      ],
      "stateMutability": "view",
      "type": "function"
    },
    {
      "inputs": [],
      "name": "totalStaked",
      "outputs": [
        {
          "internalType": "uint256",
          "name": "",
          "type": "uint256"
        }
      ],
      "stateMutability": "view",
      "type": "function"
    },
    {
      "inputs": [],
      "name": "totalSupply",
      "outputs": [
        {
          "internalType": "uint256",
          "name": "",
          "type": "uint256"
        }
      ],
      "stateMutability": "view",
      "type": "function"
    },
    {
      "inputs": [
        {
          "internalType": "address",
          "name": "_recipient",
          "type": "address"
        },
        {
          "internalType": "uint256",
          "name": "_amount",
          "type": "uint256"
        }
      ],
      "name": "transfer",
      "outputs": [
        {
          "internalType": "bool",
          "name": "",
          "type": "bool"
        }
      ],
      "stateMutability": "nonpayable",
      "type": "function"
    },
    {
      "inputs": [
        {
          "internalType": "address",
          "name": "_sender",
          "type": "address"
        },
        {
          "internalType": "address",
          "name": "_recipient",
          "type": "address"
        },
        {
          "internalType": "uint256",
          "name": "_amount",
          "type": "uint256"
        }
      ],
      "name": "transferFrom",
      "outputs": [
        {
          "internalType": "bool",
          "name": "",
          "type": "bool"
        }
      ],
      "stateMutability": "nonpayable",
      "type": "function"
    },
    {
      "inputs": [
        {
          "internalType": "address",
          "name": "",
          "type": "address"
        }
      ],
      "name": "whitelistedHandlers",
      "outputs": [
        {
          "internalType": "bool",
          "name": "",
          "type": "bool"
        }
      ],
      "stateMutability": "view",
      "type": "function"
    },
    {
      "inputs": [
        {
          "internalType": "address",
          "name": "_token",
          "type": "address"
        },
        {
          "internalType": "address",
          "name": "_account",
          "type": "address"
        },
        {
          "internalType": "uint256",
          "name": "_amount",
          "type": "uint256"
        }
      ],
      "name": "withdrawToken",
      "outputs": [],
      "stateMutability": "nonpayable",
      "type": "function"
    },
    {
      "inputs": [
        {
          "internalType": "uint256",
          "name": "",
          "type": "uint256"
        }
      ],
      "name": "yieldTrackers",
      "outputs": [
        {
          "internalType": "address",
          "name": "",
          "type": "address"
        }
      ],
      "stateMutability": "view",
      "type": "function"
    }
  ],
  "bytecode": "0x60806040523480156200001157600080fd5b50604051620028883803806200288883398101604081905262000034916200033a565b60006200004284826200043c565b5060016200005183826200043c565b50600480546001600160a01b031916339081179091556000818152600960205260409020805460ff191660011790556200008c908262000095565b5050506200056c565b6001600160a01b038216620000fc5760405162461bcd60e51b8152602060048201526024808201527f5969656c64546f6b656e3a206d696e7420746f20746865207a65726f206164646044820152637265737360e01b606482015260840160405180910390fd5b6200010782620001c7565b806002546200011791906200051e565b6002556001600160a01b038216600090815260056020526040902054620001409082906200051e565b6001600160a01b03831660009081526005602090815260408083209390935560089052205460ff16156200018257806003546200017e91906200051e565b6003555b6040518181526001600160a01b038316906000907fddf252ad1be2c89b69c2b068fc378daa952ba7f163c4a11628f55a4df523b3ef9060200160405180910390a35050565b60005b6007548110156200027157600060078281548110620001ed57620001ed6200053a565b600091825260209091200154604051635fd6196560e01b81526001600160a01b03858116600483015290911691508190635fd6196590602401600060405180830381600087803b1580156200024157600080fd5b505af115801562000256573d6000803e3d6000fd5b50505050508080620002689062000550565b915050620001ca565b5050565b634e487b7160e01b600052604160045260246000fd5b600082601f8301126200029d57600080fd5b81516001600160401b0380821115620002ba57620002ba62000275565b604051601f8301601f19908116603f01168101908282118183101715620002e557620002e562000275565b816040528381526020925086838588010111156200030257600080fd5b600091505b8382101562000326578582018301518183018401529082019062000307565b600093810190920192909252949350505050565b6000806000606084860312156200035057600080fd5b83516001600160401b03808211156200036857600080fd5b62000376878388016200028b565b945060208601519150808211156200038d57600080fd5b506200039c868287016200028b565b925050604084015190509250925092565b600181811c90821680620003c257607f821691505b602082108103620003e357634e487b7160e01b600052602260045260246000fd5b50919050565b601f8211156200043757600081815260208120601f850160051c81016020861015620004125750805b601f850160051c820191505b8181101562000433578281556001016200041e565b5050505b505050565b81516001600160401b0381111562000458576200045862000275565b6200047081620004698454620003ad565b84620003e9565b602080601f831160018114620004a857600084156200048f5750858301515b600019600386901b1c1916600185901b17855562000433565b600085815260208120601f198616915b82811015620004d957888601518255948401946001909101908401620004b8565b5085821015620004f85787850151600019600388901b60f8161c191681555b5050505050600190811b01905550565b634e487b7160e01b600052601160045260246000fd5b8082018082111562000534576200053462000508565b92915050565b634e487b7160e01b600052603260045260246000fd5b60006001820162000565576200056562000508565b5060010190565b61230c806200057c6000396000f3fe608060405234801561001057600080fd5b50600436106101f05760003560e01c806355b6ed5c1161010f578063996f11ee116100a2578063cfad57a211610071578063cfad57a2146104b5578063d92fc87e146104c8578063dd62ed3e146104db578063fb30d9161461052157600080fd5b8063996f11ee14610473578063a9059cbb14610486578063a923fc4014610499578063c93be636146104ac57600080fd5b806370a08231116100de57806370a082311461040a578063817b1cd2146104405780639554381a1461044857806395d89b411461046b57600080fd5b806355b6ed5c146103a657806360217267146103d157806362289077146103e457806370480275146103f757600080fd5b8063276eab4e116101875780633630005111610156578063363000511461033a578063429b62e51461035d5780634cb5bbe31461038057806352cd38d91461039357600080fd5b8063276eab4e146102e057806327e235e3146102f3578063293d698714610313578063313ce5671461032057600080fd5b80631785f53c116101c35780631785f53c1461029057806318160ddd146102a35780631e83409a146102ba57806323b872dd146102cd57600080fd5b806301e33667146101f557806306fdde031461020a578063095ea7b31461022857806312d43a511461024b575b600080fd5b610208610203366004611c49565b610534565b005b6102126105e0565b60405161021f9190611ca9565b60405180910390f35b61023b610236366004611cfa565b61066e565b604051901515815260200161021f565b60045461026b9073ffffffffffffffffffffffffffffffffffffffff1681565b60405173ffffffffffffffffffffffffffffffffffffffff909116815260200161021f565b61020861029e366004611d24565b610685565b6102ac60025481565b60405190815260200161021f565b6102086102c8366004611d24565b610752565b61023b6102db366004611c49565b610835565b6102086102ee366004611dbd565b610898565b6102ac610301366004611d24565b60056020526000908152604090205481565b600a5461023b9060ff1681565b610328601281565b60405160ff909116815260200161021f565b61023b610348366004611d24565b600b6020526000908152604090205460ff1681565b61023b61036b366004611d24565b60096020526000908152604090205460ff1681565b61020861038e366004611e7b565b61092c565b61026b6103a1366004611e98565b6109de565b6102ac6103b4366004611eb1565b600660209081526000928352604080842090915290825290205481565b6102ac6103df366004611d24565b610a15565b6102086103f2366004611d24565b610a74565b610208610405366004611d24565b610c18565b6102ac610418366004611d24565b73ffffffffffffffffffffffffffffffffffffffff1660009081526005602052604090205490565b6102ac610ce8565b61023b610456366004611d24565b60086020526000908152604090205460ff1681565b610212610cff565b610208610481366004611eb1565b610d0c565b61023b610494366004611cfa565b610e66565b6102086104a7366004611f72565b610e73565b6102ac60035481565b6102086104c3366004611d24565b610f0d565b6102086104d6366004611fd6565b610fd5565b6102ac6104e9366004611eb1565b73ffffffffffffffffffffffffffffffffffffffff918216600090815260066020908152604080832093909416825291909152205490565b61020861052f366004611d24565b6110ac565b60045473ffffffffffffffffffffffffffffffffffffffff1633146105ba576040517f08c379a000000000000000000000000000000000000000000000000000000000815260206004820152601560248201527f5969656c64546f6b656e3a20666f7262696464656e000000000000000000000060448201526064015b60405180910390fd5b6105db73ffffffffffffffffffffffffffffffffffffffff84168383611220565b505050565b600080546105ed9061200d565b80601f01602080910402602001604051908101604052809291908181526020018280546106199061200d565b80156106665780601f1061063b57610100808354040283529160200191610666565b820191906000526020600020905b81548152906001019060200180831161064957829003601f168201915b505050505081565b600061067b3384846112ad565b5060015b92915050565b60045473ffffffffffffffffffffffffffffffffffffffff163314610706576040517f08c379a000000000000000000000000000000000000000000000000000000000815260206004820152601560248201527f5969656c64546f6b656e3a20666f7262696464656e000000000000000000000060448201526064016105b1565b73ffffffffffffffffffffffffffffffffffffffff16600090815260096020526040902080547fffffffffffffffffffffffffffffffffffffffffffffffffffffffffffffff00169055565b60005b6007548110156108315760006007828154811061077457610774612060565b6000918252602090912001546040517f21c0b34200000000000000000000000000000000000000000000000000000000815233600482015273ffffffffffffffffffffffffffffffffffffffff8581166024830152909116915081906321c0b342906044016020604051808303816000875af11580156107f8573d6000803e3d6000fd5b505050506040513d601f19601f8201168201806040525081019061081c919061208f565b50508080610829906120d7565b915050610755565b5050565b73ffffffffffffffffffffffffffffffffffffffff83166000908152600660209081526040808320338452909152812054819061087390849061210f565b90506108808533836112ad565b61088b858585611462565b60019150505b9392505050565b60045473ffffffffffffffffffffffffffffffffffffffff163314610919576040517f08c379a000000000000000000000000000000000000000000000000000000000815260206004820152601560248201527f5969656c64546f6b656e3a20666f7262696464656e000000000000000000000060448201526064016105b1565b8051610831906007906020840190611b81565b60045473ffffffffffffffffffffffffffffffffffffffff1633146109ad576040517f08c379a000000000000000000000000000000000000000000000000000000000815260206004820152601560248201527f5969656c64546f6b656e3a20666f7262696464656e000000000000000000000060448201526064016105b1565b600a80547fffffffffffffffffffffffffffffffffffffffffffffffffffffffffffffff0016911515919091179055565b600781815481106109ee57600080fd5b60009182526020909120015473ffffffffffffffffffffffffffffffffffffffff16905081565b73ffffffffffffffffffffffffffffffffffffffff811660009081526008602052604081205460ff1615610a4b57506000919050565b5073ffffffffffffffffffffffffffffffffffffffff1660009081526005602052604090205490565b3360009081526009602052604090205460ff16610aed576040517f08c379a000000000000000000000000000000000000000000000000000000000815260206004820152601560248201527f5969656c64546f6b656e3a20666f7262696464656e000000000000000000000060448201526064016105b1565b73ffffffffffffffffffffffffffffffffffffffff811660009081526008602052604090205460ff1615610ba3576040517f08c379a000000000000000000000000000000000000000000000000000000000815260206004820152602360248201527f5969656c64546f6b656e3a205f6163636f756e7420616c7265616479206d617260448201527f6b6564000000000000000000000000000000000000000000000000000000000060648201526084016105b1565b610bac816117c4565b73ffffffffffffffffffffffffffffffffffffffff8116600090815260086020908152604080832080547fffffffffffffffffffffffffffffffffffffffffffffffffffffffffffffff001660011790556005909152902054600354610c129190612122565b60035550565b60045473ffffffffffffffffffffffffffffffffffffffff163314610c99576040517f08c379a000000000000000000000000000000000000000000000000000000000815260206004820152601560248201527f5969656c64546f6b656e3a20666f7262696464656e000000000000000000000060448201526064016105b1565b73ffffffffffffffffffffffffffffffffffffffff16600090815260096020526040902080547fffffffffffffffffffffffffffffffffffffffffffffffffffffffffffffff00166001179055565b6000600354600254610cfa919061210f565b905090565b600180546105ed9061200d565b3360009081526009602052604090205460ff16610d85576040517f08c379a000000000000000000000000000000000000000000000000000000000815260206004820152601560248201527f5969656c64546f6b656e3a20666f7262696464656e000000000000000000000060448201526064016105b1565b60005b6007548110156105db57600060078281548110610da757610da7612060565b6000918252602090912001546040517f21c0b34200000000000000000000000000000000000000000000000000000000815273ffffffffffffffffffffffffffffffffffffffff86811660048301528581166024830152909116915081906321c0b342906044016020604051808303816000875af1158015610e2d573d6000803e3d6000fd5b505050506040513d601f19601f82011682018060405250810190610e51919061208f565b50508080610e5e906120d7565b915050610d88565b600061067b338484611462565b60045473ffffffffffffffffffffffffffffffffffffffff163314610ef4576040517f08c379a000000000000000000000000000000000000000000000000000000000815260206004820152601560248201527f5969656c64546f6b656e3a20666f7262696464656e000000000000000000000060448201526064016105b1565b6000610f008382612183565b5060016105db8282612183565b60045473ffffffffffffffffffffffffffffffffffffffff163314610f8e576040517f08c379a000000000000000000000000000000000000000000000000000000000815260206004820152601560248201527f5969656c64546f6b656e3a20666f7262696464656e000000000000000000000060448201526064016105b1565b600480547fffffffffffffffffffffffff00000000000000000000000000000000000000001673ffffffffffffffffffffffffffffffffffffffff92909216919091179055565b60045473ffffffffffffffffffffffffffffffffffffffff163314611056576040517f08c379a000000000000000000000000000000000000000000000000000000000815260206004820152601560248201527f5969656c64546f6b656e3a20666f7262696464656e000000000000000000000060448201526064016105b1565b73ffffffffffffffffffffffffffffffffffffffff919091166000908152600b6020526040902080547fffffffffffffffffffffffffffffffffffffffffffffffffffffffffffffff0016911515919091179055565b3360009081526009602052604090205460ff16611125576040517f08c379a000000000000000000000000000000000000000000000000000000000815260206004820152601560248201527f5969656c64546f6b656e3a20666f7262696464656e000000000000000000000060448201526064016105b1565b73ffffffffffffffffffffffffffffffffffffffff811660009081526008602052604090205460ff166111b4576040517f08c379a000000000000000000000000000000000000000000000000000000000815260206004820152601f60248201527f5969656c64546f6b656e3a205f6163636f756e74206e6f74206d61726b65640060448201526064016105b1565b6111bd816117c4565b73ffffffffffffffffffffffffffffffffffffffff8116600090815260086020908152604080832080547fffffffffffffffffffffffffffffffffffffffffffffffffffffffffffffff001690556005909152902054600354610c12919061210f565b6040805173ffffffffffffffffffffffffffffffffffffffff8416602482015260448082018490528251808303909101815260649091019091526020810180517bffffffffffffffffffffffffffffffffffffffffffffffffffffffff167fa9059cbb000000000000000000000000000000000000000000000000000000001790526105db90849061188b565b73ffffffffffffffffffffffffffffffffffffffff8316611350576040517f08c379a000000000000000000000000000000000000000000000000000000000815260206004820152602960248201527f5969656c64546f6b656e3a20617070726f76652066726f6d20746865207a657260448201527f6f2061646472657373000000000000000000000000000000000000000000000060648201526084016105b1565b73ffffffffffffffffffffffffffffffffffffffff82166113f3576040517f08c379a000000000000000000000000000000000000000000000000000000000815260206004820152602760248201527f5969656c64546f6b656e3a20617070726f766520746f20746865207a65726f2060448201527f616464726573730000000000000000000000000000000000000000000000000060648201526084016105b1565b73ffffffffffffffffffffffffffffffffffffffff83811660008181526006602090815260408083209487168084529482529182902085905590518481527f8c5be1e5ebec7d5bd14f71427d1e84f3dd0314c0f7b2291e5b200ac8c7c3b92591015b60405180910390a3505050565b73ffffffffffffffffffffffffffffffffffffffff8316611505576040517f08c379a000000000000000000000000000000000000000000000000000000000815260206004820152602a60248201527f5969656c64546f6b656e3a207472616e736665722066726f6d20746865207a6560448201527f726f20616464726573730000000000000000000000000000000000000000000060648201526084016105b1565b73ffffffffffffffffffffffffffffffffffffffff82166115a8576040517f08c379a000000000000000000000000000000000000000000000000000000000815260206004820152602860248201527f5969656c64546f6b656e3a207472616e7366657220746f20746865207a65726f60448201527f206164647265737300000000000000000000000000000000000000000000000060648201526084016105b1565b600a5460ff161561165257336000908152600b602052604090205460ff16611652576040517f08c379a000000000000000000000000000000000000000000000000000000000815260206004820152602660248201527f5969656c64546f6b656e3a206d73672e73656e646572206e6f7420776869746560448201527f6c6973746564000000000000000000000000000000000000000000000000000060648201526084016105b1565b61165b836117c4565b611664826117c4565b73ffffffffffffffffffffffffffffffffffffffff831660009081526005602052604090205461169590829061210f565b73ffffffffffffffffffffffffffffffffffffffff80851660009081526005602052604080822093909355908416815220546116d2908290612122565b73ffffffffffffffffffffffffffffffffffffffff80841660009081526005602090815260408083209490945591861681526008909152205460ff16156117255780600354611721919061210f565b6003555b73ffffffffffffffffffffffffffffffffffffffff821660009081526008602052604090205460ff161561176557806003546117619190612122565b6003555b8173ffffffffffffffffffffffffffffffffffffffff168373ffffffffffffffffffffffffffffffffffffffff167fddf252ad1be2c89b69c2b068fc378daa952ba7f163c4a11628f55a4df523b3ef8360405161145591815260200190565b60005b600754811015610831576000600782815481106117e6576117e6612060565b6000918252602090912001546040517f5fd6196500000000000000000000000000000000000000000000000000000000815273ffffffffffffffffffffffffffffffffffffffff858116600483015290911691508190635fd6196590602401600060405180830381600087803b15801561185f57600080fd5b505af1158015611873573d6000803e3d6000fd5b50505050508080611883906120d7565b9150506117c7565b60006118ed826040518060400160405280602081526020017f5361666545524332303a206c6f772d6c6576656c2063616c6c206661696c65648152508573ffffffffffffffffffffffffffffffffffffffff166119979092919063ffffffff16565b8051909150156105db578080602001905181019061190b919061229d565b6105db576040517f08c379a000000000000000000000000000000000000000000000000000000000815260206004820152602a60248201527f5361666545524332303a204552433230206f7065726174696f6e20646964206e60448201527f6f7420737563636565640000000000000000000000000000000000000000000060648201526084016105b1565b60606119a684846000856119ae565b949350505050565b606082471015611a40576040517f08c379a000000000000000000000000000000000000000000000000000000000815260206004820152602660248201527f416464726573733a20696e73756666696369656e742062616c616e636520666f60448201527f722063616c6c000000000000000000000000000000000000000000000000000060648201526084016105b1565b843b611aa8576040517f08c379a000000000000000000000000000000000000000000000000000000000815260206004820152601d60248201527f416464726573733a2063616c6c20746f206e6f6e2d636f6e747261637400000060448201526064016105b1565b6000808673ffffffffffffffffffffffffffffffffffffffff168587604051611ad191906122ba565b60006040518083038185875af1925050503d8060008114611b0e576040519150601f19603f3d011682016040523d82523d6000602084013e611b13565b606091505b5091509150611b23828286611b2e565b979650505050505050565b60608315611b3d575081610891565b825115611b4d5782518084602001fd5b816040517f08c379a00000000000000000000000000000000000000000000000000000000081526004016105b19190611ca9565b828054828255906000526020600020908101928215611bfb579160200282015b82811115611bfb57825182547fffffffffffffffffffffffff00000000000000000000000000000000000000001673ffffffffffffffffffffffffffffffffffffffff909116178255602090920191600190910190611ba1565b50611c07929150611c0b565b5090565b5b80821115611c075760008155600101611c0c565b803573ffffffffffffffffffffffffffffffffffffffff81168114611c4457600080fd5b919050565b600080600060608486031215611c5e57600080fd5b611c6784611c20565b9250611c7560208501611c20565b9150604084013590509250925092565b60005b83811015611ca0578181015183820152602001611c88565b50506000910152565b6020815260008251806020840152611cc8816040850160208701611c85565b601f017fffffffffffffffffffffffffffffffffffffffffffffffffffffffffffffffe0169190910160400192915050565b60008060408385031215611d0d57600080fd5b611d1683611c20565b946020939093013593505050565b600060208284031215611d3657600080fd5b61089182611c20565b7f4e487b7100000000000000000000000000000000000000000000000000000000600052604160045260246000fd5b604051601f82017fffffffffffffffffffffffffffffffffffffffffffffffffffffffffffffffe016810167ffffffffffffffff81118282101715611db557611db5611d3f565b604052919050565b60006020808385031215611dd057600080fd5b823567ffffffffffffffff80821115611de857600080fd5b818501915085601f830112611dfc57600080fd5b813581811115611e0e57611e0e611d3f565b8060051b9150611e1f848301611d6e565b8181529183018401918481019088841115611e3957600080fd5b938501935b83851015611e5e57611e4f85611c20565b82529385019390850190611e3e565b98975050505050505050565b8015158114611e7857600080fd5b50565b600060208284031215611e8d57600080fd5b813561089181611e6a565b600060208284031215611eaa57600080fd5b5035919050565b60008060408385031215611ec457600080fd5b611ecd83611c20565b9150611edb60208401611c20565b90509250929050565b600082601f830112611ef557600080fd5b813567ffffffffffffffff811115611f0f57611f0f611d3f565b611f4060207fffffffffffffffffffffffffffffffffffffffffffffffffffffffffffffffe0601f84011601611d6e565b818152846020838601011115611f5557600080fd5b816020850160208301376000918101602001919091529392505050565b60008060408385031215611f8557600080fd5b823567ffffffffffffffff80821115611f9d57600080fd5b611fa986838701611ee4565b93506020850135915080821115611fbf57600080fd5b50611fcc85828601611ee4565b9150509250929050565b60008060408385031215611fe957600080fd5b611ff283611c20565b9150602083013561200281611e6a565b809150509250929050565b600181811c9082168061202157607f821691505b60208210810361205a577f4e487b7100000000000000000000000000000000000000000000000000000000600052602260045260246000fd5b50919050565b7f4e487b7100000000000000000000000000000000000000000000000000000000600052603260045260246000fd5b6000602082840312156120a157600080fd5b5051919050565b7f4e487b7100000000000000000000000000000000000000000000000000000000600052601160045260246000fd5b60007fffffffffffffffffffffffffffffffffffffffffffffffffffffffffffffffff8203612108576121086120a8565b5060010190565b8181038181111561067f5761067f6120a8565b8082018082111561067f5761067f6120a8565b601f8211156105db57600081815260208120601f850160051c8101602086101561215c5750805b601f850160051c820191505b8181101561217b57828155600101612168565b505050505050565b815167ffffffffffffffff81111561219d5761219d611d3f565b6121b1816121ab845461200d565b84612135565b602080601f83116001811461220457600084156121ce5750858301515b7fffffffffffffffffffffffffffffffffffffffffffffffffffffffffffffffff600386901b1c1916600185901b17855561217b565b6000858152602081207fffffffffffffffffffffffffffffffffffffffffffffffffffffffffffffffe08616915b8281101561225157888601518255948401946001909101908401612232565b508582101561228d57878501517fffffffffffffffffffffffffffffffffffffffffffffffffffffffffffffffff600388901b60f8161c191681555b5050505050600190811b01905550565b6000602082840312156122af57600080fd5b815161089181611e6a565b600082516122cc818460208701611c85565b919091019291505056fea2646970667358221220c721c71b6e0c0a29ff024fab33e7dd7ab7e8623c2371c2f26166eadfcee88ba664736f6c63430008140033",
  "linkReferences": {},
  "deployedLinkReferences": {}
}